:020000040810E2
:1000000078060010390310087907100875071008E2
:1000100077071008F3031008A1071008000000007C
:100020000000000000000000000000007D07100834
:10003000F5031008000000007B0710087F07100878
:1000400053031008530310085303100853031008F8
:1000500053031008530310085303100853031008E8
:1000600053031008530310085303100853031008D8
:1000700053031008530310085303100853031008C8
:1000800053031008530310085303100853031008B8
:1000900053031008530310085303100853031008A8
:1000A0005303100853031008530310085303100898
:1000B0005303100853031008530310085303100888
:1000C0005303100853031008530310085303100878
:1000D0005303100853031008530310085303100868
:1000E00053031008530310080000000053031008C6
:1000F0005303100853031008530310085303100848
:100100005303100853031008530310085303100837
:100110005303100853031008530310085303100827
:100120005303100853031008530310085303100817
:100130005303100853031008530310085303100807
:1001400053031008530310080000000000000000D3
:1001500053031008530310085303100853031008E7
:1001600053031008530310085303100853031008D7
:1001700053031008530310085303100853031008C7
:1001800053031008530310085303100853031008B7
:1001900053031008530310085303100853031008A7
:1001A0005303100853031008530310085303100897
:1001B0005303100853031008530310085303100887
:1001C0005303100853031008530310085303100877
:1001D0005303100853031008530310085303100867
:1001E0005303100853031008530310085303100857
:1001F0005303100853031008530310085303100847
:100200005303100853031008530310085303100836
:100210005303100853031008530310085303100826
:100220005303100853031008530310085303100816
:100230005303100853031008530310085303100806
:1002400053031008530310085303100853031008F6
:1002500053031008530310085303100853031008E6
:1002600053031008530310085303100853031008D6
:1002700053031008530310085303100853031008C6
:100280005303100853031008530310080000000024
:10029000530310085303100800F002F800F03CF874
:1002A0000AA090E8000C82448344AAF10107DA45D1
:1002B00001D100F031F8AFF2090EBAE80F0013F0E7
:1002C000010F18BFFB1A43F0010318476C0500002B
:1002D0008C050000103A24BF78C878C1FAD85207BC
:1002E00024BF30C830C144BF04680C6070470000B0
:1002F0000023002400250026103A28BF78C1FBD82F
:10030000520728BF30C148BF0B6070471FB500F0CF
:1003100085FA1FBD10B510BD00F031F81146FFF78A
:10032000F5FF00F04FFA00F04FF803B4FFF7F2FFCB
:1003300003BC00F057F8000009488047094800470F
:10034000FEE7FEE7FEE7FEE7FEE7FEE7FEE7FEE785
:10035000FEE7FEE704480549054A064B70470000E2
:100360008507100899021008780000107806001020
:100370007802001078020010704770477047754689
:1003800000F02CF8AE4605006946534620F0070001
:10039000854618B020B5FFF7DDFFBDE820404FF0DF
:1003A00000064FF000074FF000084FF0000B21F05F
:1003B0000701AC46ACE8C009ACE8C009ACE8C0092C
:1003C000ACE8C0098D46704710B50446AFF3008015
:1003D0002046BDE81040FFF7A8BF00000048704766
:1003E0001400001001491820ABBEFEE726000200F1
:1003F0007047FEE77047000004480068C0F3031030
:10040000072801D0012070470320704700ED00E06D
:1004100002490A6802430A607047000010650258EA
:100420000248816802781144816070470000001022
:100430001C4808B5016841F480410160006800F47F
:100440008040009018480168184A114041F4014169
:100450000160016841F001010160032000F07CF8B7
:1004600000F0DCF80F49C0390A680968C2F30323B9
:100470000F4AD35C03F01F03D84001F00F01515C19
:1004800001F01F01C8400B4908600B4908600F20AC
:1004900000F014F808B1012008BD00F02FF800208A
:1004A00008BD0000D844025800440240FF00F0FF9D
:1004B00026081008100000100C00001070B50D4D3B
:1004C00004462878A0B14FF47A71B1FBF0F00A49E4
:1004D0000968B1FBF0F000F039F948B9102C07D2E7
:1004E00000222146501E00F017F800206C6070BDFD
:1004F000012070BD000000100C000010054808B578
:10050000016841F002010160006800F00200009003
:1005100008BD0000F4440258F0B40E4B1B680C46B2
:10052000C3F30223C3F10705042D00D90425191DC7
:10053000072901D2002300E0DB1E012606FA05F19F
:10054000491E214099409E40761E16403143F0BC22
:1005500000F027B90CED00E0064900F0070208683A
:100560004FF6FF03184040EA0220034A1043086098
:10057000704700000CED00E00000FA0510B5FFF731
:100580003BFF032800D040BF20BF10BD2DE9F04144
:100590000F4620490B6823F0010303430B601D4DF8
:1005A0001D4C103562B12E1D012A17D0FFF724FF14
:1005B000032829D0306820F004003060BDE8F081C5
:1005C000FFF71AFF0328F9D1286820F001002860FE
:1005D0000CE0206820F004002060EFE7FFF70CFF3C
:1005E0000128EBD1306820F002003060206840F034
:1005F00004002060BFF34F8FBFF36F8F012F01D036
:1006000020BFE6E730BFE4E7286820F00400286058
:10061000D4E700000048025810ED00E030B5434830
:100620000068444B10F03802414808D00111082AF4
:1006300003D0102A0BD0182A0BD0084630BD1968F9
:100640008906FBD51968C1F3C101C84030BD3A48DD
:1006500030BD364918310A68096802F00304334A8C
:10066000C1F305111C321268304D02F0010224352D
:100670002D68C5F3CC0515FB02F200EE102AB8EE8A
:10068000400AE9B3294A9FED2D1AF7EE000A2032FD
:1006900064B1DFED2B1A012C01D0022C3CD002EE0C
:1006A000101AF8EE422A81EEA22A17E01C68A4066E
:1006B0000CD51B68C3F3C103D84001EE900AF8EED5
:1006C000612A01EE901AF8EE611A05E001EE901A27
:1006D000DFED1C2AF8EE611A82EEA12A1068C0F341
:1006E000080001EE900A1068F8EE611A40EE011A57
:1006F00031EEA00A22EE000AC0F34620401C00E0C2
:1007000011E000EE900AF8EE600A80EE201ABCEECE
:10071000C10A10EE100A30BD01EE901ADFED0A2A70
:10072000F8EE611AD8E7002030BD000010440258EE
:100730000090D0030044025840787D010000003949
:100740000024744A0024744C20BCBE4B10B5401EDB
:10075000B0F1807F01D3012010BD4FF0E024606133
:100760000F21601700F01DF80020A0610720206114
:10077000002010BDFEE7FEE7FEE770477047FFF779
:100780004FBE00000548016841F470010160034854
:100790007838016841F010010160704788ED00E091
:1007A000FEE70907090E002804DB00F1E02080F8CD
:1007B0000014704700F00F0000F1E02080F8141DD5
:1007C00070470000124808B5016841F000710160EF
:1007D000006800F0007000900120FFF719FEFFF79D
:1007E000CDFE012202210020FFF7D0FE094800685B
:1007F000C0F30310072807D00748016841F0010142
:100800000160FFF715FEFEE703481038F5E700002A
:10081000E044025800ED00E0146502584FF04070CB
:10082000E1EE100A7047000000000102030401021B
:10083000030406070809000058081008000000100B
:1008400014000000D40210086C08100814000010F6
:1008500064060000F0021008010000001000000013
:0C086000000000000090D0030090D003C6
:040000050810029944
:00000001FF
