:020000040800F2
:10000000700D0124B1020008213A00083F310008B8
:100010001D3A0008D7040008E13F00080000000076
:10002000000000000000000000000000833D000808
:10003000DB04000800000000253A0008853D0008A8
:10004000CB020008CB020008CB020008CB0200085C
:10005000CB020008CB020008CB020008CB0200084C
:10006000CB020008CB020008CB020008CB0200083C
:10007000CB020008CB020008CB020008CB0200082C
:10008000CB020008CB020008CB020008CB0200081C
:10009000CB020008CB020008CB020008CB0200080C
:1000A000CB020008CB020008CB020008CB020008FC
:1000B000CB020008CB020008CB020008CB020008EC
:1000C000CB020008CB020008CB020008CB020008DC
:1000D000CB020008CB020008CB020008CB020008CC
:1000E000CB020008CB02000800000000CB02000891
:1000F000CB020008CB020008CB020008CB020008AC
:10010000CB020008CB020008CB020008CB0200089B
:10011000CB020008CB020008CB020008CB0200088B
:10012000CB020008CB020008CB020008CB0200087B
:10013000CB020008CB020008CB020008CB0200086B
:10014000CB020008CB020008000000000000000005
:10015000CB020008CB020008CB020008CB0200084B
:10016000CB020008CB020008CB020008CB0200083B
:10017000CB020008CB020008CB020008CB0200082B
:10018000CB020008CB020008CB020008CB0200081B
:10019000CB020008CB020008CB020008CB0200080B
:1001A00089340008CB020008CB020008CB0200080B
:1001B000CB020008CB020008CB020008CB020008EB
:1001C000CB020008CB020008CB020008CB020008DB
:1001D000CB020008CB020008CB020008CB020008CB
:1001E000CB020008CB020008CB020008CB020008BB
:1001F000CB020008CB020008CB020008CB020008AB
:10020000CB020008CB020008CB020008CB0200089A
:10021000CB020008CB020008CB020008CB0200088A
:10022000CB020008CB020008CB020008CB0200087A
:10023000CB020008CB020008CB020008CB0200086A
:10024000CB020008CB020008CB020008CB0200085A
:10025000CB020008CB020008CB020008CB0200084A
:10026000CB020008CB020008CB020008CB0200083A
:10027000CB020008CB020008CB020008CB0200082A
:10028000CB020008CB020008CB02000800000000EF
:10029000CB020008CB020008DFF810D000F0DEF837
:1002A00000480047D98F0208AFF30080700D012489
:1002B0000648804706480047FEE7FEE7FEE7FEE700
:1002C000FEE7FEE7FEE7FEE7FEE7FEE7C13E0008C9
:1002D000990200082DE9F05F0546002092469B46F2
:1002E00088460646814640241BE02846414647464C
:1002F000224600F0A2F853465A46C01A914110D344
:1003000011461846224600F089F82D1A67EB0108BD
:100310004F4622460120002100F080F817EB00092B
:100320004E41201EA4F10104DFDC484631462A4636
:100330004346BDE8F09F2DE9F0410024061B254609
:1003400071F1000605DA01240027D0EB070067EB06
:100350000101161E73F1000605DA0027D2EB070231
:10036000012567EB0303FFF7B5FF86460E461746E8
:100370009C46AC4204D00025D0EB050E65EB01068F
:1003800024B10020D2EB000760EB030C704631462D
:100390003A466346BDE8F08140EA01039B0703D07B
:1003A00009E008C9121F08C0042AFAD203E011F8B4
:1003B000013B00F8013B521EF9D27047D2B201E076
:1003C00000F8012B491EFBD270470022F6E710B55A
:1003D00013460A4604461946FFF7F0FF204610BDB3
:1003E000421C10F8011B0029FBD1801A704710B580
:1003F000002200E0521C835C8C5CA34201D1002BE4
:10040000F8D1D8B2E1B2401A10BD034611F8012B61
:1004100000F8012B002AF9D118467047202A04DB86
:10042000203A00FA02F1002070479140C2F1200307
:1004300020FA03F3194390407047202A04DB203A46
:1004400021FA02F00021704721FA02F3D040C2F1F4
:10045000200291400843194670470000064C074DA2
:1004600006E0E06840F0010394E807009847103484
:10047000AC42F6D3FFF714FF9C150708BC1507081C
:1004800070B58C1810F8015B15F0070301D110F856
:10049000013B2A1106D110F8012B03E010F8016B83
:1004A00001F8016B5B1EF9D12B0705D40023521E06
:1004B0000DD401F8013BFAE710F8013BCB1A921C6E
:1004C00003E013F8015B01F8015B521EF9D5A1426C
:1004D000D8D3002070BD00BFFEE7704772B600BFE2
:1004E000FEE702460868B0B9D1E901031843CB68BA
:1004F00018430B6918434B6918438B691843CB6940
:1005000018430B6A18434B6A184313686FF30E03C2
:100510001843106019E0D1E9070318434B6A1843E8
:10052000136823F4F84318431060D1E9010318431A
:10053000CB6818430B6918434B6918438B69184300
:1005400053686FF30E031843506000207047024653
:10055000506943F6FE73984340EA41005061002021
:10056000704710B50346D1E9000420438C68641E2F
:1005700040EA4410CC6840EA44201C696FF315043B
:1005800020431861002010BD30B50346FAB9086851
:10059000401E4C68641E40EA04148868401E44EA09
:1005A0000024C868401E44EA0034088A401E44EA19
:1005B0000044888A401E44EA0054087E401E44EAF3
:1005C00000609C6804F070442043986022E0C86892
:1005D000401E0403888A401E44EA00509C680E4D69
:1005E0002C40204398600868401E4C68641E40EA16
:1005F00004148868401E44EA0024088A401E44EA25
:100600000044087E401E44EA0060DC6804F0704448
:100610002043D860002030BDFF0F0FFF70B50446A7
:1006200000F0C2F906462546681C10B1044800785F
:10063000054400BF00F0B8F9801BA842FAD370BD92
:100640001000002400B5B9B0142134A8FFF7BDFE96
:100650004748006808B139B000BD0120444908602E
:10066000C82102A8FFF7B1FE4FF080710020CDE94C
:100670000210149002A800F029FF08B1FFF72EFF26
:1006800000BF3C48006840F480503A490860084682
:10069000006800F48050019000BF00BF40F2FF608E
:1006A00034900220359000203690032037900C20A3
:1006B000389034A9304800F06DF84FF683703490CC
:1006C0000220359000203690032037900C2038907F
:1006D00034A92A4800F05EF84FF47F40349002209D
:1006E000359000203690032037900C20389034A9A4
:1006F000234800F04FF848F2331034900220359030
:1007000000203690032037900C20389034A91D48E3
:1007100000F040F84CF20370349002203590002035
:100720003690032037900C20389034A9164800F0FA
:1007300031F84FF63F00349002203590002036907B
:10074000032037900C20389034A9104800F022F88C
:100750000D203490022035900020369003203790F1
:100760000C20389034A90A4800F014F800BF72E752
:1007700000000024D44402580020025800100258FF
:10078000001C025800180258000C025800140258AD
:1007900000080258F8B502460B4600216F4DD7E01D
:1007A00001278F401E6806EA0704002C72D01E79CC
:1007B00006F00306012E04D01E7906F00306022E71
:1007C00013D190684F000326BE40B0434F00DE684F
:1007D000BE4030439060506801268E40B0431E7981
:1007E000C6F300168E40304350601E7906F00306B3
:1007F000032E09D0D0684F000326BE40B0434F00FF
:100800009E68BE403043D0601E7906F00306022E7B
:1008100013D1CF0802F1200656F827004E07F70E35
:100820000F26BE40B0434F07FF0E1E69BE40304347
:10083000CF0802F1200646F8270010684F00032673
:10084000BE40B0431E7906F003064F00BE40304361
:1008500010605E6806F44036002E78D000BF404E2F
:10086000366846F002063E4F3E603E46366806F069
:100870000206009600BF00BF3A4E8F0856F82700C8
:100880008E07370F0F26BE40B043374EB24202D11B
:1008900000262EE05BE0354EB24201D1012628E071
:1008A000334EB24201D1022623E0324EB24201D190
:1008B00003261EE0304EB24201D1042619E02F4E2D
:1008C000B24201D1052614E02D4EB24201D10626D6
:1008D0000FE02C4EB24201D107260AE02A4EB24266
:1008E00001D1082605E0294EB24201D1092600E0D7
:1008F0000A268F073F0FBE4030431A4E8F0846F836
:1009000027004FF0B0463068A0435E6806F48016BA
:1009100006B120434FF0B04630607068A0435E6877
:1009200006F4001606B120434FF0B04670606868C8
:10093000A0435E6806F4003606B12043686028686C
:10094000A0435E6806F4803606B120432860491C47
:100950001E68CE40002E7FF423AFF8BD8000005803
:10096000F4440258080400580000025800040258D9
:1009700000080258000C02580010025800140258D7
:1009800000180258001C0258002002580024025887
:100990000AB1816101E00B0483617047014800687E
:1009A000000C70470010005C0148006870470000B0
:1009B00008000024024692F8410020282DD100BFF3
:1009C00092F84000012801D102207047012082F8EE
:1009D000400000BF242082F841001068006820F029
:1009E0000100136818601068006820F480501368D4
:1009F0001860106800680843136818601068006881
:100A000040F0010013681860202082F8410000BF08
:100A1000002082F8400000BFD7E70220D5E710B5DC
:100A200002460B4692F8410020282AD100BF92F8D6
:100A30004000012801D1022010BD012082F84000B1
:100A400000BF242082F841001068006820F00100F7
:100A5000146820601068016821F4706141EA032184
:100A6000106801601068006840F0010014682060A0
:100A7000202082F8410000BF002082F8400000BF23
:100A8000DAE70220D8E7000010B504460CB90120CF
:100A900010BD94F8410028B9002084F84000204699
:100AA00000F020F9242084F841002068006820F03C
:100AB000010021680860606820F0706021680861AA
:100AC0002068806820F4004021688860E068012880
:100AD00005D1A06840F400402168886004E0A06867
:100AE00040F4044021688860E068022802D1800256
:100AF00021684860206840681349084321684860BD
:100B00002068C06820F400402168C860D4E904016E
:100B10000843A16940EA01202168C860D4E90701BF
:100B20000843216808602068006840F001002168DF
:100B3000086000206064202084F8410000202063C9
:100B400084F8420000BFA3E7008000022DE9FC5FAB
:100B50000446894692469B46DDE90C780E9E94F841
:100B6000410020287DD117B1B8F1000F05D14FF415
:100B7000007060640120BDE8FC9F00BF94F8400055
:100B8000012801D10220F6E7012084F8400000BFCF
:100B9000FFF70AFF054619230122D10320460095DD
:100BA00002F0D6FB08B10120E5E7212084F84100DE
:100BB000402084F84200002060646762A4F82A8024
:100BC00060635B46524649462046CDE9006502F027
:100BD00065FB30B100BF002084F8400000BF012059
:100BE000C9E7608DFF280CD9FF20208500200090E8
:100BF00094F828204FF080734946204602F08CFB81
:100C00000BE0608D20850020009094F828204FF0A4
:100C100000734946204602F07FFB00BF2A4631465A
:100C2000204602F0FEFB08B10120A4E7606A0078CC
:100C300021688862606A401C6062608D401E608529
:100C4000208D401E2085608D40B3208D30BB334603
:100C5000002280212046009502F07AFB10B101208D
:100C600089E73AE0608DFF280CD9FF20208500201D
:100C7000009094F828204FF080734946204602F0F7
:100C80004BFB0BE0608D20850020009094F828201D
:100C90004FF000734946204602F03EFB608D00286D
:100CA000BCD12A463146204602F08BFB08B1012018
:100CB00061E720202168C861206840680849084031
:100CC00021684860202084F84100002084F8420018
:100CD00000BF84F8400000BF4DE702204BE7000052
:100CE00000E800FE10B5BAB00446142134A8FFF79E
:100CF0006CFBC82102A8FFF768FB1E4920688842E8
:100D000036D108210020CDE90210249002A800F07D
:100D1000DDFB08B1FFF7E2FB00BF1748006840F0B9
:100D20008000154908600846006800F080000190C6
:100D300000BF00BF30203490122035900120369043
:100D4000002037900420389034A90C48FFF722FD8A
:100D500000BF09480830006840F4800006490831A7
:100D600008600846006800F48000019000BF00BFE2
:100D70003AB010BD00580040E0440258001C025830
:100D8000034800680349097808440149086070472E
:100D9000080000241000002410B5032000F038FBE8
:100DA00001F002FC10490968C1F303210F4A515CAC
:100DB00001F01F0120FA01F40B48006800F00F0059
:100DC0001146085C00F01F0024FA00F00849086092
:100DD000084804600F2000F00FF808B1012010BD92
:100DE00000F0B2FA0020FAE71844025894520308BF
:100DF000180000241400002470B50446114800783F
:100E000008B9012070BD0F4800784FF47A71B1FB2A
:100E1000F0F00D490968B1FBF0F5284602F075F9CC
:100E200008B10120EEE7102C07D200222146501E07
:100E300000F0B0FA0548046001E00120E2E700207C
:100E4000E0E7000010000024140000240C0000243F
:100E500070B504460E46154600BF94F8A000012860
:100E600001D1022070BD012084F8A00000BF022043
:100E700084F8A10005EB850101EBC50204F13801FE
:100E800001EB820034223146FFF786FA2A463146CA
:100E9000204602F001FB01202168486284F8A1008D
:100EA00000BF002084F8A00000BF00BFDAE7704751
:100EB00070B504462068856B2068466B05F0040019
:100EC000E0B106F00400C8B12068406B20F00400D7
:100ED0002168486304202168C863D4F8A40040F066
:100EE0000100C4F8A400042084F8A10000BF002081
:100EF00084F8A00000BF2046FFF7D9FF05F00200EC
:100F0000E0B106F00200C8B12068406B20F002009A
:100F10002168486302202168C863D4F8A40040F027
:100F20000200C4F8A400042084F8A10000BF00203F
:100F300084F8A00000BF2046FFF7B9FF05F00100CC
:100F4000A8B106F0010090B12068406B20F00100CC
:100F50002168486301202168C86384F8A10000BFAC
:100F6000002084F8A00000BF204600F0A7F805F09C
:100F70000800B0B106F0080098B12068406B20F07E
:100F800008002168486308202168C863012084F8AC
:100F9000A10000BF002084F8A00000BF204600F0A0
:100FA000D1F970BD70B504460CB9012070BD94F83C
:100FB000A10028B9002084F8A000204600F080F8A5
:100FC000022084F8A1002068806920F07040216828
:100FD0008861D4E901010843E168084321690843B5
:100FE00021688969084321688861206880683249DE
:100FF000084021688860A08A050420688068A1698B
:1010000029430843216888602068C0682A4908404D
:101010002168C860A08B05042068C068216A294344
:1010200008432168C8602068006923490840216896
:101030000861A08C050420680069A16A294308435F
:1010400021680861206840691B490840216848619F
:10105000A08D050420684069216B2943084321685D
:10106000486194F83500050294F8360006042068BB
:10107000C06A00F07F402168C86246EA050094F823
:10108000341008432168C96A08432168C86220688F
:10109000406B40F00600216848632068806940F09A
:1010A0000100216888610020C4F8A400012084F8B0
:1010B000A10000207AE7000000F800F0704700006F
:1010C00010B5BAB00446142134A8FFF77EF9C82140
:1010D00002A8FFF77AF99249206888427ED141043C
:1010E0000020CDE9021019200C90A0210D910221C1
:1010F0000E910F9104211091002111914FF4007174
:1011000012910021139102A800F0E0F908B1FFF755
:10111000E5F900BF8348006840F008008149086095
:101120000846006800F00800019000BF00BF00BF43
:10113000081F006840F48060091F086008460068C6
:1011400000F48060019000BF00BF00BF0846006847
:1011500040F0400008600846006800F04000019040
:1011600000BF00BF00BF0846006840F40070086080
:101170000846006800F40070019000BF00BF00BF87
:101180000846006840F0080008600846006800F063
:101190000800019000BF00BF00BF0846006840F093
:1011A000010008600846006800F00100019000BFDF
:1011B00000BF00BF0846006840F480700860084621
:1011C000006800F48070019000BF00BF00BF0846B7
:1011D000006840F004000860084600E09EE00068F7
:1011E00000F00400019000BF00BFF92034900220FD
:1011F000359000203690032037900E20389034A987
:101200004948FFF7C7FA4FF48060349002203590C8
:1012100000203690032037900920389034A94348A5
:10122000FFF7B8FA48F614203490022035900020D9
:101230003690032037900E20389034A93C48FFF7B1
:10124000A9FA08203490022035900020369003201F
:1012500037900E20389034A93648FFF79BFA4FF4A8
:101260009070349002203590002036900320379003
:101270000E20389034A93048FFF78CFA4FF4006004
:1012800034900220359000203690032037900920BA
:10129000389034A92948FFF77DFA40203490022085
:1012A000359000203690032037900E20389034A9D6
:1012B0002348FFF76FFA80203490022035900020F9
:1012C0003690032037900E20389034A91748FFF746
:1012D00061FA4FF40050349002203590002036908F
:1012E000032037900E20389034A91448FFF752FAA3
:1012F0000120349002203590002036900320379052
:101300000920389034A90A48FFF744FA0022114610
:10131000582000F03FF8582000F028F83AB010BDEF
:1013200000100050E44402580028025800180258E7
:1013300000240258000C02580000025800200258F5
:10134000000802587047000008B500BF0648006852
:1013500040F00200044908600846006800F00200FE
:10136000009000BF00BF08BDF44402580146084683
:1013700000280DDB00BF00BF00F01F0301229A40D0
:1013800043099B0003F1E023C3F8002100BF00BF25
:1013900000BF70472DE9F05F80460D46164602F00B
:1013A00021FE074639462A46334601F00700C0F1C0
:1013B000070ABAF1040F02D94FF0040A01E0C0F1A4
:1013C000070AD14600F1040ABAF1070F02D24FF022
:1013D000000A01E0A0F1030AD4464FF0010A0AFA1C
:1013E00009FAAAF1010A0AEA020A0AFA0CFA4FF00B
:1013F000010B0BFA0CFBABF1010B0BEA030B4AEAF6
:101400000B042146404602F0F5FDBDE8F09F0000C8
:1014100000BF00F00702064B19684FF6FF031940A2
:10142000044B0B4343EA0221014B196000BF704794
:101430000CED00E00000FA0570B504462248006893
:1014400000F00700062809D01F48006800F03F00A0
:10145000A04201D0012070BD0020FCE71A480068BE
:1014600020F03F00204318490860FFF79DFA054629
:1014700007E0FFF799FA401BB0F57A7F01D9012008
:10148000E9E7114808380068C0F340300028F0D080
:101490001E2C05D02E2C03D01D2C01D02D2C11D1AB
:1014A000FFF782FA054607E0FFF77EFA401BB0F52A
:1014B0007A7F01D90120CEE703480068C0F30040DD
:1014C0000028F1D00020C6E70C4802582DE9F04171
:1014D00004460025A8464FF00062D4E90001104000
:1014E0000021134658404940084331D1E06E48B1CD
:1014F000B0F5801F0DD0B0F5001F11D0B0F5401F22
:1015000016D114E0FB48006840F40030F949086047
:1015100010E0022104F1080002F086FA054609E015
:10152000022104F1280002F031FB054602E001E04F
:10153000012500BF00BF55B9EE482430006820F4F3
:101540004010E16E0843EB492431086000E0A846F2
:101550004FF48072D4E90001104000211346584036
:10156000494008432ED1E06D05281BD2DFE800F08A
:10157000030A11181900DF48006840F40030DD4903
:10158000086011E0002104F1080002F04DFA054660
:101590000AE0002104F1280002F0F8FA054603E011
:1015A00002E001E0012500BF00BF55B9D148243059
:1015B000006820F00700E16D0843CE49243108603F
:1015C00000E0A8464FF40072D4E900011040002169
:1015D000134658404940084334D1206E802818D023
:1015E00003DC40B140281DD10CE0C02818D0B0F574
:1015F000807F17D115E0BF48006840F40030BD4936
:10160000086011E0002104F1080002F00DFA05461F
:101610000AE0002104F1280002F0B8FA054603E0D0
:1016200002E001E0012500BF00BF55B9B1482430F8
:10163000006820F4E070216E0843AE492431086050
:1016400000E0A8464FF48062D4E900101140002069
:10165000134659404040014339D1D4F8AC00B0F5AD
:10166000800F1AD004DC50B1B0F5001F1ED10DE080
:10167000B0F5C00F18D0B0F5000F17D115E09D4898
:10168000006840F400309B49086011E0002104F13B
:10169000080002F0C9F905460AE0002104F128001B
:1016A00002F074FA054603E002E001E0012500BF04
:1016B00000BF5DB98F482C30006820F46000D4F87A
:1016C000AC1008438B492C31086000E0A8464FF469
:1016D0000063D4E900101940002059404040014304
:1016E00039D1D4F8B000B0F1007F1AD004DC50B189
:1016F000B0F1807F1ED10DE0B0F1407F18D0B0F185
:10170000806F17D115E07B48006840F400307949BC
:10171000086011E0002104F1080002F085F9054697
:101720000AE0002104F1280002F030FA054603E047
:1017300002E001E0012500BF00BF5DB96D482C301B
:10174000006820F0E060D4F8B010084369492C31FB
:10175000086000E0A8464FF00072D4E90001104094
:101760000021134658404940084328D1E06CA8B1F5
:10177000102804D0202809D0302810D10DE05D4871
:10178000006840F400305B4908600AE0022104F17F
:10179000080002F049F9054603E002E001E00125F6
:1017A00000BF00BF55B953482030006820F030001A
:1017B000E16C08434F492031086000E0A8464FF42F
:1017C0008053D4E9001019400020594040400143A3
:1017D00037D1606EB0F5005F1AD004DC50B1B0F5BF
:1017E000805F1ED10DE0B0F5405F18D0B0F5804F9E
:1017F00017D115E03F48006840F400303D490860CB
:1018000011E0002104F1080002F00EF905460AE09B
:10181000002104F1280002F0B9F9054603E002E0D6
:1018200001E0012500BF00BF55B9324824300068EF
:1018300020F4E040616E08432E492431086000E046
:10184000A8464FF40053D4E9001019400020594035
:101850004040014335D1A06EB0F5403F1ED007DCBB
:1018600068B1B0F5803F0BD0B0F5003F19D10EE064
:10187000B0F5802F13D0B0F5A02F12D110E012E0F8
:10188000012104F1080002F0CFF805460BE0012128
:1018900004F1280002F07AF9054604E003E002E0D2
:1018A00001E0012500BF00BF55B91248243000688F
:1018B00020F4E020A16E08430E492431086000E0C6
:1018C000A8464FF48043D4E9001019400020594045
:1018D0004040014338D1D4F8B400B0F1405F21D08A
:1018E0000ADC80B1B0F1805F0ED0B0F1005F1CD196
:1018F00011E000002C440258B0F1804F13D0B0F139
:10190000A04F12D110E012E0012104F1080002F012
:101910008BF805460BE0012104F1280002F036F9AE
:10192000054604E003E002E001E0012500BF00BF3E
:101930004DB9F748006820F0E040D4F8B4100843EF
:10194000F349086000E0A8464FF08063D4E9001036
:10195000194000205940404001431CD1206D48B13E
:10196000B0F5807F07D1012104F1080002F05CF896
:10197000054602E001E0012500BF00BF55B9E4487B
:101980000C38006820F48070216D0843E0490C3960
:10199000086000E0A8464FF40043D4E90001184075
:1019A000002158404940084329D1606FB0B1B0F1DF
:1019B000805F03D0B0F1005F11D108E0D4482C382B
:1019C000006840F40030D2492C39086009E0012158
:1019D00004F1080002F028F8054602E001E00125C4
:1019E00000BF00BF55B9CA480838006820F0405011
:1019F000616F0843C6490839086000E0A8464FF007
:101A00008072D4E900101140002013465940404034
:101A100001432AD1A06CB8B1012804D002280BD010
:101A2000032812D10FE0BA482C38006840F4003087
:101A3000B7492C3908600AE0022104F1080001F0DE
:101A4000F3FF054603E002E001E0012500BF00BF0F
:101A500055B9AF480C38006820F00300A16C08436A
:101A6000AB490C39086000E0A8464FF48002D4E985
:101A700000011040002113465840494008437DD1E1
:101A8000A448006840F48070A2490860FEF78CFF0B
:101A9000064606E0FEF788FF801B642801D903256F
:101AA00005E09C48006800F480700028F2D000BF78
:101AB00085BB97481830006800F44070B4F8B8103F
:101AC00001F44071884213D091481830006820F426
:101AD00040778F481830006840F480308C491831C6
:101AE00008600846006820F48030086008460760F7
:101AF000D4F8B800B0F5807F15D1FEF755FF064643
:101B000009E0FEF751FF801B41F28831884202D97B
:101B1000032507E038E07E4818300068C0F3400035
:101B20000028EED000BF55BB00BFB4F8B80000F4E9
:101B30004070B0F5407F0ED175484838006820F4F9
:101B40007C51754AD4F8B800104041EA1010704931
:101B50004839086007E06E484838006820F47C5037
:101B60006B49483908606A4818300068B4F8B81002
:101B7000C1F30B0108436649183101E005E001E0BB
:101B8000086002E0A84600E0A8460122D4E900105F
:101B900011400020134659404040014332D1D4F84F
:101BA000800018281AD005DC48B1082808D0102871
:101BB00017D10CE0202812D0282812D110E012E012
:101BC000012104F1080001F02FFF05460BE001217F
:101BD00004F1280001F0DAFF054604E003E002E02A
:101BE00001E0012500BF00BF5DB94948001F006842
:101BF00020F03800D4F8801008434549091F0860D8
:101C000000E0A8460223D4E9000118400021584012
:101C10004940084329D1E06F062816D2DFE800F0DA
:101C200003040B12131412E0012104F1080001F067
:101C3000FBFE05460BE0012104F1280001F0A6FFA0
:101C4000054604E003E002E001E0012500BF00BF1B
:101C500055B92F48001F006820F00700E16F0843C6
:101C60002B49091F086000E0A8460423D4E90001BD
:101C70001840002158404940084329D1D4F8980021
:101C8000062816D2DFE800F003040B12131412E04A
:101C9000012104F1080001F0C7FE05460BE0012117
:101CA00004F1280001F072FF054604E003E002E0C1
:101CB00001E0012500BF00BF4DB91548006820F0C4
:101CC0000700D4F8981008431149086000E0A846BE
:101CD0002023D4E90001184000215840494008431E
:101CE0003CD1D4F89400B0F1405F25D007DC68B156
:101CF000B0F1805F12D0B0F1005F20D115E0B0F1FB
:101D0000804F1AD0B0F1A04F19D117E019E00000B0
:101D10005844025800480258FFFCFF0F002104F10C
:101D2000080001F081FE05460BE0022104F12800C5
:101D300001F02CFF054604E003E002E001E001258C
:101D400000BF00BF4DB9FE48006820F0E040D4F865
:101D500094100843FA49086000E0A8464022D4E9FC
:101D6000001011400020134659404040014337D134
:101D7000D4F8A000B0F5406F1ED007DC68B1B0F514
:101D8000806F0BD0B0F5006F19D10EE0B0F5805F19
:101D900013D0B0F5A05F12D110E012E0002104F1E1
:101DA000080001F041FE05460BE0022104F1280085
:101DB00001F0ECFE054604E003E002E001E001254D
:101DC00000BF00BF5DB9DE48001D006820F4E05090
:101DD000D4F8A0100843DA49091D086000E0A846BD
:101DE0008022D4E9001011400020134659404040A1
:101DF000014337D1D4F8A400B0F5C04F1ED007DCA2
:101E000068B1B0F5005F0BD0B0F5804F19D10EE08E
:101E1000B0F5004F13D0B0F5204F12D110E012E012
:101E2000002104F1080001F0FFFD05460BE002214E
:101E300004F1280001F0AAFE054604E003E002E0F8
:101E400001E0012500BF00BF5DB9BD48001D00686D
:101E500020F46040D4F8A4100843B949091D086073
:101E600000E0A8460823D4E900101940002059409A
:101E70004040014315D1D4F88800B0F5805F07D108
:101E8000022104F1280001F081FE08B14FF00108A1
:101E9000AB48006820F44050D4F888100843A849A3
:101EA00008601022D4E90001104000211346584078
:101EB0004940084317D1D4F89C00B0F5807F07D182
:101EC000022104F1280001F061FE08B14FF0010881
:101ED0009B48001D006820F44070D4F89C10084313
:101EE0009749091D08604FF40022D4E90001104011
:101EF0000021134658404940084329D1D4F8A8008E
:101F000030B1B0F5803F0AD0B0F5003F0FD10DE001
:101F1000002104F1080001F087FD054609E00221D7
:101F200004F1280001F032FE054602E001E001253F
:101F300000BF00BF5DB98248001D006820F440303A
:101F4000D4F8A81008437E49091D086000E0A8469F
:101F50004FF48023D4E9001019400020594040403C
:101F600001432BD1D4F88C00B0F5801F06D0B0F51A
:101F7000001F0CD0B0F5401F11D10FE07048283879
:101F8000006840F400306E492839086009E00121FA
:101F900004F1280001F0FAFD054602E001E0012508
:101FA00000BF00BF4DB96648006820F44010D4F867
:101FB0008C1008436249086000E0A8464FF4803264
:101FC000D4E900011040002113465840494008431D
:101FD00025D1606D18B1B0F5803F10D108E05848A8
:101FE0002838006840F4003055492839086008E076
:101FF000022104F1080001F017FD054601E001256A
:1020000000BF00BF55B94E480838006820F4803042
:10201000616D08434A490839086000E0A8464FF05E
:102020000053D4E9000118400021584049400843BA
:1020300007D1022104F1280001F0A8FD08B14FF0FA
:1020400001084FF40032D4E900011040002113468A
:1020500058404940084327D1D4F88400A0B1B0F5D6
:10206000807F06D0B0F5007F0CD0B0F5407F0CD15A
:1020700009E033482838006840F4003030492839F6
:10208000086004E003E002E001E0012500BF00BFBA
:102090004DB92B48006820F44070D4F884100843F0
:1020A0002749086000E0A8464FF48013D4E90010E7
:1020B0001940002059404040014309D12048001FE9
:1020C000006820F00040A16F08431D49091F086007
:1020D0004FF08052D4E900101140002013465940BF
:1020E000404001430AD116484438006820F480403B
:1020F000D4F8BC1008431249443908604FF4001367
:10210000D4E900011840002158404940084309D152
:102110000B48001F006820F08070216F08430849B9
:10212000091F08604FF08043D4E9000118400021E6
:1021300058404940084312D100BF0148443801E0EB
:1021400054440258006820F400404E490860084694
:102150000068D4F8C01008434A49086000BF4FF037
:102160000042D4E900011040002113465840494084
:10217000084309D143483C30006820F04050A16D2D
:10218000084340493C3108604FF40003D4E9001093
:10219000194000205940404001430AD13948443099
:1021A000006820F44000D4F89010084335494431C9
:1021B00008600122002061681140404051400843FE
:1021C00007D1002104F1080001F02EFC054605B1FD
:1021D000A846022200206168114040405140084357
:1021E00007D1012104F1080001F01EFC054605B1EC
:1021F000A846042200216068104049405040014335
:1022000007D1022104F1080001F00EFC054605B1DA
:10221000A846082200216068104049405040014310
:1022200006D104F1280001F0B1FC054605B1A8462D
:10223000102200216068104049405040014307D1FE
:10224000012104F1280001F0A1FC054605B1A846D2
:10225000202300206168194020224040514008435B
:1022600007D1022104F1280001F090FC054605B1D8
:10227000A846B8F1000F02D10020BDE8F08101208E
:10228000FBE70000104402582DE9F04104460D46DA
:1022900014B90120BDE8F081BD48006800F00F00CE
:1022A000A8420ED2BA48006820F00F002843B8496F
:1022B00008600846006800F00F00A84201D0012025
:1022C000E8E7207800F0040004280ED1B149206925
:1022D000096801F07001884207D9AE48006820F013
:1022E000700021690843AB490860207800F00800BD
:1022F000082811D1A749091D6069096801F070011A
:10230000884209D9A348001D006820F07000616967
:102310000843A049091D0860207800F0100010282B
:1023200011D19C49091DA069096801F4E061884246
:1023300009D99848001D006820F4E060A1690843AD
:102340009449091D0860207800F02000202811D150
:1023500090490831E069096801F07001884209D9A3
:102360008C480830006820F07000E1690843894912
:1023700008310860207800F0020002280ED185495B
:10238000E068096801F00F01884207D981480068B8
:1023900020F00F00E16808437E490860207800F0D3
:1023A0000100002850D07B48006820F47060A168CC
:1023B0000843784908606068022807D175481838D2
:1023C0000068C0F34040F8B9012063E76068032863
:1023D00007D1704818380068C0F34060A0B90120E8
:1023E00058E76068012807D16A4818380068C0F3C8
:1023F000002048B901204DE7664818380068C0F34E
:10240000800008B9012045E762480838006820F0DC
:102410000700616808435F4908390860FEF7C4FA9D
:10242000064608E0FEF7C0FA801B41F28831884278
:1024300001D903202EE757480838006800F038001B
:102440006168B0EBC10FEDD1207800F002000228E6
:102450000ED15049E068096801F00F01884207D2A7
:102460004C48006820F00F00E168084349490860C3
:102470004748006800F00F00A8420ED944480068A1
:1024800020F00F002843424908600846006800F029
:102490000F00A84201D00120FCE6207800F00400E3
:1024A00004280ED13B492069096801F07001884277
:1024B00007D23848006820F0700021690843354988
:1024C0000860207800F00800082811D13149091D62
:1024D0006069096801F07001884209D22D48001D29
:1024E000006820F07000616908432A49091D0860EE
:1024F000207800F01000102811D12649091DA0698C
:10250000096801F4E061884209D22248001D006890
:1025100020F4E060A16908431E49091D0860207885
:1025200000F02000202811D11A490831E06909681B
:1025300001F07001884209D216480830006820F086
:102540007000E169084313490831086000F02CF875
:1025500010490968C1F303210F4A515C01F01F01C2
:1025600020FA01F70B48006800F00F001146085CE4
:1025700000F01F0027FA00F00849086008480760CB
:1025800008480068FEF738FC8046404682E60000B6
:1025900000200052184402589452030818000024E6
:1025A000140000240C000024F0B5824E366806F0BA
:1025B000380636B1082E15D0102E15D0182E7DD124
:1025C00014E07C4E103E3668C6F3401646B1794E94
:1025D000103E3668C6F3C107774E26FA07F000E0D2
:1025E0007548E5E07548E3E07548E1E0714E18365E
:1025F000366806F003046F4E18363668C6F30511C8
:102600006C4E1C36366806F001056A4E2436366874
:10261000C6F3CC0616FB05F601EE106AB8EE410AC9
:10262000002971D024B1012C50D0022C6DD16DE065
:10263000604E103E3668C6F340163EB35D4E103E07
:102640003668C6F3C1075C4E26FA07F301EE103A6E
:10265000F8EE411A01EE101AB8EE411A81EE812A05
:102660009FED581AC0EE011A524E20363668C6F356
:10267000080601EE106AB8EE411A31EE811AF7EE43
:10268000001A31EE211A62EE010A1EE001EE101A64
:10269000B8EE411ADFED4C1A81EE812A9FED491AFE
:1026A000C0EE011A434E20363668C6F3080601EE26
:1026B000106AB8EE411A31EE811A00E076E0F7EECA
:1026C000001A31EE211A62EE010A5BE001EE101AE7
:1026D000B8EE411A9FED3D2AC2EE011A9FED391A5C
:1026E00080EE012A334E20363668C6F3080601EE26
:1026F000106AB8EE411A32EE011AB7EE002A31EE36
:10270000021A61EE810A3DE04EE01DE001EE101A72
:10271000B8EE411ADFED2E1A81EE812A9FED291ABB
:10272000C0EE011A234E20363668C6F3080601EEC5
:10273000106AB8EE411A31EE811AF7EE001A31EE46
:10274000211A62EE010A1DE001EE101AB8EE411ADC
:102750009FED1E2AC2EE011A9FED1A1A80EE012A81
:10276000144E20363668C6F3080601EE106AB8EE3D
:10277000411A32EE011AB7EE002A31EE021A61EE6A
:10278000810A00BF00BF0B4E20363668C6F34626CE
:10279000721C01EE102AB8EE411AC0EE811ABCEE8E
:1027A000E11A11EE100A00E0002001E0034800BF2A
:1027B00000BFF0BD104402580090D00300093D0056
:1027C00040787D01000000460024744C0024744AC7
:1027D00020BCBE4B2DE9F047044614B90120BDE8EA
:1027E000F087207800F00100002870D0FA480068D7
:1027F00000F03808F8481830D0F80090B8F1100F01
:1028000006D0B8F1180F0FD109F0030002280BD140
:10281000F14810380068C0F3404000286AD0606872
:10282000002867D10120DAE700BF6068B0F5803F7B
:1028300008D1E9481038006840F48030E649103982
:1028400008602EE0606868B9E3481038006820F43A
:102850008030E149103908600846006820F4802083
:1028600008601EE06068B0F5A02F0DD1DA4810387E
:10287000006840F48020D849103908600846006894
:1028800040F4803008600CE0D3481038006820F431
:102890008030D149103908600846006820F4802053
:1028A000086000BF606898B1FEF77EF8054606E054
:1028B000FEF77AF8401B642801D903208FE7C64849
:1028C00010380068C0F340400028F1D012E012E058
:1028D000FEF76AF8054606E0FEF766F8401B642836
:1028E00001D903207BE7BC4810380068C0F34040A2
:1028F0000028F1D100BF207800F00200022874D136
:10290000B548006800F03808B3481830D0F8009097
:10291000B8F1000F05D0B8F1180F56D109F0030037
:10292000D0BBAD4810380068C0F3800018B1E06833
:1029300008B9012053E7A8481038006820F01900B2
:10294000E1680843A44910390860FEF72DF80546F0
:1029500006E0FEF729F8401B022801D903203EE7D4
:102960009D4810380068C0F380000028F1D000BFF7
:10297000FEF714F841F2030188421AD82069402872
:102980000BD195480C38006820F47C3040F40030BE
:1029900091490C39086017E017E08F480C3800683F
:1029A00020F47C30216940EA01308B490C39086001
:1029B0000AE089480C38006820F0FE40217C40EA9B
:1029C000016085490C39086066E0E06888B3824898
:1029D0001038006820F01900E16808437E4910397A
:1029E0000860FDF7E1FF054607E056E0FDF7DCFF74
:1029F000401B022801D90320F1E67748103800680F
:102A0000C0F380000028F1D000BFFDF7C7FF41F2FE
:102A1000030188421AD8206940280BD16E480C382F
:102A2000006820F47C3040F400306B490C390860B9
:102A300017E017E068480C38006820F47C30216902
:102A400040EA013064490C3908600AE062480C38F9
:102A5000006820F0FE40217C40EA01605E490C39AC
:102A6000086019E05C481038006820F001005A49FD
:102A700010390860FDF798FF054606E0FDF794FF62
:102A8000401B022801D90320A9E6534810380068EA
:102A9000C0F380000028F1D100BF207800F01000C2
:102AA00010287CD14C48006800F038084A4818309B
:102AB000D0F80090B8F1080F06D0B8F1180F3DD14A
:102AC00009F00300012839D1434810380068C0F3E9
:102AD000002020B1E069802801D001207FE600BFFE
:102AE000FDF75CFF41F2030188421AD8206A2028D2
:102AF0000AD139480C38006820F0F84040F0804096
:102B000035490C39086018E033480C38006820F06B
:102B1000F84094F8201040EA81602F490C39086091
:102B20000BE02D48001F006820F07C5094F8201026
:102B300040EA01602849091F086066E0E06978B34F
:102B400025481038006840F080002349103908609B
:102B5000FDF72AFF054606E0FDF726FF401B022889
:102B600001D903203BE61C4810380068C0F3002060
:102B70000028F1D000BFFDF711FF41F203018842A8
:102B80001CD8206A20280CD113480C38006820F08B
:102B9000F84040F0804010490C3908601AE035E0F8
:102BA0001CE00D480C38006820F0F84094F8201024
:102BB00040EA816008490C3908600BE00648001FB4
:102BC000006820F07C5094F8201040EA016002492F
:102BD000091F086019E0000010440258FA48006814
:102BE00020F08000F8490860FDF7DEFE054606E0AB
:102BF000FDF7DAFE401B022801D90320EFE5F24879
:102C00000068C0F300200028F2D100BF207800F057
:102C10000800082836D16069D0B1EB4874300068EC
:102C200040F00100E84974310860FDF7BDFE05463B
:102C300006E0FDF7B9FE401B022801D90320CEE5CE
:102C4000E14874300068C0F340000028F1D019E07A
:102C5000DD487430006820F00100DB497431086001
:102C6000FDF7A2FE054606E0FDF79EFE401B02288A
:102C700001D90320B3E5D44874300068C0F34000A4
:102C80000028F1D1207800F02000202830D1A06960
:102C9000B8B1CD48006840F48050CB490860FDF7DA
:102CA00083FE054606E0FDF77FFE401B022801D9A2
:102CB000032094E5C4480068C0F340300028F2D0F7
:102CC00016E0C148006820F48050BF490860FDF755
:102CD0006BFE054606E0FDF767FE401B022801D9A2
:102CE00003207CE5B8480068C0F340300028F2D1EA
:102CF000207800F0040004287DD1B448006840F436
:102D00008070B2490860FDF74FFE054606E0FDF70A
:102D10004BFE401B642801D9032060E5AB480068E6
:102D200000F480700028F2D000BFA068012808D10C
:102D3000A5487030006840F00100A3497031086078
:102D40002DE0A06868B9A0487030006820F001004C
:102D50009D49703108600846006820F00400086052
:102D60001DE0A06805280DD197487030006840F03C
:102D700004009549703108600846006840F0010081
:102D800008600CE090487030006820F001008E4927
:102D9000703108600846006820F00400086000BF39
:102DA000A068A0B1FDF700FE054608E0FDF7FCFDB8
:102DB000401B41F28831884201D903200FE5824847
:102DC00070300068C0F340000028EFD013E0FDF73A
:102DD000EBFD054608E0FDF7E7FD401B41F28831B9
:102DE000884201D90320FAE4774870300068C0F3C4
:102DF00040000028EFD1606A00287DD07248103072
:102E0000006800F03800182877D0606A022875D171
:102E10006D48006820F080706B490860FDF7C4FDC4
:102E2000054606E0FDF7C0FD401B022801D903203E
:102E3000D5E465480068C0F340600028F2D100BFC7
:102E4000D4E90A1041EA00105F492831096840F2CC
:102E5000F332914308435C4928310860208E401EBC
:102E6000C0F30800616B491E4FF47E4202EA412123
:102E70000843218F491ED20102EA014108433C2147
:102E8000095D491E120202EA016108434E493031D0
:102E9000086000BF081F006820F00100091F0860DB
:102EA0004948343000684FF6F8718843A16C40EA15
:102EB000C10045493431086043482C30006820F097
:102EC0000C00216C084340492C310860084600681A
:102ED00020F00200616C08433B492C310860084631
:102EE000006840F4803008600846006840F4003014
:102EF00008600846006802E093E038E01FE040F414
:102F0000802008600846006840F0010008602E48F4
:102F1000006840F080702C490860FDF745FD0546CB
:102F200006E0FDF741FD401B022801D9032056E4CD
:102F300025480068C0F340600028F2D071E02248C4
:102F4000006820F0807020490860FDF72DFD0546DF
:102F500006E0FDF729FD401B022801D903203EE4CD
:102F600019480068C0F340600028F2D159E01648C3
:102F700028300768144830300668606A012821D07C
:102F800007F00301A06A81421CD1C7F30511E06A72
:102F9000884217D1C6F30801206B401E814211D12F
:102FA000606B401EC6F3462188420BD1A06B401EC9
:102FB000C6F30641884205D1E06B401EC6F30661A8
:102FC000884205D001200AE4004402580048025813
:102FD00015480068C0F3CC07A06CB84221D0124855
:102FE0000838006820F001000F4908390860FDF733
:102FF000DBFC054600BFFDF7D7FC401BFBD00A48B1
:1030000000684FF6F8718843A16C40EAC100064998
:10301000086005480838006840F001000249083996
:10302000086000204AE400003444025870B50446A9
:103030000D460CB9012070BD94F82C0028B9002071
:1030400084F82D00204600F019F8022084F82C00A6
:10305000211D2068FDF745FA2946D4E90002FDF755
:1030600093FA0548006840F00040034908600120D9
:1030700084F82C000020DEE70040005210B5044622
:10308000FDF7E0FA10BD70B504460D4694F82C002B
:10309000022800D170BD94F82C0001280AD102202A
:1030A00084F82C0029462068FDF751FA012084F8A5
:1030B0002C0001E00120EDE70020EBE72DE9F041D5
:1030C00004460E46174694F82C50022D02D10220D9
:1030D000BDE8F081012D01D0052D12D1022084F828
:1030E0002C003A4631462068FDF73BFA306802284A
:1030F00003D1052084F82C0005E0012084F82C0081
:1031000001E00120E4E70020E2E770B5044625462F
:10311000681EB0F1807F01D301200FE0681E4FF0E0
:10312000E02148610F214FF0FF3000F063FF0020E5
:103130004FF0E021886107200861002070BD00BFCA
:10314000FEE701688969C1F3400111B100210268FD
:1031500091620168896901F0010129B901688969F1
:1031600041F0010102689161704700002DE9F74FBD
:1031700004460E4600272068D0F818800025DDF8A8
:10318000089008F01000102845D12168C86134E08B
:10319000701C90B3FDF708FCA0EB0900B04200D80A
:1031A0005EBB2068406800F4804A94F842B0206812
:1031B0008069C0F3C03070B1BAF5804F0BD0BBF15D
:1031C000200F08D02068406840F4804021684860A3
:1031D000FDF7EAFB814609E0FDF7E6FBA0EB0900FD
:1031E000192803D945F02005012705E020688069EA
:1031F000C0F340100028EFD000BF20688069C0F302
:10320000401008B9002FC3D017B920202168C86129
:1032100045F0040501272068D0F8188008F4807074
:10322000B0F5807F06D145F001054FF4807021682C
:10323000C861012708F48060B0F5806F06D145F0C1
:1032400008054FF480602168C861012708F4007008
:10325000B0F5007F06D145F002054FF400702168FB
:10326000C8610127AFB12046FFF76BFF20684068B7
:103270000949084021684860606C28436064202048
:1032800084F84100002084F8420000BF84F8400028
:1032900000BF3846BDE8FE8F00E800FE2DE9F84388
:1032A0000446894615461E46DDE908781948F2B2FB
:1032B000C30249460090204600F02EF842463946A7
:1032C000204600F0AEF810B10120BDE8F883012ED1
:1032D00003D1E8B2216888620EE0C5F307202168B7
:1032E000886242463946204600F09BF808B101202A
:1032F000EBE7E8B2216888623B4600228021204645
:10330000CDF8008000F024F808B10120DDE70020AE
:10331000DBE7000000200080F0B5059CC1F3090642
:103320004FF47F0707EA02473E431E43264326F039
:103330000045066876684FF4806707EA545767F0DF
:10334000FC2747F4C047BE432E4307687E60F0BDAC
:103350002DE9F04104460D4617461E46DDF818805B
:1033600023E0701C08B3FDF71FFBA0EB0800B04280
:1033700000D8D6B9206880692840A84201D1012030
:1033800000E00020B84210D1606C40F02000606482
:10339000202084F84100002084F8420000BF84F817
:1033A000400000BF0120BDE8F0812068806928400E
:1033B000A84201D1012000E00020B842D1D0002075
:1033C000F1E770B504460D46164622E0324629461E
:1033D0002046FFF7CBFE08B1012070BDFDF7E4FAEF
:1033E000801BA84200D8A5B920688069C0F34010AE
:1033F00078B9606C40F020006064202084F84100BF
:10340000002084F8420000BF84F8400000BF012083
:10341000E3E720688069C0F340100028D6D0002080
:10342000DBE770B504460D46164624E032462946D1
:103430002046FFF79BFE08B1012070BD681CD0B18B
:10344000FDF7B2FA801BA84200D8A5B920688069B0
:10345000C0F3400078B9606C40F020006064202028
:1034600084F84100002084F8420000BF84F8400046
:1034700000BF0120E1E720688069C0F34000002818
:10348000D4D00020D9E7000010B50248FDF710FDA8
:1034900010BD0000F4060024F0B58E880768FF68B0
:1034A000C7F30B473E44330406688436802707FB86
:1034B0000266766806F47047066884364FF0800C22
:1034C0000CFB026677600E680768FF68C7F30B475E
:1034D0003E44761C1E43076884370CFB02777E60EF
:1034E0008E890768FF68C7F30A073E4433040668FD
:1034F0008436802707FB0266B66806F470470668C4
:1035000084360CFB0266B7608E680768FF68C7F3F5
:103510000A073E44761C46EA0307066884360CFB1D
:103520000266B76006688436802707FB0266366944
:1035300026F00707066884360CFB026637610F69C0
:10354000066884360CFB026637613126765C3302EE
:103550003226765C34040E7E350606688436802773
:1035600007FB0266B6690027066884360CFB026614
:10357000B76191F830601E43264346EA05070668A6
:1035800084360CFB0266B76106688436802707FB29
:103590000266766926F0FF07066884360CFB026631
:1035A00077614F69066884360CFB026677610668AE
:1035B0008436802707FB0266F66940F20777BE4330
:1035C000076884370CFB0277FE61D1E90776374341
:1035D000066884360CFB0266F7610668843680272D
:1035E00007FB0266B66A0027066884360CFB026693
:1035F000B7624F6A066884360CFB0266B7620E69D2
:103600000EB9042313E00E69012E01D103230EE04D
:103610000E69042E08D00E69022E05D00E69032E05
:1036200002D00E69072E01D1022300E001230668B3
:103630008436802707FB0266F66A06F0E0270668F4
:1036400084364FF0800C0CFB0266F762D1E90076FD
:10365000F61B5E43F61D0F8D5F4346EA074706687B
:1036600084360CFB0266F76206688436802707FB07
:103670000266366BF70AFF02066884360CFB0266A8
:103680003763CF6A066884360CFB026637630668C8
:103690008436D701F65946F00107066884364FEAAA
:1036A000C21C46F80C70F0BD00B587B01C216846FE
:1036B000FCF78BFE19481A49086000204860012178
:1036C000174881600421C1602021016140214161CE
:1036D0004FF4C07181610021C1614FF4006101624A
:1036E0004900416200218162022000900720019080
:1036F00004200290072003900320049002200590EC
:10370000069069460648FFF791FC08B1FCF7E6FE13
:103710000449034800F0ECFA07B000BD40410052F4
:103720006C0600245C06002400B587B0142102A8B2
:10373000FCF74BFE00BF5D48006840F480705B49B9
:1037400008600846006800F48070019000BF00BF68
:1037500000BF0846006840F48060086008460068C2
:1037600000F48060019000BF00BF00BF0846006801
:1037700040F0400008600846006800F040000190FA
:1037800000BF00BF00BF0846006840F0100008609E
:103790000846006800F01000019000BF00BF00BFA5
:1037A0000846006840F4007008600846006800F4AD
:1037B0000070019000BF00BF00BF0846006840F0E5
:1037C000080008600846006800F00800019000BF8B
:1037D00000BF00BF0846006840F0010008600846CE
:1037E000006800F00100019000BF00BF00BF084664
:1037F000006840F0800008600846006800F0800023
:10380000019000BF00BF00BF0846006840F0040000
:1038100008600846006800F00400019000BF00BF87
:1038200000BF0846006840F02000086008460068B5
:1038300000F02000019000BF00BF00BF08460068F4
:1038400040F0020008600846006800F002000190A5
:1038500000BF00BF002220211548FDF799F8012282
:1038600040211448FDF794F8202002900120039095
:1038700000200490059002A90D48FCF78BFF402022
:1038800002900120039000200490059002A90948AD
:10389000FCF780FF4FF480500290002003900490CA
:1038A00002A90548FCF776FF07B000BDE0440258C6
:1038B00000240258001C02580004025808B5214890
:1038C000214908602148486000211F48816001218A
:1038D000C1600021016141618161C1610162FDF747
:1038E000D3F808B1FCF7FAFD00211748FDF762F89C
:1038F00008B1FCF7F3FD00211348FDF790F808B17B
:10390000FCF7ECFD012220211148FDF741F80020D1
:103910000090012269460BF033FC01226946A42085
:103920000BF02EFC0C2000900122694680200BF049
:1039300027FC0C2000900122694688200BF020FC17
:1039400008BD000000580040A0060024B17570308A
:103950000024025800B58DB034216846FCF735FDCF
:103960002C482D4908600020486000212A488160C9
:10397000C16001610721416103218161A721C1610A
:103980001221016240F2A741416240F26A21816244
:1039900040F24751C16240F27E210163002180F86C
:1039A000341080F8351080F83610FDF7FBFA08B1B6
:1039B000FCF794FD002000904FF4806001900020FF
:1039C00002904FF41670039002200490FF2005909F
:1039D000002006904FF480600790052008904FF07B
:1039E000404009904FF480600A904FF416700B909D
:1039F00000208DF8300000218DF831108DF8321044
:103A0000002269460448FDF723FA08B1FCF766FD79
:103A10000DB000BD00100050F406002400BFFEE70A
:103A200000BFFEE7704700002DE9F04104460E4656
:103A300000275548006800F00300032802D1012048
:103A4000BDE8F08150482838006820F080604E4979
:103A500028390860FCF7A8FF054606E0FCF7A4FF3C
:103A6000401B022801D90320EAE7474828380068AC
:103A7000C0F3C0600028F1D100BF4348006820F4C3
:103A80007C30216840EA01303F490860A088401E30
:103A9000C0F30800A168491E4FF47E4202EA4121AA
:103AA0000843A189491ED20102EA01410843217C51
:103AB000491E120202EA01610843334910310860CD
:103AC00000BF3148001D006820F0C0006169084354
:103AD0002D49091D08600846006820F02000A169F2
:103AE00008432949091D08600846006820F01000B5
:103AF00008602548143000684FF6F8718843E16982
:103B000040EAC1002049143108601F48001D0068C8
:103B100040F010001C49091D08602EB908460068D5
:103B200040F40020086012E0012E08D11648001D64
:103B3000006840F480101449091D086007E012482D
:103B4000001D006840F400100F49091D08600E4870
:103B50002838006840F080600B4928390860FCF77D
:103B600023FF054606E0FCF71FFF401B022801D992
:103B7000032065E7044828380068C0F3C0600028C7
:103B8000F1D038465CE70000284402582DE9F041A6
:103B900004460E4600275548006800F0030003283D
:103BA00002D10120BDE8F08150482838006820F09B
:103BB00080504E4928390860FCF7F6FE054606E0BD
:103BC000FCF7F2FE401B022801D90320EAE7474830
:103BD00028380068C0F340700028F1D100BF434886
:103BE000006820F07C70218840EA01503F4908605D
:103BF000A088401EC0F30800A168491E4FF47E4211
:103C000002EA41210843A189491ED20102EA014189
:103C10000843217C491E120202EA0161084333492C
:103C20001831086000BF3148001D006820F4406072
:103C3000616908432D49091D08600846006820F4A1
:103C40000070A16908432949091D086008460068F9
:103C500020F48070086025481C3000684FF6F87129
:103C60008843E16940EAC10020491C3108601F48CF
:103C7000001D006840F480701C49091D08602EB9C1
:103C80000846006840F48000086012E0012E08D168
:103C90001648001D006840F400001449091D086022
:103CA00007E01248001D006840F080700F49091DB0
:103CB00008600E482838006840F080500B492839C9
:103CC0000860FCF771FE054606E0FCF76DFE401B40
:103CD000022801D9032065E7044828380068C0F3AA
:103CE00040700028F1D038465CE7000028440258B4
:103CF00038B505460C4600200090012020601020B9
:103D000060600120A0600020E0604FF480522146F6
:103D10002846FFF7D3F90120FCF780FC0220206041
:103D2000102060600120A0600020E0604FF480520D
:103D300021462846FFF7C2F903202060102060606A
:103D40000820A0600020E0604FF480522146284601
:103D5000FFF7B4F940F231200090042020601020D9
:103D600060600120A0600098E0604FF4805221461E
:103D70002846FFF7A3F940F296312846FFF783F96A
:103D800038BD704710B5FCF7FBFF10BD00B59DB006
:103D90004C210AA8FCF719FB202102A8FCF715FB0F
:103DA0000220FDF749FB00BF002001904148006858
:103DB00020F001003F4908600846006800F001005B
:103DC00001903D48006840F440403B490860084687
:103DD000006800F44040019000BF00BF00BF3648BB
:103DE000006800F40050B0F5005FF8D100BF334820
:103DF000006840F00200314908600846006800F0A1
:103E00000200019000BF00BF00BF002001902A48BF
:103E1000006840F44040284908600846006800F403
:103E2000404001902348006840F0010021490860AB
:103E30000846006800F00100019000BF00BF00BF0D
:103E40001D48006800F40050B0F5005FF8D1012073
:103E50000A9000040B900220139002211491052176
:103E60001591C021169102211791189119910821DD
:103E70001A9100211B911C910AA8FEF7ABFC08B116
:103E8000FCF72CFB3F2002900320039000200490BD
:103E900008200590402006900790000108904020DF
:103EA0000990042102A8FEF7EFF908B1FCF716FB10
:103EB0001DB000BD2C04005818480258F4440258A4
:103EC0003C48006840F470003A4908603948783846
:103ED000006840F0100037497839086036480068BB
:103EE00000F00F00072806D23348006820F00F00CA
:103EF000C01D314908603148006840F001002F4979
:103F0000086000202D49103108602C4800682C49B9
:103F100008402A4908602848006800F00F00072878
:103F200006D92548006820F00F00C01D224908600E
:103F30000020224918310860091D0860091D086029
:103F400020481E49283108601F48091D08601F4885
:103F5000091D08600020091D08601C48091D086033
:103F60000020091D08601948091D08600020091D6E
:103F700008601248006820F4802010490860002082
:103F80000E49603108601248006840F480404FF0EC
:103F9000B041C1F8E4000F4800686FF30F00B0F1C2
:103FA000005F02D201200C49086043F2D2000B49A5
:103FB0000860704788ED00E000200052004402587D
:103FC0007FEDF6EA000202020000FF01800201011B
:103FD000E40000580010005C0881005100400052CD
:103FE00000BFFEE702480068C0F3022070470000EF
:103FF0000CED00E010B5002804DB0A07130E054A9B
:10400000135406E00A07140E034A00F00F031B1FA7
:10401000D45410BD00E400E018ED00E002E008C850
:10402000121F08C1002AFAD170477047002001E032
:1040300001C1121F002AFBD1704770B5044600254C
:1040400008E02168481C20600878303805EB8501BD
:1040500000EB41052168087800F033F80028F0D122
:10406000284670BD2DE9F04180460F4614461D4696
:1040700025B92146404613F0BDFD054605FB07F670
:10408000142C03D1680800FB076617E0072C15DB2A
:104090000A2C13DC072C01D102200DE0082C01D1E1
:1040A000042009E0092C01D1102005E00A2C02D1DE
:1040B0004FF4807000E0002006EB80063046BDE83B
:1040C000F0810146302903DB392901DC01207047EA
:1040D0000020FCE710B558210C4800F03DFE0022FE
:1040E00021210B4824F016FC0849AC39C1F8A8007E
:1040F00002F0D6FE00200549AC3981F8A400002169
:104100000248AC3880F8A51010BD00004808002413
:10411000D16E00082DE9F04F89B007460C461546D0
:104120002946204600F026F920B94FF0FF3009B0AB
:10413000BDE8F08F00222946204600F0C7F808B1FC
:104140000020F4E7002620460EF0A5FF401E049054
:1041500020460EF03FFF401E039068686168A0EBA8
:10416000010ABAF1000F12DD206805906068069020
:10417000A06807906068504408903046711C4EB2A9
:1041800007EB001005A991E80E10A0E80E10E868F2
:104190006168411A0398A0EB010BBBF1000F16DD1B
:1041A000E868E168884212DA20680590E8680690BD
:1041B000A0680790E868584408903046711C4EB2D9
:1041C00007EB001005A991E80E10A0E80E10686832
:1041D0006168884201DD686800E060688046E868E0
:1041E000E168884201DAE86800E0E068029002983D
:1041F000A0EB080928682168401A0190019800285E
:1042000017DDB9F1000F14DD20680590CDF8188096
:10421000216801980844079008EB0900089030468F
:10422000711C4EB207EB001005A991E80E10A0E832
:104230000E10A8682168411A0498401A009000984E
:10424000002814DDA8680590CDF81880A9680098AA
:104250000844079008EB090008903046711C4EB2E4
:1042600007EB001005A991E80E10A0E80E103046EB
:104270005DE730B503460C681568AC4201DD0C689B
:1042800000E014681C604C685568AC4201DD4C6865
:1042900000E054685C608C689568AC4201DA8C6818
:1042A00000E094689C60CC68D568AC4201DACC68C8
:1042B00000E0D468DC6001209D681C68AC4203DC2F
:1042C000DD685C68AC4200DD002030BD2DE9FC41BA
:1042D00004460D46164600272068296888420CDBF4
:1042E00060686968884208DBA068A968884204DCC5
:1042F000E068E968884200DC012717B90020BDE8C2
:10430000FC810EB90120FAE76846D4E9001220F0DA
:104310006DFA32466946284600F090F808B9002048
:10432000EDE76846D4E9012120F060FA324669469B
:10433000284600F083F808B90020E0E76846E26804
:10434000216820F053FA32466946284600F076F894
:1043500008B90020D3E76846D4E9021220F046FAF3
:1043600032466946284600F069F808B90020C6E7D9
:104370000120C4E7024610688B6898420DDC906803
:104380000B68984209DB5068CB68984205DCD0681E
:104390004B68984201DB012070470020FCE77CB5A8
:1043A00004460D461646A068296888420BDBE06883
:1043B0006968884207DB2068A968884203DC606876
:1043C000E968884201DD01207CBD0EB90020FBE7D1
:1043D0006846D4E9001220F009FA324669462846B8
:1043E00000F02CF808B10020EEE76846D4E901217E
:1043F00020F0FCF932466946284600F01FF808B163
:104400000020E1E76846E268216820F0EFF93246D3
:104410006946284600F012F808B10020D4E7684643
:10442000D4E9021220F0E2F932466946284600F04B
:1044300005F808B10020C7E70120C5E72DE9FF5FB7
:1044400005460E4614464FF0000A30682968884237
:104450000DDB3068A968884209DC706869688842A9
:1044600005DB7068E968884201DC4FF0010ABAF1A7
:10447000000F03D1002004B0BDE8F09F002C01DC48
:104480000120F8E728460EF006FE834600EBDB70BD
:10449000471028460EF09EFD834600EBDB704FEA86
:1044A0006008474501DA384600E0404681464C4501
:1044B00000DD4C4628680090286820440290686817
:1044C0000190686820440390002231466846FFF757
:1044D000B5FF50B102982044029003982044039005
:1044E0003146684620F0A7F9C5E7E868001B01904F
:1044F000E8680390002231466846FFF79FFF50B1FD
:104500000298204402900198001B019031466846B1
:1045100020F091F9AFE7A868001B0090A86802900E
:10452000002231466846FFF789FF50B10098001B12
:1045300000900198001B01903146684620F07BF9FD
:1045400099E768680190686820440390002231462A
:104550006846FFF773FF50B10098001B0090039866
:10456000204403903146684620F065F983E7012036
:1045700081E710B50B681468A34201DA0B6800E00C
:10458000136803604B685468A34201DA4B6800E08B
:10459000536843608B689468A34201DD8B6800E038
:1045A00093688360CB68D468A34201DDCB6800E0E8
:1045B000D368C36010BD00002DE9F041064636B156
:1045C0005949F0680861304624F0D4FA03E012F04B
:1045D000E5FA554908615448006918B900BF00BFA1
:1045E000BDE8F08150480069456A1DB1286908B1ED
:1045F000E86810B900BF00BFF2E74B490022086924
:10460000342112F081FB48490969D1F8B0021FF04A
:10461000FFFE45480069D0F8B40228B14249096953
:10462000D1F8B4021FF0F4FE3F490969D1F8BC0289
:104630001FF0EEFE3C490969D1F8C0021FF0E8FE08
:1046400039490969D1F8C4021FF0E2FE3648006911
:10465000D0F8B00238B9002033490969C1F85C02CA
:1046600000BF00BF57E020F0FDF927F0B5F826F0B5
:1046700061FD2D480069D0F85C0200B94BE02A4981
:1046800000220869372112F03FFB2749086912F020
:1046900021FB28B12448006990F83900012800D096
:1046A00024E02149086930F07AFD002417E01E4813
:1046B000006900F50F70005D00B10FE01A4909694B
:1046C00001F5197000F0AAFB0746174800693C3055
:1046D00000EB04130FCB87E80F0000BF641C1248E7
:1046E0000069D0F85C02A042E1D800BF0E49096918
:1046F00001F13C004FF4007119F037FD0A490969D6
:1047000001F50F70202119F030FD002006490969DC
:10471000C1F85C0200BF044900220869352112F08B
:10472000F3FA00BF5CE700009C07002410B51421D9
:104730000B4819F02CFD0B480949C839C1F8C800CD
:1047400009490748C838C0F8CC100849C0F8D0104B
:104750000021C0F8D4100649C0F8D81010BD0000E0
:1047600064080024878100087B8100086D810008AF
:10477000FF5103082DE9F0479AB080460D461446D4
:104780001E4626B900BF00BF1AB0BDE8F08700BFC3
:104790002068169060681790A0681890E0681990DB
:1047A00000BFE86A38B9286BB0F5807F03D1686B29
:1047B000B0F5807F27D020460EF05BFC8146204676
:1047C0000EF0FCFB824605F14000A98E89B22A8ECC
:1047D00092B2CDE9002102905246494616A8EB6AF2
:1047E00000F0D4F81698216808441690179861686C
:1047F000084417901898216808441890199861681F
:104800000844199000BF16A912A8D8F80820FFF78D
:1048100030FD00B9B8E7002203A8E96917F0FBF8FA
:104820000746012F02D000BF00BFADE712A800234A
:1048300003AA2946CDE90106009440460BF088FF03
:1048400003A817F0A3F800BF9EE700002DE9F04F82
:104850009FB005460E4693469846B8F1000F04D126
:1048600000BF00BF1FB0BDE8F08F002210A8F169A3
:1048700017F0D1F88146B9F1010F02D000BF00BF97
:10488000F0E7B08C84B2706A070C9BE80F00CDE9AA
:104890000E23CDE90C0121460CA80EF052FC39463E
:1048A0000CA80EF049FCDDF830A01D4B0FCBCDE974
:1048B0000A23CDE9080129E017E00CA904A8AA6899
:1048C000FFF7D7FC50B104A80CA908AB10AACDE99A
:1048D00001080091314628460BF03AFF0C9820441D
:1048E0000C900E9820440E9000BF0C98A96889681F
:1048F0008842E2DD0D9838440D900F9838440F90AF
:10490000CDF830A00AEB0400401E0E900D98A96867
:10491000C9688842D0DD10A817F038F800BFA1E7B9
:10492000D85203080146094AD06E0BE042688A4219
:1049300002D002688A4204D1027E22F00102521C97
:10494000027640690028F1D1704700009C070024DE
:10495000014A4169D16670479C0700240249C96E2B
:1049600041610149C86670479C07002410B50421C5
:10497000014800F0F1F910BDBC08002410B5202159
:10498000014800F0E9F910BDD00700242DE9F047F7
:104990008AB004460D4616469846DDE9129A149FE1
:1049A000B8F1000F0FD1B9F5807F0CD1BAF5807F37
:1049B00009D1002020606060681EA060701EE06069
:1049C0000AB0BDE8F087202102A8FBF7FEFC0495A1
:1049D000079608950996012053464A464146CDE977
:1049E000007002A81FF015FF012053464A464146B9
:1049F000CDE9007004A81FF00CFF012053464A4681
:104A00004146CDE9007006A81FF003FF0120534680
:104A10004A464146CDE9007008A81FF0FAFE049905
:104A20000298884201DA029800E00498089A0699F0
:104A3000914201DA069900E00899884207DA049960
:104A40000298884201DA029808E0049806E0089982
:104A50000698884201DA069800E0089820600499D8
:104A60000298884201DD029800E00498089A0699AD
:104A7000914201DD069900E00899884207DD04991A
:104A80000298884201DD029808E0049806E008993F
:104A90000698884201DD069800E00898401EA06054
:104AA00003990598814201DA039800E00598079A76
:104AB00009998A4201DA079900E00999884207DAE0
:104AC00003990598814201DA039808E0059806E009
:104AD00007990998814201DA079800E00998606017
:104AE00003990598814201DD039800E00598079A33
:104AF00009998A4201DD079900E00999884207DD9A
:104B000003990598814201DD039808E0059806E0C5
:104B100007990998814201DD079800E00998401E35
:104B2000E06000BF4CE7000010B51821014800F01C
:104B300013F910BD780800242DE9F04389B004462C
:104B4000884614B912F02AF8044614B909B0BDE831
:104B5000F083204612F0C5F800B9F7E700BFA06B5C
:104B6000C0F3404018B100BF00BF00BFFEE700BF68
:104B7000B8F1000F03D10020C4F85C02E6E7002082
:104B800005900690204612F01AF8401E0790204625
:104B900012F089F8401E089005AA414601A8FFF7C7
:104BA00068FB064606B9D1E794F8390002280DD112
:104BB00005A80FC804F13C050FC50120C4F85C022C
:104BC00000223321204612F09FF8BFE701AA3021CE
:104BD000204612F099F80746012F00D0B6E70025CD
:104BE0000BE004F13C0000EB0511002201A8FFF7E7
:104BF0006DFB00B1AAE7681C85B2D4F85C02A8423C
:104C0000EFD80DF10409D4F85C02202804D3002069
:104C1000C4F85C020DF1140904F13C01D4F85C22E3
:104C200001EB021049460EF08AF9D4F85C02401CF0
:104C3000C4F85C0200223321204612F065F800BF60
:104C400084E70000F8B505460026162231462846BE
:104C50001CF041FC00900098C4B2002C10DD094803
:104C6000806DA0420CD30748C06D00EBC4004668BD
:104C70000448C06D50F8342031462846904700BFA4
:104C8000F8BD00009C07002410B50649896DC800D6
:104C900019F028F80349C86515F0EAFF16F0C6FCBC
:104CA00010BD00009C07002410B5044600212046DA
:104CB00000F008F810BD10B504460021204600F0B1
:104CC00001F810BD2DE9F04106460C46304600F0D3
:104CD00018F80546002710E02946304600F029F86C
:104CE00007463CB92946304600F0C4F8284616F07D
:104CF000F5F901E02846A0473D46002DECD1BDE87E
:104D0000F081014609B9002070474868FCE770B59A
:104D1000064600243046FFF7F4FF054605E0641C14
:104D20002946304600F005F80546002DF7D120460B
:104D300070BD02460B461068001D0344186870479A
:104D400002460B461068034418687047014609B9CB
:104D5000002070478868FCE7002242608260CA1C1D
:104D600022F003010160704770B50446216801F12B
:104D7000080018F0B7FF0546A5B1002229462046D5
:104D800024F030FE29462046626824F01DFE60684B
:104D900020B12A462046616824F024FE6560A068A0
:104DA00000B9A560284670BD2DE9F04106460D46C4
:104DB00006B115B90020BDE8F0813046FFF7A1FF2C
:104DC000A84206D13046FFF7CFFF044624BB00209F
:104DD000F1E7316801F1080018F084FF04460CB9CE
:104DE0000020E8E729463046FFF7AAFF074622469B
:104DF0003946304624F0E8FD3A462146304624F054
:104E0000F1FD22462946304624F0ECFD2A46214693
:104E1000304624F0D9FD00BF2046CCE770B50446EB
:104E2000216801F1080018F05DFF0546A5B10022D8
:104E30002946204624F0C8FD29462046A26824F0D1
:104E4000D1FDA06820B12A462046A16824F0BCFD0F
:104E5000A560606800B96560284670BD014609B963
:104E600001207047486818B9886808B90120F8E738
:104E70000020F6E72DE9F04104460D460CB9BDE8E7
:104E8000F0812046FFF73DFFA8420FD1294620467A
:104E9000FFF74FFF6060606810B90020A0602FE04E
:104EA00000222046616824F09DFD29E02046FFF79E
:104EB0004DFFA8420FD129462046FFF741FFA060D1
:104EC000A06810B9002060601AE000222046A168A6
:104ED00024F07AFD14E029462046FFF731FF06460C
:104EE00029462046FFF725FF07463A463146204629
:104EF00024F06AFD32463946204624F073FD00BF97
:104F000000BFBCE710B504462068806818B120686F
:104F10002146826890472068006828B120680068B0
:104F200020602046FFF7EEFF10BD0146886810B1F3
:104F30008868406A70470020FCE70146886820B115
:104F40008868408DC0F3812070470020FCE72DE980
:104F5000F04104460D4616461DB916B90120BDE8BC
:104F6000F081204619F075FFA06880692844A16887
:104F70008861A068C0698119A068C16101233246B7
:104F8000294620461DF027FB00220C2120461EF05A
:104F9000C3FC0746012F01D03846E0E720461DF04C
:104FA00043FA0120DBE7F7B582B004460E4614B998
:104FB000049805B0F0BD00BF6122314620461CF0C8
:104FC0008AFA0190019D00BFDDB12868C8B100BF19
:104FD0006222314620461CF07EFA01900198C0B250
:104FE00007466FB13A462B682846049998470190C6
:104FF000BDF80400ADF810009DF806008DF8120011
:1050000000BF0498D5E700002DE9F04F9BB004469F
:105010008B4691469A46249D608D20F0080008300A
:105020006085A4F828902A7A594620461CF053FA45
:105030001A90A4F828A02A7A594620461CF04BFA68
:105040001990608D20F008006085DDE91910884214
:105050000BD1DDE91910884207D1DDE9191010F0F4
:10506000A5FE10B11BB0BDE8F08FA4F828902A7AF5
:10507000594620461CF02FFA1A90A4F828A0594649
:1050800020460BF0F2F81890297A189A10681A9AAC
:1050900021F09CFA287A0C2833D147F6FF711A9830
:1050A000884202D0199888422BD120461CF089FDF5
:1050B000019000EBD070471020461AF0A8FE019036
:1050C00000EBD0704FEA600847F6FF711A988842EB
:1050D00008D1781C08F10101884200DA01E008F1EA
:1050E00001001A9047F6FF711998884208D1781C80
:1050F00008F10101884200DA01E008F1010019908D
:1051000000BF2248FFF730FE064600BF1EB900BFB1
:1051100000BF00BFFEE700BF06B9A3E71A98F06022
:10512000199830613460287A3071C6F808B002A846
:105130000CF066FE314602A80CF03FFF144902A8AD
:105140000CF0F2FE1348059000BF134902A80CF0C2
:10515000D6FEFF22002102A80CF00BFF298802A82E
:105160000CF0D6FE698802A80CF0CDFEE8680A9023
:1051700000BF02A9002081F84E0000BF28690990F5
:1051800000BF02A80CF058FF00BF6BE7B407002473
:105190002B3A03081D3D03084D3C030810B51421AC
:1051A0000148FFF7D9FD10BDB40700242DE9FE4FDB
:1051B00004460F4690464FF00009002543E1E068A1
:1051C00000EBC5004068C0F3406000B13AE1E1681F
:1051D00001EBC501496821F07F401FF0C8F8064681
:1051E00026EA070008B9012000E00020029026EA24
:1051F000080008B9012000E000200190DDE901016C
:10520000814270D0E06850F835A04FF0000B6A463C
:105210001021504620F069FE10B14FF0010B86E0DE
:105220006A461121504620F060FE10B14FF0010B8C
:105230007DE06A461221504620F057FE10B14FF033
:10524000010B74E06A461321504620F04EFE10B167
:105250004FF0010B6BE06A461521504620F045FEE9
:1052600010B14FF0010B62E06A461421504620F065
:105270003CFE10B14FF0010B59E06A461621504632
:1052800020F033FE10B14FF0010B50E06A466A2166
:10529000504620F02AFE10B14FF0010B47E06A465D
:1052A0006B21504620F021FE10B14FF0010B3EE083
:1052B0006A460121504620F018FE10B14FF0010B54
:1052C00035E06A460221504620F00FFE10B14FF043
:1052D000010B2CE06A460421504620F006FE18B16E
:1052E0004FF0010B23E0ACE06A460521504620F068
:1052F000FCFD10B14FF0010B19E06A460621504643
:1053000020F0F3FD10B14FF0010B10E06A460721C9
:10531000504620F0EAFD10B14FF0010B07E06A465D
:105320003021504620F0E1FD08B14FF0010BBBF1F8
:10533000000F02D00320BDE8FE8F6A466821504668
:1053400020F0D3FD10B14FF0020979E06A466921DF
:10535000504620F0CAFD10B14FF0020970E06A46D5
:105360006E21504620F0C1FD10B14FF0020967E0F8
:105370006A466C21504620F0B8FD10B14FF002098A
:105380005EE06A466D21504620F0AFFD10B14FF04F
:10539000020955E06A463A21504620F0A6FD10B1B8
:1053A0004FF002094CE06A463B21504620F09DFD3B
:1053B00010B14FF0020943E06A463821504620F010
:1053C00094FD10B14FF002093AE06A463C21504684
:1053D00020F08BFD10B14FF0020931E06A463E210A
:1053E000504620F082FD10B14FF0020928E06A46D5
:1053F0004021504620F079FD10B14FF002091FE026
:105400006A464121504620F070FD10B14FF002096C
:1054100016E06A464221504620F067FD10B14FF079
:1054200002090DE06A464821504620F05EFD10B1A9
:105430004FF0020904E0B9F1000F01D14FF001096A
:1054400000BF00BF6D1C608DC0F30510A8423FF681
:10545000B6AE48466FE770B50446204603F0F6FA4C
:105460000546A06830B1A068408D65F38B20A16827
:10547000488509E045B1204619F0EBFCA068408D55
:1054800065F38B20A168488570BD00000148006964
:10549000704700009C070024704700000146FF2968
:1054A00001D13F20704709B90020FBE78D2902DABE
:1054B0000948405CF6E7A1F18D00C1B20748006BD6
:1054C00038B10648806A884203D90448006B405CC2
:1054D000E8E70020E6E7000049FB03089C070024FA
:1054E0002DE9F04105460F4616460DB9BDE8F0819D
:1054F000284620F0F2FC8046394628460A4A1268BF
:1055000090470746E8193146074A12689047064611
:105510003C4603E0A019285C2855641CA8EB060053
:10552000A042F7D200BFE1E7300000242DE9F041AE
:1055300006460C4617461D4629463046084A12685C
:1055400090472060206830B1296888190021044AFA
:105550001268904700E000203860BDE8F08100004C
:10556000280000242DE9F04F85B004460F469246EE
:105570009846DDE90E560DB1002028601CB90020C8
:1055800005B0BDE8F08F207808B90020F8E70FB922
:105590000020F5E74FF0000906F0010010B906F011
:1055A000020098B1002000E0401C215C0A2905D0CF
:1055B000215C0D2902D0215C0029F5D1215C01B1CB
:1055C000401C15B14FF0FF312960D9E706F001000A
:1055D00008B16FF060480020049032E00020039092
:1055E000049808B9012000E0002003A9CDE900617A
:1055F00002900499601843465246394622F00AF850
:1056000083460398A8EB000803988144BBF1000F80
:1056100000D11CE004985844049020780A2802D055
:1056200020780D2800D112E00498205C0A2803D0CD
:105630000498205C0D2803D10498401C049006E0D7
:1056400000BF0498205C10B1B8F1000FC6DC00BFA9
:10565000049868B904A92046084A1268904783460E
:105660002DB100225946384615F010FD814600BF85
:105670000DB1C5F80090049882E7000028000024CE
:105680002DE9F04706468846174606B10FB9BDE832
:10569000F087304620F021FC8146384620F01DFC82
:1056A000044604B9F3E704EB090A414630460B4AC5
:1056B000126890478046554603E0281B305C7055C1
:1056C0006D1E08EB0400A842F7D906EB080022463D
:1056D000394618F0A1FB00BFD9E7000030000024D4
:1056E000014609B900207047B1F59C4F04D3B1F5CC
:1056F000204F01D20120F6E7B1F57F4F05D94FF6D3
:105700005E70814201D80120EDE7B1F5405F04D31E
:10571000B1F5415F01D20120E5E7B1F53A5F04D36D
:10572000B1F53C5F01D20120DDE7B1F5475F05D35C
:1057300043F2EF10814201D80120D4E7B1F5415F77
:1057400004D3B1F5445F01D20120CCE74FF61060DD
:10575000814205D34FF61F60814201D80120C2E784
:105760004FF63060814205D34FF64F60814201D839
:105770000120B8E70020B6E70146202901D2012028
:10578000704740F21C60814201D10120F8E741F2EC
:105790005F10814201D10120F2E7B1F58B5F01D1A9
:1057A0000120EDE741F60B00814204D3C01C814289
:1057B00001D80120E4E742F20B00814204D3001D2E
:1057C000814201D80120DBE742F22800814204D364
:1057D000C01D814201D80120D2E742F25F00814220
:1057E00005D342F26F00814201D80120C8E74FF68D
:1057F000FF60814201D10120C2E74FF6FF008142E4
:1058000001D10120BCE70020BAE70146202901D2DE
:105810000120704740F21C60814201D10120F8E76D
:1058200041F25F10814201D10120F2E7B1F58B5FB7
:1058300001D10120EDE741F60B00814204D3C01CE9
:10584000814201D80120E4E742F20B00814204D3F7
:10585000001D814201D80120DBE742F2280081428D
:1058600004D3C01D814201D80120D2E742F25F007B
:10587000814205D342F26F00814201D80120C8E77E
:105880004FF6FF60814201D10120C2E74FF6FF00D1
:10589000814201D10120BCE70020BAE773B582B094
:1058A0000546039801902A4600210846019B23F0F3
:1058B00027FB0646002001900024701C18F012FA05
:1058C000044600BF1CB900BF00BF00BFFEE700BF19
:1058D00014B9002004B070BD2A46711C2046039BF9
:1058E00023F00EFB2046F5E710B518210348FFF71B
:1058F00033FA012023F052F810BD000010080024F4
:105900002DE9F04781460E4614461F46DDF820A0DB
:1059100035461BE0600800FB075529464846D0473E
:10592000B0F1000809DD04F0010080F00100C0EBD7
:105930005404E8190546064608E0B8F1000F02DAFB
:105940006408354602E02846BDE8F087002CE1D126
:105950000020F9E72DE9FF4F8BB0074600250C9892
:1059600000B9FA4FEAE20E98007825280AD02A46B4
:105970006D1C0E990878DDE90C13B8470E98401C91
:105980000E90DBE20E98401C0E90002400BF0E9893
:1059900000782B2819D004DC20281ED023282CD1F5
:1059A00023E02D2809D0302827D144F001040E9897
:1059B000401C0E9001200A9022E044F002040E9850
:1059C000401C0E9001200A901AE044F004040E9846
:1059D000401C0E9001200A9012E044F008040E983A
:1059E000401C0E9001200A900AE044F010040E982A
:1059F000401C0E9001200A9002E000200A9000BF97
:105A000000BF0A980028C2D180460E990878FEF798
:105A100058FB20B10EA8FEF710FB804612E00E984E
:105A200000782A280ED1189901C91891002804DAA3
:105A300044F00204C0F1000800E080460E99491CC1
:105A40000E9100BF4FF000090E9800782E281FD14C
:105A500044F480640E98401C0E900E990878FEF76E
:105A600030FB20B10EA8FEF7E8FA814610E00E9850
:105A700000782A280CD1189901C91891002801DD55
:105A8000014600E0002189460E99491C0E9100BF95
:105A90000E9800786C280AD004DC682816D06A2892
:105AA00035D128E0742820D07A2830D129E044F478
:105AB00080740E98401C0E900E9800786C2804D1CB
:105AC00044F400740E98401C0E9021E044F08004D1
:105AD0000E98401C0E900E980078682804D144F06F
