:020000040800F2
:1000000018070020B10200082D3700080734000847
:100010002937000841030008F13C000800000000F7
:100020000000000000000000000000008F3A0008FF
:10003000450300080000000031370008913A00082D
:10004000CB020008CB020008CB020008CB0200085C
:10005000CB020008CB020008CB020008CB0200084C
:10006000CB020008CB020008CB020008CB0200083C
:10007000CB020008CB020008CB020008CB0200082C
:10008000CB020008CB020008CB0200084D03000899
:100090006D0300085D0300087D030008CB02000823
:1000A000CB020008CB020008CB020008CB020008FC
:1000B000CB020008CB020008CB020008CB020008EC
:1000C000CB020008CB020008CB020008CB020008DC
:1000D000CB020008CB020008CB020008CB020008CC
:1000E000CB020008CB02000800000000CB02000891
:1000F000CB020008CB020008CB020008CB020008AC
:10010000CB020008CB020008CB020008CB0200089B
:10011000CB020008CB020008CB020008CB0200088B
:10012000CB020008CB020008CB020008CB0200087B
:10013000CB020008CB020008CB020008CB0200086B
:10014000CB020008CB020008000000000000000005
:10015000CB020008CB020008CB020008CB0200084B
:10016000CB020008CB020008CB020008CB0200083B
:10017000CB020008CB020008CB020008CB0200082B
:10018000CB020008CB020008CB020008CB0200081B
:10019000CB020008CB020008CB020008CB0200080B
:1001A0000D340008CB020008CB020008CB02000887
:1001B000CB020008CB020008CB020008CB020008EB
:1001C000CB020008CB020008CB020008CB020008DB
:1001D000CB020008CB020008CB020008CB020008CB
:1001E000CB020008CB020008CB020008CB020008BB
:1001F000CB020008CB020008CB020008CB020008AB
:10020000CB020008CB020008CB020008CB0200089A
:10021000CB020008CB020008CB020008CB0200088A
:10022000CB020008CB020008CB020008CB0200087A
:10023000CB020008CB020008CB020008CB0200086A
:10024000CB020008CB020008CB020008CB0200085A
:10025000CB020008CB020008CB020008CB0200084A
:10026000CB020008CB020008CB020008CB0200083A
:10027000CB020008CB020008CB020008CB0200082A
:10028000CB020008CB020008CB02000800000000EF
:10029000CB020008CB020008DFF810D000F03EF8D7
:1002A000004800474D3D0008AFF3008018070020CC
:1002B0000648804706480047FEE7FEE7FEE7FEE700
:1002C000FEE7FEE7FEE7FEE7FEE7FEE7D13B0008BC
:1002D0009902000840EA01039B0703D009E008C91E
:1002E000121F08C0042AFAD203E011F8013B00F8FB
:1002F000013B521EF9D27047D2B201E000F8012B47
:10030000491EFBD270470022F6E710B513460A4695
:1003100004461946FFF7F0FF204610BD064C074D76
:1003200006E0E06840F0010394E8070098471034C5
:10033000AC42F6D3FFF7B4FF303F0008503F00084F
:1003400000BFFEE7704772B600BFFEE710B5024877
:1003500000F094FA10BD0000EC00002010B5024837
:1003600000F08CFA10BD0000EC00002010B502482F
:1003700000F084FA10BD00008C01002010B5024886
:1003800000F07CFA10BD00008C01002010B5014681
:100390004A6B0868D0F884004FF6FC74A04340EA2A
:1003A00082000C68C4F884000868D0F8840020F447
:1003B0007F04088F44EA00400C68C4F88400886B0E
:1003C00002440868D0F888004FF6FC74A04340EA65
:1003D00082000C68C4F888000868D0F8880020F40F
:1003E000FE04888F44EA00400C68C4F88800C86B9B
:1003F00002EB40020868D0F8A0004FF6FC74A0435E
:1004000040EA82000C68C4F8A0000868D0F8A00098
:1004100020F4FE044020405A44EA00400C68C4F82E
:10042000A000D1E9104004FB00220868D0F8B00019
:100430004FF6FC74A04340EA82000C68C4F8B00098
:100440000868D0F8B00020F4FE04B1F8480044EA8F
:1004500000400C68C4F8B000D1E9124004FB00224F
:100460000868D0F8AC004FF6FC74A04340EA820064
:100470000C68C4F8AC00D1E9144004FB0022086801
:10048000D0F8F0004FF6FC74A04340EA82000C68FC
:10049000C4F8F0000868D0F8F00020F47C14B1F83B
:1004A000580044EA00400C68C4F8F000886D02EB84
:1004B00040020868D0F8C0004FF6FC74A04340EA40
:1004C00082000C68C4F8C0000868D0F8C00020F4AE
:1004D0007C14B1F85C0044EA00400C68C4F8C00029
:1004E0000868D0F8C00020F07C5491F8600044EA1D
:1004F00000600C68C4F8C0002A4C486B04EB800014
:10050000C866CC6E886B04EB80040C670C6FC86BFC
:1005100004EBC0044C67D1E9100460434C6F04EB5A
:1005200080048C67D1E9120460438C6F04EB800473
:10053000CC67D1E914046043CC6F04EB80048020C5
:1005400044504458886D04EBC004842044508C6EA1
:10055000C86D60438424645804EB800488204450B0
:100560008C6E086E60438824645804EB80049020ED
:10057000445040580C4CA04209D99831486840F08A
:1005800020004860032001F89809012010BDCB6EBF
:1005900002E0002018601B1D902040589842F8D8B7
:1005A0000020F3E700AC0040FCD300402DE9F0410F
:1005B000054614461E46D1F804C0BCF1000F0AD10E
:1005C000D1F810C0D1F808804CEA080CB1F80080CE
:1005D0004CEA88430BE0D1F810C04CF0804CD1F8C5
:1005E00008804CEA080CD1F800804CEA080391F826
:1005F0002080D1F81CC04CEA086CD1F818804CEA75
:10060000080CD1F814804CEA080CD1F80C804CEAA4
:100610000807D5F868C00CFB06FCD5F8848008EB09
:100620008C021360121D1760121D002019E000F1EA
:10063000030C14F80CC04FEA0C6800F1020C14F81B
:100640000CC048EA0C4800F1010C14F80CC048EA50
:100650000C2C14F800804CEA080CC2F800C0121DE3
:10066000001DDFF81880D1F80CC008EB1C4C9CF87A
:1006700000C08445DBD8BDE8F0810000C43E00081E
:1006800002460868B0B9D1E901031843CB681843A2
:100690000B6918434B6918438B691843CB6918439E
:1006A0000B6A18434B6A184313686FF30E03184321
:1006B000106019E0D1E9070318434B6A1843136827
:1006C00023F4F84318431060D1E901031843CB68C1
:1006D00018430B6918434B6918438B6918435368D7
:1006E0006FF30E03184350600020704702465069B4
:1006F00043F6FE73984340EA410050610020704782
:1007000010B50346D1E9000420438C68641E40EA1A
:100710004410CC6840EA44201C696FF31504204360
:100720001861002010BD000030B50346FAB9086812
:10073000401E4C68641E40EA04148868401E44EA67
:100740000024C868401E44EA0034088A401E44EA77
:100750000044888A401E44EA0054087E401E44EA51
:1007600000609C6804F070442043986022E0C868F0
:10077000401E0403888A401E44EA00509C680E4DC7
:100780002C40204398600868401E4C68641E40EA74
:1007900004148868401E44EA0024088A401E44EA83
:1007A0000044087E401E44EA0060DC6804F07044A7
:1007B0002043D860002030BDFF0F0FFF70B5044606
:1007C00000F03AFE06462546681C10B10448007841
:1007D000054400BF00F030FE801BA842FAD370BD74
:1007E000140000202DE9F04104460E4617467068BB
:1007F00000B900E000BF94F89800022832D12068C8
:10080000D0F8C00000F07C5040B9D4F89C0040F013
:100810002000C4F89C000120BDE8F0812068D0F8D9
:10082000C40000F4001038B1D4F89C0040F400700B
:10083000C4F89C000120EFE72068D0F8C400C0F3A2
:1008400004452B463A4631462046FFF7AFFE0120CD
:10085000A8402168C1F8D0000120A840C4F8940045
:100860000020D9E7D4F89C0040F00800C4F89C00B0
:100870000120D1E770477047704770472DE9F04F6E
:100880008DB00446EF4800688707EE48001D0068F9
:1008900007EA80772068006D00F470482068406D9A
:1008A00000EA08082068006D00F00F092068406D1C
:1008B00000EA09092068006D00F0F00A2068406D28
:1008C00000EA0A0A2068006D00F0715B2068406D44
:1008D00000EA0B0B2068006D00F060700C9020683F
:1008E000406D0C9908400C902068456D2068066D9D
:1008F000C5F3002070B1C6F3002058B100BF4FF41B
:100900008070216808650020CE49086000BF20463D
:10091000FFF7B3FFC5F38020C8B1C6F38020B0B1A4
:100920002068D0F8DC000A902068D0F8E4000A992A
:1009300008400A9000BF4FF48060216808650020DD
:10094000C049086000BF20460A9900F0BEFB67B1AD
:1009500000BFBD48384021680865B80FB949086034
:1009600000BF39462046FFF785FFB8F1000F0ED0D3
:1009700000BFB54808EA0000216808654FEA987092
:10098000B049086000BF4146204600F0A0FBB9F125
:10099000000F0ED000BFAC4809EA000021680865CE
:1009A0004FEA9970A749086000BF4946204600F009
:1009B00084FBBAF1000F0ED000BFA3480AEA000082
:1009C000216808654FEA9A709E49086000BF514649
:1009D000204600F073FBC5F3C02070B1C6F3C02001
:1009E00058B100BF4FF400602168086500209549A8
:1009F000086000BF204600F06BFBC5F34020C8B183
:100A0000C6F34020B0B12068D0F8D8000B90206821
:100A1000D0F8E0000B9908400B9000BF4FF4007035
:100A20002168086500208749086000BF20460B99AF
:100A300000F04CFBC5F3C04070B1C6F3C04058B1E4
:100A400000BF4FF400202168086500207D49086040
:100A500000BF204600F030FBC5F3004070B1C6F384
:100A6000004058B100BF4FF4803021680865002075
:100A70007449086000BF204600F026FBC5F38040A3
:100A800070B1C6F3804058B100BF4FF48020216898
:100A9000086500206B49086000BF204600F013FB8A
:100AA000C5F3404088B1C6F3404070B100BF4FF479
:100AB00000302168086500206249086000BFD4F852
:100AC0009C0040F08000C4F89C000C9870B100BFFE
:100AD0005D490C980840216808650C98800F5949B9
:100AE000086000BF20460C99FFF7C6FEBBF1000F5F
:100AF00010D000BF54480BEA0000216808654FEA97
:100B00009B705049086000BFD4F89C0040EA0B007D
:100B1000C4F89C004D49206888427DD16068806897
:100B200000F00300002877D06068006A00F00F0032
:100B300009906068406A0999084009906068006AF5
:100B400000F0300008906068406A089908400890FA
:100B50006068006A00F4C07007906068406A079996
:100B6000084007906068006A00F4FC4006906068E6
:100B7000406A0699084006906068006A00F4F02018
:100B800005906068406A0599084005906068406A71
:100B900002906068006A0190099830B10998616814
:100BA00008622046099900F08BFA089830B108983D
:100BB000616808622046089900F084FA0298C0F340
:100BC0008010A0B10198C0F3801080B16068C06B44
:100BD000000C04906068C06B00F03F000390402060
:100BE000616808622046DDE9032100F06AFA07988F
:100BF00030B10798616808622046079900F05FFAF3
:100C0000069840B1069861680862D4F89C0006997D
:100C10000843C4F89C0000E00AE0059840B105983C
:100C200061680862D4F89C0005990843C4F89C00E8
:100C3000D4F89C0010B12046FFF71DFE0DB0BDE8B2
:100C4000F08F000010A80040FFFFCF3F00A0004041
:100C500070B594B004464C22B34901A8FFF73AFBA3
:100C600014B9012014B070BDB0492068884203D186
:100C7000206800F580706060A068B0F5407F00D10A
:100C800000BF206C00B100BFA06C00B100BF206DA0
:100C900000B100BF206E00B100BFD4E917100844B6
:100CA00000B100BF94F8980028B9002084F899009A
:100CB000204600F03DF92068806920F0100021688E
:100CC000886100F0B9FB05460EE000F0B5FB401B63
:100CD0000A2809D99834606840F001006060032058
:100CE00004F898090120BDE72068806900F0080039
:100CF0000828EAD02068806940F0010021688861F6
:100D000000F09AFB05460EE000F096FB401B0A2817
:100D100009D99834606840F001006060032004F84D
:100D2000980901209EE72068806900F001000028F2
:100D3000EAD02068806940F0020021688861207C48
:100D4000012806D12068806920F040002168886170
:100D500005E02068806940F0400021688861607C7F
:100D6000012806D12068806940F4804021688861AC
:100D700005E02068806920F4804021688861A07CBB
:100D8000012806D12068806920F48050216888619C
:100D900005E02068806940F48050216888612068FF
:100DA000806920F44070A168084321688861206848
:100DB000806920F0A400216888612068006920F023
:100DC000100021680861E068012806D12068806968
:100DD00040F004002168886120E0E068F0B1E0683C
:100DE000022815D02068806940F080002168886161
:100DF0002068006940F0100021680861E06803285D
:100E00000CD12068806940F020002168886105E0ED
:100E10002068806940F0200021688861207E401EA3
:100E20004106E069401E41EA0020216A491E08434C
:100E3000A18A491E40EA01402168C861A068B0F556
:100E4000407F0FD1A06A401EE16A491E40EA01219D
:100E5000206B401E41EA0011A08C401E41EA004078
:100E60002168C860206E38B12068D0F8C000616E7B
:100E700008432168C1F8C000D4E91710084460B1E4
:100E80002068D0F8C80020F0070001AAA16E52F82F
:100E9000211008432168C1F8C800206C60B12068A7
:100EA000D0F8BC0020F0070001AA616C52F82110B4
:100EB00008432168C1F8BC00A06C68B12068D0F874
:100EC000BC0020F0700101AAE06C52F8200041EA59
:100ED00000102168C1F8BC00206D68B12068D0F80E
:100EE000BC0020F4E06101AA606D52F8200041EAE4
:100EF00000202168C1F8BC000C492068884205D157
:100F00006068806820F0030061688860002044F811
:100F1000940FA06001202071943C2046FFF736FA20
:100F2000064630469EE60000D43E000800A0004081
:100F300010B5BAB00446142134A8FFF7E4F9C8216B
:100F400002A8FFF7E0F957492068884252D14FF4D0
:100F500000410020CDE9021048031F9002A800F0D4
:100F600019FC08B1FFF7EFF94F480068401C4E49E3
:100F700008600846006801280DD100BF4B48006892
:100F800040F48070494908600846006800F48070A9
:100F9000019000BF00BF00BF44480C38006840F01B
:100FA000020042490C3908600846006800F002005F
:100FB000019000BF00BF4FF4407034900220359084
:100FC0000020369037900920389034A9384800F036
:100FD00029F900221146132000F040FB132000F0F5
:100FE00029FB00221146152000F038FB152000F0E7
:100FF00021FB55E02F492068884251D14FF4004130
:101000000020CDE9021048031F9002A800F0C2FBA7
:1010100008B1FFF798F924480068401C224908608D
:101020000846006801280DD100BF2048006840F440
:1010300080701E4908600846006800F480700190C6
:1010400000BF00BF00BF19480C38006840F0020024
:1010500016490C3908600846006800F0020001904B
:1010600000BF00BF42F220003490022035900020E3
:10107000369037900920389034A90D4800F0D2F806
:1010800000221146142000F0E9FA142000F0D2FAF0
:1010900000221146162000F0E1FA162000F0CAFAEC
:1010A0003AB010BD00A0004000000020EC440258FF
:1010B0000004025800A40040704770477047704712
:1010C0007047704770477047704770477047704768
:1010D0007047000000B5B9B0142134A8FFF713F928
:1010E0004748006808B139B000BD01204449086094
:1010F000C82102A8FFF707F94FF080710020CDE961
:101100000210149002A800F045FB08B1FFF71BF98C
:1011100000BF3C48006840F480503A4908600846E7
:10112000006800F48050019000BF00BF40F2FF60F3
:1011300034900220359000203690032037900C2008
:10114000389034A9304800F06DF84FF68370349031
:101150000220359000203690032037900C203890E4
:1011600034A92A4800F05EF84FF47F403490022002
:10117000359000203690032037900C20389034A909
:10118000234800F04FF848F2331034900220359095
:1011900000203690032037900C20389034A91D4849
:1011A00000F040F84CF2037034900220359000209B
:1011B0003690032037900C20389034A9164800F060
:1011C00031F84FF63F0034900220359000203690E1
:1011D000032037900C20389034A9104800F022F8F2
:1011E0000D20349002203590002036900320379057
:1011F0000C20389034A90A4800F014F800BF72E7B8
:1012000004000020D4440258002002580010025864
:10121000001C025800180258000C02580014025812
:1012200000080258F8B502460B4600216F4DD7E082
:1012300001278F401E6806EA0704002C72D01E7931
:1012400006F00306012E04D01E7906F00306022ED6
:1012500013D190684F000326BE40B0434F00DE68B4
:10126000BE4030439060506801268E40B0431E79E6
:10127000C6F300168E40304350601E7906F0030618
:10128000032E09D0D0684F000326BE40B0434F0064
:101290009E68BE403043D0601E7906F00306022EE1
:1012A00013D1CF0802F1200656F827004E07F70E9B
:1012B0000F26BE40B0434F07FF0E1E69BE403043AD
:1012C000CF0802F1200646F8270010684F000326D9
:1012D000BE40B0431E7906F003064F00BE403043C7
:1012E00010605E6806F44036002E78D000BF404E95
:1012F000366846F002063E4F3E603E46366806F0CF
:101300000206009600BF00BF3A4E8F0856F827002D
:101310008E07370F0F26BE40B043374EB24202D180
:1013200000262EE05BE0354EB24201D1012628E0D6
:10133000334EB24201D1022623E0324EB24201D1F5
:1013400003261EE0304EB24201D1042619E02F4E92
:10135000B24201D1052614E02D4EB24201D106263B
:101360000FE02C4EB24201D107260AE02A4EB242CB
:1013700001D1082605E0294EB24201D1092600E03C
:101380000A268F073F0FBE4030431A4E8F0846F89B
:1013900027004FF0B0463068A0435E6806F4801620
:1013A00006B120434FF0B04630607068A0435E68DD
:1013B00006F4001606B120434FF0B046706068682E
:1013C000A0435E6806F4003606B1204368602868D2
:1013D000A0435E6806F4803606B120432860491CAD
:1013E0001E68CE40002E7FF423AFF8BD8000005869
:1013F000F44402580804005800000258000402583F
:1014000000080258000C025800100258001402583C
:1014100000180258001C02580020025800240258EC
:101420000AB1816101E00B048361704701480068E3
:10143000000C70470010005C014800687047000015
:101440000C0000200348006803490978084401495A
:10145000086070470C0000201400002010B5032025
:1014600000F03AF901F004FA10490968C1F30321C8
:101470000F4A515C01F01F0120FA01F40B4800688B
:1014800000F00F001146085C00F01F0024FA00F085
:1014900008490860084804600F2000F00FF808B100
:1014A000012010BD00F0B4F80020FAE718440258FB
:1014B000203F00081C0000201800002070B50446E2
:1014C0001148007808B9012070BD0F4800784FF42A
:1014D0007A71B1FBF0F00D490968B1FBF0F52846CF
:1014E00001F077FF08B10120EEE7102C07D20022AF
:1014F0002146501E00F0B2F80548046001E00120CA
:10150000E2E70020E0E700001400002018000020BF
:1015100010000020704770B504462068856B206875
:10152000466B05F00400E0B106F00400C8B1206885
:10153000406B20F004002168486304202168C863E0
:10154000D4F8A40040F00100C4F8A400042084F8FA
:10155000A10000BF002084F8A00000BF2046FFF7D4
:10156000D9FF05F00200E0B106F00200C8B1206822
:10157000406B20F002002168486302202168C863A4
:10158000D4F8A40040F00200C4F8A400042084F8B9
:10159000A10000BF002084F8A00000BF2046FFF794
:1015A000B9FF05F00100A8B106F0010090B1206874
:1015B000406B20F001002168486301202168C86366
:1015C00084F8A10000BF002084F8A00000BF2046DE
:1015D00000F01BF805F00800B0B106F0080098B163
:1015E0002068406B20F008002168486308202168CB
:1015F000C863012084F8A10000BF002084F8A00087
:1016000000BF204600F002F870BD70477047000030
:1016100008B500BF0648006840F0020004490860B1
:101620000846006800F00200009000BF00BF08BD3F
:10163000F44402580146084600280DDB00BF00BFF5
:1016400000F01F0301229A4043099B0003F1E023AD
:10165000C3F8002100BF00BF00BF70472DE9F05F55
:1016600080460D46164602F045FB074639462A4697
:10167000334601F00700C0F1070ABAF1040F02D99E
:101680004FF0040A01E0C0F1070AD14600F1040A54
:10169000BAF1070F02D24FF0000A01E0A0F1030AED
:1016A000D4464FF0010A0AFA09FAAAF1010A0AEA35
:1016B000020A0AFA0CFA4FF0010B0BFA0CFBABF121
:1016C000010B0BEA030B4AEA0B042146404602F0E9
:1016D00019FBBDE8F09F000000BF00F00702064BB9
:1016E00019684FF6FF031940044B0B4343EA0221EC
:1016F000014B196000BF70470CED00E00000FA05D7
:1017000070B504462248006800F00700062809D09A
:101710001F48006800F03F00A04201D0012070BDCA
:101720000020FCE71A48006820F03F0020431849D9
:101730000860FFF781FE054607E0FFF77DFE401BCE
:10174000B0F57A7F01D90120E9E71148083800682F
:10175000C0F340300028F0D01E2C05D02E2C03D032
:101760001D2C01D02D2C11D1FFF766FE054607E098
:10177000FFF762FE401BB0F57A7F01D90120CEE76A
:1017800003480068C0F300400028F1D00020C6E7FD
:101790000C4802582DE9F04104460025A8464FF0B8
:1017A0000062D4E90001104000211346584049402E
:1017B000084331D1E06E48B1B0F5801F0DD0B0F5CF
:1017C000001F11D0B0F5401F16D114E0FB4800688F
:1017D00040F40030F949086010E0022104F10800EB
:1017E00001F0A8FF054609E0022104F1280002F0FB
:1017F00053F8054602E001E0012500BF00BF55B9DE
:10180000EE482430006820F44010E16E0843EB49B4
:101810002431086000E0A8464FF48072D4E900014A
:101820001040002113465840494008432ED1E06D36
:1018300005281BD2DFE800F0030A11181900DF4861
:10184000006840F40030DD49086011E0002104F137
:10185000080001F06FFF05460AE0002104F12800AE
:1018600002F01AF8054603E002E001E0012500BF9E
:1018700000BF55B9D1482430006820F00700E16D61
:101880000843CE492431086000E0A8464FF40072B6
:10189000D4E9000110400021134658404940084354
:1018A00034D1206E802818D003DC40B140281DD1EF
:1018B0000CE0C02818D0B0F5807F17D115E0BF48E4
:1018C000006840F40030BD49086011E0002104F1D7
:1018D000080001F02FFF05460AE0002104F128006E
:1018E00001F0DAFF054603E002E001E0012500BF58
:1018F00000BF55B9B1482430006820F4E070216E73
:101900000843AE492431086000E0A8464FF48062E5
:10191000D4E90010114000201346594040400143D3
:1019200039D1D4F8AC00B0F5800F1AD004DC50B136
:10193000B0F5001F1ED10DE0B0F5C00F18D0B0F506
:10194000000F17D115E09D48006840F400309B4916
:10195000086011E0002104F1080001F0EBFE0546EB
:101960000AE0002104F1280001F096FF054603E09B
:1019700002E001E0012500BF00BF5DB98F482C30B7
:10198000006820F46000D4F8AC1008438B492C3177
:10199000086000E0A8464FF40063D4E90010194045
:1019A000002059404040014339D1D4F8B000B0F193
:1019B000007F1AD004DC50B1B0F1807F1ED10DE061
:1019C000B0F1407F18D0B0F1806F17D115E07B489F
:1019D000006840F400307949086011E0002104F10A
:1019E000080001F0A7FE05460AE0002104F12800E6
:1019F00001F052FF054603E002E001E0012500BFCF
:101A000000BF5DB96D482C30006820F0E060D4F86C
:101A1000B010084369492C31086000E0A8464FF037
:101A20000072D4E90001104000211346584049409B
:101A3000084328D1E06CA8B1102804D0202809D090
:101A4000302810D10DE05D48006840F400305B495B
:101A500008600AE0022104F1080001F06BFE05466F
:101A600003E002E001E0012500BF00BF55B9534883
:101A70002030006820F03000E16C08434F492031ED
:101A8000086000E0A8464FF48053D4E900101940E4
:101A9000002059404040014337D1606EB0F5005FEF
:101AA0001AD004DC50B1B0F5805F1ED10DE0B0F566
:101AB000405F18D0B0F5804F17D115E03F4800685F
:101AC00040F400303D49086011E0002104F10800B5
:101AD00001F030FE05460AE0002104F1280001F083
:101AE000DBFE054603E002E001E0012500BF00BF88
:101AF00055B932482430006820F4E040616E084354
:101B00002E492431086000E0A8464FF40053D4E980
:101B100000101940002059404040014335D1A06ECB
:101B2000B0F5403F1ED007DC68B1B0F5803F0BD068
:101B3000B0F5003F19D10EE0B0F5802F13D0B0F50D
:101B4000A02F12D110E012E0012104F1080001F0F1
:101B5000F1FD05460BE0012104F1280001F09CFE97
:101B6000054604E003E002E001E0012500BF00BFFC
:101B700055B912482430006820F4E020A16E0843D3
:101B80000E492431086000E0A8464FF48043D4E9B0
:101B900000101940002059404040014338D1D4F88A
:101BA000B400B0F1405F21D00ADC80B1B0F1805FB9
:101BB0000ED0B0F1005F1CD111E000002C4402589F
:101BC000B0F1804F13D0B0F1A04F12D110E012E06D
:101BD000012104F1080001F0ADFD05460BE00121F3
:101BE00004F1280001F058FE054604E003E002E09D
:101BF00001E0012500BF00BF4DB9F748006820F0A3
:101C0000E040D4F8B4100843F349086000E0A84667
:101C10004FF08063D4E90010194000205940404043
:101C200001431CD1206D48B1B0F5807F07D101215F
:101C300004F1080001F07EFD054602E001E0012507
:101C400000BF00BF55B9E4480C38006820F480702C
:101C5000216D0843E0490C39086000E0A8464FF4C4
:101C60000043D4E90001184000215840494008438E
:101C700029D1606FB0B1B0F1805F03D0B0F1005FE7
:101C800011D108E0D4482C38006840F40030D24923
:101C90002C39086009E0012104F1080001F04AFD37
:101CA000054602E001E0012500BF00BF55B9CA4862
:101CB0000838006820F04050616F0843C649083971
:101CC000086000E0A8464FF08072D4E9001011408F
:101CD000002013465940404001432AD1A06CB8B1BE
:101CE000012804D002280BD0032812D10FE0BA48F3
:101CF0002C38006840F40030B7492C3908600AE0FD
:101D0000022104F1080001F015FD054603E002E0A0
:101D100001E0012500BF00BF55B9AF480C3800688D
:101D200020F00300A16C0843AB490C39086000E0C7
:101D3000A8464FF48002D4E9000110400021134668
:101D40005840494008437DD1A448006840F4807061
:101D5000A2490860FFF770FB064606E0FFF76CFB40
:101D6000801B642801D9032505E09C48006800F425
:101D700080700028F2D000BF85BB974818300068FB
:101D800000F44070B4F8B81001F44071884213D0E8
:101D900091481830006820F440778F481830006868
:101DA00040F480308C49183108600846006820F4FF
:101DB0008030086008460760D4F8B800B0F5807F2E
:101DC00015D1FFF739FB064609E0FFF735FB801B0D
:101DD00041F28831884202D9032507E038E07E4885
:101DE00018300068C0F340000028EED000BF55BB9B
:101DF00000BFB4F8B80000F44070B0F5407F0ED1D9
:101E000075484838006820F47C51754AD4F8B80009
:101E1000104041EA101070494839086007E06E48E8
:101E20004838006820F47C506B49483908606A489B
:101E300018300068B4F8B810C1F30B0108436649C4
:101E4000183101E005E001E0086002E0A84600E08A
:101E5000A8460122D4E90010114000201346594041
:101E60004040014332D1D4F8800018281AD005DC54
:101E700048B1082808D0102817D10CE0202812D02B
:101E8000282812D110E012E0012104F1080001F02D
:101E900051FC05460BE0012104F1280001F0FCFC97
:101EA000054604E003E002E001E0012500BF00BFB9
:101EB0005DB94948001F006820F03800D4F8801050
:101EC00008434549091F086000E0A8460223D4E9F9
:101ED00000011840002158404940084329D1E06FD3
:101EE000062816D2DFE800F003040B12131412E0E8
:101EF000012104F1080001F01DFC05460BE0012161
:101F000004F1280001F0C8FC054604E003E002E00B
:101F100001E0012500BF00BF55B92F48001F006830
:101F200020F00700E16F08432B49091F086000E01B
:101F3000A8460423D4E90001184000215840494034
:101F4000084329D1D4F89800062816D2DFE800F01B
:101F500003040B12131412E0012104F1080001F034
:101F6000E9FB05460BE0012104F1280001F094FC97
:101F7000054604E003E002E001E0012500BF00BFE8
:101F80004DB91548006820F00700D4F898100843B0
:101F90001149086000E0A8462023D4E90001184058
:101FA00000215840494008433CD1D4F89400B0F196
:101FB000405F25D007DC68B1B0F1805F12D0B0F18E
:101FC000005F20D115E0B0F1804F1AD0B0F1A04FE2
:101FD00019D117E019E0000058440258004802588F
:101FE000FFFCFF0F002104F1080001F0A3FB0546F0
:101FF0000BE0022104F1280001F04EFC054604E04C
:1020000003E002E001E0012500BF00BF4DB9FE483A
:10201000006820F0E040D4F894100843FA490860C2
:1020200000E0A8464022D4E90010114000201346E9
:1020300059404040014337D1D4F8A000B0F5406F7B
:102040001ED007DC68B1B0F5806F0BD0B0F5006F23
:1020500019D10EE0B0F5805F13D0B0F5A05F12D1BA
:1020600010E012E0002104F1080001F063FB0546D6
:102070000BE0022104F1280001F00EFC054604E00B
:1020800003E002E001E0012500BF00BF5DB9DE48CA
:10209000001D006820F4E050D4F8A0100843DA498D
:1020A000091D086000E0A8468022D4E90010114014
:1020B0000020134659404040014337D1D4F8A400D2
:1020C000B0F5C04F1ED007DC68B1B0F5005F0BD093
:1020D000B0F5804F19D10EE0B0F5004F13D0B0F538
:1020E000204F12D110E012E0002104F1080001F0AD
:1020F00021FB05460BE0022104F1280001F0CCFB96
:10210000054604E003E002E001E0012500BF00BF56
:102110005DB9BD48001D006820F46040D4F8A410EB
:102120000843B949091D086000E0A8460823D4E91E
:1021300000101940002059404040014315D1D4F807
:102140008800B0F5805F07D1022104F1280001F07A
:10215000A3FB08B14FF00108AB48006820F44050E1
:10216000D4F888100843A84908601022D4E9000177
:1021700010400021134658404940084317D1D4F875
:102180009C00B0F5807F07D1022104F1280001F006
:1021900083FB08B14FF001089B48001D006820F444
:1021A0004070D4F89C1008439749091D08604FF40B
:1021B0000022D4E900011040002113465840494054
:1021C000084329D1D4F8A80030B1B0F5803F0AD037
:1021D000B0F5003F0FD10DE0002104F1080001F03F
:1021E000A9FA054609E0022104F1280001F054FB98
:1021F000054602E001E0012500BF00BF5DB982484D
:10220000001D006820F44030D4F8A81008437E492F
:10221000091D086000E0A8464FF48023D4E90010AF
:10222000194000205940404001432BD1D4F88C0084
:10223000B0F5801F06D0B0F5001F0CD0B0F5401FE0
:1022400011D10FE070482838006840F400306E4922
:102250002839086009E0012104F1280001F01CFB85
:10226000054602E001E0012500BF00BF4DB9664808
:10227000006820F44010D4F88C10084362490860CC
:1022800000E0A8464FF48032D4E90001104000215C
:10229000134658404940084325D1606D18B1B0F548
:1022A000803F10D108E058482838006840F40030DA
:1022B00055492839086008E0022104F1080001F0BE
:1022C00039FA054601E0012500BF00BF55B94E4867
:1022D0000838006820F48030616D08434A490839A5
:1022E000086000E0A8464FF00053D4E90001184010
:1022F000002158404940084307D1022104F1280039
:1023000001F0CAFA08B14FF001084FF40032D4E9E5
:10231000000110400021134658404940084327D18E
:10232000D4F88400A0B1B0F5807F06D0B0F5007F6E
:102330000CD0B0F5407F0CD109E033482838006854
:1023400040F4003030492839086004E003E002E03E
:1023500001E0012500BF00BF4DB92B48006820F403
:102360004070D4F8841008432749086000E0A8466C
:102370004FF48013D4E90010194000205940404028
:10238000014309D12048001F006820F00040A16FE0
:1023900008431D49091F08604FF08052D4E900101E
:1023A0001140002013465940404001430AD11648CD
:1023B0004438006820F48040D4F8BC100843124927
:1023C000443908604FF40013D4E90001184000219B
:1023D00058404940084309D10B48001F006820F0CD
:1023E0008070216F08430849091F08604FF080433F
:1023F000D4E900011840002158404940084312D157
:1024000000BF0148443801E054440258006820F4F9
:1024100000404E49086008460068D4F8C0100843E0
:102420004A49086000BF4FF00042D4E90001104063
:102430000021134658404940084309D143483C30E5
:10244000006820F04050A16D084340493C310860CD
:102450004FF40003D4E900101940002059404040D7
:1024600001430AD139484430006820F44000D4F8D0
:10247000901008433549443108600122002061680A
:10248000114040405140084307D1002104F10800A9
:1024900001F050F9054605B1A84602220020616806
:1024A000114040405140084307D1012104F1080088
:1024B00001F040F9054605B1A846042200216068F4
:1024C000104049405040014307D1022104F1080067
:1024D00001F030F9054605B1A846082200216068E0
:1024E000104049405040014306D104F1280001F05A
:1024F000D3F9054605B1A8461022002160681040B6
:1025000049405040014307D1012104F1280001F066
:10251000C3F9054605B1A84620230020616819408B
:10252000202240405140084307D1022104F12800F5
:1025300001F0B2F9054605B1A846B8F1000F02D185
:102540000020BDE8F0810120FBE7000010440258A4
:102550002DE9F04104460D4614B90120BDE8F08193
:10256000BD48006800F00F00A8420ED2BA480068CB
:1025700020F00F002843B84908600846006800F0C2
:102580000F00A84201D00120E8E7207800F0040005
:1025900004280ED1B1492069096801F07001884210
:1025A00007D9AE48006820F0700021690843AB49A4
:1025B0000860207800F00800082811D1A749091DFB
:1025C0006069096801F07001884209D9A348001DBB
:1025D000006820F0700061690843A049091D086087
:1025E000207800F01000102811D19C49091DA06925
:1025F000096801F4E061884209D99848001D006823
:1026000020F4E060A16908439449091D086020781E
:1026100000F02000202811D190490831E0690968B4
:1026200001F07001884209D98C480830006820F018
:102630007000E1690843894908310860207800F09A
:10264000020002280ED18549E068096801F00F01F7
:10265000884207D98148006820F00F00E1680843EC
:102660007E490860207800F00100002850D07B48A7
:10267000006820F47060A1680843784908606068C9
:10268000022807D1754818380068C0F34040F8B9EF
:10269000012063E76068032807D170481838006894
:1026A000C0F34060A0B9012058E76068012807D155
:1026B0006A4818380068C0F3002048B901204DE787
:1026C000664818380068C0F3800008B9012045E763
:1026D00062480838006820F00700616808435F49D5
:1026E00008390860FEF7A8FE064608E0FEF7A4FEDB
:1026F000801B41F28831884201D903202EE75748D8
:102700000838006800F038006168B0EBC10FEDD107
:10271000207800F0020002280ED15049E0680968D4
:1027200001F00F01884207D24C48006820F00F00EA
:10273000E1680843494908604748006800F00F0015
:10274000A8420ED94448006820F00F0028434249AF
:1027500008600846006800F00F00A84201D0012080
:10276000FCE6207800F0040004280ED13B492069E3
:10277000096801F07001884207D23848006820F0EB
:1027800070002169084335490860207800F008008E
:10279000082811D13149091D6069096801F07001EB
:1027A000884209D22D48001D006820F07000616940
:1027B00008432A49091D0860207800F010001028FD
:1027C00011D12649091DA069096801F4E061884218
:1027D00009D22248001D006820F4E060A169084386
:1027E0001E49091D0860207800F02000202811D122
:1027F0001A490831E069096801F07001884209D27C
:1028000016480830006820F07000E1690843134959
:102810000831086000F02CF810490968C1F3032161
:102820000F4A515C01F01F0120FA01F70B480068C4
:1028300000F00F001146085C00F01F0027FA00F0BE
:10284000084908600848076008480068FEF736FE37
:102850008046404682E6000000200052184402589C
:10286000203F00081C00002018000020100000205D
:10287000F0B5824E366806F0380636B1082E15D00F
:10288000102E15D0182E7DD114E07C4E103E3668E7
:10289000C6F3401646B1794E103E3668C6F3C107FE
:1028A000774E26FA07F000E07548E5E07548E3E06A
:1028B0007548E1E0714E1836366806F003046F4E35
:1028C00018363668C6F305116C4E1C36366806F0AD
:1028D00001056A4E24363668C6F3CC0616FB05F6AB
:1028E00001EE106AB8EE410A002971D024B1012C22
:1028F00050D0022C6DD16DE0604E103E3668C6F3AC
:1029000040163EB35D4E103E3668C6F3C1075C4EBE
:1029100026FA07F301EE103AF8EE411A01EE101A0A
:10292000B8EE411A81EE812A9FED581AC0EE011AC5
:10293000524E20363668C6F3080601EE106AB8EE2D
:10294000411A31EE811AF7EE001A31EE211A62EEC9
:10295000010A1EE001EE101AB8EE411ADFED4C1A22
:1029600081EE812A9FED491AC0EE011A434E2036AE
:102970003668C6F3080601EE106AB8EE411A31EE69
:10298000811A00E076E0F7EE001A31EE211A62EECD
:10299000010A5BE001EE101AB8EE411A9FED3D2AE4
:1029A000C2EE011A9FED391A80EE012A334E20360D
:1029B0003668C6F3080601EE106AB8EE411A32EE28
:1029C000011AB7EE002A31EE021A61EE810A3DE0EB
:1029D0004EE01DE001EE101AB8EE411ADFED2E1A9E
:1029E00081EE812A9FED291AC0EE011A234E20366E
:1029F0003668C6F3080601EE106AB8EE411A31EEE9
:102A0000811AF7EE001A31EE211A62EE010A1DE07A
:102A100001EE101AB8EE411A9FED1E2AC2EE011AFD
:102A20009FED1A1A80EE012A144E20363668C6F33E
:102A3000080601EE106AB8EE411A32EE011AB7EE3E
:102A4000002A31EE021A61EE810A00BF00BF0B4E70
:102A500020363668C6F34626721C01EE102AB8EE00
:102A6000411AC0EE811ABCEEE11A11EE100A00E024
:102A7000002001E0034800BF00BFF0BD1044025831
:102A80000090D00300093D0040787D010000004621
:102A90000024744C0024744A20BCBE4B2DE9F0473E
:102AA000044614B90120BDE8F087207800F0010049
:102AB000002870D0FA48006800F03808F84818304C
:102AC000D0F80090B8F1100F06D0B8F1180F0FD160
:102AD00009F0030002280BD1F14810380068C0F358
:102AE000404000286AD06068002867D10120DAE7FA
:102AF00000BF6068B0F5803F08D1E9481038006831
:102B000040F48030E649103908602EE0606868B90A
:102B1000E3481038006820F48030E149103908603B
:102B20000846006820F4802008601EE06068B0F568
:102B3000A02F0DD1DA481038006840F48020D84921
:102B4000103908600846006840F4803008600CE0E6
:102B5000D3481038006820F48030D149103908601B
:102B60000846006820F48020086000BF606898B1C3
:102B7000FEF762FC054606E0FEF75EFC401B64289B
:102B800001D903208FE7C64810380068C0F34040E1
:102B90000028F1D012E012E0FEF74EFC054606E0F8
:102BA000FEF74AFC401B642801D903207BE7BC48A0
:102BB00010380068C0F340400028F1D100BF2078F1
:102BC00000F00200022874D1B548006800F038080F
:102BD000B3481830D0F80090B8F1000F05D0B8F124
:102BE000180F56D109F00300D0BBAD48103800686B
:102BF000C0F3800018B1E06808B9012053E7A84885
:102C00001038006820F01900E1680843A449103921
:102C10000860FEF711FC054606E0FEF70DFC401BC0
:102C2000022801D903203EE79D4810380068C0F310
:102C300080000028F1D000BFFEF7F8FB41F203014D
:102C400088421AD8206940280BD195480C38006872
:102C500020F47C3040F4003091490C39086017E0D2
:102C600017E08F480C38006820F47C30216940EA76
:102C700001308B490C3908600AE089480C3800683B
:102C800020F0FE40217C40EA016085490C39086053
:102C900066E0E06888B382481038006820F01900C8
:102CA000E16808437E4910390860FEF7C5FB054618
:102CB00007E056E0FEF7C0FB401B022801D90320C5
:102CC000F1E6774810380068C0F380000028F1D0A2
:102CD00000BFFEF7ABFB41F2030188421AD820691E
:102CE00040280BD16E480C38006820F47C3040F44A
:102CF00000306B490C39086017E017E068480C3861
:102D0000006820F47C30216940EA013064490C39C4
:102D100008600AE062480C38006820F0FE40217C20
:102D200040EA01605E490C39086019E05C481038DF
:102D3000006820F001005A4910390860FEF77CFB5A
:102D4000054606E0FEF778FB401B022801D9032068
:102D5000A9E6534810380068C0F380000028F1D17C
:102D600000BF207800F0100010287CD14C4800688B
:102D700000F038084A481830D0F80090B8F1080F31
:102D800006D0B8F1180F3DD109F00300012839D160
:102D9000434810380068C0F3002020B1E069802863
:102DA00001D001207FE600BFFEF740FB41F20301A6
:102DB00088421AD8206A20280AD139480C3800687D
:102DC00020F0F84040F0804035490C39086018E0A8
:102DD00033480C38006820F0F84094F8201040EA9E
:102DE00081602F490C3908600BE02D48001F0068F6
:102DF00020F07C5094F8201040EA01602849091F17
:102E0000086066E0E06978B325481038006840F053
:102E10008000234910390860FEF70EFB054606E0E6
:102E2000FEF70AFB401B022801D903203BE61C48A1
:102E300010380068C0F300200028F1D000BFFEF772
:102E4000F5FA41F2030188421CD8206A20280CD1EF
:102E500013480C38006820F0F84040F080401049DA
:102E60000C3908601AE035E01CE00D480C380068A9
:102E700020F0F84094F8201040EA816008490C39AD
:102E800008600BE00648001F006820F07C5094F8B2
:102E9000201040EA01600249091F086019E00000A3
:102EA00010440258FA48006820F08000F849086091
:102EB000FEF7C2FA054606E0FEF7BEFA401B0228FE
:102EC00001D90320EFE5F2480068C0F30020002894
:102ED000F2D100BF207800F00800082836D16069E0
:102EE000D0B1EB487430006840F00100E84974311B
:102EF0000860FEF7A1FA054606E0FEF79DFA401BC2
:102F0000022801D90320CEE5E14874300068C0F3FF
:102F100040000028F1D019E0DD487430006820F04E
:102F20000100DB4974310860FEF786FA054606E0C9
:102F3000FEF782FA401B022801D90320B3E5D448EA
:102F400074300068C0F340000028F1D1207800F010
:102F50002000202830D1A069B8B1CD48006840F4E5
:102F60008050CB490860FEF767FA054606E0FEF799
:102F700063FA401B022801D9032094E5C448006885
:102F8000C0F340300028F2D016E0C148006820F4B9
:102F90008050BF490860FEF74FFA054606E0FEF78D
:102FA0004BFA401B022801D903207CE5B848006891
:102FB000C0F340300028F2D1207800F0040004284B
:102FC0007DD1B448006840F48070B2490860FEF7D3
:102FD00033FA054606E0FEF72FFA401B642801D9B4
:102FE000032060E5AB48006800F480700028F2D050
:102FF00000BFA068012808D1A5487030006840F0E3
:103000000100A349703108602DE0A06868B9A048AC
:103010007030006820F001009D497031086008465A
:10302000006820F0040008601DE0A06805280DD1AC
:1030300097487030006840F004009549703108608E
:103040000846006840F0010008600CE090487030CD
:10305000006820F001008E49703108600846006861
:1030600020F00400086000BFA068A0B1FEF7E4F9FA
:10307000054608E0FEF7E0F9401B41F2883188423E
:1030800001D903200FE5824870300068C0F340008A
:103090000028EFD013E0FEF7CFF9054608E0FEF771
:1030A000CBF9401B41F28831884201D90320FAE470
:1030B000774870300068C0F340000028EFD1606AA4
:1030C00000287DD072481030006800F038001828C1
:1030D00077D0606A022875D16D48006820F0807052
:1030E0006B490860FEF7A8F9054606E0FEF7A4F96B
:1030F000401B022801D90320D5E465480068C0F3CD
:1031000040600028F2D100BFD4E90A1041EA001063
:103110005F492831096840F2F332914308435C4922
:1031200028310860208E401EC0F30800616B491EE4
:103130004FF47E4202EA41210843218F491ED20109
:1031400002EA014108433C21095D491E120202EADC
:10315000016108434E493031086000BF081F006814
:1031600020F00100091F08604948343000684FF61C
:10317000F8718843A16C40EAC100454934310860C8
:1031800043482C30006820F00C00216C0843404973
:103190002C3108600846006820F00200616C08438A
:1031A0003B492C3108600846006840F480300860D4
:1031B0000846006840F4003008600846006802E0F5
:1031C00093E038E01FE040F4802008600846006883
:1031D00040F0010008602E48006840F080702C49E3
:1031E0000860FEF729F9054606E0FEF725F9401BC1
:1031F000022801D9032056E425480068C0F3406046
:103200000028F2D071E02248006820F08070204948
:103210000860FEF711F9054606E0FEF70DF9401BC0
:10322000022801D903203EE419480068C0F3406039
:103230000028F2D159E01648283007681448303089
:103240000668606A012821D007F00301A06A814264
:103250001CD1C7F30511E06A884217D1C6F30801F3
:10326000206B401E814211D1606B401EC6F3462187
:1032700088420BD1A06B401EC6F30641884205D19F
:10328000E06B401EC6F30661884205D001200AE4C7
:10329000004402580048025815480068C0F3CC07A3
:1032A000A06CB84221D012480838006820F0010014
:1032B0000F4908390860FEF7BFF8054600BFFEF762
:1032C000BBF8401BFBD00A4800684FF6F8718843F2
:1032D000A16C40EAC100064908600548083800684A
:1032E00040F0010002490839086000204AE400006B
:1032F0003444025870B504460D460CB9012070BD27
:1033000094F82C0028B9002084F82D00204600F005
:1033100019F8022084F82C00211D2068FDF7B0F96F
:103320002946D4E90002FDF7FFF90548006840F09E
:10333000004003490860012084F82C000020DEE7EB
:103340000040005210B50446FDF7C4FE10BD70B534
:1033500004460D4694F82C00022800D170BD94F864
:103360002C0001280AD1022084F82C00294620686C
:10337000FDF7BCF9012084F82C0001E00120EDE705
:103380000020EBE72DE9F04104460E46174694F87D
:103390002C50022D02D10220BDE8F081012D01D078
:1033A000052D12D1022084F82C003A4631462068BF
:1033B000FDF7A6F93068022803D1052084F82C0017
:1033C00005E0012084F82C0001E00120E4E7002062
:1033D000E2E770B504462546681EB0F1807F01D350
:1033E00001200FE0681E4FF0E02148610F214FF0EF
:1033F000FF3000F087FC00204FF0E02188610720BB
:103400000861002070BD00BFFEE7000010B5024853
:10341000FEF781F810BD00007002002010B51C48B6
:103420001C4908600020886000211A48C1600174AE
:103430004174817406214161012181610F21C161C3
:103440000421016201214162082181620121C162DE
:103450000163002141638163C1630164042141640C
:10346000002181640421C1640021016504214165BA
:1034700000218165C16501210166002141660421A9
:103480008166FDF7E5FB08B1FCF75DFF10BD0000AC
:1034900000A00040EC00002010B51C481C4908604A
:1034A0000020886000211A48C16001744174817451
:1034B00006214161012181610F21C1610421016265
:1034C00001214162082181620121C1620163002161
:1034D00041638163C163016404214164002181640B
:1034E0000421C16400210165042141650021816539
:1034F000C165012101660021416604218166FDF755
:10350000A7FB08B1FCF71FFF10BD000000A400409E
:103510008C01002000B587B01C216846FCF7F3FE43
:1035200019481A4908600020486001211748816045
:103530000421C16020210161402141614FF4C0712B
:1035400081610021C1614FF4006101624900416263
:103550000021816202200090072001900420029047
:1035600007200390032004900220059006906946EE
:103570000648FFF7BFFE08B1FCF7E5FE0449034823
:1035800000F03CFA07B000BD404100523C02002070
:103590002C02002000B587B0142102A8FCF7B3FE6E
:1035A00000BF5D48006840F480705B4908600846D1
:1035B000006800F48070019000BF00BF00BF0846A3
:1035C000006840F0020008600846006800F0020051
:1035D000019000BF00BF00BF0846006840F4806053
:1035E00008600846006800F48060019000BF00BFDA
:1035F00000BF0846006840F04000086008460068C8
:1036000000F04000019000BF00BF00BF0846006806
:1036100040F0100008600846006800F010000190BB
:1036200000BF00BF00BF0846006840F4007008609B
:103630000846006800F40070019000BF00BF00BFA2
:103640000846006840F0080008600846006800F07E
:103650000800019000BF00BF00BF0846006840F0AE
:10366000010008600846006800F00100019000BFFA
:1036700000BF00BF0846006840F0800008600846B0
:10368000006800F08000019000BF00BF00BF084646
:10369000006840F0040008600846006800F004007C
:1036A000019000BF00BF00BF0846006840F0200046
:1036B00008600846006800F02000019000BF00BFCD
:1036C000002220211548FDF7ABFE012240211448BD
:1036D000FDF7A6FE20200290012003900020049018
:1036E000059002A90D48FDF79DFD402002900120A4
:1036F000039000200490059002A90948FDF792FD6F
:103700004FF48050029000200390049002A90548D5
:10371000FDF788FD07B000BDE044025800240258C0
:10372000001C02580004025800BFFEE700BFFEE77D
:10373000704700002DE9F04104460E460027554829
:10374000006800F00300032802D10120BDE8F081E9
:1037500050482838006820F080604E4928390860B9
:10376000FDF76AFE054606E0FDF766FE401B0228EF
:1037700001D90320EAE7474828380068C0F3C06051
:103780000028F1D100BF4348006820F47C30216854
:1037900040EA01303F490860A088401EC0F308009D
:1037A000A168491E4FF47E4202EA41210843A189E3
:1037B000491ED20102EA01410843217C491E12023E
:1037C00002EA0161084333491031086000BF314803
:1037D000001D006820F0C000616908432D49091DE3
:1037E00008600846006820F02000A16908432949C4
:1037F000091D08600846006820F010000860254890
:10380000143000684FF6F8718843E16940EAC1005E
:103810002049143108601F48001D006840F0100066
:103820001C49091D08602EB90846006840F40020B4
:10383000086012E0012E08D11648001D006840F40F
:1038400080101449091D086007E01248001D006837
:1038500040F400100F49091D08600E482838006820
:1038600040F080600B4928390860FDF7E5FD05460A
:1038700006E0FDF7E1FD401B022801D9032065E7C2
:10388000044828380068C0F3C0600028F1D03846EA
:103890005CE70000284402582DE9F04104460E463A
:1038A00000275548006800F00300032802D10120DA
:1038B000BDE8F08150482838006820F080504E491B
:1038C00028390860FDF7B8FD054606E0FDF7B4FDB0
:1038D000401B022801D90320EAE74748283800683E
:1038E000C0F340700028F1D100BF4348006820F0C9
:1038F0007C70218840EA01503F490860A088401E42
:10390000C0F30800A168491E4FF47E4202EA41213B
:103910000843A189491ED20102EA01410843217CE2
:10392000491E120202EA0161084333491831086056
:1039300000BF3148001D006820F440606169084301
:103940002D49091D08600846006820F40070A1692F
:1039500008432949091D08600846006820F4807062
:10396000086025481C3000684FF6F8718843E1690B
:1039700040EAC10020491C3108601F48001D006852
:1039800040F480701C49091D08602EB90846006883
:1039900040F48000086012E0012E08D11648001D96
:1039A000006840F400001449091D086007E012484F
:1039B000001D006840F080700F49091D08600E4826
:1039C0002838006840F080500B4928390860FDF71E
:1039D00033FD054606E0FDF72FFD401B022801D907
:1039E000032065E7044828380068C0F340700028C9
:1039F000F1D038465CE700002844025838B5054647
:103A00000C46002000900120206010206060012002
:103A1000A0600020E0604FF4805221462846FFF766
:103A2000B1FC0120FCF7CAFE02202060102060607B
:103A30000120A0600020E0604FF48052214628461B
:103A4000FFF7A0FC03202060102060600820A06029
:103A50000020E0604FF4805221462846FFF792FC98
:103A600040F231200090042020601020606001208E
:103A7000A0600098E0604FF4805221462846FFF78E
:103A800081FC40F296312846FFF761FC38BD704753
:103A900010B5FDF7D7FC10BD00B59DB04C210AA8AC
:103AA000FCF731FC202102A8FCF72DFC0220FDF7D9
:103AB00027FE00BF002001904248006820F001006E
:103AC000404908600846006800F0010001903E4847
:103AD000006840F440403C4908600846006800F433
:103AE0004040019000BF00BF00BF3748006800F4AD
:103AF0000050B0F5005FF8D100BF3448006840F0D6
:103B00000200324908600846006800F00200019097
:103B100000BF00BF00BF002001902B48006840F4A8
:103B20004040294908600846006800F44040019080
:103B30002448006840F001002249086008460068F7
:103B400000F00100019000BF00BF00BF1E480068E8
:103B500000F40050B0F5005FF8D101200A90000495
:103B60000B90022013900221149105211591C02180
:103B7000169102211791082118910221199108210B
:103B80001A9100211B911C910AA8FEF787FF08B12A
:103B9000FCF7D9FB3F200290032003900020049003
:103BA00008200590402006900790000108904020D2
:103BB0000990042102A8FEF7CBFC08B1FCF7C3FB77
:103BC0001DB000BD2C04005818480258F444025897
:103BD0003C48006840F470003A4908603948783839
:103BE000006840F0100037497839086036480068AE
:103BF00000F00F00072806D23348006820F00F00BD
:103C0000C01D314908603148006840F001002F496B
:103C1000086000202D49103108602C4800682C49AC
:103C200008402A4908602848006800F00F0007286B
:103C300006D92548006820F00F00C01D2249086001
:103C40000020224918310860091D0860091D08601C
:103C500020481E49283108601F48091D08601F4878
:103C6000091D08600020091D08601C48091D086026
:103C70000020091D08601948091D08600020091D61
:103C800008601248006820F4802010490860002075
:103C90000E49603108601248006840F480404FF0DF
:103CA000B041C1F8E4000F4800686FF30F00B0F1B5
:103CB000005F02D201200C49086043F2D2000B4998
:103CC0000860704788ED00E0002000520044025870
:103CD0007FEDF6EA000202020000FF01800201010E
:103CE000E40000580010005C0881005100400052C0
:103CF00000BFFEE702480068C0F3022070470000E2
:103D00000CED00E010B5002804DB0A07130E054A8D
:103D1000135406E00A07140E034A00F00F031B1F9A
:103D2000D45410BD00E400E018ED00E002E008C843
:103D3000121F08C1002AFAD170477047002001E025
:103D400001C1121F002AFBD17047000000BF584874
:103D5000006800F4003000B139E000BF00BF00BFD0
:103D6000BFF34F8F00BF00BF00BF00BF00BF00BF49
:103D7000BFF36F8F00BF00BF00BF00204D49086038
:103D800000BF00BF00BFBFF34F8F00BF00BF00BF29
:103D900000BF00BF00BFBFF36F8F00BF00BF00BFF9
:103DA0004348006840F400304149086000BF00BF4C
:103DB00000BFBFF34F8F00BF00BF00BF00BF00BFF9
:103DC00000BFBFF36F8F00BF00BF00BF00BF00BFC9
:103DD000374B1B6803F4803303B148E00023344CB5
:103DE0007034236000BF00BF00BFBFF34F8F00BF20
:103DF00000BF00BF231F1868C0F34E3100BFC0F3DF
:103E0000C90200BF43F6E07303EA41134FF0404498
:103E100004EA82742343274C1034236000BF00BFA0
:103E2000131EA2F10102EDD10B1EA1F10101E6D199
:103E300000BF00BF00BFBFF34F8F00BF00BF00BF78
:103E40001B4B1B6843F48033194C236000BF00BF39
:103E500000BFBFF34F8F00BF00BF00BF00BF00BF58
:103E600000BFBFF36F8F00BF00BF00BF00BFFDF7F3
:103E7000F5FAFFF711FEFFF78DFBFFF74BFBFFF79E
:103E8000CDFAFFF709FB7B200B4908600020886012
:103E90004FF40020C86000200862084A0848FCF778
:103EA000A1FC04E0054A04490548FCF79BFCF9E73E
:103EB00014ED00E050EF00E020000020AC000020F6
:103EC000EC0000200001020304050607080C101492
:103ED000182030400000000000000000000000003A
:103EE00000000000000000000100000002000000CF
:103EF00003000000040000000000000005000000B6
:103F000000000000000000000000000006000000AB
:103F1000000000000000000000000000070000009A
:103F2000000000000102030401020304060708095F
:103F3000503F000800000020200000002C3D000839
:103F4000703F000820000020F80600003C3D0008FB
:103F50000000000000000000000000000000000061
:103F600010000000010000000090D0030090D0037A
:040000050800029954
:00000001FF
