:020000040800F2
:10000000B86C002049040008333F0008B3390008E9
:100010002F3F0008850A0008EF4500080000000097
:10002000000000000000000000000000890300083C
:10003000290B000800000000E50300089D420008AD
:1000400063040008630400086304000863040008F4
:1000500063040008630400086304000863040008E4
:1000600063040008630400086304000863040008D4
:1000700063040008630400086304000863040008C4
:1000800063040008630400086304000863040008B4
:1000900063040008630400086304000863040008A4
:1000A0006304000863040008630400086304000894
:1000B0006304000863040008630400086304000884
:1000C0006304000863040008630400086304000874
:1000D0006304000863040008630400086304000864
:1000E00063040008630400080000000063040008C3
:1000F0006304000863040008630400086304000844
:100100006304000863040008630400086304000833
:100110006304000863040008630400086304000823
:100120006304000863040008630400086304000813
:100130006304000863040008630400086304000803
:1001400063040008630400080000000000000000D1
:1001500063040008630400086304000863040008E3
:1001600063040008630400086304000863040008D3
:1001700063040008630400086304000863040008C3
:1001800063040008630400086304000863040008B3
:1001900063040008630400086304000863040008A3
:1001A000B939000863040008630400086304000808
:1001B0006304000863040008630400086304000883
:1001C0006304000863040008630400086304000873
:1001D0006304000863040008630400086304000863
:1001E0006304000863040008630400086304000853
:1001F0006304000863040008630400086304000843
:100200006304000863040008630400086304000832
:10021000630400086304000809450008630400083B
:100220006304000863040008630400086304000812
:100230006304000863040008630400086304000802
:1002400063040008630400086304000863040008F2
:1002500063040008630400086304000863040008E2
:1002600063040008630400086304000863040008D2
:1002700063040008630400086304000863040008C2
:100280006304000863040008630400080000000021
:10029000630400086304000800F002F800F065F849
:1002A0000AA090E8000C82448344AAF10107DA45D1
:1002B00001D100F05AF8AFF2090EBAE80F0013F0BE
:1002C000010F18BFFB1A43F00103184774C8000060
:1002D00094C800000A444FF0000C10F8013B13F0E2
:1002E000070408BF10F8014B1D1108BF10F8015B8F
:1002F000641E05D010F8016B641E01F8016BF9D182
:1003000013F0080F1EBF10F8014BAD1C0C1B09D1D8
:100310006D1E58BF01F801CBFAD505E014F8016B4A
:1003200001F8016B6D1EF9D59142D6D370470000DC
:100330000023002400250026103A28BF78C1FBD8EE
:10034000520728BF30C148BF0B6070471FB50BF084
:100350003CFA9DE8030000F099FA00F0A1F91FBDF6
:1003600010B5002000F00EFA10BD00F0FBFA1146A7
:10037000FFF7ECFF08F022FB00F033FB03B4FFF7BC
:10038000EFFF03BC00F09EF92C4B19680868B0E839
:10039000F04F80F30988BFF36F8F4FF0000080F3B8
:1003A000118870470000000008480068006880F36A
:1003B00008884FF0000080F3148862B661B6BFF37E
:1003C0004F8FBFF36F8F00DF00BF00BF08ED00E06D
:1003D000DFF80C00016841F470010160704700BF54
:1003E00088ED00E0EFF30980BFF36F8F134B1A68BD
:1003F0001EF0100F08BF20ED108A20E9F04F1060AA
:1004000009B44FF0500080F31188BFF34F8FBFF352
:100410006F8F09F00BFF4FF0000080F3118809BCCB
:1004200019680868B0E8F04F1EF0100F08BFB0EC74
:10043000108A80F30988BFF36F8F70474400002053
:10044000EFF30580704700000948804709480047DE
:10045000FEE7FEE7FEE7FEE7FEE7FEE7FEE7FEE774
:10046000FEE7FEE704480549054A064B70470000D1
:10047000E943000899020008B8660020B86C002023
:10048000B8680020B868002010B5002000F09BF983
:10049000FFF766FFBDE81040012000F013B92DE919
:1004A000F041074615460E46102000F015F90400ED
:1004B0000AD06760C4E9026500F00AF901682160AA
:1004C00004600020BDE8F0810120FBE70EB5054681
:1004D00014460E4613A000F084F9284600F081F976
:1004E00016A000F07EF9304600F07BF915A000F070
:1004F00078F900218DF80B100A210DF10A008DF812
:100500000A1008E094FBF1F201FB124294FBF1F4B3
:10051000303200F8012D002CF4DC00F062F9FFF716
:10052000B3FF00002A2A2A20617373657274696F11
:100530006E206661696C65643A2000002C20666953
:100540006C6520002C206C696E652000032A40F247
:10055000308010F0030C00F0158011F8013BBCF165
:10056000020F624498BF11F801CB00F8013B38BF7D
:1005700011F8013BA2F1040298BF00F801CB38BF8B
:1005800000F8013B11F0030300F02580083AC0F0A9
:10059000088051F8043B083A51F804CBA0E8081051
:1005A000F5E7121D5CBF51F8043B40F8043BAFF384
:1005B0000080D20724BF11F8013B11F801CB48BFDE
:1005C00011F8012B24BF00F8013B00F801CB48BF14
:1005D00000F8012B704710B5203AC0F00B80B1E84D
:1005E0001850203AA0E81850B1E81850A0E8185068
:1005F000BFF4F5AF5FEA027C24BFB1E81850A0E871
:10060000185044BF18C918C0BDE810405FEA827C8A
:1006100024BF51F8043B40F8043B08BF7047D207A1
:1006200028BF31F8023B48BF11F8012B28BF20F842
:10063000023B48BF00F8012B704702F0FF0343EA7A
:10064000032242EA024200F0D8B84FF0000200B59F
:10065000134694469646203922BFA0E80C50A0E8E5
:100660000C50B1F12001BFF4F7AF090728BFA0E893
:100670000C5048BF0CC05DF804EB890028BF40F85F
:10068000042B08BF704748BF20F8022B11F0804FA1
:1006900018BF00F8012B7047704770477047000083
:1006A00070B5064C7C44064D7D4403E02068204430
:1006B0008047241DAC42F9D170BD0000C8C40000C1
:1006C000D4C4000001491820ABBEFEE7260002009A
:1006D000004870475064002070B5064600F0BAF834
:1006E000056806F10B0020F00704B4429CBF00200F
:1006F00070BD2B466A68BAB11068A04210D304F1ED
:10070000080188423CBF5068586007D351681019EF
:1007100041601168091B016058601460101D70BDB4
:1007200013465268002AE7D12146284600F09AF87D
:100730000028DED170BD70B50446051F00F08AF8B0
:100740000068002C14BF446870BD002C18BFAC4278
:100750003CBF20466468F8D301680A18AA4218BF53
:10076000456003D12A680546114401602868411993
:10077000A1421CBF6C6070BD61686960216808445B
:10078000286070BD2DE9F0410646FFF7A1FF8046C5
:10079000454613E016B1E068B0420ED120682860EB
:1007A000D4E90101D8F8007088472046FFF7C3FF5D
:1007B000D8F80000B842EBD100E025462C68002CA8
:1007C000E8D1BDE8F08110B500F09CF8BDE810401C
:1007D00000F092B810B500F0ADF8BDE8104000F0A0
:1007E0008BB810B5044602E0641C00F026F82078AF
:1007F0000028F9D110BD4FF000020429C0F012808A
:1008000010F0030C3FF423AFCCF1040CBCF1020F49
:1008100018BF00F8012BA8BF20F8022BA1EB0C0198
:10082000FFF715BF5FEAC17C24BF00F8012B00F879
:10083000012B48BF00F8012B704708B569468DF8B9
:1008400000000320ABBE08BD0048704718640020BC
:1008500070470000004870472064002070477047D0
:100860007047704738B504460A4600206946AFF322
:100870000080002808BF38BD02460099204600F0DD
:1008800096F8012038BD012000F0CDB8F8B5AFF3DF
:100890000080054600200C46102000BF0646A8191F
:1008A000A0420DD9324669460020AFF30080070010
:1008B00008BF00F0B8F80098A04218BF0546C41958
:1008C000FFF7C8FF05600746F01D20F00700461936
:1008D000284600F00AF8B44208BFF8BDA21B314612
:1008E0003868BDE8F84000F062B800210160C0E956
:1008F0000110704710207047002801D0FFF7E2BEBA
:100900007047000010B5002102A000F073F801202C
:1009100010BD0000534947414252543A2041626E93
:100920006F726D616C207465726D696E6174696F50
:100930006E00000010B5002102A000F05BF801205D
:1009400010BD00005349475056464E3A205075722C
:1009500065207669727475616C20666E2063616CC7
:100960006C6564007546FFF76FFFAE46050069468B
:10097000534620F00700854618B020B5FFF772FDFA
:10098000BDE820404FF000064FF000074FF0000890
:100990004FF0000B21F00701AC46ACE8C009ACE811
:1009A000C009ACE8C009ACE8C0098D4670470346F1
:1009B00040688C46002818BF88423CBF0346406808
:1009C000F8D318681844884207D00CF1030020F0CF
:1009D0000700001D411A521A0146081D0A60FFF760
:1009E000AABE10B50446AFF300802046BDE8104013
:1009F000FFF7C4BC70B505460C460A2000E06D1C2C
:100A0000FFF71BFF35B128780028F8D102E0641CFD
:100A1000FFF713FF14B120780028F8D1BDE870402B
:100A20000A20FFF70ABF10B500F004F8BDE8104037
:100A3000FFF762BF10B5012805D0002103A0FFF722
:100A4000D9FF012010BD09A1F8E700005349475222
:100A5000544D454D3A204F7574206F66206865618E
:100A600070206D656D6F7279000000003A20486556
:100A70006170206D656D6F727920636F7272757031
:100A80007465640000BFFEE7214A30B5136823F0A7
:100A9000010313601F4A1368C3F30B140123A4F569
:100AA0004065243D06D01268C2F30B12A2F54064E3
:100AB000273C17D1184A1268A2B9184A14684FF097
:100AC0008A45B5EB045F18D01468C4F30B04A4F591
:100AD0008065833D11D01268C2F30B02A2F58064D9
:100AE000853C0AD00E4A93609368002BFCD11060BD
:100AF0001068884209D0002030BD0A4A136013688C
:100B0000002BFCD1074A083AF1E7012030BD000074
:100B1000002000E000ED00E0002004E00010005C98
:100B200000300240084C0258704772B600BFFEE722
:100B300002460868B0B9D1E901031843CB681843ED
:100B40000B6918434B6918438B691843CB691843E9
:100B50000B6A18434B6A184313686FF30E0318436C
:100B6000106019E0D1E9070318434B6A1843136872
:100B700023F4F84318431060D1E901031843CB680C
:100B800018430B6918434B6918438B691843536822
:100B90006FF30E03184350600020704702465069FF
:100BA00043F6FE73984340EA4100506100207047CD
:100BB00010B50346D1E9000420438C68641E40EA66
:100BC0004410CC6840EA44201C696FF315042043AC
:100BD0001861002010BD000030B50346FAB908685E
:100BE000401E4C68641E40EA04148868401E44EAB3
:100BF0000024C868401E44EA0034088A401E44EAC3
:100C00000044888A401E44EA0054087E401E44EA9C
:100C100000609C6804F070442043986022E0C8683B
:100C2000401E0403888A401E44EA00509C680E4D12
:100C30002C40204398600868401E4C68641E40EABF
:100C400004148868401E44EA0024088A401E44EACE
:100C50000044087E401E44EA0060DC6804F07044F2
:100C60002043D860002030BDFF0F0FFF70B5034652
:100C70000C4600201F2104F001050DB9012022E0DF
:100C800000BF0D1EA1F1010106D001F01F060125D4
:100C9000B5402540002DF4D08AB1082A0BD0102A87
:100CA00005D0182A0CD1072900D301200AE0082911
:100CB00000D3012006E0102900D3012002E001E06A
:100CC000012000BF00BF40B91D686C611D68AD68A0
:100CD00025F0180515431E68B56070BD10B50446B3
:100CE0000CB9012010BD607F20B90020207720467C
:100CF00000F036F802206077207948B9174821685B
:100D000048612068806820F018002168886007E04A
:100D10002046D4E90212FFF7A9FF08B10120E1E75C
:100D2000607920B94FF0FF302168086102E0216846
:100D3000206908612068806820F0600061690843CC
:100D4000216888602068806820F08000A1690843DD
:100D500021688860012060770020C3E7B71DC104C7
:100D600008B5094A016891420DD100BF07490968D9
:100D700041F40021054A11601146096801F400217F
:100D8000009100BF00BF08BD004C0258E04402586B
:100D900070B5044600F0C2F906462546681C10B13D
:100DA00004480078054400BF00F0B8F9801BA84251
:100DB000FAD370BD1800002000B5B9B0142134A8D2
:100DC000FFF743FC4748006808B139B000BD012077
:100DD00044490860C82102A8FFF737FC4FF0807132
:100DE0000020CDE90210149002A800F0D3FD08B154
:100DF000FFF79BFE00BF3C48006840F480503A4932
:100E000008600846006800F48050019000BF00BFF1
:100E100040F2FF603490022035900020369003208D
:100E200037900C20389034A9304800F06DF84FF618
:100E30008370349002203590002036900320379044
:100E40000C20389034A92A4800F05EF84FF47F4017
:100E500034900220359000203690032037900C20EB
:100E6000389034A9234800F04FF848F233103490FA
:100E70000220359000203690032037900C203890C7
:100E800034A91D4800F040F84CF203703490022061
:100E9000359000203690032037900C20389034A9EC
:100EA000164800F031F84FF63F003490022035909C
:100EB00000203690032037900C20389034A9104839
:100EC00000F022F80D20349002203590002036905A
:100ED000032037900C20389034A90A4800F014F809
:100EE00000BF72E700000020D444025800200258DE
:100EF00000100258001C025800180258000C02583A
:100F00000014025800080258F8B502460B460021AA
:100F10006F4DD7E001278F401E6806EA0704002CBA
:100F200072D01E7906F00306012E04D01E7906F059
:100F30000306022E13D190684F000326BE40B04333
:100F40004F00DE68BE4030439060506801268E40FE
:100F5000B0431E79C6F300168E40304350601E79B0
:100F600006F00306032E09D0D0684F000326BE40CA
:100F7000B0434F009E68BE403043D0601E7906F0FB
:100F80000306022E13D1CF0802F1200656F82700DF
:100F90004E07F70E0F26BE40B0434F07FF0E1E69E7
:100FA000BE403043CF0802F1200646F82700106803
:100FB0004F000326BE40B0431E7906F003064F00E3
:100FC000BE40304310605E6806F44036002E78D094
:100FD00000BF404E366846F002063E4F3E603E4639
:100FE000366806F00206009600BF00BF3A4E8F0832
:100FF00056F827008E07370F0F26BE40B043374EF6
:10100000B24202D100262EE05BE0354EB24201D161
:10101000012628E0334EB24201D1022623E0324EAF
:10102000B24201D103261EE0304EB24201D1042665
:1010300019E02F4EB24201D1052614E02D4EB242E6
:1010400001D106260FE02C4EB24201D107260AE05C
:101050002A4EB24201D1082605E0294EB24201D102
:10106000092600E00A268F073F0FBE4030431A4E84
:101070008F0846F827004FF0B0463068A0435E68FE
:1010800006F4801606B120434FF0B0463060706819
:10109000A0435E6806F4001606B120434FF0B04648
:1010A00070606868A0435E6806F4003606B12043AD
:1010B00068602868A0435E6806F4803606B1204365
:1010C0002860491C1E68CE40002E7FF423AFF8BD77
:1010D00080000058F44402580804005800000258E8
:1010E0000004025800080258000C02580010025870
:1010F0000014025800180258001C02580020025820
:10110000002402580AB1816101E00B048361704739
:1011100001480068000C70470010005C014800683E
:101120007047000010000020034800680349097858
:101130000844014908607047100000201800002092
:1011400010B5032000F0C8FB01F000FD104909684C
:10115000C1F303210F4A515C01F01F0120FA01F491
:101160000B48006800F00F001146085C00F01F00FB
:1011700024FA00F008490860084804600F2000F0D5
:101180000FF808B1012010BD00F03CFB0020FAE789
:10119000184402581CB80008200000201C00002041
:1011A00070B58AB00446102C0AD20022214676205F
:1011B00000F054FB762000F03DFB1948046002E08B
:1011C00001200AB070BD00BF1648006840F48020BE
:1011D000144908600846006800F48020009000BFB1
:1011E00000BF01A902A801F043FC01F09DFC4500ED
:1011F0000D48B5FBF0F0461E0C480D49086040F262
:10120000E7310B48C160466000210161816002F056
:1012100051FA18B9064802F085FAD2E70120D0E762
:1012200014000020F044025840420F0000480140E2
:101230005403002070B504460E46154600BF94F8CE
:10124000A000012801D1022070BD012084F8A00077
:1012500000BF022084F8A10005EB850101EBC50267
:1012600004F1380101EB820034223146FFF7B3F973
:101270002A463146204602F0A7FB01202168486239
:1012800084F8A10000BF002084F8A00000BF00BFC8
:10129000DAE7704770B504462068856B2068466BB6
:1012A00005F00400E0B106F00400C8B12068406B0E
:1012B00020F004002168486304202168C863D4F842
:1012C000A40040F00100C4F8A400042084F8A100A8
:1012D00000BF002084F8A00000BF2046FFF7D9FF20
:1012E00005F00200E0B106F00200C8B12068406BD2
:1012F00020F002002168486302202168C863D4F806
:10130000A40040F00200C4F8A400042084F8A10066
:1013100000BF002084F8A00000BF2046FFF7B9FFFF
:1013200005F00100A8B106F0010090B12068406B03
:1013300020F001002168486301202168C86384F817
:10134000A10000BF002084F8A00000BF204600F0EC
:10135000A7F805F00800B0B106F0080098B12068C1
:10136000406B20F008002168486308202168C863AA
:10137000012084F8A10000BF002084F8A00000BF75
:10138000204600F03DFA70BD70B504460CB901204E
:1013900070BD94F8A10028B9002084F8A000204670
:1013A00000F0C2F8022084F8A1002068806920F0D3
:1013B000704021688861D4E901010843E16808436D
:1013C0002169084321688969084321688861206888
:1013D00080683249084021688860A08A0504206836
:1013E0008068A16929430843216888602068C06833
:1013F0002A4908402168C860A08B05042068C0689D
:10140000216A294308432168C8602068006923498C
:10141000084021680861A08C050420680069A16A61
:101420002943084321680861206840691B49084036
:1014300021684861A08D050420684069216B29431B
:1014400008432168486194F83500050294F8360095
:1014500006042068C06A00F07F402168C86246EA3E
:10146000050094F8341008432168C96A08432168CC
:10147000C8622068406B40F006002168486320681D
:10148000806940F00100216888610020C4F8A40050
:10149000012084F8A10000207AE7000000F800F0A5
:1014A00070B5054600BF1C48006800B970BD1B48F8
:1014B000006C1B49098888421AD11A4801882846BD
:1014C00000F074F900BF1449086800BF90F86A1072
:1014D000491C80F86A1000BF03F05AFD00BF0E4897
:1014E0000068044605F00AF8002005F036FB10E01D
:1014F0000B480188284600F059F900BF06480468E7
:1015000000BF2068016A2046884700BF002005F020
:1015100033FB00BFCAE70000280200200010005083
:10152000340000203600002010B5BAB00446142163
:1015300034A8FFF78AF8C82102A8FFF786F8924975
:10154000206888427ED141040020CDE90210192094
:101550000C90A0210D9102210E910F910421109168
:10156000002111914FF4007112910021139102A8F2
:1015700000F010FA08B1FFF7D8FA00BF83480068FE
:1015800040F00800814908600846006800F0080043
:10159000019000BF00BF00BF081F006840F48060DA
:1015A000091F08600846006800F48060019000BFD1
:1015B00000BF00BF0846006840F0400008600846D1
:1015C000006800F04000019000BF00BF00BF084667
:1015D000006840F4007008600846006800F400707D
:1015E000019000BF00BF00BF0846006840F008003F
:1015F00008600846006800F00800019000BF00BFC6
:1016000000BF0846006840F0010008600846006816
:1016100000F00100019000BF00BF00BF0846006855
:1016200040F4807008600846006800F48070019003
:1016300000BF00BF00BF0846006840F0040008601B
:10164000084600E09EE0006800F00400019000BF42
:1016500000BFF920349002203590002036900320FE
:1016600037900E20389034A94948FFF74DFC4FF4CD
:10167000806034900220359000203690032037900F
:101680000920389034A94348FFF73EFC48F614205F
:1016900034900220359000203690032037900E20A1
:1016A000389034A93C48FFF72FFC082034900220E2
:1016B000359000203690032037900E20389034A9C2
:1016C0003648FFF721FC4FF490703490022035909B
:1016D00000203690032037900E20389034A93048EF
:1016E000FFF712FC4FF40060349002203590002088
:1016F0003690032037900920389034A92948FFF705
:1017000003FC4020349002203590002036900320C6
:1017100037900E20389034A92348FFF7F5FB80203E
:1017200034900220359000203690032037900E2010
:10173000389034A91748FFF7E7FB4FF40050349076
:101740000220359000203690032037900E203890EC
:1017500034A91448FFF7D8FB0120349002203590BB
:1017600000203690032037900920389034A90A4889
:10177000FFF7CAFB00220521582000F06FF858201F
:1017800000F058F83AB010BD00100050E444025880
:10179000002802580018025800240258000C025871
:1017A000000002580020025800080258024600BFFC
:1017B00092F8A000012801D102207047012082F890
:1017C000A00000BF022082F8A1001068406B20F04A
:1017D000010013685863094801641068406B40F0C9
:1017E000010013685863012082F8A10000BF0020A7
:1017F00082F8A00000BF00BFDFE70000001000502B
:101800007047000008B500BF0948006840F00200BA
:10181000074908600846006800F00200009000BF19
:1018200000BF00220F21901E00F018F808BD000034
:10183000F44402580146084600280DDB00BF00BFF3
:1018400000F01F0301229A4043099B0003F1E023AB
:10185000C3F8002100BF00BF00BF70472DE9F05F53
:1018600080460D46164606F0E5FF074639462A46ED
:10187000334601F00700C0F1070ABAF1040F02D99C
:101880004FF0040A01E0C0F1070AD14600F1040A52
:10189000BAF1070F02D24FF0000A01E0A0F1030AEB
:1018A000D4464FF0010A0AFA09FAAAF1010A0AEA33
:1018B000020A0AFA0CFA4FF0010B0BFA0CFBABF11F
:1018C000010B0BEA030B4AEA0B042146404606F0E3
:1018D000B9FFBDE8F09F000000BF00F00702064B13
:1018E00019684FF6FF031940044B0B4343EA0221EA
:1018F000014B196000BF70470CED00E00000FA05D5
:1019000070B504462248006800F00700062809D098
:101910001F48006800F03F00A04201D0012070BDC8
:101920000020FCE71A48006820F03F0020431849D7
:101930000860FFF7F3FB054607E0FFF7EFFB401BEE
:10194000B0F57A7F01D90120E9E71148083800682D
:10195000C0F340300028F0D01E2C05D02E2C03D030
:101960001D2C01D02D2C11D1FFF7D8FB054607E027
:10197000FFF7D4FB401BB0F57A7F01D90120CEE7F9
:1019800003480068C0F300400028F1D00020C6E7FB
:101990000C4802582DE9F04104460025A8464FF0B6
:1019A0000062D4E90001104000211346584049402C
:1019B000084331D1E06E48B1B0F5801F0DD0B0F5CD
:1019C000001F11D0B0F5401F16D114E0FB4800688D
:1019D00040F40030F949086010E0022104F10800E9
:1019E00002F0AAFA054609E0022104F1280002F0FB
:1019F00055FB054602E001E0012500BF00BF55B9D7
:101A0000EE482430006820F44010E16E0843EB49B2
:101A10002431086000E0A8464FF48072D4E9000148
:101A20001040002113465840494008432ED1E06D34
:101A300005281BD2DFE800F0030A11181900DF485F
:101A4000006840F40030DD49086011E0002104F135
:101A5000080002F071FA05460AE0002104F12800AE
:101A600002F01CFB054603E002E001E0012500BF97
:101A700000BF55B9D1482430006820F00700E16D5F
:101A80000843CE492431086000E0A8464FF40072B4
:101A9000D4E9000110400021134658404940084352
:101AA00034D1206E802818D003DC40B140281DD1ED
:101AB0000CE0C02818D0B0F5807F17D115E0BF48E2
:101AC000006840F40030BD49086011E0002104F1D5
:101AD000080002F031FA05460AE0002104F128006E
:101AE00002F0DCFA054603E002E001E0012500BF58
:101AF00000BF55B9B1482430006820F4E070216E71
:101B00000843AE492431086000E0A8464FF48062E3
:101B1000D4E90010114000201346594040400143D1
:101B200039D1D4F8AC00B0F5800F1AD004DC50B134
:101B3000B0F5001F1ED10DE0B0F5C00F18D0B0F504
:101B4000000F17D115E09D48006840F400309B4914
:101B5000086011E0002104F1080002F0EDF90546EB
:101B60000AE0002104F1280002F098FA054603E09B
:101B700002E001E0012500BF00BF5DB98F482C30B5
:101B8000006820F46000D4F8AC1008438B492C3175
:101B9000086000E0A8464FF40063D4E90010194043
:101BA000002059404040014339D1D4F8B000B0F191
:101BB000007F1AD004DC50B1B0F1807F1ED10DE05F
:101BC000B0F1407F18D0B0F1806F17D115E07B489D
:101BD000006840F400307949086011E0002104F108
:101BE000080002F0A9F905460AE0002104F12800E6
:101BF00002F054FA054603E002E001E0012500BFCF
:101C000000BF5DB96D482C30006820F0E060D4F86A
:101C1000B010084369492C31086000E0A8464FF035
:101C20000072D4E900011040002113465840494099
:101C3000084328D1E06CA8B1102804D0202809D08E
:101C4000302810D10DE05D48006840F400305B4959
:101C500008600AE0022104F1080002F06DF905466F
:101C600003E002E001E0012500BF00BF55B9534881
:101C70002030006820F03000E16C08434F492031EB
:101C8000086000E0A8464FF48053D4E900101940E2
:101C9000002059404040014337D1606EB0F5005FED
:101CA0001AD004DC50B1B0F5805F1ED10DE0B0F564
:101CB000405F18D0B0F5804F17D115E03F4800685D
:101CC00040F400303D49086011E0002104F10800B3
:101CD00002F032F905460AE0002104F1280002F082
:101CE000DDF9054603E002E001E0012500BF00BF89
:101CF00055B932482430006820F4E040616E084352
:101D00002E492431086000E0A8464FF40053D4E97E
:101D100000101940002059404040014335D1A06EC9
:101D2000B0F5403F1ED007DC68B1B0F5803F0BD066
:101D3000B0F5003F19D10EE0B0F5802F13D0B0F50B
:101D4000A02F12D110E012E0012104F1080002F0EE
:101D5000F3F805460BE0012104F1280002F09EF99A
:101D6000054604E003E002E001E0012500BF00BFFA
:101D700055B912482430006820F4E020A16E0843D1
:101D80000E492431086000E0A8464FF48043D4E9AE
:101D900000101940002059404040014338D1D4F888
:101DA000B400B0F1405F21D00ADC80B1B0F1805FB7
:101DB0000ED0B0F1005F1CD111E000002C4402589D
:101DC000B0F1804F13D0B0F1A04F12D110E012E06B
:101DD000012104F1080002F0AFF805460BE00121F3
:101DE00004F1280002F05AF9054604E003E002E09D
:101DF00001E0012500BF00BF4DB9F748006820F0A1
:101E0000E040D4F8B4100843F349086000E0A84665
:101E10004FF08063D4E90010194000205940404041
:101E200001431CD1206D48B1B0F5807F07D101215D
:101E300004F1080002F080F8054602E001E0012507
:101E400000BF00BF55B9E4480C38006820F480702A
:101E5000216D0843E0490C39086000E0A8464FF4C2
:101E60000043D4E90001184000215840494008438C
:101E700029D1606FB0B1B0F1805F03D0B0F1005FE5
:101E800011D108E0D4482C38006840F40030D24921
:101E90002C39086009E0012104F1080002F04CF837
:101EA000054602E001E0012500BF00BF55B9CA4860
:101EB0000838006820F04050616F0843C64908396F
:101EC000086000E0A8464FF08072D4E9001011408D
:101ED000002013465940404001432AD1A06CB8B1BC
:101EE000012804D002280BD0032812D10FE0BA48F1
:101EF0002C38006840F40030B7492C3908600AE0FB
:101F0000022104F1080002F017F8054603E002E0A0
:101F100001E0012500BF00BF55B9AF480C3800688B
:101F200020F00300A16C0843AB490C39086000E0C5
:101F3000A8464FF48002D4E9000110400021134666
:101F40005840494008437DD1A448006840F480705F
:101F5000A2490860FFF7E2F8064606E0FFF7DEF860
:101F6000801B642801D9032505E09C48006800F423
:101F700080700028F2D000BF85BB974818300068F9
:101F800000F44070B4F8B81001F44071884213D0E6
:101F900091481830006820F440778F481830006866
:101FA00040F480308C49183108600846006820F4FD
:101FB0008030086008460760D4F8B800B0F5807F2C
:101FC00015D1FFF7ABF8064609E0FFF7A7F8801B2D
:101FD00041F28831884202D9032507E038E07E4883
:101FE00018300068C0F340000028EED000BF55BB99
:101FF00000BFB4F8B80000F44070B0F5407F0ED1D7
:1020000075484838006820F47C51754AD4F8B80007
:10201000104041EA101070494839086007E06E48E6
:102020004838006820F47C506B49483908606A4899
:1020300018300068B4F8B810C1F30B0108436649C2
:10204000183101E005E001E0086002E0A84600E088
:10205000A8460122D4E9001011400020134659403F
:102060004040014332D1D4F8800018281AD005DC52
:1020700048B1082808D0102817D10CE0202812D029
:10208000282812D110E012E0012104F1080001F02B
:1020900053FF05460BE0012104F1280001F0FEFF8B
:1020A000054604E003E002E001E0012500BF00BFB7
:1020B0005DB94948001F006820F03800D4F880104E
:1020C00008434549091F086000E0A8460223D4E9F7
:1020D00000011840002158404940084329D1E06FD1
:1020E000062816D2DFE800F003040B12131412E0E6
:1020F000012104F1080001F01FFF05460BE001215A
:1021000004F1280001F0CAFF054604E003E002E004
:1021100001E0012500BF00BF55B92F48001F00682E
:1021200020F00700E16F08432B49091F086000E019
:10213000A8460423D4E90001184000215840494032
:10214000084329D1D4F89800062816D2DFE800F019
:1021500003040B12131412E0012104F1080001F032
:10216000EBFE05460BE0012104F1280001F096FF8B
:10217000054604E003E002E001E0012500BF00BFE6
:102180004DB91548006820F00700D4F898100843AE
:102190001149086000E0A8462023D4E90001184056
:1021A00000215840494008433CD1D4F89400B0F194
:1021B000405F25D007DC68B1B0F1805F12D0B0F18C
:1021C000005F20D115E0B0F1804F1AD0B0F1A04FE0
:1021D00019D117E019E0000058440258004802588D
:1021E000FFFCFF0F002104F1080001F0A5FE0546E9
:1021F0000BE0022104F1280001F050FF054604E045
:1022000003E002E001E0012500BF00BF4DB9FE4838
:10221000006820F0E040D4F894100843FA490860C0
:1022200000E0A8464022D4E90010114000201346E7
:1022300059404040014337D1D4F8A000B0F5406F79
:102240001ED007DC68B1B0F5806F0BD0B0F5006F21
:1022500019D10EE0B0F5805F13D0B0F5A05F12D1B8
:1022600010E012E0002104F1080001F065FE0546CF
:102270000BE0022104F1280001F010FF054604E004
:1022800003E002E001E0012500BF00BF5DB9DE48C8
:10229000001D006820F4E050D4F8A0100843DA498B
:1022A000091D086000E0A8468022D4E90010114012
:1022B0000020134659404040014337D1D4F8A400D0
:1022C000B0F5C04F1ED007DC68B1B0F5005F0BD091
:1022D000B0F5804F19D10EE0B0F5004F13D0B0F536
:1022E000204F12D110E012E0002104F1080001F0AB
:1022F00023FE05460BE0022104F1280001F0CEFE8A
:10230000054604E003E002E001E0012500BF00BF54
:102310005DB9BD48001D006820F46040D4F8A410E9
:102320000843B949091D086000E0A8460823D4E91C
:1023300000101940002059404040014315D1D4F805
:102340008800B0F5805F07D1022104F1280001F078
:10235000A5FE08B14FF00108AB48006820F44050DA
:10236000D4F888100843A84908601022D4E9000175
:1023700010400021134658404940084317D1D4F873
:102380009C00B0F5807F07D1022104F1280001F004
:1023900085FE08B14FF001089B48001D006820F43D
:1023A0004070D4F89C1008439749091D08604FF409
:1023B0000022D4E900011040002113465840494052
:1023C000084329D1D4F8A80030B1B0F5803F0AD035
:1023D000B0F5003F0FD10DE0002104F1080001F03D
:1023E000ABFD054609E0022104F1280001F056FE8C
:1023F000054602E001E0012500BF00BF5DB982484B
:10240000001D006820F44030D4F8A81008437E492D
:10241000091D086000E0A8464FF48023D4E90010AD
:10242000194000205940404001432BD1D4F88C0082
:10243000B0F5801F06D0B0F5001F0CD0B0F5401FDE
:1024400011D10FE070482838006840F400306E4920
:102450002839086009E0012104F1280001F01EFE7E
:10246000054602E001E0012500BF00BF4DB9664806
:10247000006820F44010D4F88C10084362490860CA
:1024800000E0A8464FF48032D4E90001104000215A
:10249000134658404940084325D1606D18B1B0F546
:1024A000803F10D108E058482838006840F40030D8
:1024B00055492839086008E0022104F1080001F0BC
:1024C0003BFD054601E0012500BF00BF55B94E4860
:1024D0000838006820F48030616D08434A490839A3
:1024E000086000E0A8464FF00053D4E9000118400E
:1024F000002158404940084307D1022104F1280037
:1025000001F0CCFD08B14FF001084FF40032D4E9DE
:10251000000110400021134658404940084327D18C
:10252000D4F88400A0B1B0F5807F06D0B0F5007F6C
:102530000CD0B0F5407F0CD109E033482838006852
:1025400040F4003030492839086004E003E002E03C
:1025500001E0012500BF00BF4DB92B48006820F401
:102560004070D4F8841008432749086000E0A8466A
:102570004FF48013D4E90010194000205940404026
:10258000014309D12048001F006820F00040A16FDE
:1025900008431D49091F08604FF08052D4E900101C
:1025A0001140002013465940404001430AD11648CB
:1025B0004438006820F48040D4F8BC100843124925
:1025C000443908604FF40013D4E900011840002199
:1025D00058404940084309D10B48001F006820F0CB
:1025E0008070216F08430849091F08604FF080433D
:1025F000D4E900011840002158404940084312D155
:1026000000BF0148443801E054440258006820F4F7
:1026100000404E49086008460068D4F8C0100843DE
:102620004A49086000BF4FF00042D4E90001104061
:102630000021134658404940084309D143483C30E3
:10264000006820F04050A16D084340493C310860CB
:102650004FF40003D4E900101940002059404040D5
:1026600001430AD139484430006820F44000D4F8CE
:102670009010084335494431086001220020616808
:10268000114040405140084307D1002104F10800A7
:1026900001F052FC054605B1A846022200206168FF
:1026A000114040405140084307D1012104F1080086
:1026B00001F042FC054605B1A846042200216068ED
:1026C000104049405040014307D1022104F1080065
:1026D00001F032FC054605B1A846082200216068D9
:1026E000104049405040014306D104F1280001F058
:1026F000D5FC054605B1A8461022002160681040AF
:1027000049405040014307D1012104F1280001F064
:10271000C5FC054605B1A846202300206168194084
:10272000202240405140084307D1022104F12800F3
:1027300001F0B4FC054605B1A846B8F1000F02D17E
:102740000020BDE8F0810120FBE7000010440258A2
:102750002DE9F04104460D4614B90120BDE8F08191
:10276000BD48006800F00F00A8420ED2BA480068C9
:1027700020F00F002843B84908600846006800F0C0
:102780000F00A84201D00120E8E7207800F0040003
:1027900004280ED1B1492069096801F0700188420E
:1027A00007D9AE48006820F0700021690843AB49A2
:1027B0000860207800F00800082811D1A749091DF9
:1027C0006069096801F07001884209D9A348001DB9
:1027D000006820F0700061690843A049091D086085
:1027E000207800F01000102811D19C49091DA06923
:1027F000096801F4E061884209D99848001D006821
:1028000020F4E060A16908439449091D086020781C
:1028100000F02000202811D190490831E0690968B2
:1028200001F07001884209D98C480830006820F016
:102830007000E1690843894908310860207800F098
:10284000020002280ED18549E068096801F00F01F5
:10285000884207D98148006820F00F00E1680843EA
:102860007E490860207800F00100002850D07B48A5
:10287000006820F47060A1680843784908606068C7
:10288000022807D1754818380068C0F34040F8B9ED
:10289000012063E76068032807D170481838006892
:1028A000C0F34060A0B9012058E76068012807D153
:1028B0006A4818380068C0F3002048B901204DE785
:1028C000664818380068C0F3800008B9012045E761
:1028D00062480838006820F00700616808435F49D3
:1028E00008390860FEF71AFC064608E0FEF716FCF9
:1028F000801B41F28831884201D903202EE75748D6
:102900000838006800F038006168B0EBC10FEDD105
:10291000207800F0020002280ED15049E0680968D2
:1029200001F00F01884207D24C48006820F00F00E8
:10293000E1680843494908604748006800F00F0013
:10294000A8420ED94448006820F00F0028434249AD
:1029500008600846006800F00F00A84201D001207E
:10296000FCE6207800F0040004280ED13B492069E1
:10297000096801F07001884207D23848006820F0E9
:1029800070002169084335490860207800F008008C
:10299000082811D13149091D6069096801F07001E9
:1029A000884209D22D48001D006820F0700061693E
:1029B00008432A49091D0860207800F010001028FB
:1029C00011D12649091DA069096801F4E061884216
:1029D00009D22248001D006820F4E060A169084384
:1029E0001E49091D0860207800F02000202811D120
:1029F0001A490831E069096801F07001884209D27A
:102A000016480830006820F07000E1690843134957
:102A10000831086000F09AF810490968C1F30321F1
:102A20000F4A515C01F01F0120FA01F70B480068C2
:102A300000F00F001146085C00F01F0027FA00F0BC
:102A4000084908600848076008480068FEF7A8FBC6
:102A50008046404682E6000000200052184402589A
:102A60001CB80008200000201C00002014000020DA
:102A70003F220260174A126802F007024260154ABC
:102A80000832126802F470628260124A08321268D8
:102A900002F00F02C2600F4A0832126802F07002A0
:102AA00002610C4A0C32126802F070024261094A5B
:102AB0000C32126802F4E0628261064A1032126837
:102AC00002F07002C261044A126802F00F020A604A
:102AD00070470000104402580020005210B500F06A
:102AE00035F80D490968C1F303210C4A515C01F026
:102AF0001F0120FA01F40848006800F00F00114699
:102B0000085C00F01F0024FA00F005490860054841
:102B100004600846006810BD184402581CB800083C
:102B2000200000201C00002000B5FFF7D7FF05495A
:102B30000968C1F30221044A515C01F01F01C84039
:102B400000BD00001C4402581CB80008F0B5824EBD
:102B5000366806F0380636B1082E15D0102E15D07E
:102B6000182E7DD114E07C4E103E3668C6F3401618
:102B700046B1794E103E3668C6F3C107774E26FA45
:102B800007F000E07548E5E07548E3E07548E1E0EE
:102B9000714E1836366806F003046F4E18363668E4
:102BA000C6F305116C4E1C36366806F001056A4EF8
:102BB00024363668C6F3CC0616FB05F601EE106A1D
:102BC000B8EE410A002971D024B1012C50D0022C5A
:102BD0006DD16DE0604E103E3668C6F340163EB3D0
:102BE0005D4E103E3668C6F3C1075C4E26FA07F309
:102BF00001EE103AF8EE411A01EE101AB8EE411A41
:102C000081EE812A9FED581AC0EE011A524E2036ED
:102C10003668C6F3080601EE106AB8EE411A31EEC6
:102C2000811AF7EE001A31EE211A62EE010A1EE057
:102C300001EE101AB8EE411ADFED4C1A81EE812A2E
:102C40009FED491AC0EE011A434E20363668C6F38E
:102C5000080601EE106AB8EE411A31EE811A00E062
:102C600076E0F7EE001A31EE211A62EE010A5BE01F
:102C700001EE101AB8EE411A9FED3D2AC2EE011A7C
:102C80009FED391A80EE012A334E20363668C6F39E
:102C9000080601EE106AB8EE411A32EE011AB7EEDC
:102CA000002A31EE021A61EE810A3DE04EE01DE09D
:102CB00001EE101AB8EE411ADFED2E1A81EE812ACC
:102CC0009FED291AC0EE011A234E20363668C6F34E
:102CD000080601EE106AB8EE411A31EE811AF7EEDD
:102CE000001A31EE211A62EE010A1DE001EE101AFF
:102CF000B8EE411A9FED1E2AC2EE011A9FED1A1A74
:102D000080EE012A144E20363668C6F3080601EE1E
:102D1000106AB8EE411A32EE011AB7EE002A31EE0F
:102D2000021A61EE810A00BF00BF0B4E20363668E2
:102D3000C6F34626721C01EE102AB8EE411AC0EE08
:102D4000811ABCEEE11A11EE100A00E0002001E049
:102D5000034800BF00BFF0BD104402580090D003EC
:102D600000093D0040787D01000000460024744CBD
:102D70000024744A20BCBE4B2DE9F047044614B928
:102D80000120BDE8F087207800F00100002870D015
:102D9000FA48006800F03808F8481830D0F8009079
:102DA000B8F1100F06D0B8F1180F0FD109F00300D9
:102DB00002280BD1F14810380068C0F340400028C9
:102DC0006AD06068002867D10120DAE700BF606838
:102DD000B0F5803F08D1E9481038006840F48030F1
:102DE000E649103908602EE0606868B9E348103899
:102DF000006820F48030E149103908600846006816
:102E000020F4802008601EE06068B0F5A02F0DD18E
:102E1000DA481038006840F48020D849103908603A
:102E20000846006840F4803008600CE0D348103851
:102E3000006820F48030D1491039086008460068E5
:102E400020F48020086000BF606898B1FEF766F942
:102E5000054606E0FEF762F9401B642801D903200D
:102E60008FE7C64810380068C0F340400028F1D012
:102E700012E012E0FEF752F9054606E0FEF74EF9C1
:102E8000401B642801D903207BE7BC481038006848
:102E9000C0F340400028F1D100BF207800F00200CC
:102EA000022874D1B548006800F03808B3481830DB
:102EB000D0F80090B8F1000F05D0B8F1180F56D136
:102EC00009F00300D0BBAD4810380068C0F38000A3
:102ED00018B1E06808B9012053E7A8481038006825
:102EE00020F01900E1680843A44910390860FEF792
:102EF00015F9054606E0FEF711F9401B022801D935
:102F000003203EE79D4810380068C0F38000002889
:102F1000F1D000BFFEF7FCF841F2030188421AD855
:102F2000206940280BD195480C38006820F47C308B
:102F300040F4003091490C39086017E017E08F48E1
:102F40000C38006820F47C30216940EA01308B495C
:102F50000C3908600AE089480C38006820F0FE400F
:102F6000217C40EA016085490C39086066E0E06830
:102F700088B382481038006820F01900E1680843DF
:102F80007E4910390860FEF7C9F8054607E056E0AB
:102F9000FEF7C4F8401B022801D90320F1E6774868
:102FA00010380068C0F380000028F1D000BFFEF7A1
:102FB000AFF841F2030188421AD8206940280BD1AA
:102FC0006E480C38006820F47C3040F400306B49C7
:102FD0000C39086017E017E068480C38006820F4E6
:102FE0007C30216940EA013064490C3908600AE00C
:102FF00062480C38006820F0FE40217C40EA016005
:103000005E490C39086019E05C481038006820F00F
:1030100001005A4910390860FEF780F8054606E0BD
:10302000FEF77CF8401B022801D90320A9E653488B
:1030300010380068C0F380000028F1D100BF20786C
:1030400000F0100010287CD14C48006800F03808CF
:103050004A481830D0F80090B8F1080F06D0B8F1FF
:10306000180F3DD109F00300012839D14348103829
:103070000068C0F3002020B1E069802801D0012061
:103080007FE600BFFEF744F841F2030188421AD8F8
:10309000206A20280AD139480C38006820F0F8400E
:1030A00040F0804035490C39086018E033480C384E
:1030B000006820F0F84094F8201040EA81602F4921
:1030C0000C3908600BE02D48001F006820F07C5090
:1030D00094F8201040EA01602849091F086066E062
:1030E000E06978B325481038006840F08000234933
:1030F00010390860FEF712F8054606E0FEF70EF8F4
:10310000401B022801D903203BE61C481038006808
:10311000C0F300200028F1D000BFFDF7F9FF41F215
:10312000030188421CD8206A20280CD113480C388F
:10313000006820F0F84040F0804010490C390860E9
:103140001AE035E01CE00D480C38006820F0F8402B
:1031500094F8201040EA816008490C3908600BE0BF
:103160000648001F006820F07C5094F8201040EAC8
:1031700001600249091F086019E00000104402586C
:10318000FA48006820F08000F8490860FDF7C6FFA3
:10319000054606E0FDF7C2FF401B022801D90320C7
:1031A000EFE5F2480068C0F300200028F2D100BF2C
:1031B000207800F00800082836D16069D0B1EB48CB
:1031C0007430006840F00100E84974310860FDF790
:1031D000A5FF054606E0FDF7A1FF401B022801D927
:1031E0000320CEE5E14874300068C0F340000028B9
:1031F000F1D019E0DD487430006820F00100DB49AF
:1032000074310860FDF78AFF054606E0FDF786FF8A
:10321000401B022801D90320B3E5D448743000686C
:10322000C0F340000028F1D1207800F020002028D1
:1032300030D1A069B8B1CD48006840F48050CB4986
:103240000860FDF76BFF054606E0FDF767FF401BD2
:10325000022801D9032094E5C4480068C0F3403037
:103260000028F2D016E0C148006820F48050BF4921
:103270000860FDF753FF054606E0FDF74FFF401BD2
:10328000022801D903207CE5B8480068C0F340302B
:103290000028F2D1207800F0040004287DD1B44841
:1032A000006840F48070B2490860FDF737FF0546BA
:1032B00006E0FDF733FF401B642801D9032060E5D9
:1032C000AB48006800F480700028F2D000BFA0680E
:1032D000012808D1A5487030006840F00100A349DA
:1032E000703108602DE0A06868B9A04870300068AF
:1032F00020F001009D49703108600846006820F008
:10330000040008601DE0A06805280DD197487030C2
:10331000006840F004009549703108600846006874
:1033200040F0010008600CE090487030006820F028
:1033300001008E49703108600846006820F00400E2
:10334000086000BFA068A0B1FDF7E8FE054608E0F0
:10335000FDF7E4FE401B41F28831884201D9032089
:103360000FE5824870300068C0F340000028EFD0BD
:1033700013E0FDF7D3FE054608E0FDF7CFFE401B46
:1033800041F28831884201D90320FAE4774870304D
:103390000068C0F340000028EFD1606A00287DD0AB
:1033A00072481030006800F03800182877D0606A42
:1033B000022875D16D48006820F080706B49086064
:1033C000FDF7ACFE054606E0FDF7A8FE401B02280F
:1033D00001D90320D5E465480068C0F340600028A7
:1033E000F2D100BFD4E90A1041EA00105F49283148
:1033F000096840F2F332914308435C492831086080
:10340000208E401EC0F30800616B491E4FF47E42BF
:1034100002EA41210843218F491ED20102EA0141FB
:1034200008433C21095D491E120202EA016108437A
:103430004E493031086000BF081F006820F00100CD
:10344000091F08604948343000684FF6F871884316
:10345000A16C40EAC10045493431086043482C3032
:10346000006820F00C00216C084340492C310860B2
:103470000846006820F00200616C08433B492C318B
:1034800008600846006840F480300860084600681C
:1034900040F4003008600846006802E093E038E03D
:1034A0001FE040F4802008600846006840F00100FA
:1034B00008602E48006840F080702C490860FDF7D5
:1034C0002DFE054606E0FDF729FE401B022801D926
:1034D000032056E425480068C0F340600028F2D07D
:1034E00071E02248006820F0807020490860FDF7F4
:1034F00015FE054606E0FDF711FE401B022801D926
:1035000003203EE419480068C0F340600028F2D16F
:1035100059E0164828300768144830300668606A59
:10352000012821D007F00301A06A81421CD1C7F312
:103530000511E06A884217D1C6F30801206B401ECE
:10354000814211D1606B401EC6F3462188420BD1E7
:10355000A06B401EC6F30641884205D1E06B401EB9
:10356000C6F30661884205D001200AE400440258EF
:103570000048025815480068C0F3CC07A06CB84258
:1035800021D012480838006820F001000F4908399E
:103590000860FDF7C3FD054600BFFDF7BFFD401BFA
:1035A000FBD00A4800684FF6F8718843A16C40EAE6
:1035B000C1000649086005480838006840F001006D
:1035C00002490839086000204AE4000034440258E7
:1035D00070B504460D460CB9012070BD94F82C005E
:1035E00028B9002084F82D00204600F019F80220A8
:1035F00084F82C00211D2068FDF79AFA2946D4E9A9
:103600000002FDF7E9FA0548006840F00040034970
:103610000860012084F82C000020DEE70040005202
:1036200010B50446FDF7C8FB10BD70B504460D4645
:1036300094F82C00022800D170BD94F82C000128C9
:103640000AD1022084F82C0029462068FDF7A6FA4A
:10365000012084F82C0001E00120EDE70020EBE7D9
:103660002DE9F04104460E46174694F82C50022DE1
:1036700002D10220BDE8F081012D01D0052D12D12B
:10368000022084F82C003A4631462068FDF790FA73
:103690003068022803D1052084F82C0005E00120C1
:1036A00084F82C0001E00120E4E70020E2E7704705
:1036B0007047704710B504460CB9012010BD94F84E
:1036C0003D0028B9002084F83C00204600F029F88D
:1036D000022084F83D00211D206800F01DFF01201C
:1036E00084F8480000BF84F83E0001213F200155C6
:1036F00040200155412001554220015543200155EC
:1037000000BF00BF012084F8440045200155462039
:1037100001554720015500BF012084F83D000020DD
:10372000CCE77047014691F83D00012801D0012007
:103730007047022081F83D000868C06840F0010031
:103740000B68D8601C4B086898421BD00868B0F121
:10375000804F17D0194B0868984213D0184B08684F
:1037600098420FD0174B086898420BD0164B086848
:10377000984207D0154B0868984203D0144B08684C
:10378000984210D108688068124B00EA0302062AAA
:103790000FD0B2F5803F0CD00868006840F00100FF
:1037A0000B68186005E00868006840F001000B68CD
:1037B00018600020BCE70000000001400004004049
:1037C00000080040000C00400004014000180040C8
:1037D0000040014007000100704710B50446206812
:1037E0000069C0F34000D8B12068C068C0F3400051
:1037F000B0B16FF0020021680861012020772068D5
:10380000806900F0030018B12046FFF7E5FF05E0EE
:10381000204600F0BEF8204600F0BCF800202077DB
:1038200020680069C0F38000D8B12068C068C0F388
:103830008000B0B16FF00400216808610220207799
:103840002068806900F4407018B12046FFF7C4FF7B
:1038500005E0204600F09DF8204600F09BF800208F
:10386000207720680069C0F3C000D8B12068C06824
:10387000C0F3C000B0B16FF00800216808610420F7
:1038800020772068C06900F0030018B12046FFF7D8
:10389000A3FF05E0204600F07CF8204600F07AF80F
:1038A0000020207720680069C0F30010D8B120689C
:1038B000C068C0F30010B0B16FF01000216808615B
:1038C000082020772068C06900F4407018B12046B5
:1038D000FFF782FF05E0204600F05BF8204600F08D
:1038E00059F8002020772068006900F0010058B1E5
:1038F0002068C06800F0010030B16FF0010021685D
:103900000861204600F048F820680069C0F3C01044
:1039100058B12068C068C0F3C01030B16FF08000AB
:10392000216808612046FFF7C3FE20680069C0F3E4
:10393000002058B12068C068C0F3C01030B16FF4E7
:103940008070216808612046FFF7B1FE2068006999
:10395000C0F3801058B12068C068C0F3801030B147
:103960006FF0400021680861204600F021F82068CF
:103970000069C0F3401058B12068C068C0F340101F
:1039800030B16FF02000216808612046FFF791FEFA
:1039900010BD70477047000010B504460349206809
:1039A000884201D1FDF7C0FB10BD00000048014076
:1039B000704700BFFEE7000010B50248FDF76AFC43
:1039C00010BD0000AC020020F0B58E880768FF68CB
:1039D000C7F30B473E44330406688436802707FB51
:1039E0000266766806F47047066884364FF0800CED
:1039F0000CFB026677600E680768FF68C7F30B4729
:103A00003E44761C1E43076884370CFB02777E60B9
:103A10008E890768FF68C7F30A073E4433040668C7
:103A20008436802707FB0266B66806F4704706688E
:103A300084360CFB0266B7608E680768FF68C7F3C0
:103A40000A073E44761C46EA0307066884360CFBE8
:103A50000266B76006688436802707FB026636690F
:103A600026F00707066884360CFB026637610F698B
:103A7000066884360CFB026637613126765C3302B9
:103A80003226765C34040E7E35060668843680273E
:103A900007FB0266B6690027066884360CFB0266DF
:103AA000B76191F830601E43264346EA0507066871
:103AB00084360CFB0266B76106688436802707FBF4
:103AC0000266766926F0FF07066884360CFB0266FC
:103AD00077614F69066884360CFB02667761066879
:103AE0008436802707FB0266F66940F20777BE43FB
:103AF000076884370CFB0277FE61D1E9077637430C
:103B0000066884360CFB0266F761066884368027F7
:103B100007FB0266B66A0027066884360CFB02665D
:103B2000B7624F6A066884360CFB0266B7620E699C
:103B30000EB9042313E00E69012E01D103230EE018
:103B40000E69042E08D00E69022E05D00E69032ED0
:103B500002D00E69072E01D1022300E0012306687E
:103B60008436802707FB0266F66A06F0E0270668BF
:103B700084364FF0800C0CFB0266F762D1E90076C8
:103B8000F61B5E43F61D0F8D5F4346EA0747066846
:103B900084360CFB0266F76206688436802707FBD2
:103BA0000266366BF70AFF02066884360CFB026673
:103BB0003763CF6A066884360CFB02663763066893
:103BC0008436D701F65946F00107066884364FEA75
:103BD000C21C46F80C70F0BD10B50A480A490860CE
:103BE0000020087100210848417141618161012074
:103BF000054908620846FDF771F808B1FCF795FF22
:103C000010BD0000004C02584402002000B587B0EF
:103C10001C216846FCF719FD19481A490860002064
:103C200048600121174881600421C16020210161A1
:103C3000402141614FF4C07181610021C1614FF4A5
:103C4000006101624900416200218162022000900E
:103C50000720019004200290072003900320049085
:103C600002200590069069460648FFF7B1FC08B1AE
:103C7000FCF75BFF0449034800F0C2FA07B000BD3F
:103C800040410052780200206802002010B5074A27
:103C90000021074805F036F906490860064A002168
:103CA000064805F02FF90649086010BDD4B7000892
:103CB0009342000808000020F8B70008E545000816
:103CC0000C00002000B587B0142102A8FCF7BDFC51
:103CD00000BF5D48006840F480705B49086008469A
:103CE000006800F48070019000BF00BF00BF08466C
:103CF000006840F4806008600846006800F4806056
:103D0000019000BF00BF00BF0846006840F04000BF
:103D100008600846006800F04000019000BF00BF46
:103D200000BF0846006840F01000086008460068C0
:103D300000F01000019000BF00BF00BF08460068FF
:103D400040F4007008600846006800F400700190BC
:103D500000BF00BF00BF0846006840F008000860D0
:103D60000846006800F00800019000BF00BF00BFD7
:103D70000846006840F0010008600846006800F04E
:103D80000100019000BF00BF00BF0846006840F07E
:103D9000800008600846006800F08000019000BFC5
:103DA00000BF00BF0846006840F0040008600846F5
:103DB000006800F00400019000BF00BF00BF08468B
:103DC000006840F0200008600846006800F020000D
:103DD000019000BF00BF00BF0846006840F002002D
:103DE00008600846006800F00200019000BF00BFB4
:103DF000002220211548FDF785F9012240211448B1
:103E0000FDF780F92020029001200390002004900B
:103E1000059002A90D48FDF777F840200290012097
:103E2000039000200490059002A90948FDF76CF862
:103E30004FF48050029000200390049002A905489E
:103E4000FDF762F807B000BDE044025800240258B4
:103E5000001C02580004025800B58DB03421684699
:103E6000FCF7F3FB2C482D49086000204860002136
:103E70002A488160C160016107214161032181619C
:103E80000E21C1610521016240F20E41416240F202
:103E90005D21816240F21441C16240F25F21016301
:103EA000002180F8341080F8351080F83610FDF7C6
:103EB0006BFA08B1FCF739FE002000904FF48060E7
:103EC0000190002002904FF416700390022004909D
:103ED000FF200590002006904FF480600790052099
:103EE00008904FF0404009904FF480600A904FF4E2
:103EF00016700B9000208DF8300000218DF83110E5
:103F00008DF83210002269460448FDF793F908B194
:103F1000FCF70BFE0DB000BD00100050AC020020FD
:103F200010B505F033FE05F033FE10BD704700BF3D
:103F3000FEE700BFFEE700002DE9F04104460E4613
:103F400000275548006800F00300032802D1012033
:103F5000BDE8F08150482838006820F080604E4964
:103F600028390860FDF7DAF8054606E0FDF7D6F8CF
:103F7000401B022801D90320EAE747482838006897
:103F8000C0F3C0600028F1D100BF4348006820F4AE
:103F90007C30216840EA01303F490860A088401E1B
:103FA000C0F30800A168491E4FF47E4202EA412195
:103FB0000843A189491ED20102EA01410843217C3C
:103FC000491E120202EA01610843334910310860B8
:103FD00000BF3148001D006820F0C000616908433F
:103FE0002D49091D08600846006820F02000A169DD
:103FF00008432949091D08600846006820F01000A0
:1040000008602548143000684FF6F8718843E1696C
:1040100040EAC1002049143108601F48001D0068B3
:1040200040F010001C49091D08602EB908460068C0
:1040300040F40020086012E0012E08D11648001D4F
:10404000006840F480101449091D086007E0124818
:10405000001D006840F400100F49091D08600E485B
:104060002838006840F080600B4928390860FDF767
:1040700055F8054606E0FDF751F8401B022801D926
:10408000032065E7044828380068C0F3C0600028B2
:10409000F1D038465CE70000284402582DE9F04191
:1040A00004460E4600275548006800F00300032828
:1040B00002D10120BDE8F08150482838006820F086
:1040C00080504E4928390860FDF728F8054606E07B
:1040D000FDF724F8401B022801D90320EAE74748EE
:1040E00028380068C0F340700028F1D100BF434871
:1040F000006820F07C70218840EA01503F49086048
:10410000A088401EC0F30800A168491E4FF47E42FB
:1041100002EA41210843A189491ED20102EA014174
:104120000843217C491E120202EA01610843334917
:104130001831086000BF3148001D006820F440605D
:10414000616908432D49091D08600846006820F48C
:104150000070A16908432949091D086008460068E4
:1041600020F48070086025481C3000684FF6F87114
:104170008843E16940EAC10020491C3108601F48BA
:10418000001D006840F480701C49091D08602EB9AC
:104190000846006840F48000086012E0012E08D153
:1041A0001648001D006840F400001449091D08600D
:1041B00007E01248001D006840F080700F49091D9B
:1041C00008600E482838006840F080500B492839B4
:1041D0000860FCF7A3FF054606E0FCF79FFF401BC5
:1041E000022801D9032065E7044828380068C0F395
:1041F00040700028F1D038465CE70000284402589F
:1042000038B505460C4600200090012020601020A3
:1042100060600120A0600020E0604FF480522146E1
:104220002846FFF71DFA0120FCF7B2FD02202060AE
:10423000102060600120A0600020E0604FF48052F8
:1042400021462846FFF70CFA03202060102060600A
:104250000820A0600020E0604FF4805221462846EC
:10426000FFF7FEF940F2312000900420206010207A
:1042700060600120A0600098E0604FF48052214609
:104280002846FFF7EDF940F296312846FFF7CDF9C1
:1042900038BD00BF012004F045FCFBE710B54FF02E
:1042A000E020006906F0B0FE012801D006F0BAF85F
:1042B00010BD000000B59DB04C210AA8FCF7C5F95F
:1042C000202102A8FCF7C1F90220FDF719FB00BF6D
:1042D000002001904148006820F001003F4908603B
:1042E0000846006800F0010001903D48006840F475
:1042F00040403B4908600846006800F44040019097
:1043000000BF00BF00BF3648006800F40050B0F5A1
:10431000005FF8D100BF3348006840F00200314927
:1043200008600846006800F00200019000BF00BF6E
:1043300000BF002001902A48006840F4404028490E
:1043400008600846006800F4404001902348006877
:1043500040F00100214908600846006800F00100B3
:10436000019000BF00BF00BF1D48006800F400506E
:10437000B0F5005FF8D101200A9000040B900220F4
:1043800013900221149105211591C021169102214B
:1043900017911891199108211A9100211B911C91D4
:1043A0000AA8FEF7E9FC08B1FCF7BFFB3F2002902A
:1043B00003200390002004900820059040200690E0
:1043C00007900001089040200990042102A8FEF700
:1043D000BFF908B1FCF7A9FB1DB000BD2C040058C3
:1043E00018480258F44402583C48006840F47000F1
:1043F0003A49086039487838006840F01000374979
:10440000783908603648006800F00F00072806D2A7
:104410003348006820F00F00C01D31490860314862
:10442000006840F001002F49086000202D4910313C
:1044300008602C4800682C4908402A490860284830
:10444000006800F00F00072806D92548006820F012
:104450000F00C01D22490860002022491831086061
:10446000091D0860091D086020481E4928310860A0
:104470001F48091D08601F48091D08600020091D0C
:1044800008601C48091D08600020091D08601948C3
:10449000091D08600020091D08601248006820F40A
:1044A00080201049086000200E49603108601248E1
:1044B000006840F480404FF0B041C1F8E4000F487C
:1044C00000686FF30F00B0F1005F02D201200C49C9
:1044D000086043F2D2000B490860704788ED00E0A5
:1044E00000200052004402587FEDF6EA000202026A
:1044F0000000FF0180020101E40000580010005C90
:10450000088100510040005210B50248FFF765F9DC
:1045100010BD00005403002010B50268294B9842DA
:104520000ED0B0F1804F0BD0274B984208D0274BCC
:10453000984205D0264B984202D0264B984203D190
:1045400022F070024B681A431E4B984217D0B0F10C
:10455000804F14D01C4B984211D01C4B98420ED067
:104560001B4B98420BD01B4B984208D01A4B9842D9
:1045700005D01A4B984202D0194B984203D122F42D
:104580004072CB681A4322F080034C6943EA04026C
:1045900002608B68C3620B6883620A4B98420BD03F
:1045A0000C4B984208D00C4B984205D00B4B9842CC
:1045B00002D00B4B984201D10B6903630123436185
:1045C00010BD000000000140000400400008004051
:1045D000000C004000040140004001400044014044
:1045E0000048014010B5044605F016FB10BD00BFA1
:1045F000FEE7000010B58EB01748007800F001000B
:1046000030BB154804F044F910B300203F23CDE936
:1046100009300B900C901148114900220592CDE908
:1046200006210890012004210192CDE90221049085
:104630000A20034601220B4900900B4801F0BEFC02
:1046400004460A4A0A49FBF72AFF0348AFF30080F1
:1046500005480EB010BD0000C400002028CB0008A3
:1046600034CB0008F8CA0008185B002000000008DE
:104670000560000810B58EB01748007800F0010002
:1046800030BB154804F004F910B300203F23CDE9F6
:1046900009300B900C901148114900220592CDE988
:1046A00006210890012004210192CDE90221049005
:1046B0001420034601220B4900900B4801F07EFCB8
:1046C00004460A4A0A49FBF7EAFE0348AFF30080B2
:1046D00005480EB010BD0000C80000202CCB00081B
:1046E00038CB000808CB0008445B0020000000081D
:1046F0000560000810B58EB01748007800F0010082
:1047000030BB154804F0C4F810B300203F23CDE9B6
:1047100009300B900C901148114900220592CDE907
:1047200006210890012004210192CDE90221049084
:104730002820034601220B4900900B4801F03EFC63
:1047400004460A4A0A49FBF7AAFE0348AFF3008071
:1047500005480EB010BD0000CC00002030CB000892
:104760003CCB000818CB0008705B0020000000085C
:104770000560000810B50446204600F01DF910BD84
:1047800000BF00BF7047000010B50446204600F08F
:1047900015F9044601482060204610BD9CB8000869
:1047A00010B50446204600F061F90446204610BDCD
:1047B00070470146002070477047704710B50446A7
:1047C000204601F09BFB10BD10B50446204604F1C5
:1047D0000C010F4A2260416000220272427200BF47
:1047E00004460C482060602204F1200104F10C0012
:1047F00001F080FDA0F10C0460232422064904F19D
:10480000200004F033F8A0F12004204610BD000081
:1048100010BD0008D0B80008096F0008014606481E
:10482000086001F10C0000BFA0F10C01084600BFB8
:104830000146084670470000D0B8000810B504468D
:10484000204600F0C9F910BD10B50446204600F01E
:10485000C9F910BD10B50446204600F025FA10BD78
:1048600070B504460D462946204600F031FA70BD69
:1048700010B50446204600F033FA10BD70B504466A
:104880000D462946204600F04DFA70BD10B504468D
:10489000204600F051FA10BD10B50446204600F045
:1048A00063FA10BD10B50446204600F07BFA10BD37
:1048B00000BF704770B5044604F1140104F12C03E5
:1048C00004F1CC02204604F1E405204E066041606C
:1048D0008360C260056100BF1D4E066000BF0446D4
:1048E0001C48206004F11405284601F0C1FC05466F
:1048F000194845F814092C4604F12C05284601F006
:10490000B7FC0546154845F82C092C4604F1CC05A2
:10491000284601F0ADFC0546114845F8CC092C4667
:1049200004F1E00000F0E1FAA0F1E004224604F115
:10493000E001081D00F0F0F8A0F1E40404F1E40146
:10494000204600F0ABF8204670BD000018C10008FA
:1049500050BA0008F8B90008C4C5000890C500089E
:10496000F8C5000870B504460F4804F1E40520605E
:10497000284600F0ABFA054600BFA5F1E404A5F116
:10498000180003F0DDFDA0F1CC04A03803F0CAFD4F
:10499000A0F12C04183803F0CCFDA0F1140420463B
:1049A00000F083F8044670BDF8B90008004870476D
:1049B0002CB80008012070477047000038B5044645
:1049C0002546284602F012FD0546264828600020AC
:1049D000E86300BF2C462448286004F1400001F041
:1049E0000FFDA0F1400404F16C0001F009FDA0F1FD
:1049F0006C044FF416704FF480630022114600904F
:104A000004F1400002F074FD00221146104602F04D
:104A100099F90146009004F1400001F0EDFC04F129
:104A20004001204602F066FB4FF416704FF480639D
:104A300000221146009004F16C0002F059FD13228F
:104A40001146C22002F07EF90146009004F16C008C
:104A500001F0D2FC04F16C01204602F04BFB204631
:104A600038BD000048C000081CBA000810B5044654
:104A70000948206004F16C0001F0DCFCA0F16C043A
:104A800004F1400001F0D6FCA0F14004204602F001
:104A90004BF90446204610BD1CBA000870B5054607
:104AA0000C46204600F086F970BD00BF7047704785
:104AB000704700000A460146084B036000BF0846E5
:104AC000011D074B436000234B6000BF081F0549D1
:104AD000016018314160C260704700002CC60008B8
:104AE0000CBA000864BA0008011D00BF081F014687
:104AF00000BF08467047002070470000004870471C
:104B00009C5B002010B50446D4F8580100F0ECF985
:104B1000204601F0EDF810BD70B504460D4616466E
:104B200032462946204600F083F9044601482060B9
:104B3000204670BD8CBA00080346002070477047BD
:104B400000BF704730B503462148006800F480304C
:104B500000283BD000BF00241D4D70352C6000BFE5
:104B600000BF00BF00BFBFF34F8F00BF00BF00BF3B
:104B70002C1F2068C0F34E3100BFC0F3C90200BF34
:104B800043F6E07404EA41144FF0404505EA8275AB
:104B90002C43104D2C6000BF00BF141EA2F1010277
:104BA000EED10C1EA1F10101E7D100BF00BF00BF93
:104BB000BFF34F8F00BF00BF00BF00BF00BF00BFEB
:104BC000BFF36F8F00BF00BF00BF00BF30BD00004C
:104BD00014ED00E074EF00E010B50446204601F04B
:104BE00031FC10BD70B50446204601F037FC00F0E2
:104BF00037FA054620682946426E204690472068CD
:104C00000023034A1104D0F888502046A84770BDFD
:104C100000C012C030B503462148006800F480305F
:104C200000283BD000BF00241D4D70352C6000BF14
:104C300000BF00BF00BFBFF34F8F00BF00BF00BF6A
:104C40002C1F2068C0F34E3100BFC0F3C90200BF63
:104C500043F6E07404EA41144FF0404505EA8275DA
:104C60002C43104D2C6000BF00BF141EA2F10102A6
:104C7000EED10C1EA1F10101E7D100BF00BF00BFC2
:104C8000BFF34F8F00BF00BF00BF00BF00BF00BF1A
:104C9000BFF36F8F00BF00BF00BF00BF30BD00007B
:104CA00014ED00E074EF00E00146582000280DDB11
:104CB00000BF00BF00F01F0301229A4043099B0080
:104CC00003F1E023C3F8002100BF00BF00BF70471D
:104CD00070B504460D462946204601F009FC70BD1A
:104CE00010B501465820002817DB00F01F030122F1
:104CF0009A400B4B440943F8242000BF00BF00BF7B
:104D0000BFF34F8F00BF00BF00BF00BF00BF00BF99
:104D1000BFF36F8F00BF00BF00BF00BF10BD00001A
:104D200080E100E0034A11600122024BAC3B5A6271
:104D300070470000AC10005030B5024658200921E1
:104D4000002804DB0B071C0E054B1C5406E00B0768
:104D50001D0E044B00F00F04241F1D5500BF30BD75
:104D600000E400E018ED00E00B49C968C1F30A0156
:104D7000491E0A4A118008490969C1F30A01491EFE
:104D8000074A118005490988034A11641146496B95
:104D900041F00101516370470010005034000020C1
:104DA0003600002010B50446204601F02EFE10BD4E
:104DB00000BF70472DE9F04186B0044604F5A277A4
:104DC00002AE104903C9CDE90001304601F032F9C5
:104DD00006460D4830607460DDE90001C6E9020155
:104DE000354668687860D5E90201B846C7E902012E
:104DF00002A802F07BFB04F5A270C4F8400106B0E3
:104E0000BDE8F08140B8000828C1000838B5044664
:104E1000D4F858010090044B04F59E710348D4F86F
:104E2000542106F099FB38BDDC010020D801002098
:104E30002DE9F04104460E4617462546284600F067
:104E4000CDFF05461B4828600020C5F83C01C5F889
:104E500040011948056000BF2C461848286004F539
:104E6000A275284601F0E6F805461548286000209E
:104E70006860144903C9C5E9020100BFA5F5A27421
:104E8000C4F85471C4F8586100BF0F4800688046E8
:104E90000068002182684046904701F027FC0546E3
:104EA00002F015FD01F022FC054602F049FD204606
:104EB000BDE8F081C8BD0008E0010020E4BB0008A7
:104EC00028C1000848B800082802002005490160F0
:104ED00000F5A27100BFA1F5A270014600BF08460F
:104EE00070470000E4BB0008704700210160704774
:104EF00030B5044C039D04600171C280038145817B
:104F000030BD000038BC000810B500220121084661
:104F100003F064FF0E4908600846006808B100BF4E
:104F200004E028220BA11748FBF7D0FA0022042145
:104F3000012003F08DFE144908600846006808B19E
:104F400000BF04E02C2203A11048FBF7BFFA10BDFC
:104F5000380000202E2E2F434D372F546F75636875
:104F60004746582F7461726765742F67656E657266
:104F7000617465642F4F5357726170706572732E40
:104F800063707000F0C800083C0000203CC90008B5
:104F900010B500231A4603490348006803F0A6FE33
:104FA00010BD0000400000203C00002008B5002398
:104FB0001A4669460648006803F00AFE4FF0FF33C0
:104FC000002269460248006803F002FE08BD0000A6
:104FD0003C00002010B50248006803F065FF10BDDA
:104FE0003800002010B54FF0FF310248006803F090
:104FF000BFFE10BD3800002010B500210248006837
:1050000003F0B6FE10BD00003800002070B5054664
:1050100000F026F804460068C16B2046884770BD42
:105020007047416070477047704770473EB504460F
:10503000094800221146008800B200900748008805
:1050400003B201A801F022FE2068DDE90112036C21
:10505000204698473EBD0000200200201E0200208E
:105060000148C06870470000D401002070B50446B4
:10507000002004F18405A4F8A400B4F88000A4F88A
:10508000A6000BE0415D21B154F820000168096DD4
:105090008847B4F8A400401CA4F8A400B4F8A40005
:1050A000B4F8A6108842EDD370BD0022A0F880208D
:1050B00011464318491C202983F88420F9DB7047E6
:1050C0002DE9F04100221446134611461DE0451813
:1050D00095F8846076B191420AD08EB250F826706D
:1050E00096B240F82670861895F8845086F8845059
:1050F000521C09E0B0F8A4508D4200DB641CB0F8EB
:10510000A6508D4200DD5B1C491CB0F880508D42DA
:10511000DDDCB0F8A410091BA0F8A410B0F8A610AC
:10512000C91AA0F8A6100EE05C1EA1B28B4201D8ED
:10513000FBF7AAF9A3B2A0F880308B4203D950F84C
:10514000234040F82140B0F880309342ECDCBDE8C9
:10515000F081000003484068002802D00268926A8B
:1051600010477047D40100202DE9F74F8146FF48D2
:1051700084B0008802B2FE48008801B205A801F0A0
:1051800017FD05A803F05DFA00287DD109F1AC05F3
:10519000B9F8EC400AE0A0B205EBC00105A803F0A5
:1051A0005CFA18B1A1B2284606F095FA641EF2D551
:1051B000B9F8EC604FF0000AD046761E7ED4B0B24B
:1051C00005A905EBC004204603F070FA00287CD046
:1051D000BDF91400B4F90010884232DB05A803F0D1
:1051E00026FA0746204603F022FA874229DCBDF959
:1051F0001600B4F90210884212DB204603F01CFAB4
:10520000BDF91620BDF81A10801A00B2091A09B2A9
:10521000ADF81A10002937DD1044ADF816004CE047
:1052200005A803F009FA0746204603F005FA87426D
:1052300007DC6088BDF81610401A00B2ADF81A00FD
:1052400039E0BDF91600B4F9021088423BDB05A82D
:1052500003F0F2F90746204603F0EEF9874232DC0C
:10526000BDF91400B4F90010884214DB204603F0A5
:10527000DEF9BDF91420BDF81810801A00B2091A21
:1052800009B2ADF8181000E080E000297EDD10447E
:10529000ADF8140011E005A803F0C9F9074620464F
:1052A00003F0C5F987420EDC2088BDF81410401ABF
:1052B00000B2ADF81800002868DD01E083E004E0EA
:1052C0004FF0010801E04FF0010A761E7FF577AF3D
:1052D000B8F1000F7FF46CAFBAF1000F73D0B9F8DA
:1052E000EC604FF00008761E6DD4B0B205A905EB56
:1052F000C004204603F0DAF958B3BDF91400B4F93C
:105300000010884226DC05A803F091F907462046E4
:1053100003F08DF987421DDBBDF91600B4F90210C8
:10532000884205A808DC03F087F96188401A014427
:105330006180E188081A0BE003F07EF907462046F9
:1053400003F07AF9874205DBBDF816006188401A40
:10535000E08030E0BDF91600B4F90210884228DC84
:1053600005A803F069F90746204603F065F987426E
:105370001FDBBDF91400B4F90010884205A80ADC4F
:1053800003F055F92188401A014400E0E7E121804B
:10539000A188081A0BE003F04AF90746204603F0FB
:1053A00046F9874205DBBDF814002188401AA08029
:1053B00001E04FF00108761E97D5B8F1000F8DD0AF
:1053C000B9F8EC6051E153E1B0B205EBC00405A8B7
:1053D000214603F042F918B1B1B2284606F07BF934
:1053E00005A9204603F062F90028EBD0BDF91400AE
:1053F000B4F900108842BDF91600B4F902107DDD41
:10540000884233DDBDF816006188401A21880FFA02
:1054100080F8BDF81400401A06B205A803F007F999
:105420000746204603F003F9391A05A801FB08FADC
:1054300003F002F90746204603F0FEF8381A7043DD
:10544000504508DCA4F806802088ADF81400BDF8AB
:1054500018003044D9E0A680BDF81A1001EB08000E
:10546000ADF81A006088ADF8160091E605A803F0C3
:10547000DEF80746204603F0DAF821888742BDF8B7
:105480001400A0EB01000FFA80F8204625DD03F0A0
:10549000D3F8064605A803F0CFF8301ABDF9161068
:1054A00006B2B4F90200411A05A801FB08FA03F09C
:1054B000BEF80746204603F0BAF8381A7043824512
:1054C00008DC05A803F0B8F86080E6802088ADF815
:1054D000140096E0A4F8048063E003F0A8F80746FF
:1054E00005A803F0A4F8381A07B2B9F8EC000728A9
:1054F0000EDAD4F800B0D4F804A000E01CE005A84F
:1055000003F095F852462080A78068F30F02A8E0C8
:10551000B8450EDCBDF818102088ADF8140001EB7A
:105520000800ADF8180005A803F081F82080A780D6
:105530002EE6A4F804802BE0884236DA204603F0F9
:1055400076F8064605A803F072F8301A07B220462E
:1055500003F072F8064605A803F06EF8301ABDF99C
:10556000161006B2B4F90200411A03E0200200202E
:105570001E020020B4F90000BDF914207943801AFE
:105580007043814208DC05A8E68003F055F860808E
:10559000BDF81800384438E005A8A78003F047F8A4
:1055A0002080BDF81A0030447BE005A803F03FF8E6
:1055B0000746204603F03BF8874233DA204603F0E3
:1055C00036F8064605A803F032F8301A61880FFA5B
:1055D00080F8BDF81600401ABDF9141006B2B4F9EF
:1055E0000000411A05A801FB06FA03F025F807465A
:1055F000204603F021F8381A00FB08F0504507DC7C
:10560000E680BDF8181001EB0800ADF81800BFE502
:1056100005A803F00CF82080A4F804806088ADF899
:105620001600BEE7BDF816006188401A0FFA80F830
:10563000204603F001F8074605A802F0FDFF381ADE
:1056400007B2B9F8EC00072815DAD4F800B005A8BD
:10565000D4F804A0E78002F0EFFF5246608068F3C0
:105660001F425946284606F04CF8761E7FF5ACAE30
:10567000B9F8EC6068E0B8450EDCBDF81A10608837
:10568000ADF8160001EB0800ADF81A0005A802F00D
:10569000D3FF6080E7807BE5A4F80680BDF81A00A0
:1056A0003844ADF81A0073E5B0B205EBC004BDF99B
:1056B0001600B4F9021088421ED1BDF91A00B4F9DF
:1056C0000610884218D1204602F0B1FFBDF914102F
:1056D000884203D12088ADF8140006E005A802F046
:1056E000A6FFB4F9001088422ED1BDF81800A18899
:1056F0000844ADF8180023E0BDF91400B4F9001017
:10570000884221D1BDF91800B4F9041088421BD198
:10571000204602F091FFBDF91610884203D160883F
:10572000ADF8160006E005A802F086FFB4F90210F5
:10573000884209D1BDF81A00E1880844ADF81A0082
:10574000B1B2284605F0C7FF761EADD5B9F8EC60BA
:10575000082E07D2DDE90512284605F0D2FF07B072
:10576000BDE8F08F00274FF0FF3A761E6FF0004B38
:1057700042D4B0B2741E05EBC008B8F80410B8F8F3
:10578000060011FB00F002902EE0002C03DBA0B21B
:1057900005EBC00100E005A98888CA8810FB02F06B
:1057A0000390D8F800200092D8F8040001906846D1
:1057B00001F021FABDF80400BDF8061010FB01F15C
:1057C000DDE902201044CA17081A01EB5271B0EB50
:1057D000E10F02DA3746A2460BE0584503DA3746B6
:1057E000A24630B18346641EB4F1FF3FCDDA761E87
:1057F000BFD5BAF1000F06DAB8B205EBC00105A8B3
:1058000001F0F9F912E01FFA8AF005EBC004B8B212
:10581000214605EBC000064601F0EDF90598206031
:10582000069860603168059170680690B9B22846A4
:1058300005F051FFACE400002DE9F04F9BB00446A9
:1058400000F5987002F0FDFE70B9206804F58075CF
:10585000D4E94C12036C20469847684601F01DFAC3
:105860000168296340686863B4F8EC0098B10020CF
:10587000FB4F80F00105386920B107F1140002F0F8
:10588000E0FE50B1002D7DD001A805F049FF3E8813
:1058900004F1AC051CE00120EAE7F148143000F007
:1058A0007FFD2068D7E90512036C204698476846BB
:1058B00001F0F3F9016879614068B861E4E705EB4C
:1058C000C6000168426801A805F01BFF761CB6B24D
:1058D000B4F8EC00B042F2D8E148068804F1EE00DA
:1058E00018900AE0189800EBC6000168426820682A
:1058F000036C20469847761CB6B2B4F82E01B0422D
:10590000F0D8DFF860A3DAF8000090F8480001282A
:1059100004D002287CD0D2480688BCE1DFF840B32E
:105920000026BBF800700CE0B8B205EBC000804662
:1059300002F082FEB04203DD404602F07DFE0646E4
:105940007F1CB4F8EC00B842EEDCC74800880F2892
:1059500001D9C00800E00120814612A801F09DF99C
:10596000D0465DE0D1F89C108847074612A802F0A7
:1059700063FE4844B8420DDDB7420BDA12A802F0CC
:105980005BFE00E0A3E1B84243DD12A802F054FE42
:1059900000283EDD12A802F04FFEB84201DCBE42F4
:1059A00000DA374612A802F047FE3F1A12A802F0AA
:1059B00043FE024638B20090AC480021008803B292
:1059C00019A801F063F90168129140681390BBF8BF
:1059D000007018E005EBC70012A902681492406835
:1059E000159014A801F05FF9149816901598179067
:1059F00016A802F026FE20B9206816A9826C20465F
:105A000090477F1CBFB2B4F8EC00B84208D9E1E778
:105A100011E0D8F800000168D1F8982001219047E2
:105A200012A802F009FEB042D8F80000016899DB24
:105A3000496A884733E18E480078012879D008E127
:105A400087484FF00008B5F900600088401C87B215
:105A500026E005EBC000814602F0E9FD8246B9F977
:105A600006B005EBC700814602F0E1FD5045514606
:105A700006DDB9F90060B846084656450ADB0DE078
:105A80000AD1B9F90610594500DDB846B9F9000048
:105A9000B04203DB064601E0B042FBDC7F1CBFB234
:105AA000B4F8EC00B8421FFA88F0D2D805EBC00772
:105AB0003868129078681390BDF94C00142801DA08
:105AC000BDF9486012A802F0B2FD801BADF84C0091
:105AD00012A8ADF8486000F049FC12A802F0B1FD30
