:020000040800F2
:1000000010050020B1020008712F0008DB2A00084B
:100010006D2F00084103000835350008000000007E
:10002000000000000000000000000000D3320008C3
:100030004503000800000000752F0008D5320008B5
:10004000CB020008CB020008CB020008CB0200085C
:10005000CB020008CB020008CB020008CB0200084C
:10006000CB020008CB020008CB020008CB0200083C
:10007000CB020008CB020008CB020008CB0200082C
:10008000CB020008CB020008CB020008CB0200081C
:10009000CB020008CB020008CB020008CB0200080C
:1000A000CB020008CB020008CB020008CB020008FC
:1000B000CB020008CB020008CB020008CB020008EC
:1000C000CB020008CB020008CB020008CB020008DC
:1000D000CB020008CB020008CB020008CB020008CC
:1000E000CB020008CB02000800000000CB02000891
:1000F000CB020008CB020008CB020008CB020008AC
:10010000CB020008CB020008CB020008CB0200089B
:10011000CB020008CB020008CB020008CB0200088B
:10012000CB020008CB020008CB020008CB0200087B
:10013000CB020008CB020008CB020008CB0200086B
:10014000CB020008CB020008000000000000000005
:10015000CB020008CB020008CB020008CB0200084B
:10016000CB020008CB020008CB020008CB0200083B
:10017000CB020008CB020008CB020008CB0200082B
:10018000CB020008CB020008CB020008CB0200081B
:10019000CB020008CB020008CB020008CB0200080B
:1001A000CB020008CB020008CB020008CB020008FB
:1001B000CB020008CB020008CB020008CB020008EB
:1001C000CB020008CB020008CB020008CB020008DB
:1001D000CB020008CB020008CB020008CB020008CB
:1001E000CB020008CB020008CB020008CB020008BB
:1001F000CB020008CB020008CB020008CB020008AB
:10020000CB020008CB020008CB020008CB0200089A
:10021000CB020008CB020008CB020008CB0200088A
:10022000CB020008CB020008CB020008CB0200087A
:10023000CB020008CB020008CB020008CB0200086A
:10024000CB020008CB020008CB020008CB0200085A
:10025000CB020008CB020008CB020008CB0200084A
:10026000CB020008CB020008CB020008CB0200083A
:10027000CB020008CB020008CB020008CB0200082A
:10028000CB020008CB020008CB02000800000000EF
:10029000CB020008CB020008DFF810D000F03EF8D7
:1002A0000048004791350008AFF30080100500209A
:1002B0000648804706480047FEE7FEE7FEE7FEE700
:1002C000FEE7FEE7FEE7FEE7FEE7FEE7153400087F
:1002D0009902000840EA01039B0703D009E008C91E
:1002E000121F08C0042AFAD203E011F8013B00F8FB
:1002F000013B521EF9D27047D2B201E000F8012B47
:10030000491EFBD270470022F6E710B513460A4695
:1003100004461946FFF7F0FF204610BD064C074D76
:1003200006E0E06840F0010394E8070098471034C5
:10033000AC42F6D3FFF7B4FFC8370008E83700082F
:1003400000BFFEE7704772B600BFFEE702460868CE
:10035000B0B9D1E901031843CB6818430B691843BE
:100360004B6918438B691843CB6918430B6A1843D0
:100370004B6A184313686FF30E031843106019E0BB
:10038000D1E9070318434B6A1843136823F4F84371
:1003900018431060D1E901031843CB6818430B6977
:1003A00018434B6918438B69184353686FF30E0366
:1003B00018435060002070470246506943F6FE73B0
:1003C000984340EA410050610020704710B5034651
:1003D000D1E9000420438C68641E40EA4410CC68D4
:1003E00040EA44201C696FF3150420431861002083
:1003F00010BD000030B50346FAB90868401E4C68CD
:10040000641E40EA04148868401E44EA0024C86858
:10041000401E44EA0034088A401E44EA0044888AA8
:10042000401E44EA0054087E401E44EA00609C6876
:1004300004F070442043986022E0C868401E040322
:10044000888A401E44EA00509C680E4D2C40204390
:1004500098600868401E4C68641E40EA041488686E
:10046000401E44EA0024088A401E44EA0044087EF4
:10047000401E44EA0060DC6804F070442043D86009
:10048000002030BDFF0F0FFF70B5044600F0C2F929
:1004900006462546681C10B104480078054400BF94
:1004A00000F0B8F9801BA842FAD370BD18000020F4
:1004B00000B5B9B0142134A8FFF725FF47480068FC
:1004C00008B139B000BD012044490860C82102A824
:1004D000FFF719FF4FF080710020CDE90210149052
:1004E00002A800F0C1FC08B1FFF72DFF00BF3C4897
:1004F000006840F480503A4908600846006800F4FB
:100500008050019000BF00BF40F2FF603490022095
:10051000359000203690032037900C20389034A975
:10052000304800F06DF84FF683703490022035901B
:1005300000203690032037900C20389034A92A48A8
:1005400000F05EF84FF47F40349002203590002098
:100550003690032037900C20389034A9234800F0BF
:100560004FF848F233103490022035900020369036
:10057000032037900C20389034A91D4800F040F833
:100580004CF2037034900220359000203690032006
:1005900037900C20389034A9164800F031F84FF607
:1005A0003F00349002203590002036900320379091
:1005B0000C20389034A9104800F022F80D20349017
:1005C0000220359000203690032037900C20389080
:1005D00034A90A4800F014F800BF72E708000020B0
:1005E000D44402580020025800100258001C02583F
:1005F00000180258000C0258001402580008025853
:10060000F8B502460B4600216F4DD7E001278F4019
:100610001E6806EA0704002C72D01E7906F0030655
:10062000012E04D01E7906F00306022E13D1906825
:100630004F000326BE40B0434F00DE68BE4030434B
:100640009060506801268E40B0431E79C6F30016B4
:100650008E40304350601E7906F00306032E09D009
:10066000D0684F000326BE40B0434F009E68BE4096
:100670003043D0601E7906F00306022E13D1CF0856
:1006800002F1200656F827004E07F70E0F26BE404F
:10069000B0434F07FF0E1E69BE403043CF0802F142
:1006A000200646F8270010684F000326BE40B043DE
:1006B0001E7906F003064F00BE40304310605E68AE
:1006C00006F44036002E78D000BF404E366846F023
:1006D00002063E4F3E603E46366806F00206009631
:1006E00000BF00BF3A4E8F0856F827008E07370F1D
:1006F0000F26BE40B043374EB24202D100262EE054
:100700005BE0354EB24201D1012628E0334EB242C1
:1007100001D1022623E0324EB24201D103261EE06F
:10072000304EB24201D1042619E02F4EB24201D11F
:10073000052614E02D4EB24201D106260FE02C4EC4
:10074000B24201D107260AE02A4EB24201D1082660
:1007500005E0294EB24201D1092600E00A268F07A2
:100760003F0FBE4030431A4E8F0846F827004FF027
:10077000B0463068A0435E6806F4801606B1204398
:100780004FF0B04630607068A0435E6806F4001613
:1007900006B120434FF0B04670606868A0435E68C1
:1007A00006F4003606B1204368602868A0435E68FE
:1007B00006F4803606B120432860491C1E68CE40EE
:1007C000002E7FF423AFF8BD80000058F444025897
:1007D000080400580000025800040258000802589B
:1007E000000C025800100258001402580018025859
:1007F000001C025800200258002402580AB18161EE
:1008000001E00B048361704701480068000C7047E9
:100810000010005C014800687047000010000020D4
:100820000146054850F82100044A904201D10020B9
:1008300070470120FCE7000080640258000300803C
:1008400010B541F44072034C04EB8003C3F800245C
:1008500010BD000000600258034800680349097891
:10086000084401490860704710000020180000206B
:1008700010B5032000F09AFA01F064FB10490968F2
:10088000C1F303210F4A515C01F01F0120FA01F46A
:100890000B48006800F00F001146085C00F01F00D4
:1008A00024FA00F008490860084804600F2000F0AE
:1008B0000FF808B1012010BD00F028FA0020FAE777
:1008C00018440258B8370008200000201C000020FF
:1008D00070B504461148007808B9012070BD0F4872
:1008E00000784FF47A71B1FBF0F00D490968B1FB63
:1008F000F0F5284602F0D7F808B10120EEE7102CF9
:1009000007D200222146501E00F012FA054804606A
:1009100001E00120E2E70020E0E7000018000020ED
:100920001C0000201400002070B504460E46154639
:1009300000BF94F8A000012801D1022070BD012061
:1009400084F8A00000BF022084F8A10005EB850117
:1009500001EBC50204F1380101EB8200342231467B
:10096000FFF7B8FC2A463146204602F0B8F80120CD
:100970002168486284F8A10000BF002084F8A0002C
:1009800000BF00BFDAE7000070B504460CB90120D3
:1009900070BD94F8A10028B9002084F8A00020467A
:1009A00000F07EF8022084F8A1002068806920F021
:1009B000704021688861D4E901010843E168084377
:1009C0002169084321688969084321688861206892
:1009D00080683249084021688860A08A0504206840
:1009E0008068A16929430843216888602068C0683D
:1009F0002A4908402168C860A08B05042068C068A7
:100A0000216A294308432168C86020680069234996
:100A1000084021680861A08C050420680069A16A6B
:100A20002943084321680861206840691B49084040
:100A300021684861A08D050420684069216B294325
:100A400008432168486194F83500050294F836009F
:100A500006042068C06A00F07F402168C86246EA48
:100A6000050094F8341008432168C96A08432168D6
:100A7000C8622068406B40F0060021684863206827
:100A8000806940F00100216888610020C4F8A4005A
:100A9000012084F8A10000207AE7000000F800F0AF
:100AA00010B5BAB00446142134A8FFF72CFCC821B5
:100AB00002A8FFF728FC8C49206888427ED14104B7
:100AC0000020CDE9021010200C9014210D9102217C
:100AD0000E910F911091002111911291139102A882
:100AE00000F0C2F908B1FFF72EFC00BF7F48006894
:100AF00040F008007D4908600846006800F00800E2
:100B0000019000BF00BF00BF081F006840F4806074
:100B1000091F08600846006800F48060019000BF6B
:100B200000BF00BF0846006840F04000086008466B
:100B3000006800F04000019000BF00BF00BF084601
:100B4000006840F4007008600846006800F4007017
:100B5000019000BF00BF00BF0846006840F00800D9
:100B600008600846006800F00800019000BF00BF60
:100B700000BF0846006840F00100086008460068B1
:100B800000F00100019000BF00BF00BF08460068F0
:100B900040F4807008600846006800F4807001909E
:100BA00000BF00BF00BF0846006840F004000860B6
:100BB0000846006800F00400019000E092E000BFE9
:100BC00000BFF92034900220359000203690032099
:100BD00037900E20389034A94548FFF711FD4FF4A7
:100BE00080603490022035900020369003203790AA
:100BF0000920389034A93F48FFF702FD48F6142039
:100C000034900220359000203690032037900E203B
:100C1000389034A93848FFF7F3FC082034900220BC
:100C2000359000203690032037900E20389034A95C
:100C30003248FFF7E5FC4FF4907034900220359075
:100C400000203690032037900E20389034A92C488D
:100C5000FFF7D6FC4FF4006034900220359000205E
:100C60003690032037900920389034A92548FFF7A3
:100C7000C7FC40203490022035900020369003209D
:100C800037900E20389034A91F48FFF7B9FC802018
:100C900034900220359000203690032037900E20AB
:100CA000389034A91348FFF7ABFC4FF40050349050
:100CB0000220359000203690032037900E20389087
:100CC00034A91048FFF79CFC012034900220359095
:100CD00000203690032037900920389034A9064828
:100CE000FFF78EFC3AB010BD00100050E4440258EB
:100CF000002802580018025800240258000C02581C
:100D000000000258002002580008025808B500BF31
:100D10000648006840F00200044908600846006880
:100D200000F00200009000BF00BF08BDF44402586C
:100D30002DE9F05F80460D46164602F0FDFB0746A2
:100D400039462A46334601F00700C0F1070ABAF1D6
:100D5000040F02D94FF0040A01E0C0F1070AD1469E
:100D600000F1040ABAF1070F02D24FF0000A01E0C5
:100D7000A0F1030AD4464FF0010A0AFA09FAAAF1CF
:100D8000010A0AEA020A0AFA0CFA4FF0010B0BFAFE
:100D90000CFBABF1010B0BEA030B4AEA0B042146F7
:100DA000404602F0D1FBBDE8F09F000000BF00F01C
:100DB0000702064B19684FF6FF031940044B0B431B
:100DC00043EA0221014B196000BF70470CED00E0BF
:100DD0000000FA0570B504462248006800F00700DC
:100DE000062809D01F48006800F03F00A04201D04B
:100DF000012070BD0020FCE71A48006820F03F0089
:100E0000204318490860FFF705FD054607E0FFF796
:100E100001FD401BB0F57A7F01D90120E9E71148B7
:100E200008380068C0F340300028F0D01E2C05D0F0
:100E30002E2C03D01D2C01D02D2C11D1FFF7EAFC54
:100E4000054607E0FFF7E6FC401BB0F57A7F01D9C5
:100E50000120CEE703480068C0F300400028F1D02D
:100E60000020C6E70C4802582DE9F0410446002551
:100E7000A8464FF00062D4E900011040002113465B
:100E800058404940084331D1E06E48B1B0F5801F69
:100E90000DD0B0F5001F11D0B0F5401F16D114E0F1
:100EA000FB48006840F40030F949086010E0022176
:100EB00004F1080002F060F8054609E0022104F19F
:100EC000280002F00BF9054602E001E0012500BF11
:100ED00000BF55B9EE482430006820F44010E16EA0
:100EE0000843EB492431086000E0A8464FF48072C3
:100EF000D4E90001104000211346584049400843FE
:100F00002ED1E06D05281BD2DFE800F0030A11188E
:100F10001900DF48006840F40030DD49086011E046
:100F2000002104F1080002F027F805460AE000213C
:100F300004F1280002F0D2F8054603E002E001E0E7
:100F4000012500BF00BF55B9D1482430006820F00A
:100F50000700E16D0843CE492431086000E0A8464F
:100F60004FF40072D4E900011040002113465840AC
:100F70004940084334D1206E802818D003DC40B1AA
:100F800040281DD10CE0C02818D0B0F5807F17D1C3
:100F900015E0BF48006840F40030BD49086011E02A
:100FA000002104F1080001F0E7FF05460AE00021F6
:100FB00004F1280002F092F8054603E002E001E0A7
:100FC000012500BF00BF55B9B1482430006820F4A6
:100FD000E070216E0843AE492431086000E0A84665
:100FE0004FF48062D4E900101140002013465940AC
:100FF0004040014339D1D4F8AC00B0F5800F1AD08D
:1010000004DC50B1B0F5001F1ED10DE0B0F5C00FEB
:1010100018D0B0F5000F17D115E09D48006840F4D6
:1010200000309B49086011E0002104F1080001F044
:10103000A3FF05460AE0002104F1280002F04EF863
:10104000054603E002E001E0012500BF00BF5DB9F5
:101050008F482C30006820F46000D4F8AC100843AE
:101060008B492C31086000E0A8464FF40063D4E9B6
:1010700000101940002059404040014339D1D4F8B4
:10108000B000B0F1007F1AD004DC50B1B0F1807F25
:101090001ED10DE0B0F1407F18D0B0F1806F17D1B4
:1010A00015E07B48006840F400307949086011E0A1
:1010B000002104F1080001F05FFF05460AE000216D
:1010C00004F1280002F00AF8054603E002E001E01E
:1010D000012500BF00BF5DB96D482C30006820F0CD
:1010E000E060D4F8B010084369492C31086000E092
:1010F000A8464FF00072D4E90001104000211346C9
:1011000058404940084328D1E06CA8B1102804D0C9
:10111000202809D0302810D10DE05D48006840F447
:1011200000305B4908600AE0022104F1080001F088
:1011300023FF054603E002E001E0012500BF00BFF8
:1011400055B953482030006820F03000E16C084366
:101150004F492031086000E0A8464FF48053D4E99D
:1011600000101940002059404040014337D1606EC3
:10117000B0F5005F1AD004DC50B1B0F5805F1ED12D
:101180000DE0B0F5405F18D0B0F5804F17D115E0F5
:101190003F48006840F400303D49086011E00021FC
:1011A00004F1080001F0E8FE05460AE0002104F120
:1011B000280001F093FF054603E002E001E001256D
:1011C00000BF00BF55B932482430006820F4E04029
:1011D000616E08432E492431086000E0A8464FF4B0
:1011E0000053D4E900101940002059404040014309
:1011F00035D1A06EB0F5403F1ED007DC68B1B0F528
:10120000803F0BD0B0F5003F19D10EE0B0F5802F34
:1012100013D0B0F5A02F12D110E012E0012104F19B
:10122000080001F0A9FE05460BE0012104F12800A9
:1012300001F054FF054604E003E002E001E001256F
:1012400000BF00BF55B912482430006820F4E020E8
:10125000A16E08430E492431086000E0A8464FF40F
:101260008043D4E900101940002059404040014318
:1012700038D1D4F8B400B0F1405F21D00ADC80B19D
:10128000B0F1805F0ED0B0F1005F1CD111E0000022
:101290002C440258B0F1804F13D0B0F1A04F12D1BE
:1012A00010E012E0012104F1080001F065FE05469E
:1012B0000BE0012104F1280001F010FF054604E0D5
:1012C00003E002E001E0012500BF00BF4DB9F7488F
:1012D000006820F0E040D4F8B4100843F3490860F7
:1012E00000E0A8464FF08063D4E9001019400020C8
:1012F0005940404001431CD1206D48B1B0F5807F7A
:1013000007D1012104F1080001F036FE054602E094
:1013100001E0012500BF00BF55B9E4480C38006862
:1013200020F48070216D0843E0490C39086000E02A
:10133000A8464FF40043D4E900011840002158406A
:101340004940084329D1606FB0B1B0F1805F03D04C
:10135000B0F1005F11D108E0D4482C38006840F4A7
:101360000030D2492C39086009E0012104F108005D
:1013700001F002FE054602E001E0012500BF00BFCA
:1013800055B9CA480838006820F04050616F0843DA
:10139000C6490839086000E0A8464FF08072D4E9D9
:1013A00000101140002013465940404001432AD10B
:1013B000A06CB8B1012804D002280BD0032812D1A8
:1013C0000FE0BA482C38006840F40030B7492C3997
:1013D00008600AE0022104F1080001F0CDFD054695
:1013E00003E002E001E0012500BF00BF55B9AF48AE
:1013F0000C38006820F00300A16C0843AB490C399D
:10140000086000E0A8464FF48002D4E900011040D3
:10141000002113465840494008437DD1A448006844
:1014200040F48070A2490860FFF7F4F9064606E030
:10143000FFF7F0F9801B642801D9032505E09C48DB
:10144000006800F480700028F2D000BF85BB974888
:101450001830006800F44070B4F8B81001F440711E
:10146000884213D091481830006820F440778F48A4
:101470001830006840F480308C4918310860084604
:10148000006820F48030086008460760D4F8B8008F
:10149000B0F5807F15D1FFF7BDF9064609E0FFF7EB
:1014A000B9F9801B41F28831884202D9032507E04F
:1014B00038E07E4818300068C0F340000028EED0C5
:1014C00000BF55BB00BFB4F8B80000F44070B0F5E1
:1014D000407F0ED175484838006820F47C51754A29
:1014E000D4F8B800104041EA10107049483908603B
:1014F00007E06E484838006820F47C506B49483952
:1015000008606A4818300068B4F8B810C1F30B01DD
:1015100008436649183101E005E001E0086002E097
:10152000A84600E0A8460122D4E90010114000209E
:10153000134659404040014332D1D4F88000182866
:101540001AD005DC48B1082808D0102817D10CE0C3
:10155000202812D0282812D110E012E0012104F135
:10156000080001F009FD05460BE0012104F1280007
:1015700001F0B4FD054604E003E002E001E00125CE
:1015800000BF00BF5DB94948001F006820F0380067
:10159000D4F8801008434549091F086000E0A846B8
:1015A0000223D4E900011840002158404940084373
:1015B00029D1E06F062816D2DFE800F003040B12F1
:1015C000131412E0012104F1080001F0D5FC0546D6
:1015D0000BE0012104F1280001F080FD054604E044
:1015E00003E002E001E0012500BF00BF55B92F482C
:1015F000001F006820F00700E16F08432B49091F16
:10160000086000E0A8460423D4E900011840002146
:1016100058404940084329D1D4F89800062816D2EA
:10162000DFE800F003040B12131412E0012104F1AF
:10163000080001F0A1FC05460BE0012104F128009F
:1016400001F04CFD054604E003E002E001E0012565
:1016500000BF00BF4DB91548006820F00700D4F85E
:10166000981008431149086000E0A8462023D4E9F7
:101670000001184000215840494008433CD1D4F8AB
:101680009400B0F1405F25D007DC68B1B0F1805F15
:1016900012D0B0F1005F20D115E0B0F1804F1AD028
:1016A000B0F1A04F19D117E019E0000058440258DA
:1016B00000480258FFFCFF0F002104F1080001F070
:1016C0005BFC05460BE0022104F1280001F006FD59
:1016D000054604E003E002E001E0012500BF00BF91
:1016E0004DB9FE48006820F0E040D4F8941008435B
:1016F000FA49086000E0A8464022D4E900101140F1
:101700000020134659404040014337D1D4F8A0008F
:10171000B0F5406F1ED007DC68B1B0F5806F0BD01C
:10172000B0F5006F19D10EE0B0F5805F13D0B0F5C1
:10173000A05F12D110E012E0002104F1080001F0D6
:101740001BFC05460BE0022104F1280001F0C6FC59
:10175000054604E003E002E001E0012500BF00BF10
:101760005DB9DE48001D006820F4E050D4F8A010F8
:101770000843DA49091D086000E0A8468022D4E940
:10178000001011400020134659404040014337D11A
:10179000D4F8A400B0F5C04F1ED007DC68B1B0F596
:1017A000005F0BD0B0F5804F19D10EE0B0F5004FBF
:1017B00013D0B0F5204F12D110E012E0002104F157
:1017C000080001F0D9FB05460BE0022104F12800D6
:1017D00001F084FC054604E003E002E001E001259D
:1017E00000BF00BF5DB9BD48001D006820F4604027
:1017F000D4F8A4100843B949091D086000E0A846C0
:101800000823D4E90010194000205940404001430A
:1018100015D1D4F88800B0F5805F07D1022104F11A
:10182000280001F05BFC08B14FF00108AB480068EC
:1018300020F44050D4F888100843A84908601022CA
:10184000D4E90001104000211346584049400843A4
:1018500017D1D4F89C00B0F5807F07D1022104F1A4
:10186000280001F03BFC08B14FF001089B48001D27
:10187000006820F44070D4F89C1008439749091D73
:1018800008604FF40022D4E9000110400021134603
:1018900058404940084329D1D4F8A80030B1B0F5E8
:1018A000803F0AD0B0F5003F0FD10DE0002104F1D8
:1018B000080001F061FB054609E0022104F128005F
:1018C00001F00CFC054602E001E0012500BF00BF6D
:1018D0005DB98248001D006820F44030D4F8A8109B
:1018E00008437E49091D086000E0A8464FF48023A4
:1018F000D4E90010194000205940404001432BD149
:10190000D4F88C00B0F5801F06D0B0F5001F0CD0C5
:10191000B0F5401F11D10FE070482838006840F43E
:1019200000306E492839086009E0012104F12800DF
:1019300001F0D4FB054602E001E0012500BF00BF35
:101940004DB96648006820F44010D4F88C10084364
:101950006249086000E0A8464FF48032D4E90001F3
:1019600010400021134658404940084325D1606D7E
:1019700018B1B0F5803F10D108E058482838006809
:1019800040F4003055492839086008E0022104F18C
:10199000080001F0F1FA054601E0012500BF00BF93
:1019A00055B94E480838006820F48030616D08430E
:1019B0004A490839086000E0A8464FF00053D4E9CE
:1019C00000011840002158404940084307D1022136
:1019D00004F1280001F082FB08B14FF001084FF438
:1019E0000032D4E90001104000211346584049401C
:1019F000084327D1D4F88400A0B1B0F5807F06D089
:101A0000B0F5007F0CD0B0F5407F0CD109E0334831
:101A10002838006840F4003030492839086004E074
:101A200003E002E001E0012500BF00BF4DB92B48F3
:101A3000006820F44070D4F88410084327490860F7
:101A400000E0A8464FF48013D4E9001019400020AC
:101A500059404040014309D12048001F006820F050
:101A60000040A16F08431D49091F08604FF08052D4
:101A7000D4E9001011400020134659404040014372
:101A80000AD116484438006820F48040D4F8BC10CD
:101A900008431249443908604FF40013D4E90001A7
:101AA0001840002158404940084309D10B48001F05
:101AB000006820F08070216F08430849091F086002
:101AC0004FF08043D4E900011840002158404940BC
:101AD000084312D100BF0148443801E05444025881
:101AE000006820F400404E49086008460068D4F8B9
:101AF000C01008434A49086000BF4FF00042D4E9D3
:101B0000000110400021134658404940084309D1C4
:101B100043483C30006820F04050A16D08434049E4
:101B20003C3108604FF40003D4E900101940002054
:101B30005940404001430AD139484430006820F4FC
:101B40004000D4F890100843354944310860012220
:101B500000206168114040405140084307D10021F6
:101B600004F1080001F008FA054605B1A846022272
:101B700000206168114040405140084307D10121D5
:101B800004F1080001F0F8F9054605B1A846042261
:101B900000216068104049405040014307D10221B4
:101BA00004F1080001F0E8F9054605B1A84608224D
:101BB00000216068104049405040014306D104F1C3
:101BC000280001F08BFA054605B1A8461022002135
:101BD0006068104049405040014307D1012104F1A1
:101BE000280001F07BFA054605B1A8462023002015
:101BF00061681940202240405140084307D102212A
:101C000004F1280001F06AFA054605B1A846B8F1CA
:101C1000000F02D10020BDE8F0810120FBE70000A9
:101C2000104402582DE9F04104460D4614B9012034
:101C3000BDE8F081BD48006800F00F00A8420ED258
:101C4000BA48006820F00F002843B84908600846E9
:101C5000006800F00F00A84201D00120E8E72078DA
:101C600000F0040004280ED1B1492069096801F090
:101C70007001884207D9AE48006820F070002169E1
:101C80000843AB490860207800F00800082811D10B
:101C9000A749091D6069096801F07001884209D9E6
:101CA000A348001D006820F0700061690843A04946
:101CB000091D0860207800F01000102811D19C49FF
:101CC000091DA069096801F4E061884209D99848B2
:101CD000001D006820F4E060A16908439449091DD3
:101CE0000860207800F02000202811D190490831A8
:101CF000E069096801F07001884209D98C48083010
:101D0000006820F07000E1690843894908310860E3
:101D1000207800F0020002280ED18549E0680968A9
:101D200001F00F01884207D98148006820F00F00B8
:101D3000E16808437E490860207800F0010000282F
:101D400050D07B48006820F47060A168084378494F
:101D500008606068022807D1754818380068C0F329
:101D60004040F8B9012063E76068032807D1704854
:101D700018380068C0F34060A0B9012058E76068D7
:101D8000012807D16A4818380068C0F3002048B914
:101D900001204DE7664818380068C0F3800008B994
:101DA000012045E762480838006820F007006168B4
:101DB00008435F4908390860FEF72CFD064608E035
:101DC000FEF728FD801B41F28831884201D90320AB
:101DD0002EE757480838006800F038006168B0EB1B
:101DE000C10FEDD1207800F0020002280ED1504939
:101DF000E068096801F00F01884207D24C4800688A
:101E000020F00F00E168084349490860474800682E
:101E100000F00F00A8420ED94448006820F00F00DF
:101E20002843424908600846006800F00F00A842B5
:101E300001D00120FCE6207800F0040004280ED137
:101E40003B492069096801F07001884207D238488F
:101E5000006820F070002169084335490860207847
:101E600000F00800082811D13149091D606909688E
:101E700001F07001884209D22D48001D006820F051
:101E80007000616908432A49091D0860207800F044
:101E90001000102811D12649091DA069096801F414
:101EA000E061884209D22248001D006820F4E06009
:101EB000A16908431E49091D0860207800F0200030
:101EC000202811D11A490831E069096801F0700130
:101ED000884209D216480830006820F07000E16995
:101EE000084313490831086000F02CF810490968CC
:101EF000C1F303210F4A515C01F01F0120FA01F7E1
:101F00000B48006800F00F001146085C00F01F004D
:101F100027FA00F008490860084807600848006888
:101F2000FEF7D6FC8046404682E6000000200052C4
:101F300018440258B8370008200000201C00002078
:101F400014000020F0B5824E366806F0380636B12F
:101F5000082E15D0102E15D0182E7DD114E07C4EF1
:101F6000103E3668C6F3401646B1794E103E3668CC
:101F7000C6F3C107774E26FA07F000E07548E5E0A2
:101F80007548E3E07548E1E0714E1836366806F0B2
:101F900003046F4E18363668C6F305116C4E1C36B6
:101FA000366806F001056A4E24363668C6F3CC065C
:101FB00016FB05F601EE106AB8EE410A002971D051
:101FC00024B1012C50D0022C6DD16DE0604E103E3A
:101FD0003668C6F340163EB35D4E103E3668C6F313
:101FE000C1075C4E26FA07F301EE103AF8EE411AEB
:101FF00001EE101AB8EE411A81EE812A9FED581AAF
:10200000C0EE011A524E20363668C6F3080601EEBD
:10201000106AB8EE411A31EE811AF7EE001A31EE6D
:10202000211A62EE010A1EE001EE101AB8EE411A02
:10203000DFED4C1A81EE812A9FED491AC0EE011A9C
:10204000434E20363668C6F3080601EE106AB8EE35
:10205000411A31EE811A00E076E0F7EE001A31EE17
:10206000211A62EE010A5BE001EE101AB8EE411A85
:102070009FED3D2AC2EE011A9FED391A80EE012A2A
:10208000334E20363668C6F3080601EE106AB8EE05
:10209000411A32EE011AB7EE002A31EE021A61EE51
:1020A000810A3DE04EE01DE001EE101AB8EE411A43
:1020B000DFED2E1A81EE812A9FED291AC0EE011A5A
:1020C000234E20363668C6F3080601EE106AB8EED5
:1020D000411A31EE811AF7EE001A31EE211A62EE42
:1020E000010A1DE001EE101AB8EE411A9FED1E2AFA
:1020F000C2EE011A9FED1A1A80EE012A144E203604
:102100003668C6F3080601EE106AB8EE411A32EEE0
:10211000011AB7EE002A31EE021A61EE810A00BF01
:1021200000BF0B4E20363668C6F34626721C01EE01
:10213000102AB8EE411AC0EE811ABCEEE11A11EE77
:10214000100A00E0002001E0034800BF00BFF0BD1E
:10215000104402580090D00300093D0040787D01F2
:10216000000000460024744C0024744A20BCBE4B7E
:102170002DE9F047044614B90120BDE8F087207826
:1021800000F00100002870D0FA48006800F038081C
:10219000F8481830D0F80090B8F1100F06D0B8F118
:1021A000180F0FD109F0030002280BD1F1481038A5
:1021B0000068C0F3404000286AD06068002867D1FA
:1021C0000120DAE700BF6068B0F5803F08D1E94838
:1021D0001038006840F48030E649103908602EE07D
:1021E000606868B9E3481038006820F48030E1493D
:1021F000103908600846006820F4802008601EE05E
:102200006068B0F5A02F0DD1DA481038006840F4AE
:102210008020D849103908600846006840F48030B2
:1022200008600CE0D3481038006820F48030D149B1
:10223000103908600846006820F48020086000BF5C
:10224000606898B1FEF7E6FA054606E0FEF7E2FAA6
:10225000401B642801D903208FE7C6481038006866
:10226000C0F340400028F1D012E012E0FEF7D2FAAD
:10227000054606E0FEF7CEFA401B642801D903208C
:102280007BE7BC4810380068C0F340400028F1D11B
:1022900000BF207800F00200022874D1B548006821
:1022A00000F03808B3481830D0F80090B8F1000FAB
:1022B00005D0B8F1180F56D109F00300D0BBAD48D6
:1022C00010380068C0F3800018B1E06808B9012038
:1022D00053E7A8481038006820F01900E168084367
:1022E000A44910390860FEF795FA054606E0FEF7A6
:1022F00091FA401B022801D903203EE79D4810387F
:102300000068C0F380000028F1D000BFFEF77CFA1F
:1023100041F2030188421AD8206940280BD1954820
:102320000C38006820F47C3040F4003091490C39BE
:10233000086017E017E08F480C38006820F47C3004
:10234000216940EA01308B490C3908600AE089486C
:102350000C38006820F0FE40217C40EA016085498D
:102360000C39086066E0E06888B38248103800687D
:1023700020F01900E16808437E4910390860FEF733
:1023800049FA054607E056E0FEF744FA401B0228EA
:1023900001D90320F1E6774810380068C0F38000C7
:1023A0000028F1D000BFFEF72FFA41F20301884266
:1023B0001AD8206940280BD16E480C38006820F4E8
:1023C0007C3040F400306B490C39086017E017E0AE
:1023D00068480C38006820F47C30216940EA0130FC
:1023E00064490C3908600AE062480C38006820F043
:1023F000FE40217C40EA01605E490C39086019E02A
:102400005C481038006820F001005A491039086013
:10241000FEF700FA054606E0FEF7FCF9401B02282D
:1024200001D90320A9E6534810380068C0F38000A2
:102430000028F1D100BF207800F0100010287CD1D6
:102440004C48006800F038084A481830D0F800902E
:10245000B8F1080F06D0B8F1180F3DD109F003000C
:10246000012839D1434810380068C0F3002020B15A
:10247000E069802801D001207FE600BFFEF7C4F9A3
:1024800041F2030188421AD8206A20280AD139482B
:102490000C38006820F0F84040F0804035490C3995
:1024A000086018E033480C38006820F0F84094F8D1
:1024B000201040EA81602F490C3908600BE02D485C
:1024C000001F006820F07C5094F8201040EA016062
:1024D0002849091F086066E0E06978B3254810388C
:1024E000006840F08000234910390860FEF792F937
:1024F000054606E0FEF78EF9401B022801D90320AD
:102500003BE61C4810380068C0F300200028F1D0DA
:1025100000BFFEF779F941F2030188421CD8206A16
:1025200020280CD113480C38006820F0F84040F007
:10253000804010490C3908601AE035E01CE00D4875
:102540000C38006820F0F84094F8201040EA8160D0
:1025500008490C3908600BE00648001F006820F0AD
:102560007C5094F8201040EA01600249091F08607D
:1025700019E0000010440258FA48006820F080007A
:10258000F8490860FEF746F9054606E0FEF742F90D
:10259000401B022801D90320EFE5F2480068C0F390
:1025A00000200028F2D100BF207800F008000828A1
:1025B00036D16069D0B1EB487430006840F001005A
:1025C000E84974310860FEF725F9054606E0FEF794
:1025D00021F9401B022801D90320CEE5E1487430DF
:1025E0000068C0F340000028F1D019E0DD487430E5
:1025F000006820F00100DB4974310860FEF70AF939
:10260000054606E0FEF706F9401B022801D9032023
:10261000B3E5D44874300068C0F340000028F1D11D
:10262000207800F02000202830D1A069B8B1CD4832
:10263000006840F48050CB490860FEF7EBF805468F
:1026400006E0FEF7E7F8401B022801D9032094E5D5
:10265000C4480068C0F340300028F2D016E0C148FA
:10266000006820F48050BF490860FEF7D3F80546A3
:1026700006E0FEF7CFF8401B022801D903207CE5D5
:10268000B8480068C0F340300028F2D1207800F04C
:10269000040004287DD1B448006840F48070B24939
:1026A0000860FEF7B7F8054606E0FEF7B3F8401BF2
:1026B000642801D9032060E5AB48006800F480700D
:1026C0000028F2D000BFA068012808D1A5487030CA
:1026D000006840F00100A349703108602DE0A06857
:1026E00068B9A0487030006820F001009D49703141
:1026F00008600846006820F0040008601DE0A0683B
:1027000005280DD197487030006840F004009549C5
:10271000703108600846006840F0010008600CE075
:1027200090487030006820F001008E4970310860D8
:102730000846006820F00400086000BFA068A0B14F
:10274000FEF768F8054608E0FEF764F8401B41F222
:102750008831884201D903200FE582487030006833
:10276000C0F340000028EFD013E0FEF753F8054611
:1027700008E0FEF74FF8401B41F28831884201D94A
:102780000320FAE4774870300068C0F34000002866
:10279000EFD1606A00287DD072481030006800F0E8
:1027A0003800182877D0606A022875D16D48006813
:1027B00020F080706B490860FEF72CF8054606E0B3
:1027C000FEF728F8401B022801D90320D5E465480C
:1027D0000068C0F340600028F2D100BFD4E90A10BD
:1027E00041EA00105F492831096840F2F332914311
:1027F00008435C4928310860208E401EC0F3080061
:10280000616B491E4FF47E4202EA41210843218F49
:10281000491ED20102EA014108433C21095D491EDB
:10282000120202EA016108434E493031086000BFDC
:10283000081F006820F00100091F08604948343073
:1028400000684FF6F8718843A16C40EAC100454921
:102850003431086043482C30006820F00C00216CB3
:10286000084340492C3108600846006820F0020007
:10287000616C08433B492C3108600846006840F40D
:10288000803008600846006840F400300860084660
:10289000006802E093E038E01FE040F48020086028
:1028A0000846006840F0010008602E48006840F0CB
:1028B00080702C490860FDF7ADFF054606E0FDF786
:1028C000A9FF401B022801D9032056E425480068CF
:1028D000C0F340600028F2D071E02248006820F088
:1028E000807020490860FDF795FF054606E0FDF77A
:1028F00091FF401B022801D903203EE419480068DB
:10290000C0F340600028F2D159E01648283007682B
:10291000144830300668606A012821D007F00301AE
:10292000A06A81421CD1C7F30511E06A884217D121
:10293000C6F30801206B401E814211D1606B401E1E
:10294000C6F3462188420BD1A06B401EC6F3064158
:10295000884205D1E06B401EC6F30661884205D06F
:1029600001200AE400440258004802581548006853
:10297000C0F3CC07A06CB84221D0124808380068D8
:1029800020F001000F4908390860FDF743FF0546B4
:1029900000BFFDF73FFF401BFBD00A4800684FF621
:1029A000F8718843A16C40EAC100064908600548F7
:1029B0000838006840F0010002490839086000202A
:1029C0004AE400003444025870B504460D460CB980
:1029D000012070BD94F82C0028B9002084F82D0047
:1029E000204600F019F8022084F82C00211D2068F0
:1029F000FDF7ACFC2946D4E90002FDF7FBFC0548D5
:102A0000006840F0004003490860012084F82C0071
:102A10000020DEE70040005210B50446FDF748FDF7
:102A200010BD70B504460D4694F82C00022800D164
:102A300070BD94F82C0001280AD1022084F82C00E3
:102A400029462068FDF7B8FC012084F82C0001E03D
:102A50000120EDE70020EBE72DE9F04104460E46AA
:102A6000174694F82C50022D02D10220BDE8F081C7
:102A7000012D01D0052D12D1022084F82C003A46F8
:102A800031462068FDF7A2FC3068022803D10520FA
:102A900084F82C0005E0012084F82C0001E00120DE
:102AA000E4E70020E2E770B504462546681EB0F171
:102AB000807F01D301200FE0681E4FF0E0214861C4
:102AC0000F214FF0FF3000F03FFD00204FF0E021DC
:102AD000886107200861002070BD00BFFEE7F0B5E7
:102AE0008E880768FF68C7F30B473E4433040668C7
:102AF0008436802707FB0266766806F4704706680E
:102B000084364FF0800C0CFB026677600E68076815
:102B1000FF68C7F30B473E44761C1E4307688437A3
:102B20000CFB02777E608E890768FF68C7F30A078F
:102B30003E44330406688436802707FB0266B66885
:102B400006F47047066884360CFB0266B7608E6830
:102B50000768FF68C7F30A073E44761C46EA030786
:102B6000066884360CFB0266B760066884368027E8
:102B700007FB0266366926F00707066884360CFBF9
:102B8000026637610F69066884360CFB026637619E
:102B90003126765C33023226765C34040E7E3506AE
:102BA00006688436802707FB0266B6690027066838
:102BB00084360CFB0266B76191F830601E432643F1
:102BC00046EA0507066884360CFB0266B7610668AC
:102BD0008436802707FB0266766926F0FF070668C1
:102BE00084360CFB026677614F69066884360CFBFD
:102BF0000266776106688436802707FB0266F669FD
:102C000040F20777BE43076884370CFB0277FE610A
:102C1000D1E907763743066884360CFB0266F76114
:102C200006688436802707FB0266B66A00270668B6
:102C300084360CFB0266B7624F6A066884360CFB6A
:102C40000266B7620E690EB9042313E00E69012E05
:102C500001D103230EE00E69042E08D00E69022E66
:102C600005D00E69032E02D00E69072E01D1022372
:102C700000E0012306688436802707FB0266F66AB7
:102C800006F0E027066884364FF0800C0CFB0266E5
:102C9000F762D1E90076F61B5E43F61D0F8D5F43A8
:102CA00046EA0747066884360CFB0266F762066848
:102CB0008436802707FB0266366BF70AFF02066838
:102CC00084360CFB02663763CF6A066884360CFBD9
:102CD0000266376306688436D701F65946F0010765
:102CE000066884364FEAC21C46F80C70F0BD00003E
:102CF00000B587B01C216846FDF705FB19481A4945
:102D00000860002048600121174881600421C160EB
:102D100020210161402141614FF4C0718161002196
:102D2000C1614FF40061016249004162002181628A
:102D300002200090072001900420029007200390B9
:102D40000320049002200590069069460648FFF78C
:102D50003BFE08B1FDF7F7FA0449034800F070FAAA
:102D600007B000BD40410052340000202400002084
:102D700000B587B0142102A8FDF7C5FA00BF474887
:102D8000006840F48070454908600846006800F417
:102D90008070019000BF00BF00BF0846006840F08F
:102DA000040008600846006800F00400019000BFBD
:102DB00000BF00BF0846006840F0200008600846D9
:102DC000006800F02000019000BF00BF00BF08466F
:102DD000006840F0800008600846006800F080004D
:102DE000019000BF00BF00BF0846006840F001002E
:102DF00008600846006800F00100019000BF00BFB5
:102E000000BF0846006840F00200086008460068FD
:102E100000F00200019000BF00BF00BF084600683C
:102E200040F0400008600846006800F04000019053
:102E300000BF00BF00BF0846006840F010000860F7
:102E40000846006800F01000019000BF00BF00BFFE
:102E50000846006840F0080008600846006800F076
:102E60000800019000BF00BF00BF0846006840F4A2
:102E7000007008600846006800F40070019000BF10
:102E800000BF402002900120039004900020059094
:102E900002A90348FDF7B4FB07B000BDE0440258A7
:102EA000001C025800B58DB034216846FDF72BFA9E
:102EB0002C482D4908600020486000212A48816084
:102EC000C160016107214161032181610E21C1615E
:102ED0000521016240F22E31416240F2E51181622A
:102EE0004FF44D71C16240F2E7110163002180F897
:102EF000341080F8351080F83610FDF745FD08B124
:102F0000FDF721FA002000904FF448700190002056
:102F100002904FF4F070039002200490FF2005907F
:102F2000002006904FF480600790052008904FF035
:102F3000404009904FF448700A904FF4F0700B90A5
:102F400000208DF8300000218DF831108DF83210FE
:102F5000002269460448FDF7E7FC08B1FDF7F3F9E4
:102F60000DB000BD001000506800002000BFFEE75B
:102F700000BFFEE7704700002DE9F04104460E4611
:102F800000275548006800F00300032802D1012003
:102F9000BDE8F08150482838006820F080604E4934
:102FA00028390860FDF736FC054606E0FDF732FCDF
:102FB000401B022801D90320EAE747482838006867
:102FC000C0F3C0600028F1D100BF4348006820F47E
:102FD0007C30216840EA01303F490860A088401EEB
:102FE000C0F30800A168491E4FF47E4202EA412165
:102FF0000843A189491ED20102EA01410843217C0C
:10300000491E120202EA0161084333491031086087
:1030100000BF3148001D006820F0C000616908430E
:103020002D49091D08600846006820F02000A169AC
:1030300008432949091D08600846006820F010006F
:1030400008602548143000684FF6F8718843E1693C
:1030500040EAC1002049143108601F48001D006883
:1030600040F010001C49091D08602EB90846006890
:1030700040F40020086012E0012E08D11648001D1F
:10308000006840F480101449091D086007E01248E8
:10309000001D006840F400100F49091D08600E482B
:1030A0002838006840F080600B4928390860FDF737
:1030B000B1FB054606E0FDF7ADFB401B022801D938
:1030C000032065E7044828380068C0F3C060002882
:1030D000F1D038465CE70000284402582DE9F04161
:1030E00004460E4600275548006800F003000328F8
:1030F00002D10120BDE8F08150482838006820F056
:1031000080504E4928390860FDF784FB054606E0EB
:10311000FDF780FB401B022801D90320EAE747485E
:1031200028380068C0F340700028F1D100BF434840
:10313000006820F07C70218840EA01503F49086017
:10314000A088401EC0F30800A168491E4FF47E42CB
:1031500002EA41210843A189491ED20102EA014144
:103160000843217C491E120202EA016108433349E7
:103170001831086000BF3148001D006820F440602D
:10318000616908432D49091D08600846006820F45C
:103190000070A16908432949091D086008460068B4
:1031A00020F48070086025481C3000684FF6F871E4
:1031B0008843E16940EAC10020491C3108601F488A
:1031C000001D006840F480701C49091D08602EB97C
:1031D0000846006840F48000086012E0012E08D123
:1031E0001648001D006840F400001449091D0860DD
:1031F00007E01248001D006840F080700F49091D6B
:1032000008600E482838006840F080500B49283983
:103210000860FDF7FFFA054606E0FDF7FBFA401BE4
:10322000022801D9032065E7044828380068C0F364
:1032300040700028F1D038465CE70000284402586E
:1032400038B505460C460020009001202060102073
:1032500060600120A0600020E0604FF480522146B1
:103260002846FFF7F9FB0120FDF70EF90220206048
:10327000102060600120A0600020E0604FF48052C8
:1032800021462846FFF7E8FB0320206010206060FD
:103290000820A0600020E0604FF4805221462846BC
:1032A000FFF7DAFB40F2312000900420206010206C
:1032B00060600120A0600098E0604FF480522146D9
:1032C0002846FFF7C9FB40F296312846FFF7A9FBD5
:1032D00038BD704710B5FDF7BFFA10BD00B59DB001
:1032E0004C210AA8FDF70FF8202102A8FDF70BF8E2
:1032F0000220FDF76FFD00BF0020019042480068EA
:1033000020F00100404908600846006800F0010014
:1033100001903E48006840F440403C49086008463F
:10332000006800F44040019000BF00BF00BF374874
:10333000006800F40050B0F5005FF8D100BF3448D9
:10334000006840F00200324908600846006800F05A
:103350000200019000BF00BF00BF002001902B4879
:10336000006840F44040294908600846006800F4BD
:10337000404001902448006840F001002249086064
:103380000846006800F00100019000BF00BF00BFC8
:103390001E48006800F40050B0F5005FF8D102202C
:1033A0000A9001200D9040200E90022013900021E1
:1033B0001491042115913C21169102211791189125
:1033C00019910C211A9100211B911C910AA8FEF75A
:1033D000CFFE08B1FCF7B7FF3F2002900320039017
:1033E00000200490082005904020069007900001DE
:1033F000089040200990042102A8FEF713FC08B1B0
:10340000FCF7A1FF1DB000BD2C040058184802585D
:10341000F44402583C48006840F470003A4908609F
:1034200039487838006840F010003749783908602A
:103430003648006800F00F00072806D233480068BD
:1034400020F00F00C01D314908603148006840F08D
:1034500001002F49086000202D49103108602C48D8
:1034600000682C4908402A4908602848006800F094
:103470000F00072806D92548006820F00F00C01D5E
:10348000224908600020224918310860091D08609F
:10349000091D086020481E49283108601F48091D81
:1034A00008601F48091D08600020091D08601C48AD
:1034B000091D08600020091D08601948091D0860E1
:1034C0000020091D08601248006820F4802010497F
:1034D000086000200E49603108601248006840F41E
:1034E00080404FF0B041C1F8E4000F4800686FF32E
:1034F0000F00B0F1005F02D201200C49086043F2D6
:10350000D2000B490860704788ED00E000200052AF
:10351000004402587FEDF6EA000202020000FF01BB
:1035200080020101E40000580010005C0881005195
:103530000040005200BFFEE702480068C0F30220CE
:10354000704700000CED00E010B5002804DB0A070E
:10355000130E054A135406E00A07140E034A00F03E
:103560000F031B1FD45410BD00E400E018ED00E071
:1035700002E008C8121F08C1002AFAD1704770473C
:10358000002001E001C1121F002AFBD1704700009A
:1035900008B500BF8148006800F4003000B139E090
:1035A00000BF00BF00BFBFF34F8F00BF00BF00BF11
:1035B00000BF00BF00BFBFF36F8F00BF00BF00BFE1
:1035C00000207749086000BF00BF00BFBFF34F8FE6
:1035D00000BF00BF00BF00BF00BF00BFBFF36F8FC1
:1035E00000BF00BF00BF6D48006840F400306B4969
:1035F000086000BF00BF00BFBFF34F8F00BF00BF18
:1036000000BF00BF00BF00BFBFF36F8F00BF00BF90
:1036100000BF00BF00BF614B1B6803F4803303B1E0
:1036200048E000235D4D70352B6000BF00BF00BF38
:10363000BFF34F8F00BF00BF00BF2B1F1868C0F340
:103640004E3100BFC0F3C90200BF43F6E07303EA86
:1036500041134FF0404505EA82752B43504D10351C
:103660002B6000BF00BF131EA2F10102EDD10B1EA3
:10367000A1F10101E6D100BF00BF00BFBFF34F8F32
:1036800000BF00BF00BF454B1B6843F48033434D70
:103690002B6000BF00BF00BFBFF34F8F00BF00BF54
:1036A00000BF00BF00BF00BFBFF36F8F00BF00BFF0
:1036B00000BF00BFFDF7DCF8FFF710FE00BF394880
:1036C000006840F00070374908600846006800F064
:1036D0000070009000BF00BF0020FDF7A1F800219E
:1036E0000846FDF7ADF84FF6FF7400BF2D48E038EF
:1036F0000068C0F3C03018B9201EA4F10104F5DC45
:10370000002C01DAFCF71FFEFFF732FB01224021FB
:103710002548FDF773F8FFF7EBFAFFF7C3FB2349E2
:103720004FF04040FCF7EFFD37E021480278214997
:10373000C804FCF7E1FD1E48007819301C490870E8
:103740006420FCF7A1FE1A4802781A49C804FCF765
:10375000D3FD174800781930154908706420FCF72C
:1037600093FE134802781349C804FCF7C5FD1048BE
:10377000007819300E4908706420FCF785FE0C486B
:1037800002780C49C804FCF7B7FD094800781930E5
:10379000074908706420FCF777FEC6E714ED00E0E7
:1037A00050EF00E0E0440258001C025800C4090039
:1037B0000400002000B80B00000000000102030418
:1037C0000102030406070809E8370008000000208A
:1037D00024000000703500080C3800082400002088
:1037E000EC0400008035000800000000000000002C
:1037F00000000000000000000000000010000000B9
:0C380000010000000090D0030090D003F5
:040000050800029954
:00000001FF
