:020000040800F2
:1000000068050024B1020008BD3A00085F3100080D
:10001000B93A0008410300087D40000800000000D4
:100020000000000000000000000000001F3E00086B
:100030004503000800000000C13A0008213E000806
:10004000CB020008CB020008CB020008CB0200085C
:10005000CB020008CB020008CB020008CB0200084C
:10006000CB020008CB020008CB020008CB0200083C
:10007000CB020008CB020008CB020008CB0200082C
:10008000CB020008CB020008CB020008CB0200081C
:10009000CB020008CB020008CB020008CB0200080C
:1000A000CB020008CB020008CB020008CB020008FC
:1000B000CB020008CB020008CB020008CB020008EC
:1000C000CB020008CB020008CB020008CB020008DC
:1000D000CB020008CB020008CB020008CB020008CC
:1000E000CB020008CB02000800000000CB02000891
:1000F000CB020008CB020008CB020008CB020008AC
:10010000CB020008CB020008CB020008CB0200089B
:10011000CB020008CB020008CB020008CB0200088B
:10012000CB020008CB020008CB020008CB0200087B
:10013000CB020008CB020008CB020008CB0200086B
:10014000CB020008CB020008000000000000000005
:10015000CB020008CB020008CB020008CB0200084B
:10016000CB020008CB020008CB020008CB0200083B
:10017000CB020008CB020008CB020008CB0200082B
:10018000CB020008CB020008CB020008CB0200081B
:10019000CB020008CB020008CB020008CB0200080B
:1001A00025350008CB020008CB020008CB0200086E
:1001B000CB020008CB020008CB020008CB020008EB
:1001C000CB020008CB020008CB020008CB020008DB
:1001D000CB020008CB020008CB020008CB020008CB
:1001E000CB020008CB020008CB020008CB020008BB
:1001F000CB020008CB020008CB020008CB020008AB
:10020000CB020008CB020008CB020008CB0200089A
:10021000CB020008CB020008CB020008CB0200088A
:10022000CB020008CB020008CB020008CB0200087A
:10023000CB020008CB020008CB020008CB0200086A
:10024000CB020008CB020008CB020008CB0200085A
:10025000CB020008CB020008CB020008CB0200084A
:10026000CB020008CB020008CB020008CB0200083A
:10027000CB020008CB020008CB020008CB0200082A
:10028000CB020008CB020008CB02000800000000EF
:10029000CB020008CB020008DFF810D000F03EF8D7
:1002A0000048004725410008AFF30080680500249E
:1002B0000648804706480047FEE7FEE7FEE7FEE700
:1002C000FEE7FEE7FEE7FEE7FEE7FEE75D3F00082C
:1002D0009902000840EA01039B0703D009E008C91E
:1002E000121F08C0042AFAD203E011F8013B00F8FB
:1002F000013B521EF9D27047D2B201E000F8012B47
:10030000491EFBD270470022F6E710B513460A4695
:1003100004461946FFF7F0FF204610BD064C074D76
:1003200006E0E06840F0010394E8070098471034C5
:10033000AC42F6D3FFF7B4FF7443000894430008BF
:1003400000BFFEE7704772B600BFFEE702460868CE
:10035000B0B9D1E901031843CB6818430B691843BE
:100360004B6918438B691843CB6918430B6A1843D0
:100370004B6A184313686FF30E031843106019E0BB
:10038000D1E9070318434B6A1843136823F4F84371
:1003900018431060D1E901031843CB6818430B6977
:1003A00018434B6918438B69184353686FF30E0366
:1003B00018435060002070470246506943F6FE73B0
:1003C000984340EA410050610020704710B5034651
:1003D000D1E9000420438C68641E40EA4410CC68D4
:1003E00040EA44201C696FF3150420431861002083
:1003F00010BD000030B50346FAB90868401E4C68CD
:10040000641E40EA04148868401E44EA0024C86858
:10041000401E44EA0034088A401E44EA0044888AA8
:10042000401E44EA0054087E401E44EA00609C6876
:1004300004F070442043986022E0C868401E040322
:10044000888A401E44EA00509C680E4D2C40204390
:1004500098600868401E4C68641E40EA041488686E
:10046000401E44EA0024088A401E44EA0044087EF4
:10047000401E44EA0060DC6804F070442043D86009
:10048000002030BDFF0F0FFF70B5044600F0CCF91F
:1004900006462546681C10B104480078054400BF94
:1004A00000F0C2F9801BA842FAD370BD1C000024E2
:1004B00000B5B9B0142134A8FFF725FF47480068FC
:1004C00008B139B000BD012044490860C82102A824
:1004D000FFF719FF4FF080710020CDE90210149052
:1004E00002A801F003F808B1FFF72DFF00BF3C4858
:1004F000006840F480503A4908600846006800F4FB
:100500008050019000BF00BF40F2FF603490022095
:10051000359000203690032037900C20389034A975
:10052000304800F06DF84FF683703490022035901B
:1005300000203690032037900C20389034A92A48A8
:1005400000F05EF84FF47F40349002203590002098
:100550003690032037900C20389034A9234800F0BF
:100560004FF848F233103490022035900020369036
:10057000032037900C20389034A91D4800F040F833
:100580004CF2037034900220359000203690032006
:1005900037900C20389034A9164800F031F84FF607
:1005A0003F00349002203590002036900320379091
:1005B0000C20389034A9104800F022F80D20349017
:1005C0000220359000203690032037900C20389080
:1005D00034A90A4800F014F800BF72E70C000024A8
:1005E000D44402580020025800100258001C02583F
:1005F00000180258000C0258001402580008025853
:10060000F8B502460B4600216F4DD7E001278F4019
:100610001E6806EA0704002C72D01E7906F0030655
:10062000012E04D01E7906F00306022E13D1906825
:100630004F000326BE40B0434F00DE68BE4030434B
:100640009060506801268E40B0431E79C6F30016B4
:100650008E40304350601E7906F00306032E09D009
:10066000D0684F000326BE40B0434F009E68BE4096
:100670003043D0601E7906F00306022E13D1CF0856
:1006800002F1200656F827004E07F70E0F26BE404F
:10069000B0434F07FF0E1E69BE403043CF0802F142
:1006A000200646F8270010684F000326BE40B043DE
:1006B0001E7906F003064F00BE40304310605E68AE
:1006C00006F44036002E78D000BF404E366846F023
:1006D00002063E4F3E603E46366806F00206009631
:1006E00000BF00BF3A4E8F0856F827008E07370F1D
:1006F0000F26BE40B043374EB24202D100262EE054
:100700005BE0354EB24201D1012628E0334EB242C1
:1007100001D1022623E0324EB24201D103261EE06F
:10072000304EB24201D1042619E02F4EB24201D11F
:10073000052614E02D4EB24201D106260FE02C4EC4
:10074000B24201D107260AE02A4EB24201D1082660
:1007500005E0294EB24201D1092600E00A268F07A2
:100760003F0FBE4030431A4E8F0846F827004FF027
:10077000B0463068A0435E6806F4801606B1204398
:100780004FF0B04630607068A0435E6806F4001613
:1007900006B120434FF0B04670606868A0435E68C1
:1007A00006F4003606B1204368602868A0435E68FE
:1007B00006F4803606B120432860491C1E68CE40EE
:1007C000002E7FF423AFF8BD80000058F444025897
:1007D000080400580000025800040258000802589B
:1007E000000C025800100258001402580018025859
:1007F000001C0258002002580024025810B542691B
:1008000021EA020302EA010443EA0443836110BDC2
:100810000AB1816101E00B048361704701480068FF
:10082000000C70470010005C014800687047000031
:1008300014000024024692F8410020282DD100BF68
:1008400092F84000012801D102207047012082F86F
:10085000400000BF242082F841001068006820F0AA
:100860000100136818601068006820F48050136855
:100870001860106800680843136818601068006802
:1008800040F0010013681860202082F8410000BF8A
:10089000002082F8400000BFD7E70220D5E710B55E
:1008A00002460B4692F8410020282AD100BF92F858
:1008B0004000012801D1022010BD012082F8400033
:1008C00000BF242082F841001068006820F0010079
:1008D000146820601068016821F4706141EA032106
:1008E000106801601068006840F001001468206022
:1008F000202082F8410000BF002082F8400000BFA5
:10090000DAE70220D8E7000010B504460CB9012050
:1009100010BD94F8410028B9002084F8400020461A
:1009200000F0F0F9242084F841002068006820F0ED
:10093000010021680860606820F07060216808612B
:100940002068806820F4004021688860E068012801
:1009500005D1A06840F400402168886004E0A068E8
:1009600040F4044021688860E068022802D18002D7
:10097000216848602068406813490843216848603E
:100980002068C06820F400402168C860D4E90401F0
:100990000843A16940EA01202168C860D4E9070141
:1009A0000843216808602068006840F00100216861
:1009B000086000206064202084F84100002020634B
:1009C00084F8420000BFA3E7008000022DE9FC5F2D
:1009D0000446894692469B46DDE90C780E9E94F8C3
:1009E000410020287ED117B1B8F1000F05D14FF496
:1009F000007060640120BDE8FC9F00BF94F84000D7
:100A0000012801D10220F6E7012084F8400000BF50
:100A1000FFF70AFF054619230122D103204600955E
:100A200002F0E4FC08B10120E5E7222084F841004F
:100A3000402084F84200002060646762A4F82A80A5
:100A400060635B46524649462046CDE9006502F0A8
:100A500035FC30B100BF002084F8400000BF012009
:100A6000C9E7608DFF280CD9FF2020853D48009004
:100A700094F828204FF080734946204602F09AFCF3
:100A80000BE0608D20853748009094F828204FF0C7
:100A900000734946204602F08DFC00BF3346002219
:100AA00004212046009502F0A1FC08B10120A2E734
:100AB0002068406A616A0870606A401C6062208D2C
:100AC000401E2085608D401E6085608D48B3208D5E
:100AD00038BB3346002280212046009502F086FC78
:100AE00018B100E03CE0012085E7608DFF280CD9BB
:100AF000FF2020850020009094F828204FF080737C
:100B00004946204602F056FC0BE0608D208500200F
:100B1000009094F828204FF000734946204602F0D8
:100B200049FC608D0028B9D12A463146204602F0A2
:100B300096FC08B101205EE720202168C86120688A
:100B400040680949084021684860202084F8410035
:100B5000002084F8420000BF84F8400000BF4AE74C
:100B6000022048E70024008000E800FE2DE9FC5F39
:100B70000446894692469B46DDE90C780E9E94F821
:100B8000410020287DD117B1B8F1000F05D14FF4F5
:100B9000007060640120BDE8FC9F00BF94F8400035
:100BA000012801D10220F6E7012084F8400000BFAF
:100BB000FFF73AFE054619230122D103204600958E
:100BC00002F014FC08B10120E5E7212084F841007F
:100BD000402084F84200002060646762A4F82A8004
:100BE00060635B46524649462046CDE9006502F007
:100BF000A3FB30B100BF002084F8400000BF0120FB
:100C0000C9E7608DFF280CD9FF20208500200090C7
:100C100094F828204FF080734946204602F0CAFB22
:100C20000BE0608D20850020009094F828204FF084
:100C300000734946204602F0BDFB00BF2A463146FC
:100C4000204602F03CFC08B10120A4E7606A00786D
:100C500021688862606A401C6062608D401E608509
:100C6000208D401E2085608D40B3208D30BB3346E3
:100C7000002280212046009502F0B8FB10B101202F
:100C800089E73AE0608DFF280CD9FF2020850020FD
:100C9000009094F828204FF080734946204602F0D7
:100CA00089FB0BE0608D20850020009094F82820BF
:100CB0004FF000734946204602F07CFB608D00280F
:100CC000BCD12A463146204602F0C9FB08B10120BA
:100CD00061E720202168C861206840680849084011
:100CE00021684860202084F84100002084F84200F8
:100CF00000BF84F8400000BF4DE702204BE7000032
:100D000000E800FE10B5BAB00446142134A8FFF77D
:100D1000FAFAC82102A8FFF7F6FA1E4920688842AD
:100D200036D108210020CDE90210249002A800F05D
:100D3000DDFB08B1FFF707FB00BF1748006840F074
:100D40008000154908600846006800F080000190A6
:100D500000BF00BF30203490122035900120369023
:100D6000002037900420389034A90C48FFF748FC45
:100D700000BF09480830006840F480000649083187
:100D800008600846006800F48000019000BF00BFC2
:100D90003AB010BD00580040E0440258001C025810
:100DA000034800680349097808440149086070470E
:100DB000140000241C00002410B5032000F038FBB0
:100DC00001F002FC10490968C1F303210F4A515C8C
:100DD00001F01F0120FA01F40B48006800F00F0039
:100DE0001146085C00F01F0024FA00F00849086072
:100DF000084804600F2000F00FF808B1012010BD72
:100E000000F0B2FA0020FAE71844025864430008E0
:100E1000240000242000002470B504461148007806
:100E200008B9012070BD0F4800784FF47A71B1FB0A
:100E3000F0F00D490968B1FBF0F5284602F075F9AC
:100E400008B10120EEE7102C07D200222146501EE7
:100E500000F0B0FA0548046001E00120E2E700205C
:100E6000E0E700001C0000242000002418000024FB
:100E700070B504460E46154600BF94F8A000012840
:100E800001D1022070BD012084F8A00000BF022023
:100E900084F8A10005EB850101EBC50204F13801DE
:100EA00001EB820034223146FFF714FA2A4631461C
:100EB000204602F03FFB01202168486284F8A1002F
:100EC00000BF002084F8A00000BF00BFDAE7704731
:100ED00070B504462068856B2068466B05F00400F9
:100EE000E0B106F00400C8B12068406B20F00400B7
:100EF0002168486304202168C863D4F8A40040F046
:100F00000100C4F8A400042084F8A10000BF002060
:100F100084F8A00000BF2046FFF7D9FF05F00200CB
:100F2000E0B106F00200C8B12068406B20F002007A
:100F30002168486302202168C863D4F8A40040F007
:100F40000200C4F8A400042084F8A10000BF00201F
:100F500084F8A00000BF2046FFF7B9FF05F00100AC
:100F6000A8B106F0010090B12068406B20F00100AC
:100F70002168486301202168C86384F8A10000BF8C
:100F8000002084F8A00000BF204600F0A7F805F07C
:100F90000800B0B106F0080098B12068406B20F05E
:100FA00008002168486308202168C863012084F88C
:100FB000A10000BF002084F8A00000BF204600F080
:100FC000D1F970BD70B504460CB9012070BD94F81C
:100FD000A10028B9002084F8A000204600F080F885
:100FE000022084F8A1002068806920F07040216808
:100FF0008861D4E901010843E16808432169084395
:1010000021688969084321688861206880683249BD
:10101000084021688860A08A050420688068A1696A
:1010200029430843216888602068C0682A4908402D
:101030002168C860A08B05042068C068216A294324
:1010400008432168C8602068006923490840216876
:101050000861A08C050420680069A16A294308433F
:1010600021680861206840691B490840216848617F
:10107000A08D050420684069216B2943084321683D
:10108000486194F83500050294F83600060420689B
:10109000C06A00F07F402168C86246EA050094F803
:1010A000341008432168C96A08432168C86220686F
:1010B000406B40F00600216848632068806940F07A
:1010C0000100216888610020C4F8A400012084F890
:1010D000A10000207AE7000000F800F0704700004F
:1010E00010B5BAB00446142134A8FFF70CF9C82192
:1010F00002A8FFF708F99249206888427ED141048E
:101100000020CDE9021019200C90A0210D910221A0
:101110000E910F9104211091002111914FF4007153
:1011200012910021139102A800F0E0F908B1FFF735
:101130000AF900BF8348006840F008008149086050
:101140000846006800F00800019000BF00BF00BF23
:10115000081F006840F48060091F086008460068A6
:1011600000F48060019000BF00BF00BF0846006827
:1011700040F0400008600846006800F04000019020
:1011800000BF00BF00BF0846006840F40070086060
:101190000846006800F40070019000BF00BF00BF67
:1011A0000846006840F0080008600846006800F043
:1011B0000800019000BF00BF00BF0846006840F073
:1011C000010008600846006800F00100019000BFBF
:1011D00000BF00BF0846006840F480700860084601
:1011E000006800F48070019000BF00BF00BF084697
:1011F000006840F004000860084600E09EE00068D7
:1012000000F00400019000BF00BFF92034900220DC
:10121000359000203690032037900E20389034A966
:101220004948FFF7EDF94FF4806034900220359083
:1012300000203690032037900920389034A9434885
:10124000FFF7DEF948F61420349002203590002094
:101250003690032037900E20389034A93C48FFF791
:10126000CFF90820349002203590002036900320DA
:1012700037900E20389034A93648FFF7C1F94FF463
:1012800090703490022035900020369003203790E3
:101290000E20389034A93048FFF7B2F94FF40060BF
:1012A000349002203590002036900320379009209A
:1012B000389034A92948FFF7A3F940203490022040
:1012C000359000203690032037900E20389034A9B6
:1012D0002348FFF795F980203490022035900020B4
:1012E0003690032037900E20389034A91748FFF726
:1012F00087F94FF40050349002203590002036904A
:10130000032037900E20389034A91448FFF778F95D
:101310000120349002203590002036900320379031
:101320000920389034A90A48FFF76AF900221146CB
:10133000582000F03FF8582000F028F83AB010BDCF
:1013400000100050E44402580028025800180258C7
:1013500000240258000C02580000025800200258D5
:10136000000802587047000008B500BF0648006832
:1013700040F00200044908600846006800F00200DE
:10138000009000BF00BF08BDF44402580146084663
:1013900000280DDB00BF00BF00F01F0301229A40B0
:1013A00043099B0003F1E023C3F8002100BF00BF05
:1013B00000BF70472DE9F05F80460D46164602F0EB
:1013C0005FFE074639462A46334601F00700C0F162
:1013D000070ABAF1040F02D94FF0040A01E0C0F184
:1013E000070AD14600F1040ABAF1070F02D24FF002
:1013F000000A01E0A0F1030AD4464FF0010A0AFAFC
:1014000009FAAAF1010A0AEA020A0AFA0CFA4FF0EA
:10141000010B0BFA0CFBABF1010B0BEA030B4AEAD5
:101420000B042146404602F033FEBDE8F09F000069
:1014300000BF00F00702064B19684FF6FF03194082
:10144000044B0B4343EA0221014B196000BF704774
:101450000CED00E00000FA0570B504462248006873
:1014600000F00700062809D01F48006800F03F0080
:10147000A04201D0012070BD0020FCE71A4800689E
:1014800020F03F00204318490860FFF7CDF90546DA
:1014900007E0FFF7C9F9401BB0F57A7F01D90120B9
:1014A000E9E7114808380068C0F340300028F0D060
:1014B0001E2C05D02E2C03D01D2C01D02D2C11D18B
:1014C000FFF7B2F9054607E0FFF7AEF9401BB0F5AC
:1014D0007A7F01D90120CEE703480068C0F30040BD
:1014E0000028F1D00020C6E70C4802582DE9F04151
:1014F00004460025A8464FF00062D4E900011040E0
:101500000021134658404940084331D1E06E48B1AC
:10151000B0F5801F0DD0B0F5001F11D0B0F5401F01
:1015200016D114E0FB48006840F40030F949086027
:1015300010E0022104F1080002F0C4FA054609E0B7
:10154000022104F1280002F06FFB054602E001E0F1
:10155000012500BF00BF55B9EE482430006820F4D3
:101560004010E16E0843EB492431086000E0A846D2
:101570004FF48072D4E90001104000211346584016
:10158000494008432ED1E06D05281BD2DFE800F06A
:10159000030A11181900DF48006840F40030DD49E3
:1015A000086011E0002104F1080002F08BFA054602
:1015B0000AE0002104F1280002F036FB054603E0B2
:1015C00002E001E0012500BF00BF55B9D148243039
:1015D000006820F00700E16D0843CE49243108601F
:1015E00000E0A8464FF40072D4E900011040002149
:1015F000134658404940084334D1206E802818D003
:1016000003DC40B140281DD10CE0C02818D0B0F553
:10161000807F17D115E0BF48006840F40030BD4915
:10162000086011E0002104F1080002F04BFA0546C1
:101630000AE0002104F1280002F0F6FA054603E072
:1016400002E001E0012500BF00BF55B9B1482430D8
:10165000006820F4E070216E0843AE492431086030
:1016600000E0A8464FF48062D4E900101140002049
:10167000134659404040014339D1D4F8AC00B0F58D
:10168000800F1AD004DC50B1B0F5001F1ED10DE060
:10169000B0F5C00F18D0B0F5000F17D115E09D4878
:1016A000006840F400309B49086011E0002104F11B
:1016B000080002F007FA05460AE0002104F12800BC
:1016C00002F0B2FA054603E002E001E0012500BFA6
:1016D00000BF5DB98F482C30006820F46000D4F85A
:1016E000AC1008438B492C31086000E0A8464FF449
:1016F0000063D4E9001019400020594040400143E4
:1017000039D1D4F8B000B0F1007F1AD004DC50B168
:10171000B0F1807F1ED10DE0B0F1407F18D0B0F164
:10172000806F17D115E07B48006840F4003079499C
:10173000086011E0002104F1080002F0C3F9054639
:101740000AE0002104F1280002F06EFA054603E0E9
:1017500002E001E0012500BF00BF5DB96D482C30FB
:10176000006820F0E060D4F8B010084369492C31DB
:10177000086000E0A8464FF00072D4E90001104074
:101780000021134658404940084328D1E06CA8B1D5
:10179000102804D0202809D0302810D10DE05D4851
:1017A000006840F400305B4908600AE0022104F15F
:1017B000080002F087F9054603E002E001E0012598
:1017C00000BF00BF55B953482030006820F03000FA
:1017D000E16C08434F492031086000E0A8464FF40F
:1017E0008053D4E900101940002059404040014383
:1017F00037D1606EB0F5005F1AD004DC50B1B0F59F
:10180000805F1ED10DE0B0F5405F18D0B0F5804F7D
:1018100017D115E03F48006840F400303D490860AA
:1018200011E0002104F1080002F04CF905460AE03D
:10183000002104F1280002F0F7F9054603E002E078
:1018400001E0012500BF00BF55B9324824300068CF
:1018500020F4E040616E08432E492431086000E026
:10186000A8464FF40053D4E9001019400020594015
:101870004040014335D1A06EB0F5403F1ED007DC9B
:1018800068B1B0F5803F0BD0B0F5003F19D10EE044
:10189000B0F5802F13D0B0F5A02F12D110E012E0D8
:1018A000012104F1080002F00DF905460BE00121C9
:1018B00004F1280002F0B8F9054604E003E002E074
:1018C00001E0012500BF00BF55B91248243000686F
:1018D00020F4E020A16E08430E492431086000E0A6
:1018E000A8464FF48043D4E9001019400020594025
:1018F0004040014338D1D4F8B400B0F1405F21D06A
:101900000ADC80B1B0F1805F0ED0B0F1005F1CD175
:1019100011E000002C440258B0F1804F13D0B0F118
:10192000A04F12D110E012E0012104F1080002F0F2
:10193000C9F805460BE0012104F1280002F074F912
:10194000054604E003E002E001E0012500BF00BF1E
:101950004DB9F748006820F0E040D4F8B4100843CF
:10196000F349086000E0A8464FF08063D4E9001016
:10197000194000205940404001431CD1206D48B11E
:10198000B0F5807F07D1012104F1080002F09AF838
:10199000054602E001E0012500BF00BF55B9E4485B
:1019A0000C38006820F48070216D0843E0490C3940
:1019B000086000E0A8464FF40043D4E90001184055
:1019C000002158404940084329D1606FB0B1B0F1BF
:1019D000805F03D0B0F1005F11D108E0D4482C380B
:1019E000006840F40030D2492C39086009E0012138
:1019F00004F1080002F066F8054602E001E0012566
:101A000000BF00BF55B9CA480838006820F04050F0
:101A1000616F0843C6490839086000E0A8464FF0E6
:101A20008072D4E900101140002013465940404014
:101A300001432AD1A06CB8B1012804D002280BD0F0
:101A4000032812D10FE0BA482C38006840F4003067
:101A5000B7492C3908600AE0022104F1080002F0BD
:101A600031F8054603E002E001E0012500BF00BFB8
:101A700055B9AF480C38006820F00300A16C08434A
:101A8000AB490C39086000E0A8464FF48002D4E965
:101A900000011040002113465840494008437DD1C1
:101AA000A448006840F48070A2490860FEF7BCFEBC
:101AB000064606E0FEF7B8FE801B642801D9032520
:101AC00005E09C48006800F480700028F2D000BF58
:101AD00085BB97481830006800F44070B4F8B8101F
:101AE00001F44071884213D091481830006820F406
:101AF00040778F481830006840F480308C491831A6
:101B000008600846006820F48030086008460760D6
:101B1000D4F8B800B0F5807F15D1FEF785FE0646F3
:101B200009E0FEF781FE801B41F28831884202D92C
:101B3000032507E038E07E4818300068C0F3400015
:101B40000028EED000BF55BB00BFB4F8B80000F4C9
:101B50004070B0F5407F0ED175484838006820F4D9
:101B60007C51754AD4F8B800104041EA1010704911
:101B70004839086007E06E484838006820F47C5017
:101B80006B49483908606A4818300068B4F8B810E2
:101B9000C1F30B0108436649183101E005E001E09B
:101BA000086002E0A84600E0A8460122D4E900103F
:101BB00011400020134659404040014332D1D4F82F
:101BC000800018281AD005DC48B1082808D0102851
:101BD00017D10CE0202812D0282812D110E012E0F2
:101BE000012104F1080001F06DFF05460BE0012121
:101BF00004F1280002F018F8054604E003E002E0D2
:101C000001E0012500BF00BF5DB94948001F006821
:101C100020F03800D4F8801008434549091F0860B7
:101C200000E0A8460223D4E90001184000215840F2
:101C30004940084329D1E06F062816D2DFE800F0BA
:101C400003040B12131412E0012104F1080001F047
:101C500039FF05460BE0012104F1280001F0E4FF03
:101C6000054604E003E002E001E0012500BF00BFFB
:101C700055B92F48001F006820F00700E16F0843A6
:101C80002B49091F086000E0A8460423D4E900019D
:101C90001840002158404940084329D1D4F8980001
:101CA000062816D2DFE800F003040B12131412E02A
:101CB000012104F1080001F005FF05460BE00121B8
:101CC00004F1280001F0B0FF054604E003E002E063
:101CD00001E0012500BF00BF4DB91548006820F0A4
:101CE0000700D4F8981008431149086000E0A8469E
:101CF0002023D4E9000118400021584049400843FE
:101D00003CD1D4F89400B0F1405F25D007DC68B135
:101D1000B0F1805F12D0B0F1005F20D115E0B0F1DA
:101D2000804F1AD0B0F1A04F19D117E019E0000090
:101D30005844025800480258FFFCFF0F002104F1EC
:101D4000080001F0BFFE05460BE0022104F1280067
:101D500001F06AFF054604E003E002E001E001252E
:101D600000BF00BF4DB9FE48006820F0E040D4F845
:101D700094100843FA49086000E0A8464022D4E9DC
:101D8000001011400020134659404040014337D114
:101D9000D4F8A000B0F5406F1ED007DC68B1B0F5F4
:101DA000806F0BD0B0F5006F19D10EE0B0F5805FF9
:101DB00013D0B0F5A05F12D110E012E0002104F1C1
:101DC000080001F07FFE05460BE0022104F1280027
:101DD00001F02AFF054604E003E002E001E00125EE
:101DE00000BF00BF5DB9DE48001D006820F4E05070
:101DF000D4F8A0100843DA49091D086000E0A8469D
:101E00008022D4E900101140002013465940404080
:101E1000014337D1D4F8A400B0F5C04F1ED007DC81
:101E200068B1B0F5005F0BD0B0F5804F19D10EE06E
:101E3000B0F5004F13D0B0F5204F12D110E012E0F2
:101E4000002104F1080001F03DFE05460BE00221EF
:101E500004F1280001F0E8FE054604E003E002E09A
:101E600001E0012500BF00BF5DB9BD48001D00684D
:101E700020F46040D4F8A4100843B949091D086053
:101E800000E0A8460823D4E900101940002059407A
:101E90004040014315D1D4F88800B0F5805F07D1E8
:101EA000022104F1280001F0BFFE08B14FF0010843
:101EB000AB48006820F44050D4F888100843A84983
:101EC00008601022D4E90001104000211346584058
:101ED0004940084317D1D4F89C00B0F5807F07D162
:101EE000022104F1280001F09FFE08B14FF0010823
:101EF0009B48001D006820F44070D4F89C100843F3
:101F00009749091D08604FF40022D4E900011040F0
:101F10000021134658404940084329D1D4F8A8006D
:101F200030B1B0F5803F0AD0B0F5003F0FD10DE0E1
:101F3000002104F1080001F0C5FD054609E0022179
:101F400004F1280001F070FE054602E001E00125E1
:101F500000BF00BF5DB98248001D006820F440301A
:101F6000D4F8A81008437E49091D086000E0A8467F
:101F70004FF48023D4E9001019400020594040401C
:101F800001432BD1D4F88C00B0F5801F06D0B0F5FA
:101F9000001F0CD0B0F5401F11D10FE07048283859
:101FA000006840F400306E492839086009E00121DA
:101FB00004F1280001F038FE054602E001E00125A9
:101FC00000BF00BF4DB96648006820F44010D4F847
:101FD0008C1008436249086000E0A8464FF4803244
:101FE000D4E90001104000211346584049400843FD
:101FF00025D1606D18B1B0F5803F10D108E0584888
:102000002838006840F4003055492839086008E055
:10201000022104F1080001F055FD054601E001250B
:1020200000BF00BF55B94E480838006820F4803022
:10203000616D08434A490839086000E0A8464FF03E
:102040000053D4E90001184000215840494008439A
:1020500007D1022104F1280001F0E6FD08B14FF09C
:1020600001084FF40032D4E900011040002113466A
:1020700058404940084327D1D4F88400A0B1B0F5B6
:10208000807F06D0B0F5007F0CD0B0F5407F0CD13A
:1020900009E033482838006840F4003030492839D6
:1020A000086004E003E002E001E0012500BF00BF9A
:1020B0004DB92B48006820F44070D4F884100843D0
:1020C0002749086000E0A8464FF48013D4E90010C7
:1020D0001940002059404040014309D12048001FC9
:1020E000006820F00040A16F08431D49091F0860E7
:1020F0004FF08052D4E9001011400020134659409F
:10210000404001430AD116484438006820F480401A
:10211000D4F8BC1008431249443908604FF4001346
:10212000D4E900011840002158404940084309D132
:102130000B48001F006820F08070216F0843084999
:10214000091F08604FF08043D4E9000118400021C6
:1021500058404940084312D100BF0148443801E0CB
:1021600054440258006820F400404E490860084674
:102170000068D4F8C01008434A49086000BF4FF017
:102180000042D4E900011040002113465840494064
:10219000084309D143483C30006820F04050A16D0D
:1021A000084340493C3108604FF40003D4E9001073
:1021B000194000205940404001430AD13948443079
:1021C000006820F44000D4F89010084335494431A9
:1021D00008600122002061681140404051400843DE
:1021E00007D1002104F1080001F06CFC054605B19F
:1021F000A846022200206168114040405140084337
:1022000007D1012104F1080001F05CFC054605B18D
:10221000A846042200216068104049405040014314
:1022200007D1022104F1080001F04CFC054605B17C
:10223000A8460822002160681040494050400143F0
:1022400006D104F1280001F0EFFC054605B1A846CF
:10225000102200216068104049405040014307D1DE
:10226000012104F1280001F0DFFC054605B1A84674
:10227000202300206168194020224040514008433B
:1022800007D1022104F1280001F0CEFC054605B17A
:10229000A846B8F1000F02D10020BDE8F08101206E
:1022A000FBE70000104402582DE9F04104460D46BA
:1022B00014B90120BDE8F081BD48006800F00F00AE
:1022C000A8420ED2BA48006820F00F002843B8494F
:1022D00008600846006800F00F00A84201D0012005
:1022E000E8E7207800F0040004280ED1B149206905
:1022F000096801F07001884207D9AE48006820F0F3
:10230000700021690843AB490860207800F008009C
:10231000082811D1A749091D6069096801F07001F9
:10232000884209D9A348001D006820F07000616947
:102330000843A049091D0860207800F0100010280B
:1023400011D19C49091DA069096801F4E061884226
:1023500009D99848001D006820F4E060A16908438D
:102360009449091D0860207800F02000202811D130
:1023700090490831E069096801F07001884209D983
:102380008C480830006820F07000E16908438949F2
:1023900008310860207800F0020002280ED185493B
:1023A000E068096801F00F01884207D98148006898
:1023B00020F00F00E16808437E490860207800F0B3
:1023C0000100002850D07B48006820F47060A168AC
:1023D0000843784908606068022807D175481838B2
:1023E0000068C0F34040F8B9012063E76068032843
:1023F00007D1704818380068C0F34060A0B90120C8
:1024000058E76068012807D16A4818380068C0F3A7
:10241000002048B901204DE7664818380068C0F32D
:10242000800008B9012045E762480838006820F0BC
:102430000700616808435F4908390860FEF7F4F94E
:10244000064608E0FEF7F0F9801B41F28831884229
:1024500001D903202EE757480838006800F03800FB
:102460006168B0EBC10FEDD1207800F002000228C6
:102470000ED15049E068096801F00F01884207D287
:102480004C48006820F00F00E168084349490860A3
:102490004748006800F00F00A8420ED94448006881
:1024A00020F00F002843424908600846006800F009
:1024B0000F00A84201D00120FCE6207800F00400C3
:1024C00004280ED13B492069096801F07001884257
:1024D00007D23848006820F0700021690843354968
:1024E0000860207800F00800082811D13149091D42
:1024F0006069096801F07001884209D22D48001D09
:10250000006820F07000616908432A49091D0860CD
:10251000207800F01000102811D12649091DA0696B
:10252000096801F4E061884209D22248001D006870
:1025300020F4E060A16908431E49091D0860207865
:1025400000F02000202811D11A490831E0690968FB
:1025500001F07001884209D216480830006820F066
:102560007000E169084313490831086000F02CF855
:1025700010490968C1F303210F4A515C01F01F01A2
:1025800020FA01F70B48006800F00F001146085CC4
:1025900000F01F0027FA00F00849086008480760AB
:1025A00008480068FEF738FC8046404682E6000096
:1025B00000200052184402586443000824000024FC
:1025C0002000002418000024F0B5824E366806F082
:1025D000380636B1082E15D0102E15D0182E7DD104
:1025E00014E07C4E103E3668C6F3401646B1794E74
:1025F000103E3668C6F3C107774E26FA07F000E0B2
:102600007548E5E07548E3E07548E1E0714E18363D
:10261000366806F003046F4E18363668C6F30511A7
:102620006C4E1C36366806F001056A4E2436366854
:10263000C6F3CC0616FB05F601EE106AB8EE410AA9
:10264000002971D024B1012C50D0022C6DD16DE045
:10265000604E103E3668C6F340163EB35D4E103EE7
:102660003668C6F3C1075C4E26FA07F301EE103A4E
:10267000F8EE411A01EE101AB8EE411A81EE812AE5
:102680009FED581AC0EE011A524E20363668C6F336
:10269000080601EE106AB8EE411A31EE811AF7EE23
:1026A000001A31EE211A62EE010A1EE001EE101A44
:1026B000B8EE411ADFED4C1A81EE812A9FED491ADE
:1026C000C0EE011A434E20363668C6F3080601EE06
:1026D000106AB8EE411A31EE811A00E076E0F7EEAA
:1026E000001A31EE211A62EE010A5BE001EE101AC7
:1026F000B8EE411A9FED3D2AC2EE011A9FED391A3C
:1027000080EE012A334E20363668C6F3080601EE05
:10271000106AB8EE411A32EE011AB7EE002A31EE15
:10272000021A61EE810A3DE04EE01DE001EE101A52
:10273000B8EE411ADFED2E1A81EE812A9FED291A9B
:10274000C0EE011A234E20363668C6F3080601EEA5
:10275000106AB8EE411A31EE811AF7EE001A31EE26
:10276000211A62EE010A1DE001EE101AB8EE411ABC
:102770009FED1E2AC2EE011A9FED1A1A80EE012A61
:10278000144E20363668C6F3080601EE106AB8EE1D
:10279000411A32EE011AB7EE002A31EE021A61EE4A
:1027A000810A00BF00BF0B4E20363668C6F34626AE
:1027B000721C01EE102AB8EE411AC0EE811ABCEE6E
:1027C000E11A11EE100A00E0002001E0034800BF0A
:1027D00000BFF0BD104402580090D00300093D0036
:1027E00040787D01000000460024744C0024744AA7
:1027F00020BCBE4B2DE9F047044614B90120BDE8CA
:10280000F087207800F00100002870D0FA480068B6
:1028100000F03808F8481830D0F80090B8F1100FE0
:1028200006D0B8F1180F0FD109F0030002280BD120
:10283000F14810380068C0F3404000286AD0606852
:10284000002867D10120DAE700BF6068B0F5803F5B
:1028500008D1E9481038006840F48030E649103962
:1028600008602EE0606868B9E3481038006820F41A
:102870008030E149103908600846006820F4802063
:1028800008601EE06068B0F5A02F0DD1DA4810385E
:10289000006840F48020D849103908600846006874
:1028A00040F4803008600CE0D3481038006820F411
:1028B0008030D149103908600846006820F4802033
:1028C000086000BF606898B1FDF7AEFF054606E0FE
:1028D000FDF7AAFF401B642801D903208FE7C648F3
:1028E00010380068C0F340400028F1D012E012E038
:1028F000FDF79AFF054606E0FDF796FF401B6428AA
:1029000001D903207BE7BC4810380068C0F3404081
:102910000028F1D100BF207800F00200022874D115
:10292000B548006800F03808B3481830D0F8009077
:10293000B8F1000F05D0B8F1180F56D109F0030017
:10294000D0BBAD4810380068C0F3800018B1E06813
:1029500008B9012053E7A8481038006820F0190092
:10296000E1680843A44910390860FDF75DFF05469A
:1029700006E0FDF759FF401B022801D903203EE77E
:102980009D4810380068C0F380000028F1D000BFD7
:10299000FDF744FF41F2030188421AD8206940281C
:1029A0000BD195480C38006820F47C3040F400309E
:1029B00091490C39086017E017E08F480C3800681F
:1029C00020F47C30216940EA01308B490C390860E1
:1029D0000AE089480C38006820F0FE40217C40EA7B
:1029E000016085490C39086066E0E06888B3824878
:1029F0001038006820F01900E16808437E4910395A
:102A00000860FDF711FF054607E056E0FDF70CFFF3
:102A1000401B022801D90320F1E6774810380068EE
:102A2000C0F380000028F1D000BFFDF7F7FE41F2AF
:102A3000030188421AD8206940280BD16E480C380F
:102A4000006820F47C3040F400306B490C39086099
:102A500017E017E068480C38006820F47C302169E2
:102A600040EA013064490C3908600AE062480C38D9
:102A7000006820F0FE40217C40EA01605E490C398C
:102A8000086019E05C481038006820F001005A49DD
:102A900010390860FDF7C8FE054606E0FDF7C4FEE4
:102AA000401B022801D90320A9E6534810380068CA
:102AB000C0F380000028F1D100BF207800F01000A2
:102AC00010287CD14C48006800F038084A4818307B
:102AD000D0F80090B8F1080F06D0B8F1180F3DD12A
:102AE00009F00300012839D1434810380068C0F3C9
:102AF000002020B1E069802801D001207FE600BFDE
:102B0000FDF78CFE41F2030188421AD8206A202882
:102B10000AD139480C38006820F0F84040F0804075
:102B200035490C39086018E033480C38006820F04B
:102B3000F84094F8201040EA81602F490C39086071
:102B40000BE02D48001F006820F07C5094F8201006
:102B500040EA01602849091F086066E0E06978B32F
:102B600025481038006840F080002349103908607B
:102B7000FDF75AFE054606E0FDF756FE401B02280B
:102B800001D903203BE61C4810380068C0F3002040
:102B90000028F1D000BFFDF741FE41F20301884259
:102BA0001CD8206A20280CD113480C38006820F06B
:102BB000F84040F0804010490C3908601AE035E0D8
:102BC0001CE00D480C38006820F0F84094F8201004
:102BD00040EA816008490C3908600BE00648001F94
:102BE000006820F07C5094F8201040EA016002490F
:102BF000091F086019E0000010440258FA480068F4
:102C000020F08000F8490860FDF70EFE054606E05A
:102C1000FDF70AFE401B022801D90320EFE5F24828
:102C20000068C0F300200028F2D100BF207800F037
:102C30000800082836D16069D0B1EB4874300068CC
:102C400040F00100E84974310860FDF7EDFD0546EC
:102C500006E0FDF7E9FD401B022801D90320CEE57F
:102C6000E14874300068C0F340000028F1D019E05A
:102C7000DD487430006820F00100DB4974310860E1
:102C8000FDF7D2FD054606E0FDF7CEFD401B02280C
:102C900001D90320B3E5D44874300068C0F3400084
:102CA0000028F1D1207800F02000202830D1A06940
:102CB000B8B1CD48006840F48050CB490860FDF7BA
:102CC000B3FD054606E0FDF7AFFD401B022801D924
:102CD000032094E5C4480068C0F340300028F2D0D7
:102CE00016E0C148006820F48050BF490860FDF735
:102CF0009BFD054606E0FDF797FD401B022801D924
:102D000003207CE5B8480068C0F340300028F2D1C9
:102D1000207800F0040004287DD1B448006840F415
:102D20008070B2490860FDF77FFD054606E0FDF7BB
:102D30007BFD401B642801D9032060E5AB48006897
:102D400000F480700028F2D000BFA068012808D1EC
:102D5000A5487030006840F00100A3497031086058
:102D60002DE0A06868B9A0487030006820F001002C
:102D70009D49703108600846006820F00400086032
:102D80001DE0A06805280DD197487030006840F01C
:102D900004009549703108600846006840F0010061
:102DA00008600CE090487030006820F001008E4907
:102DB000703108600846006820F00400086000BF19
:102DC000A068A0B1FDF730FD054608E0FDF72CFD39
:102DD000401B41F28831884201D903200FE5824827
:102DE00070300068C0F340000028EFD013E0FDF71A
:102DF0001BFD054608E0FDF717FD401B41F2883139
:102E0000884201D90320FAE4774870300068C0F3A3
:102E100040000028EFD1606A00287DD07248103051
:102E2000006800F03800182877D0606A022875D151
:102E30006D48006820F080706B490860FDF7F4FC75
:102E4000054606E0FDF7F0FC401B022801D90320EF
:102E5000D5E465480068C0F340600028F2D100BFA7
:102E6000D4E90A1041EA00105F492831096840F2AC
:102E7000F332914308435C4928310860208E401E9C
:102E8000C0F30800616B491E4FF47E4202EA412103
:102E90000843218F491ED20102EA014108433C2127
:102EA000095D491E120202EA016108434E493031B0
:102EB000086000BF081F006820F00100091F0860BB
:102EC0004948343000684FF6F8718843A16C40EAF5
:102ED000C10045493431086043482C30006820F077
:102EE0000C00216C084340492C31086008460068FA
:102EF00020F00200616C08433B492C310860084611
:102F0000006840F4803008600846006840F40030F3
:102F100008600846006802E093E038E01FE040F4F3
:102F2000802008600846006840F0010008602E48D4
:102F3000006840F080702C490860FDF775FC05467C
:102F400006E0FDF771FC401B022801D9032056E47E
:102F500025480068C0F340600028F2D071E02248A4
:102F6000006820F0807020490860FDF75DFC054690
:102F700006E0FDF759FC401B022801D903203EE47E
:102F800019480068C0F340600028F2D159E01648A3
:102F900028300768144830300668606A012821D05C
:102FA00007F00301A06A81421CD1C7F30511E06A52
:102FB000884217D1C6F30801206B401E814211D10F
:102FC000606B401EC6F3462188420BD1A06B401EA9
:102FD000C6F30641884205D1E06B401EC6F3066188
:102FE000884205D001200AE40044025800480258F3
:102FF00015480068C0F3CC07A06CB84221D0124835
:103000000838006820F001000F4908390860FDF712
:103010000BFC054600BFFDF707FC401BFBD00A4830
:1030200000684FF6F8718843A16C40EAC100064978
:10303000086005480838006840F001000249083976
:10304000086000204AE400003444025870B5044689
:103050000D460CB9012070BD94F82C0028B9002051
:1030600084F82D00204600F019F8022084F82C0086
:10307000211D2068FDF76AF92946D4E90002FDF711
:10308000B9F90548006840F0004003490860012094
:1030900084F82C000020DEE70040005210B5044602
:1030A000FDF706FA10BD70B504460D4694F82C00E5
:1030B000022800D170BD94F82C0001280AD102200A
:1030C00084F82C0029462068FDF776F9012084F861
:1030D0002C0001E00120EDE70020EBE72DE9F041B5
:1030E00004460E46174694F82C50022D02D10220B9
:1030F000BDE8F081012D01D0052D12D1022084F808
:103100002C003A4631462068FDF760F93068022805
:1031100003D1052084F82C0005E0012084F82C0060
:1031200001E00120E4E70020E2E770B5044625460F
:10313000681EB0F1807F01D301200FE0681E4FF0C0
:10314000E02148610F214FF0FF3000F0A1FF002087
:103150004FF0E021886107200861002070BD00BFAA
:10316000FEE701688969C1F3400111B100210268DD
:1031700091620168896901F0010129B901688969D1
:1031800041F0010102689161704700002DE9F74F9D
:1031900004460E4600272068D0F818800025DDF888
:1031A000089008F01000102845D12168C86134E06B
:1031B000701C90B3FDF738FBA0EB0900B04200D8BB
:1031C0005EBB2068406800F4804A94F842B02068F2
:1031D0008069C0F3C03070B1BAF5804F0BD0BBF13D
:1031E000200F08D02068406840F480402168486083
:1031F000FDF71AFB814609E0FDF716FBA0EB09007D
:10320000192803D945F02005012705E020688069C9
:10321000C0F340100028EFD000BF20688069C0F3E1
:10322000401008B9002FC3D017B920202168C86109
:1032300045F0040501272068D0F8188008F4807054
:10324000B0F5807F06D145F001054FF4807021680C
:10325000C861012708F48060B0F5806F06D145F0A1
:1032600008054FF480602168C861012708F40070E8
:10327000B0F5007F06D145F002054FF400702168DB
:10328000C8610127AFB12046FFF76BFF2068406897
:103290000949084021684860606C28436064202028
:1032A00084F84100002084F8420000BF84F8400008
:1032B00000BF3846BDE8FE8F00E800FE2DE9F84368
:1032C0000446894615461E46DDE908781948F2B2DB
:1032D000002349460090204600F06CF842463946EB
:1032E000204600F0ECF810B10120BDE8F883012E73
:1032F00003D1E8B2216888620EE0C5F30720216897
:10330000886242463946204600F0D9F808B10120CB
:10331000EBE7E8B2216888623B4600224021204664
:10332000CDF8008000F062F808B10120DDE7002050
:10333000DBE70000002000802DE9F84304468946C1
:1033400015461E46DDE908781948F2B2C30249461F
:103350000090204600F02EF842463946204600F004
:10336000AEF810B10120BDE8F883012E03D1E8B218
:10337000216888620EE0C5F3072021688862424612
:103380003946204600F09BF808B10120EBE7E8B28F
:10339000216888623B46002280212046CDF80080CB
:1033A00000F024F808B10120DDE70020DBE7000091
:1033B00000200080F0B5059CC1F309064FF47F079B
:1033C00007EA02473E431E43264326F000450668AF
:1033D00076684FF4806707EA545767F0FC2747F494
:1033E000C047BE432E4307687E60F0BD2DE9F04123
:1033F00004460D4617461E46DDF8188023E0701C73
:1034000008B3FDF711FAA0EB0800B04200D8D6B916
:10341000206880692840A84201D1012000E00020F6
:10342000B84210D1606C40F020006064202084F825
:103430004100002084F8420000BF84F8400000BF33
:103440000120BDE8F081206880692840A84201D1B0
:10345000012000E00020B842D1D00020F1E770B593
:1034600004460D46164622E0324629462046FFF71E
:103470008DFE08B1012070BDFDF7D6F9801BA84272
:1034800000D8A5B920688069C0F3401078B9606C95
:1034900040F020006064202084F84100002084F87F
:1034A000420000BF84F8400000BF0120E3E720682D
:1034B0008069C0F340100028D6D00020DBE770B54B
:1034C00004460D46164624E0324629462046FFF7BC
:1034D0005DFE08B1012070BD681CD0B1FDF7A4F9F4
:1034E000801BA84200D8A5B920688069C0F34000BD
:1034F00078B9606C40F020006064202084F84100BE
:10350000002084F8420000BF84F8400000BF012082
:10351000E1E720688069C0F340000028D4D0002093
:10352000D9E7000010B50248FDF7D2FC10BD00003D
:10353000C0000024F0B58E880768FF68C7F30B470A
:103540003E44330406688436802707FB02667668AB
:1035500006F47047066884364FF0800C0CFB026658
:1035600077600E680768FF68C7F30B473E44761C18
:103570001E43076884370CFB02777E608E890768DC
:10358000FF68C7F30A073E44330406688436802781
:1035900007FB0266B66806F47047066884360CFBC3
:1035A0000266B7608E680768FF68C7F30A073E4483
:1035B000761C46EA0307066884360CFB0266B76091
:1035C00006688436802707FB0266366926F00707FF
:1035D000066884360CFB026637610F69066884361C
:1035E0000CFB026637613126765C33023226765C4C
:1035F00034040E7E350606688436802707FB026693
:10360000B6690027066884360CFB0266B76191F83C
:1036100030601E43264346EA0507066884360CFBE5
:103620000266B76106688436802707FB0266766902
:1036300026F0FF07066884360CFB026677614F6947
:10364000066884360CFB026677610668843680273C
:1036500007FB0266F66940F20777BE4307688437C6
:103660000CFB0277FE61D1E90776374306688436A2
:103670000CFB0266F76106688436802707FB02664A
:10368000B66A0027066884360CFB0266B7624F6A8A
:10369000066884360CFB0266B7620E690EB9042315
:1036A00013E00E69012E01D103230EE00E69042EF2
:1036B00008D00E69022E05D00E69032E02D00E69C5
:1036C000072E01D1022300E00123066884368027FB
:1036D00007FB0266F66A06F0E027066884364FF0BC
:1036E000800C0CFB0266F762D1E90076F61B5E43A4
:1036F000F61D0F8D5F4346EA0747066884360CFBCC
:103700000266F76206688436802707FB0266366B1E
:10371000F70AFF02066884360CFB02663763CF6A3D
:10372000066884360CFB0266376306688436D70168
:10373000F65946F00107066884364FEAC21C46F87F
:103740000C70F0BD00B587B01C216846FCF7DBFDAE
:1037500019481A4908600020486001211748816013
:103760000421C16020210161402141614FF4C071F9
:1037700081610021C1614FF4006101624900416231
:103780000021816202200090072001900420029015
:1037900007200390032004900220059006906946BC
:1037A0000648FFF753FC08B1FCF7CDFD0449034878
:1037B00000F0ECFA07B000BD404100523800002490
:1037C0002800002400B587B0142102A8FCF79BFD57
:1037D00000BF5D48006840F480705B49086008469F
:1037E000006800F48070019000BF00BF00BF084671
:1037F000006840F4806008600846006800F480605B
:10380000019000BF00BF00BF0846006840F04000C4
:1038100008600846006800F04000019000BF00BF4B
:1038200000BF0846006840F01000086008460068C5
:1038300000F01000019000BF00BF00BF0846006804
:1038400040F4007008600846006800F400700190C1
:1038500000BF00BF00BF0846006840F008000860D5
:103860000846006800F00800019000BF00BF00BFDC
:103870000846006840F0010008600846006800F053
:103880000100019000BF00BF00BF0846006840F083
:10389000800008600846006800F08000019000BFCA
:1038A00000BF00BF0846006840F0040008600846FA
:1038B000006800F00400019000BF00BF00BF084690
:1038C000006840F0200008600846006800F0200012
:1038D000019000BF00BF00BF0846006840F0020032
:1038E00008600846006800F00200019000BF00BFB9
:1038F000002220211548FCF78BFF012240211448AB
:10390000FCF786FF20200290012003900020049005
:10391000059002A90D48FCF773FE4020029001209B
:10392000039000200490059002A90948FCF768FE66
:103930004FF48050029000200390049002A90548A3
:10394000FCF75EFE07B000BDE044025800240258B8
:10395000001C02580004025808B52148214908609B
:103960002148486000211F4881600121C160002179
:10397000016141618161C1610162FCF7C5FF08B16C
:10398000FCF7E1FC00211748FCF754FF08B1FCF7F5
:10399000DAFC00211348FCF782FF08B1FCF7D3FCE6
:1039A000012220211148FCF733FF00200090012262
:1039B000694600F0A3FB01226946A42000F09EFBAB
:1039C0000C20009001226946802000F097FB0C201B
:1039D000009001226946882000F090FB08BD00009D
:1039E000005800406C000024B1757030002402586B
:1039F00000B58DB034216846FCF785FC2C482D4974
:103A000008600020486000212A488160C16001618F
:103A100007214161032181610E21C16105210162FC
:103A200040F20E41416240F25D21816240F2144158
:103A3000C16240F25F210163002180F8341080F8F8
:103A4000351080F83610FDF7BDFA08B1FCF77BFCA5
:103A5000002000904FF480600190002002904FF40D
:103A60001670039002200490FF200590002006901D
:103A70004FF480600790052008904FF04040099077
:103A80004FF480600A904FF416700B9000208DF870
:103A9000300000218DF831108DF832100022694677
:103AA0000448FDF7E5F908B1FCF74DFC0DB000BD89
:103AB00000100050C000002400BFFEE700BFFEE77A
:103AC000704700002DE9F04104460E460027554896
:103AD000006800F00300032802D10120BDE8F08156
:103AE00050482838006820F080604E492839086026
:103AF000FCF79AFE054606E0FCF796FE401B0228FE
:103B000001D90320EAE7474828380068C0F3C060BD
:103B10000028F1D100BF4348006820F47C302168C0
:103B200040EA01303F490860A088401EC0F3080009
:103B3000A168491E4FF47E4202EA41210843A1894F
:103B4000491ED20102EA01410843217C491E1202AA
:103B500002EA0161084333491031086000BF31486F
:103B6000001D006820F0C000616908432D49091D4F
:103B700008600846006820F02000A1690843294930
:103B8000091D08600846006820F0100008602548FC
:103B9000143000684FF6F8718843E16940EAC100CB
:103BA0002049143108601F48001D006840F01000D3
:103BB0001C49091D08602EB90846006840F4002021
:103BC000086012E0012E08D11648001D006840F47C
:103BD00080101449091D086007E01248001D0068A4
:103BE00040F400100F49091D08600E48283800688D
:103BF00040F080600B4928390860FCF715FE054647
:103C000006E0FCF711FE401B022801D9032065E7FE
:103C1000044828380068C0F3C0600028F1D0384656
:103C20005CE70000284402582DE9F04104460E46A6
:103C300000275548006800F00300032802D1012046
:103C4000BDE8F08150482838006820F080504E4987
:103C500028390860FCF7E8FD054606E0FCF7E4FDBE
:103C6000401B022801D90320EAE7474828380068AA
:103C7000C0F340700028F1D100BF4348006820F035
:103C80007C70218840EA01503F490860A088401EAE
:103C9000C0F30800A168491E4FF47E4202EA4121A8
:103CA0000843A189491ED20102EA01410843217C4F
:103CB000491E120202EA01610843334918310860C3
:103CC00000BF3148001D006820F44060616908436E
:103CD0002D49091D08600846006820F40070A1699C
:103CE00008432949091D08600846006820F48070CF
:103CF000086025481C3000684FF6F8718843E16978
:103D000040EAC10020491C3108601F48001D0068BE
:103D100040F480701C49091D08602EB908460068EF
:103D200040F48000086012E0012E08D11648001D02
:103D3000006840F400001449091D086007E01248BB
:103D4000001D006840F080700F49091D08600E4892
:103D50002838006840F080500B4928390860FCF78B
:103D600063FD054606E0FCF75FFD401B022801D914
:103D7000032065E7044828380068C0F34070002835
:103D8000F1D038465CE700002844025838B50546B3
:103D90000C4600200090012020601020606001206F
:103DA000A0600020E0604FF4805221462846FFF7D3
:103DB00095F90120FCF768FB02202060102060606C
:103DC0000120A0600020E0604FF480522146284688
:103DD000FFF784F903202060102060600820A060B5
:103DE0000020E0604FF4805221462846FFF776F924
:103DF00040F23120009004202060102060600120FB
:103E0000A0600098E0604FF4805221462846FFF7FA
:103E100065F940F296312846FFF745F938BD7047FD
:103E200010B5FCF7BDFF10BD00B59DB04C210AA830
:103E3000FCF769FA202102A8FCF765FA0220FDF7D9
:103E40000BFB00BF002001904148006820F00100FA
:103E50003F4908600846006800F0010001903D48B5
:103E6000006840F440403B4908600846006800F4A0
:103E70004040019000BF00BF00BF3648006800F41A
:103E80000050B0F5005FF8D100BF3348006840F043
:103E90000200314908600846006800F00200019005
:103EA00000BF00BF00BF002001902A48006840F416
:103EB0004040284908600846006800F440400190EE
:103EC0002348006840F00100214908600846006866
:103ED00000F00100019000BF00BF00BF1D48006856
:103EE00000F40050B0F5005FF8D101200A90000402
:103EF0000B90022013900221149105211591C021ED
:103F00001691022117911891199108211A910021F7
:103F10001B911C910AA8FEF76DFC08B1FCF713FA7F
:103F20003F20029003200390002004900820059079
:103F3000402006900790000108904020099004213D
:103F400002A8FEF7B1F908B1FCF7FDF91DB000BDFC
:103F50002C04005818480258F44402583C480068A1
:103F600040F470003A49086039487838006840F0F9
:103F700010003749783908603648006800F00F00B3
:103F8000072806D23348006820F00F00C01D3149D1
:103F900008603148006840F001002F4908600020A7
:103FA0002D49103108602C4800682C4908402A49E6
:103FB00008602848006800F00F00072806D9254847
:103FC000006820F00F00C01D22490860002022492F
:103FD00018310860091D0860091D086020481E4945
:103FE000283108601F48091D08601F48091D086026
:103FF0000020091D08601C48091D08600020091DDB
:1040000008601948091D08600020091D0860124851
:10401000006820F480201049086000200E496031BB
:1040200008601248006840F480404FF0B041C1F889
:10403000E4000F4800686FF30F00B0F1005F02D298
:1040400001200C49086043F2D2000B490860704718
:1040500088ED00E000200052004402587FEDF6EAAF
:10406000000202020000FF0180020101E40000588A
:104070000010005C088100510040005200BFFEE7C4
:1040800002480068C0F30220704700000CED00E019
:1040900010B5002804DB0A07130E054A135406E086
:1040A0000A07140E034A00F00F031B1FD45410BD5F
:1040B00000E400E018ED00E002E008C8121F08C1AB
:1040C000002AFAD170477047002001E001C1121F99
:1040D000002AFBD170470000FEB504460D46164687
:1040E0004FF47A70012322467021CDE900560290E8
:1040F0000148FCF76BFCFEBD6C000024FEB50446D5
:104100000D4616464FF47A70012322467021CDE900
:10411000005602900248FCF729FD0020FEBD000079
:104120006C00002400BF7148006800F4003000B14A
:1041300039E000BF00BF00BFBFF34F8F00BF00BF1B
:1041400000BF00BF00BF00BFBFF36F8F00BF00BF45
:1041500000BF00206649086000BF00BF00BFBFF37A
:104160004F8F00BF00BF00BF00BF00BF00BFBFF345
:104170006F8F00BF00BF00BF5C48006840F4003094
:104180005A49086000BF00BF00BFBFF34F8F00BF98
:1041900000BF00BF00BF00BF00BFBFF36F8F00BFF5
:1041A00000BF00BF00BF00BF504B1B6803F480334B
:1041B00003B148E000234D4C7034236000BF00BFC2
:1041C00000BFBFF34F8F00BF00BF00BF231F1868A1
:1041D000C0F34E3100BFC0F3C90200BF43F6E07325
:1041E00003EA41134FF0404404EA82742343404CF5
:1041F0001034236000BF00BF131EA2F10102EDD1F5
:104200000B1EA1F10101E6D100BF00BF00BFBFF34B
:104210004F8F00BF00BF00BF344B1B6843F4803397
:10422000324C236000BF00BF00BFBFF34F8F00BF01
:1042300000BF00BF00BF00BF00BFBFF36F8F00BF54
:1042400000BF00BF00BFFCF7B7FDFFF7EDFDFFF7B4
:10425000B9FAFFF777FAFFF7CBFBFFF77DFB0122F7
:1042600040212448FCF7D4FA3FE0234802784FF479
:1042700096110804FCF740F81F48007819301E49D1
:1042800008706420FCF700F91B4802784FF496117F
:104290000804FCF731F818480078193016490870FE
:1042A0006420FCF7F1F8144802784FF496110804E2
:1042B000FCF722F81048007819300F490870642084
:1042C000FCF7E2F80C4802784FF496110804FCF76A
:1042D00013F8094800781930074908706420FCF782
:1042E000D3F80649064800F00DF8BEE714ED00E0EB
:1042F00050EF00E0001C02580400002408000024D5
:10430000060000247CB504460D46002001900026DE
:10431000012201A90220FFF7DFFE9DF80400E0B1B1
:1043200040210F48FCF76AFA042269460320FFF790
:10433000D3FE9DF801009DF8001001F00F0100EB85
:10434000012028809DF803009DF8021001F00F0164
:1043500000EB01202080012600BF30467CBD00001C
:10436000001C0258000000000102030401020304C3
:1043700006070809944300080000002428000000F4
:10438000B8400008BC430008280000244005000095
:10439000C84000080000000000000000000000000D
:1043A00000000000000000000000000010000000FD
:0C43B000010000000090D0030090D0033A
:040000050800029954
:00000001FF
