:0200000490006A
:100000001060002449040090C7420090033D009016
:10001000C3420090850A00908349009000000000D0
:1000200000000000000000000000000089030090B4
:10003000390B009000000000E5030090314600906D
:1000400063040090630400906304009063040090D4
:1000500063040090630400906304009063040090C4
:1000600063040090630400906304009063040090B4
:1000700063040090630400906304009063040090A4
:100080006304009063040090630400906304009094
:100090006304009063040090630400906304009084
:1000A0006304009063040090630400906304009074
:1000B0006304009063040090630400906304009064
:1000C0006304009063040090630400906304009054
:1000D0006304009063040090630400906304009044
:1000E000630400906304009000000000630400902B
:1000F0006304009063040090630400906304009024
:100100006304009063040090630400906304009013
:100110006304009063040090630400906304009003
:1001200063040090630400906304009063040090F3
:1001300063040090630400906304009063040090E3
:1001400063040090630400900000000000000000C1
:1001500063040090630400906304009063040090C3
:1001600063040090630400906304009063040090B3
:1001700063040090630400906304009063040090A3
:100180006304009063040090630400906304009093
:100190006304009063040090630400906304009083
:1001A000093D009063040090290B009063040090C7
:1001B0006304009063040090630400906304009063
:1001C0006304009063040090630400906304009053
:1001D0006304009063040090630400906304009043
:1001E0006304009063040090630400906304009033
:1001F0006304009063040090630400906304009023
:100200006304009063040090630400906304009012
:1002100063040090630400909D4800906304009084
:1002200063040090630400906304009063040090F2
:1002300063040090630400906304009063040090E2
:1002400063040090630400906304009063040090D2
:1002500063040090630400906304009063040090C2
:1002600063040090630400906304009063040090B2
:1002700063040090630400906304009063040090A2
:100280006304009063040090630400900000000089
:10029000630400906304009000F002F800F065F839
:1002A0000AA090E8000C82448344AAF10107DA45D1
:1002B00001D100F05AF8AFF2090EBAE80F0013F0BE
:1002C000010F18BFFB1A43F001031847ECF50000BB
:1002D0000CF600000A444FF0000C10F8013B13F03C
:1002E000070408BF10F8014B1D1108BF10F8015B8F
:1002F000641E05D010F8016B641E01F8016BF9D182
:1003000013F0080F1EBF10F8014BAD1C0C1B09D1D8
:100310006D1E58BF01F801CBFAD505E014F8016B4A
:1003200001F8016B6D1EF9D59142D6D370470000DC
:100330000023002400250026103A28BF78C1FBD8EE
:10034000520728BF30C148BF0B6070471FB50DF082
:1003500033FF9DE8030000F099FA00F0A1F91FBDFA
:1003600010B5002000F00EFA10BD00F0FBFA1146A7
:10037000FFF7ECFF0AF0BAFF00F033FB03B4FFF71E
:10038000EFFF03BC00F09EF92C4B19680868B0E839
:10039000F04F80F30988BFF36F8F4FF0000080F3B8
:1003A000118870470000000008480068006880F36A
:1003B00008884FF0000080F3148862B661B6BFF37E
:1003C0004F8FBFF36F8F00DF00BF00BF08ED00E06D
:1003D000DFF80C00016841F470010160704700BF54
:1003E00088ED00E0EFF30980BFF36F8F134B1A68BD
:1003F0001EF0100F08BF20ED108A20E9F04F1060AA
:1004000009B44FF0500080F31188BFF34F8FBFF352
:100410006F8F0CF0AFFB4FF0000080F3118809BC28
:1004200019680868B0E8F04F1EF0100F08BFB0EC74
:10043000108A80F30988BFF36F8F7047240000246F
:10044000EFF30580704700000948804709480047DE
:10045000FEE7FEE7FEE7FEE7FEE7FEE7FEE7FEE774
:10046000FEE7FEE704480549054A064B70470000D1
:100470007D47009099020090105A002410600024DB
:10048000105C0024105C002410B5002000F09BF9E3
:10049000FFF766FFBDE81040012000F013B92DE919
:1004A000F041074615460E46102000F015F90400ED
:1004B0000AD06760C4E9026500F00AF901682160AA
:1004C00004600020BDE8F0810120FBE70EB5054681
:1004D00014460E4613A000F084F9284600F081F976
:1004E00016A000F07EF9304600F07BF915A000F070
:1004F00078F900218DF80B100A210DF10A008DF812
:100500000A1008E094FBF1F201FB124294FBF1F4B3
:10051000303200F8012D002CF4DC00F062F9FFF716
:10052000B3FF00002A2A2A20617373657274696F11
:100530006E206661696C65643A2000002C20666953
:100540006C6520002C206C696E652000032A40F247
:10055000308010F0030C00F0158011F8013BBCF165
:10056000020F624498BF11F801CB00F8013B38BF7D
:1005700011F8013BA2F1040298BF00F801CB38BF8B
:1005800000F8013B11F0030300F02580083AC0F0A9
:10059000088051F8043B083A51F804CBA0E8081051
:1005A000F5E7121D5CBF51F8043B40F8043BAFF384
:1005B0000080D20724BF11F8013B11F801CB48BFDE
:1005C00011F8012B24BF00F8013B00F801CB48BF14
:1005D00000F8012B704710B5203AC0F00B80B1E84D
:1005E0001850203AA0E81850B1E81850A0E8185068
:1005F000BFF4F5AF5FEA027C24BFB1E81850A0E871
:10060000185044BF18C918C0BDE810405FEA827C8A
:1006100024BF51F8043B40F8043B08BF7047D207A1
:1006200028BF31F8023B48BF11F8012B28BF20F842
:10063000023B48BF00F8012B704702F0FF0343EA7A
:10064000032242EA024200F0D8B84FF0000200B59F
:10065000134694469646203922BFA0E80C50A0E8E5
:100660000C50B1F12001BFF4F7AF090728BFA0E893
:100670000C5048BF0CC05DF804EB890028BF40F85F
:10068000042B08BF704748BF20F8022B11F0804FA1
:1006900018BF00F8012B7047704770477047000083
:1006A00070B5064C7C44064D7D4403E02068204430
:1006B0008047241DAC42F9D170BD000040F200001B
:1006C0004CF2000001491820ABBEFEE726000200F4
:1006D000004870475C57002470B5064600F0BAF831
:1006E000056806F10B0020F00704B4429CBF00200F
:1006F00070BD2B466A68BAB11068A04210D304F1ED
:10070000080188423CBF5068586007D351681019EF
:1007100041601168091B016058601460101D70BDB4
:1007200013465268002AE7D12146284600F09AF87D
:100730000028DED170BD70B50446051F00F08AF8B0
:100740000068002C14BF446870BD002C18BFAC4278
:100750003CBF20466468F8D301680A18AA4218BF53
:10076000456003D12A680546114401602868411993
:10077000A1421CBF6C6070BD61686960216808445B
:10078000286070BD2DE9F0410646FFF7A1FF8046C5
:10079000454613E016B1E068B0420ED120682860EB
:1007A000D4E90101D8F8007088472046FFF7C3FF5D
:1007B000D8F80000B842EBD100E025462C68002CA8
:1007C000E8D1BDE8F08110B500F09CF8BDE810401C
:1007D00000F092B810B500F0ADF8BDE8104000F0A0
:1007E0008BB810B5044602E0641C00F026F82078AF
:1007F0000028F9D110BD4FF000020429C0F012808A
:1008000010F0030C3FF423AFCCF1040CBCF1020F49
:1008100018BF00F8012BA8BF20F8022BA1EB0C0198
:10082000FFF715BF5FEAC17C24BF00F8012B00F879
:10083000012B48BF00F8012B704708B569468DF8B9
:1008400000000320ABBE08BD0048704724570024B9
:1008500070470000004870472C57002470477047CD
:100860007047704738B504460A4600206946AFF322
:100870000080002808BF38BD02460099204600F0DD
:1008800096F8012038BD012000F0CDB8F8B5AFF3DF
:100890000080054600200C46102000BF0646A8191F
:1008A000A0420DD9324669460020AFF30080070010
:1008B00008BF00F0B8F80098A04218BF0546C41958
:1008C000FFF7C8FF05600746F01D20F00700461936
:1008D000284600F00AF8B44208BFF8BDA21B314612
:1008E0003868BDE8F84000F062B800210160C0E956
:1008F0000110704710207047002801D0FFF7E2BEBA
:100900007047000010B5002102A000F073F801202C
:1009100010BD0000534947414252543A2041626E93
:100920006F726D616C207465726D696E6174696F50
:100930006E00000010B5002102A000F05BF801205D
:1009400010BD00005349475056464E3A205075722C
:1009500065207669727475616C20666E2063616CC7
:100960006C6564007546FFF76FFFAE46050069468B
:10097000534620F00700854618B020B5FFF772FDFA
:10098000BDE820404FF000064FF000074FF0000890
:100990004FF0000B21F00701AC46ACE8C009ACE811
:1009A000C009ACE8C009ACE8C0098D4670470346F1
:1009B00040688C46002818BF88423CBF0346406808
:1009C000F8D318681844884207D00CF1030020F0CF
:1009D0000700001D411A521A0146081D0A60FFF760
:1009E000AABE10B50446AFF300802046BDE8104013
:1009F000FFF7C4BC70B505460C460A2000E06D1C2C
:100A0000FFF71BFF35B128780028F8D102E0641CFD
:100A1000FFF713FF14B120780028F8D1BDE870402B
:100A20000A20FFF70ABF10B500F004F8BDE8104037
:100A3000FFF762BF10B5012805D0002103A0FFF722
:100A4000D9FF012010BD09A1F8E700005349475222
:100A5000544D454D3A204F7574206F66206865618E
:100A600070206D656D6F7279000000003A20486556
:100A70006170206D656D6F727920636F7272757031
:100A80007465640000BFFEE7214A30B5136823F0A7
:100A9000010313601F4A1368C3F30B140123A4F569
:100AA0004065243D06D01268C2F30B12A2F54064E3
:100AB000273C17D1184A1268A2B9184A14684FF097
:100AC0008A45B5EB045F18D01468C4F30B04A4F591
:100AD0008065833D11D01268C2F30B02A2F58064D9
:100AE000853C0AD00E4A93609368002BFCD11060BD
:100AF0001068884209D0002030BD0A4A136013688C
:100B0000002BFCD1074A083AF1E7012030BD000074
:100B1000002000E000ED00E0002004E00010005C98
:100B200000300240084C025810B5024800F0BCF9F1
:100B300010BD000068020024704772B600BFFEE7D7
:100B400002460868B0B9D1E901031843CB681843DD
:100B50000B6918434B6918438B691843CB691843D9
:100B60000B6A18434B6A184313686FF30E0318435C
:100B7000106019E0D1E9070318434B6A1843136862
:100B800023F4F84318431060D1E901031843CB68FC
:100B900018430B6918434B6918438B691843536812
:100BA0006FF30E03184350600020704702465069EF
:100BB00043F6FE73984340EA4100506100207047BD
:100BC00010B50346D1E9000420438C68641E40EA56
:100BD0004410CC6840EA44201C696FF3150420439C
:100BE0001861002010BD000030B50346FAB908684E
:100BF000401E4C68641E40EA04148868401E44EAA3
:100C00000024C868401E44EA0034088A401E44EAB2
:100C10000044888A401E44EA0054087E401E44EA8C
:100C200000609C6804F070442043986022E0C8682B
:100C3000401E0403888A401E44EA00509C680E4D02
:100C40002C40204398600868401E4C68641E40EAAF
:100C500004148868401E44EA0024088A401E44EABE
:100C60000044087E401E44EA0060DC6804F07044E2
:100C70002043D860002030BDFF0F0FFF70B5034642
:100C80000C4600201F2104F001050DB9012022E0CF
:100C900000BF0D1EA1F1010106D001F01F060125C4
:100CA000B5402540002DF4D08AB1082A0BD0102A77
:100CB00005D0182A0CD1072900D301200AE0082901
:100CC00000D3012006E0102900D3012002E001E05A
:100CD000012000BF00BF40B91D686C611D68AD6890
:100CE00025F0180515431E68B56070BD10B50446A3
:100CF0000CB9012010BD607F20B90020207720466C
:100D000000F036F802206077207948B9174821684A
:100D100048612068806820F018002168886007E03A
:100D20002046D4E90212FFF7A9FF08B10120E1E74C
:100D3000607920B94FF0FF302168086102E0216836
:100D4000206908612068806820F0600061690843BC
:100D5000216888602068806820F08000A1690843CD
:100D600021688860012060770020C3E7B71DC104B7
:100D700008B5094A016891420DD100BF07490968C9
:100D800041F40021054A11601146096801F400216F
:100D9000009100BF00BF08BD004C0258E04402585B
:100DA0007047000070B502460C465068B0F5403FF1
:100DB00002D0506800B100BF012C09D1C4EBC406B9
:100DC00002F1280000EB860040680B2800D100BF2C
:100DD00000BF92F86000012801D1022070BD0120FF
:100DE00082F8600000BF022082F86100C4EBC406F4
:100DF00002F1280000EB86010E89486840EA0640AF
:100E00000E8A40EA06508E8A40EA4653254D4868CD
:100E10000A2802D04868092804D1C86800F07F4039
:100E2000034302E0087B43EA0063A4B91068406A08
:100E3000A84318431668706208681668B06148686D
:100E40000A2802D04868092821D1C86820F07F40CC
:100E50001668B0621BE048680B2804D1088B43EA8F
:100E6000804345F440251068C069A84318431668BC
:100E7000F06108681668306148680A2802D048683E
:100E8000092804D1C86820F07F401668306201202C
:100E900082F8610000BF002082F8600000BF00BF40
:100EA0009CE700000F0033FF70B5044620684568DA
:100EB0002068066805F00100E0B106F48070C8B152
:100EC0002068006820F4807021680860606E40F03F
:100ED00001006066012021688860042084F86100B8
:100EE00000BF002084F8600000BF606A10B1204697
:100EF000616A884705F02000E0B106F40050C8B1EF
:100F00002068006820F400502168086020202168D3
:100F10008860606E40F002006066042084F8610022
:100F200000BF002084F8600000BF606A10B1204656
:100F3000616A884705F00800E0B106F40060C8B1B6
:100F40002068006820F4006021680860082021689B
:100F50008860606E40F004006066042084F86100E0
:100F600000BF002084F8600000BF606A10B1204616
:100F7000616A884705F0040070B106F4806058B1DA
:100F80002068006820F480602168086004202168DF
:100F90008860204600F080F805F00200D0B106F429
:100FA0000070B8B12068006820F400702168086003
:100FB000022021688860606E6066012084F861000C
:100FC00000BF002084F8600000BF206A10B12046F6
:100FD000216A884705F01000C0B106F48050A8B11E
:100FE0002068006820F48050216808601020216883
:100FF0008860606E6066012084F8610000BF002098
:1010000084F8600000BF2046FFF7CAFE70BD0000F4
:1010100010B504460CB9012010BD94F8610028B940
:10102000002084F86000204600F038F8022084F8A0
:101030006100E1696068084321680968154A114048
:10104000084321680860A169A06808432168496BCA
:1010500040F2071291430843216848632068006CFE
:101060006FF30F00E168084321680864208A0105D6
:10107000A08A41EA40502168496B21F4401108439D
:101080002168486300206066012084F86100002028
:10109000C2E70000BFFFF8FF7047000038B5044604
:1010A0000D492068884215D100BF0C48006840F007
:1010B00010000A4908600846006800F0100000901F
:1010C00000BF00BF002205215A2000F06FFD5A200A
:1010D00000F058FD38BD000000100052D444025802
:1010E00070B5044600F0C2F906462546681C10B1EA
:1010F00004480078054400BF00F0B8F9801BA842FE
:10110000FAD370BD1800002400B5B9B0142134A87A
:10111000FFF79BFA4748006808B139B000BD0120CD
:1011200044490860C82102A8FFF78FFA4FF0807188
:101130000020CDE90210149002A800F0D3FD08B100
:10114000FFF7FBFC00BF3C48006840F480503A4980
:1011500008600846006800F48050019000BF00BF9E
:1011600040F2FF603490022035900020369003203A
:1011700037900C20389034A9304800F06DF84FF6C5
:1011800083703490022035900020369003203790F1
:101190000C20389034A92A4800F05EF84FF47F40C4
:1011A00034900220359000203690032037900C2098
:1011B000389034A9234800F04FF848F233103490A7
:1011C0000220359000203690032037900C20389074
:1011D00034A91D4800F040F84CF20370349002200E
:1011E000359000203690032037900C20389034A999
:1011F000164800F031F84FF63F0034900220359049
:1012000000203690032037900C20389034A91048E5
:1012100000F022F80D203490022035900020369006
:10122000032037900C20389034A90A4800F014F8B5
:1012300000BF72E700000024D44402580020025886
:1012400000100258001C025800180258000C0258E6
:101250000014025800080258F8B502460B46002157
:101260006F4DD7E001278F401E6806EA0704002C67
:1012700072D01E7906F00306012E04D01E7906F006
:101280000306022E13D190684F000326BE40B043E0
:101290004F00DE68BE4030439060506801268E40AB
:1012A000B0431E79C6F300168E40304350601E795D
:1012B00006F00306032E09D0D0684F000326BE4077
:1012C000B0434F009E68BE403043D0601E7906F0A8
:1012D0000306022E13D1CF0802F1200656F827008C
:1012E0004E07F70E0F26BE40B0434F07FF0E1E6994
:1012F000BE403043CF0802F1200646F827001068B0
:101300004F000326BE40B0431E7906F003064F008F
:10131000BE40304310605E6806F44036002E78D040
:1013200000BF404E366846F002063E4F3E603E46E5
:10133000366806F00206009600BF00BF3A4E8F08DE
:1013400056F827008E07370F0F26BE40B043374EA2
:10135000B24202D100262EE05BE0354EB24201D10E
:10136000012628E0334EB24201D1022623E0324E5C
:10137000B24201D103261EE0304EB24201D1042612
:1013800019E02F4EB24201D1052614E02D4EB24293
:1013900001D106260FE02C4EB24201D107260AE009
:1013A0002A4EB24201D1082605E0294EB24201D1AF
:1013B000092600E00A268F073F0FBE4030431A4E31
:1013C0008F0846F827004FF0B0463068A0435E68AB
:1013D00006F4801606B120434FF0B04630607068C6
:1013E000A0435E6806F4001606B120434FF0B046F5
:1013F00070606868A0435E6806F4003606B120435A
:1014000068602868A0435E6806F4803606B1204311
:101410002860491C1E68CE40002E7FF423AFF8BD23
:1014200080000058F4440258080400580000025894
:101430000004025800080258000C0258001002581C
:101440000014025800180258001C025800200258CC
:10145000002402580AB1816101E00B0483617047E6
:1014600001480068000C70470010005C01480068EB
:101470007047000010000024034800680349097801
:101480000844014908607047100000241800002437
:1014900010B5032000F0C8FB01F000FD10490968F9
:1014A000C1F303210F4A515C01F01F0120FA01F43E
:1014B0000B48006800F00F001146085C00F01F00A8
:1014C00024FA00F008490860084804600F2000F082
:1014D0000FF808B1012010BD00F03CFB0020FAE736
:1014E000184402580CE20090200000241C00002444
:1014F00070B58AB00446102C0AD20022214676200C
:1015000000F054FB762000F03DFB1948046002E037
:1015100001200AB070BD00BF1648006840F480206A
:10152000144908600846006800F48020009000BF5D
:1015300000BF01A902A801F043FC01F09DFC450099
:101540000D48B5FBF0F0461E0C480D49086040F20E
:10155000E7310B48C160466000210161816002F003
:1015600051FA18B9064802F085FAD2E70120D0E70F
:1015700014000024F044025840420F00004801408B
:10158000BC03002470B504460E46154600BF94F80F
:10159000A000012801D1022070BD012084F8A00024
:1015A00000BF022084F8A10005EB850101EBC50214
:1015B00004F1380101EB820034223146FFF70BF8C9
:1015C0002A463146204602F0A7FB012021684862E6
:1015D00084F8A10000BF002084F8A00000BF00BF75
:1015E000DAE7704770B504462068856B2068466B63
:1015F00005F00400E0B106F00400C8B12068406BBB
:1016000020F004002168486304202168C863D4F8EE
:10161000A40040F00100C4F8A400042084F8A10054
:1016200000BF002084F8A00000BF2046FFF7D9FFCC
:1016300005F00200E0B106F00200C8B12068406B7E
:1016400020F002002168486302202168C863D4F8B2
:10165000A40040F00200C4F8A400042084F8A10013
:1016600000BF002084F8A00000BF2046FFF7B9FFAC
:1016700005F00100A8B106F0010090B12068406BB0
:1016800020F001002168486301202168C86384F8C4
:10169000A10000BF002084F8A00000BF204600F099
:1016A000A7F805F00800B0B106F0080098B120686E
:1016B000406B20F008002168486308202168C86357
:1016C000012084F8A10000BF002084F8A00000BF22
:1016D000204600F03DFA70BD70B504460CB90120FB
:1016E00070BD94F8A10028B9002084F8A00020461D
:1016F00000F0C2F8022084F8A1002068806920F080
:10170000704021688861D4E901010843E168084319
:101710002169084321688969084321688861206834
:1017200080683249084021688860A08A05042068E2
:101730008068A16929430843216888602068C068DF
:101740002A4908402168C860A08B05042068C06849
:10175000216A294308432168C86020680069234939
:10176000084021680861A08C050420680069A16A0E
:101770002943084321680861206840691B490840E3
:1017800021684861A08D050420684069216B2943C8
:1017900008432168486194F83500050294F8360042
:1017A00006042068C06A00F07F402168C86246EAEB
:1017B000050094F8341008432168C96A0843216879
:1017C000C8622068406B40F00600216848632068CA
:1017D000806940F00100216888610020C4F8A400FD
:1017E000012084F8A10000207AE7000000F800F052
:1017F00070B5054600BF1C48006800B970BD1B48A5
:10180000006C1B49098888421AD11A480188284669
:1018100000F074F900BF1449086800BF90F86A101E
:10182000491C80F86A1000BF03F05EFE00BF0E483E
:101830000068044605F01AFE002006F0FDFD10E0E9
:101840000B480188284600F059F900BF0648046893
:1018500000BF2068016A2046884700BF002006F0CC
:10186000FAFD00BFCAE70000280200240010005063
:10187000B4000024B600002410B5BAB00446142108
:1018800034A8FEF7E2FEC82102A8FEF7DEFE924968
:10189000206888427ED141040020CDE90210192041
:1018A0000C90A0210D9102210E910F910421109115
:1018B000002111914FF4007112910021139102A89F
:1018C00000F010FA08B1FFF738F900BF834800684C
:1018D00040F00800814908600846006800F00800F0
:1018E000019000BF00BF00BF081F006840F4806087
:1018F000091F08600846006800F48060019000BF7E
:1019000000BF00BF0846006840F04000086008467D
:10191000006800F04000019000BF00BF00BF084613
:10192000006840F4007008600846006800F4007029
:10193000019000BF00BF00BF0846006840F00800EB
:1019400008600846006800F00800019000BF00BF72
:1019500000BF0846006840F00100086008460068C3
:1019600000F00100019000BF00BF00BF0846006802
:1019700040F4807008600846006800F480700190B0
:1019800000BF00BF00BF0846006840F004000860C8
:10199000084600E09EE0006800F00400019000BFEF
:1019A00000BFF920349002203590002036900320AB
:1019B00037900E20389034A94948FFF74DFC4FF47A
:1019C00080603490022035900020369003203790BC
:1019D0000920389034A94348FFF73EFC48F614200C
:1019E00034900220359000203690032037900E204E
:1019F000389034A93C48FFF72FFC0820349002208F
:101A0000359000203690032037900E20389034A96E
:101A10003648FFF721FC4FF4907034900220359047
:101A200000203690032037900E20389034A930489B
:101A3000FFF712FC4FF40060349002203590002034
:101A40003690032037900920389034A92948FFF7B1
:101A500003FC402034900220359000203690032073
:101A600037900E20389034A92348FFF7F5FB8020EB
:101A700034900220359000203690032037900E20BD
:101A8000389034A91748FFF7E7FB4FF40050349023
:101A90000220359000203690032037900E20389099
:101AA00034A91448FFF7D8FB012034900220359068
:101AB00000203690032037900920389034A90A4836
:101AC000FFF7CAFB00220521582000F06FF85820CC
:101AD00000F058F83AB010BD00100050E44402582D
:101AE000002802580018025800240258000C02581E
:101AF000000002580020025800080258024600BFA9
:101B000092F8A000012801D102207047012082F83C
:101B1000A00000BF022082F8A1001068406B20F0F6
:101B2000010013685863094801641068406B40F075
:101B3000010013685863012082F8A10000BF002053
:101B400082F8A00000BF00BFDFE7000000100050D7
:101B50007047000008B500BF0948006840F0020067
:101B6000074908600846006800F00200009000BFC6
:101B700000BF00220F21901E00F018F808BD0000E1
:101B8000F44402580146084600280DDB00BF00BFA0
:101B900000F01F0301229A4043099B0003F1E02358
:101BA000C3F8002100BF00BF00BF70472DE9F05F00
:101BB00080460D46164609F0D5FA074639462A46AC
:101BC000334601F00700C0F1070ABAF1040F02D949
:101BD0004FF0040A01E0C0F1070AD14600F1040AFF
:101BE000BAF1070F02D24FF0000A01E0A0F1030A98
:101BF000D4464FF0010A0AFA09FAAAF1010A0AEAE0
:101C0000020A0AFA0CFA4FF0010B0BFA0CFBABF1CB
:101C1000010B0BEA030B4AEA0B042146404609F08C
:101C2000A9FABDE8F09F000000BF00F00702064BD4
:101C300019684FF6FF031940044B0B4343EA022196
:101C4000014B196000BF70470CED00E00000FA0581
:101C500070B504462248006800F00700062809D045
:101C60001F48006800F03F00A04201D0012070BD75
:101C70000020FCE71A48006820F03F002043184984
:101C80000860FFF7F3FB054607E0FFF7EFFB401B9B
:101C9000B0F57A7F01D90120E9E7114808380068DA
:101CA000C0F340300028F0D01E2C05D02E2C03D0DD
:101CB0001D2C01D02D2C11D1FFF7D8FB054607E0D4
:101CC000FFF7D4FB401BB0F57A7F01D90120CEE7A6
:101CD00003480068C0F300400028F1D00020C6E7A8
:101CE0000C4802582DE9F04104460025A8464FF063
:101CF0000062D4E9000110400021134658404940D9
:101D0000084331D1E06E48B1B0F5801F0DD0B0F579
:101D1000001F11D0B0F5401F16D114E0FB48006839
:101D200040F40030F949086010E0022104F1080095
:101D300002F0CCFA054609E0022104F1280002F085
:101D400077FB054602E001E0012500BF00BF55B961
:101D5000EE482430006820F44010E16E0843EB495F
:101D60002431086000E0A8464FF48072D4E90001F5
:101D70001040002113465840494008432ED1E06DE1
:101D800005281BD2DFE800F0030A11181900DF480C
:101D9000006840F40030DD49086011E0002104F1E2
:101DA000080002F093FA05460AE0002104F1280039
:101DB00002F03EFB054603E002E001E0012500BF22
:101DC00000BF55B9D1482430006820F00700E16D0C
:101DD0000843CE492431086000E0A8464FF4007261
:101DE000D4E90001104000211346584049400843FF
:101DF00034D1206E802818D003DC40B140281DD19A
:101E00000CE0C02818D0B0F5807F17D115E0BF488E
:101E1000006840F40030BD49086011E0002104F181
:101E2000080002F053FA05460AE0002104F12800F8
:101E300002F0FEFA054603E002E001E0012500BFE2
:101E400000BF55B9B1482430006820F4E070216E1D
:101E50000843AE492431086000E0A8464FF4806290
:101E6000D4E900101140002013465940404001437E
:101E700039D1D4F8AC00B0F5800F1AD004DC50B1E1
:101E8000B0F5001F1ED10DE0B0F5C00F18D0B0F5B1
:101E9000000F17D115E09D48006840F400309B49C1
:101EA000086011E0002104F1080002F00FFA054675
:101EB0000AE0002104F1280002F0BAFA054603E026
:101EC00002E001E0012500BF00BF5DB98F482C3062
:101ED000006820F46000D4F8AC1008438B492C3122
:101EE000086000E0A8464FF40063D4E900101940F0
:101EF000002059404040014339D1D4F8B000B0F13E
:101F0000007F1AD004DC50B1B0F1807F1ED10DE00B
:101F1000B0F1407F18D0B0F1806F17D115E07B4849
:101F2000006840F400307949086011E0002104F1B4
:101F3000080002F0CBF905460AE0002104F1280070
:101F400002F076FA054603E002E001E0012500BF59
:101F500000BF5DB96D482C30006820F0E060D4F817
:101F6000B010084369492C31086000E0A8464FF0E2
:101F70000072D4E900011040002113465840494046
:101F8000084328D1E06CA8B1102804D0202809D03B
:101F9000302810D10DE05D48006840F400305B4906
:101FA00008600AE0022104F1080002F08FF90546FA
:101FB00003E002E001E0012500BF00BF55B953482E
:101FC0002030006820F03000E16C08434F49203198
:101FD000086000E0A8464FF48053D4E9001019408F
:101FE000002059404040014337D1606EB0F5005F9A
:101FF0001AD004DC50B1B0F5805F1ED10DE0B0F511
:10200000405F18D0B0F5804F17D115E03F48006809
:1020100040F400303D49086011E0002104F108005F
:1020200002F054F905460AE0002104F1280002F00C
:10203000FFF9054603E002E001E0012500BF00BF13
:1020400055B932482430006820F4E040616E0843FE
:102050002E492431086000E0A8464FF40053D4E92B
:1020600000101940002059404040014335D1A06E76
:10207000B0F5403F1ED007DC68B1B0F5803F0BD013
:10208000B0F5003F19D10EE0B0F5802F13D0B0F5B8
:10209000A02F12D110E012E0012104F1080002F09B
:1020A00015F905460BE0012104F1280002F0C0F902
:1020B000054604E003E002E001E0012500BF00BFA7
:1020C00055B912482430006820F4E020A16E08437E
:1020D0000E492431086000E0A8464FF48043D4E95B
:1020E00000101940002059404040014338D1D4F835
:1020F000B400B0F1405F21D00ADC80B1B0F1805F64
:102100000ED0B0F1005F1CD111E000002C44025849
:10211000B0F1804F13D0B0F1A04F12D110E012E017
:10212000012104F1080002F0D1F805460BE001217D
:1021300004F1280002F07CF9054604E003E002E027
:1021400001E0012500BF00BF4DB9F748006820F04D
:10215000E040D4F8B4100843F349086000E0A84612
:102160004FF08063D4E900101940002059404040EE
:1021700001431CD1206D48B1B0F5807F07D101210A
:1021800004F1080002F0A2F8054602E001E0012592
:1021900000BF00BF55B9E4480C38006820F48070D7
:1021A000216D0843E0490C39086000E0A8464FF46F
:1021B0000043D4E900011840002158404940084339
:1021C00029D1606FB0B1B0F1805F03D0B0F1005F92
:1021D00011D108E0D4482C38006840F40030D249CE
:1021E0002C39086009E0012104F1080002F06EF8C2
:1021F000054602E001E0012500BF00BF55B9CA480D
:102200000838006820F04050616F0843C64908391B
:10221000086000E0A8464FF08072D4E90010114039
:10222000002013465940404001432AD1A06CB8B168
:10223000012804D002280BD0032812D10FE0BA489D
:102240002C38006840F40030B7492C3908600AE0A7
:10225000022104F1080002F039F8054603E002E02B
:1022600001E0012500BF00BF55B9AF480C38006838
:1022700020F00300A16C0843AB490C39086000E072
:10228000A8464FF48002D4E9000110400021134613
:102290005840494008437DD1A448006840F480700C
:1022A000A2490860FFF7E2F8064606E0FFF7DEF80D
:1022B000801B642801D9032505E09C48006800F4D0
:1022C00080700028F2D000BF85BB974818300068A6
:1022D00000F44070B4F8B81001F44071884213D093
:1022E00091481830006820F440778F481830006813
:1022F00040F480308C49183108600846006820F4AA
:102300008030086008460760D4F8B800B0F5807FD8
:1023100015D1FFF7ABF8064609E0FFF7A7F8801BD9
:1023200041F28831884202D9032507E038E07E482F
:1023300018300068C0F340000028EED000BF55BB45
:1023400000BFB4F8B80000F44070B0F5407F0ED183
:1023500075484838006820F47C51754AD4F8B800B4
:10236000104041EA101070494839086007E06E4893
:102370004838006820F47C506B49483908606A4846
:1023800018300068B4F8B810C1F30B01084366496F
:10239000183101E005E001E0086002E0A84600E035
:1023A000A8460122D4E900101140002013465940EC
:1023B0004040014332D1D4F8800018281AD005DCFF
:1023C00048B1082808D0102817D10CE0202812D0D6
:1023D000282812D110E012E0012104F1080001F0D8
:1023E00075FF05460BE0012104F1280002F020F8FA
:1023F000054604E003E002E001E0012500BF00BF64
:102400005DB94948001F006820F03800D4F88010FA
:1024100008434549091F086000E0A8460223D4E9A3
:1024200000011840002158404940084329D1E06F7D
:10243000062816D2DFE800F003040B12131412E092
:10244000012104F1080001F041FF05460BE00121E4
:1024500004F1280001F0ECFF054604E003E002E08F
:1024600001E0012500BF00BF55B92F48001F0068DB
:1024700020F00700E16F08432B49091F086000E0C6
:10248000A8460423D4E900011840002158404940DF
:10249000084329D1D4F89800062816D2DFE800F0C6
:1024A00003040B12131412E0012104F1080001F0DF
:1024B0000DFF05460BE0012104F1280001F0B8FFF3
:1024C000054604E003E002E001E0012500BF00BF93
:1024D0004DB91548006820F00700D4F8981008435B
:1024E0001149086000E0A8462023D4E90001184003
:1024F00000215840494008433CD1D4F89400B0F141
:10250000405F25D007DC68B1B0F1805F12D0B0F138
:10251000005F20D115E0B0F1804F1AD0B0F1A04F8C
:1025200019D117E019E00000584402580048025839
:10253000FFFCFF0F002104F1080001F0C7FE054673
:102540000BE0022104F1280001F072FF054604E0CF
:1025500003E002E001E0012500BF00BF4DB9FE48E5
:10256000006820F0E040D4F894100843FA4908606D
:1025700000E0A8464022D4E9001011400020134694
:1025800059404040014337D1D4F8A000B0F5406F26
:102590001ED007DC68B1B0F5806F0BD0B0F5006FCE
:1025A00019D10EE0B0F5805F13D0B0F5A05F12D165
:1025B00010E012E0002104F1080001F087FE05465A
:1025C0000BE0022104F1280001F032FF054604E08F
:1025D00003E002E001E0012500BF00BF5DB9DE4875
:1025E000001D006820F4E050D4F8A0100843DA4938
:1025F000091D086000E0A8468022D4E900101140BF
:102600000020134659404040014337D1D4F8A4007C
:10261000B0F5C04F1ED007DC68B1B0F5005F0BD03D
:10262000B0F5804F19D10EE0B0F5004F13D0B0F5E2
:10263000204F12D110E012E0002104F1080001F057
:1026400045FE05460BE0022104F1280001F0F0FEF2
:10265000054604E003E002E001E0012500BF00BF01
:102660005DB9BD48001D006820F46040D4F8A41096
:102670000843B949091D086000E0A8460823D4E9C9
:1026800000101940002059404040014315D1D4F8B2
:102690008800B0F5805F07D1022104F1280001F025
:1026A000C7FE08B14FF00108AB48006820F4405065
:1026B000D4F888100843A84908601022D4E9000122
:1026C00010400021134658404940084317D1D4F820
:1026D0009C00B0F5807F07D1022104F1280001F0B1
:1026E000A7FE08B14FF001089B48001D006820F4C8
:1026F0004070D4F89C1008439749091D08604FF4B6
:102700000022D4E9000110400021134658404940FE
:10271000084329D1D4F8A80030B1B0F5803F0AD0E1
:10272000B0F5003F0FD10DE0002104F1080001F0E9
:10273000CDFD054609E0022104F1280001F078FEF4
:10274000054602E001E0012500BF00BF5DB98248F7
:10275000001D006820F44030D4F8A81008437E49DA
:10276000091D086000E0A8464FF48023D4E900105A
:10277000194000205940404001432BD1D4F88C002F
:10278000B0F5801F06D0B0F5001F0CD0B0F5401F8B
:1027900011D10FE070482838006840F400306E49CD
:1027A0002839086009E0012104F1280001F040FE09
:1027B000054602E001E0012500BF00BF4DB96648B3
:1027C000006820F44010D4F88C1008436249086077
:1027D00000E0A8464FF48032D4E900011040002107
:1027E000134658404940084325D1606D18B1B0F5F3
:1027F000803F10D108E058482838006840F4003085
:1028000055492839086008E0022104F1080001F068
:102810005DFD054601E0012500BF00BF55B94E48EA
:102820000838006820F48030616D08434A4908394F
:10283000086000E0A8464FF00053D4E900011840BA
:10284000002158404940084307D1022104F12800E3
:1028500001F0EEFD08B14FF001084FF40032D4E969
:10286000000110400021134658404940084327D139
:10287000D4F88400A0B1B0F5807F06D0B0F5007F19
:102880000CD0B0F5407F0CD109E0334828380068FF
:1028900040F4003030492839086004E003E002E0E9
:1028A00001E0012500BF00BF4DB92B48006820F4AE
:1028B0004070D4F8841008432749086000E0A84617
:1028C0004FF48013D4E900101940002059404040D3
:1028D000014309D12048001F006820F00040A16F8B
:1028E00008431D49091F08604FF08052D4E90010C9
:1028F0001140002013465940404001430AD1164878
:102900004438006820F48040D4F8BC1008431249D1
:10291000443908604FF40013D4E900011840002145
:1029200058404940084309D10B48001F006820F077
:102930008070216F08430849091F08604FF08043E9
:10294000D4E900011840002158404940084312D101
:1029500000BF0148443801E054440258006820F4A4
:1029600000404E49086008460068D4F8C01008438B
:102970004A49086000BF4FF00042D4E9000110400E
:102980000021134658404940084309D143483C3090
:10299000006820F04050A16D084340493C31086078
:1029A0004FF40003D4E90010194000205940404082
:1029B00001430AD139484430006820F44000D4F87B
:1029C00090100843354944310860012200206168B5
:1029D000114040405140084307D1002104F1080054
:1029E00001F074FC054605B1A8460222002061688A
:1029F000114040405140084307D1012104F1080033
:102A000001F064FC054605B1A84604220021606877
:102A1000104049405040014307D1022104F1080011
:102A200001F054FC054605B1A84608220021606863
:102A3000104049405040014306D104F1280001F004
:102A4000F7FC054605B1A846102200216068104039
:102A500049405040014307D1012104F1280001F011
:102A6000E7FC054605B1A84620230020616819400F
:102A7000202240405140084307D1022104F12800A0
:102A800001F0D6FC054605B1A846B8F1000F02D109
:102A90000020BDE8F0810120FBE70000104402584F
:102AA0002DE9F04104460D4614B90120BDE8F0813E
:102AB000BD48006800F00F00A8420ED2BA48006876
:102AC00020F00F002843B84908600846006800F06D
:102AD0000F00A84201D00120E8E7207800F00400B0
:102AE00004280ED1B1492069096801F070018842BB
:102AF00007D9AE48006820F0700021690843AB494F
:102B00000860207800F00800082811D1A749091DA5
:102B10006069096801F07001884209D9A348001D65
:102B2000006820F0700061690843A049091D086031
:102B3000207800F01000102811D19C49091DA069CF
:102B4000096801F4E061884209D99848001D0068CD
:102B500020F4E060A16908439449091D08602078C9
:102B600000F02000202811D190490831E06909685F
:102B700001F07001884209D98C480830006820F0C3
:102B80007000E1690843894908310860207800F045
:102B9000020002280ED18549E068096801F00F01A2
:102BA000884207D98148006820F00F00E168084397
:102BB0007E490860207800F00100002850D07B4852
:102BC000006820F47060A168084378490860606874
:102BD000022807D1754818380068C0F34040F8B99A
:102BE000012063E76068032807D17048183800683F
:102BF000C0F34060A0B9012058E76068012807D100
:102C00006A4818380068C0F3002048B901204DE731
:102C1000664818380068C0F3800008B9012045E70D
:102C200062480838006820F00700616808435F497F
:102C300008390860FEF71AFC064608E0FEF716FCA5
:102C4000801B41F28831884201D903202EE7574882
:102C50000838006800F038006168B0EBC10FEDD1B2
:102C6000207800F0020002280ED15049E06809687F
:102C700001F00F01884207D24C48006820F00F0095
:102C8000E1680843494908604748006800F00F00C0
:102C9000A8420ED94448006820F00F00284342495A
:102CA00008600846006800F00F00A84201D001202B
:102CB000FCE6207800F0040004280ED13B4920698E
:102CC000096801F07001884207D23848006820F096
:102CD00070002169084335490860207800F0080039
:102CE000082811D13149091D6069096801F0700196
:102CF000884209D22D48001D006820F070006169EB
:102D000008432A49091D0860207800F010001028A7
:102D100011D12649091DA069096801F4E0618842C2
:102D200009D22248001D006820F4E060A169084330
:102D30001E49091D0860207800F02000202811D1CC
:102D40001A490831E069096801F07001884209D226
:102D500016480830006820F07000E1690843134904
:102D60000831086000F09AF810490968C1F303219E
:102D70000F4A515C01F01F0120FA01F70B4800686F
:102D800000F00F001146085C00F01F0027FA00F069
:102D9000084908600848076008480068FEF7A8FB73
:102DA0008046404682E60000002000521844025847
:102DB0000CE20090200000241C00002414000024D9
:102DC0003F220260174A126802F007024260154A69
:102DD0000832126802F470628260124A0832126885
:102DE00002F00F02C2600F4A0832126802F070024D
:102DF00002610C4A0C32126802F070024261094A08
:102E00000C32126802F4E0628261064A10321268E3
:102E100002F07002C261044A126802F00F020A60F6
:102E200070470000104402580020005210B500F016
:102E300035F80D490968C1F303210C4A515C01F0D2
:102E40001F0120FA01F40848006800F00F00114645
:102E5000085C00F01F0024FA00F0054908600548EE
:102E600004600846006810BD184402580CE2009047
:102E7000200000241C00002400B5FFF7D7FF0549FF
:102E80000968C1F30221044A515C01F01F01C840E6
:102E900000BD00001C4402580CE20090F0B5824EC8
:102EA000366806F0380636B1082E15D0102E15D02B
:102EB000182E7DD114E07C4E103E3668C6F34016C5
:102EC00046B1794E103E3668C6F3C107774E26FAF2
:102ED00007F000E07548E5E07548E3E07548E1E09B
:102EE000714E1836366806F003046F4E1836366891
:102EF000C6F305116C4E1C36366806F001056A4EA5
:102F000024363668C6F3CC0616FB05F601EE106AC9
:102F1000B8EE410A002971D024B1012C50D0022C06
:102F20006DD16DE0604E103E3668C6F340163EB37C
:102F30005D4E103E3668C6F3C1075C4E26FA07F3B5
:102F400001EE103AF8EE411A01EE101AB8EE411AED
:102F500081EE812A9FED581AC0EE011A524E20369A
:102F60003668C6F3080601EE106AB8EE411A31EE73
:102F7000811AF7EE001A31EE211A62EE010A1EE004
:102F800001EE101AB8EE411ADFED4C1A81EE812ADB
:102F90009FED491AC0EE011A434E20363668C6F33B
:102FA000080601EE106AB8EE411A31EE811A00E00F
:102FB00076E0F7EE001A31EE211A62EE010A5BE0CC
:102FC00001EE101AB8EE411A9FED3D2AC2EE011A29
:102FD0009FED391A80EE012A334E20363668C6F34B
:102FE000080601EE106AB8EE411A32EE011AB7EE89
:102FF000002A31EE021A61EE810A3DE04EE01DE04A
:1030000001EE101AB8EE411ADFED2E1A81EE812A78
:103010009FED291AC0EE011A234E20363668C6F3FA
:10302000080601EE106AB8EE411A31EE811AF7EE89
:10303000001A31EE211A62EE010A1DE001EE101AAB
:10304000B8EE411A9FED1E2AC2EE011A9FED1A1A20
:1030500080EE012A144E20363668C6F3080601EECB
:10306000106AB8EE411A32EE011AB7EE002A31EEBC
:10307000021A61EE810A00BF00BF0B4E203636688F
:10308000C6F34626721C01EE102AB8EE411AC0EEB5
:10309000811ABCEEE11A11EE100A00E0002001E0F6
:1030A000034800BF00BFF0BD104402580090D00399
:1030B00000093D0040787D01000000460024744C6A
:1030C0000024744A20BCBE4B2DE9F047044614B9D5
:1030D0000120BDE8F087207800F00100002870D0C2
:1030E000FA48006800F03808F8481830D0F8009026
:1030F000B8F1100F06D0B8F1180F0FD109F0030086
:1031000002280BD1F14810380068C0F34040002875
:103110006AD06068002867D10120DAE700BF6068E4
:10312000B0F5803F08D1E9481038006840F480309D
:10313000E649103908602EE0606868B9E348103845
:10314000006820F48030E1491039086008460068C2
:1031500020F4802008601EE06068B0F5A02F0DD13B
:10316000DA481038006840F48020D84910390860E7
:103170000846006840F4803008600CE0D3481038FE
:10318000006820F48030D149103908600846006892
:1031900020F48020086000BF606898B1FEF766F9EF
:1031A000054606E0FEF762F9401B642801D90320BA
:1031B0008FE7C64810380068C0F340400028F1D0BF
:1031C00012E012E0FEF752F9054606E0FEF74EF96E
:1031D000401B642801D903207BE7BC4810380068F5
:1031E000C0F340400028F1D100BF207800F0020079
:1031F000022874D1B548006800F03808B348183088
:10320000D0F80090B8F1000F05D0B8F1180F56D1E2
:1032100009F00300D0BBAD4810380068C0F380004F
:1032200018B1E06808B9012053E7A84810380068D1
:1032300020F01900E1680843A44910390860FEF73E
:1032400015F9054606E0FEF711F9401B022801D9E1
:1032500003203EE79D4810380068C0F38000002836
:10326000F1D000BFFEF7FCF841F2030188421AD802
:10327000206940280BD195480C38006820F47C3038
:1032800040F4003091490C39086017E017E08F488E
:103290000C38006820F47C30216940EA01308B4909
:1032A0000C3908600AE089480C38006820F0FE40BC
:1032B000217C40EA016085490C39086066E0E068DD
:1032C00088B382481038006820F01900E16808438C
:1032D0007E4910390860FEF7C9F8054607E056E058
:1032E000FEF7C4F8401B022801D90320F1E6774815
:1032F00010380068C0F380000028F1D000BFFEF74E
:10330000AFF841F2030188421AD8206940280BD156
:103310006E480C38006820F47C3040F400306B4973
:103320000C39086017E017E068480C38006820F492
:103330007C30216940EA013064490C3908600AE0B8
:1033400062480C38006820F0FE40217C40EA0160B1
:103350005E490C39086019E05C481038006820F0BC
:1033600001005A4910390860FEF780F8054606E06A
:10337000FEF77CF8401B022801D90320A9E6534838
:1033800010380068C0F380000028F1D100BF207819
:1033900000F0100010287CD14C48006800F038087C
:1033A0004A481830D0F80090B8F1080F06D0B8F1AC
:1033B000180F3DD109F00300012839D143481038D6
:1033C0000068C0F3002020B1E069802801D001200E
:1033D0007FE600BFFEF744F841F2030188421AD8A5
:1033E000206A20280AD139480C38006820F0F840BB
:1033F00040F0804035490C39086018E033480C38FB
:10340000006820F0F84094F8201040EA81602F49CD
:103410000C3908600BE02D48001F006820F07C503C
:1034200094F8201040EA01602849091F086066E00E
:10343000E06978B325481038006840F080002349DF
:1034400010390860FEF712F8054606E0FEF70EF8A0
:10345000401B022801D903203BE61C4810380068B5
:10346000C0F300200028F1D000BFFDF7F9FF41F2C2
:10347000030188421CD8206A20280CD113480C383C
:10348000006820F0F84040F0804010490C39086096
:103490001AE035E01CE00D480C38006820F0F840D8
:1034A00094F8201040EA816008490C3908600BE06C
:1034B0000648001F006820F07C5094F8201040EA75
:1034C00001600249091F086019E000001044025819
:1034D000FA48006820F08000F8490860FDF7C6FF50
:1034E000054606E0FDF7C2FF401B022801D9032074
:1034F000EFE5F2480068C0F300200028F2D100BFD9
:10350000207800F00800082836D16069D0B1EB4877
:103510007430006840F00100E84974310860FDF73C
:10352000A5FF054606E0FDF7A1FF401B022801D9D3
:103530000320CEE5E14874300068C0F34000002865
:10354000F1D019E0DD487430006820F00100DB495B
:1035500074310860FDF78AFF054606E0FDF786FF37
:10356000401B022801D90320B3E5D4487430006819
:10357000C0F340000028F1D1207800F0200020287E
:1035800030D1A069B8B1CD48006840F48050CB4933
:103590000860FDF76BFF054606E0FDF767FF401B7F
:1035A000022801D9032094E5C4480068C0F34030E4
:1035B0000028F2D016E0C148006820F48050BF49CE
:1035C0000860FDF753FF054606E0FDF74FFF401B7F
:1035D000022801D903207CE5B8480068C0F34030D8
:1035E0000028F2D1207800F0040004287DD1B448EE
:1035F000006840F48070B2490860FDF737FF054667
:1036000006E0FDF733FF401B642801D9032060E585
:10361000AB48006800F480700028F2D000BFA068BA
:10362000012808D1A5487030006840F00100A34986
:10363000703108602DE0A06868B9A048703000685B
:1036400020F001009D49703108600846006820F0B4
:10365000040008601DE0A06805280DD1974870306F
:10366000006840F004009549703108600846006821
:1036700040F0010008600CE090487030006820F0D5
:1036800001008E49703108600846006820F004008F
:10369000086000BFA068A0B1FDF7E8FE054608E09D
:1036A000FDF7E4FE401B41F28831884201D9032036
:1036B0000FE5824870300068C0F340000028EFD06A
:1036C00013E0FDF7D3FE054608E0FDF7CFFE401BF3
:1036D00041F28831884201D90320FAE477487030FA
:1036E0000068C0F340000028EFD1606A00287DD058
:1036F00072481030006800F03800182877D0606AEF
:10370000022875D16D48006820F080706B49086010
:10371000FDF7ACFE054606E0FDF7A8FE401B0228BB
:1037200001D90320D5E465480068C0F34060002853
:10373000F2D100BFD4E90A1041EA00105F492831F4
:10374000096840F2F332914308435C49283108602C
:10375000208E401EC0F30800616B491E4FF47E426C
:1037600002EA41210843218F491ED20102EA0141A8
:1037700008433C21095D491E120202EA0161084327
:103780004E493031086000BF081F006820F001007A
:10379000091F08604948343000684FF6F8718843C3
:1037A000A16C40EAC10045493431086043482C30DF
:1037B000006820F00C00216C084340492C3108605F
:1037C0000846006820F00200616C08433B492C3138
:1037D00008600846006840F48030086008460068C9
:1037E00040F4003008600846006802E093E038E0EA
:1037F0001FE040F4802008600846006840F00100A7
:1038000008602E48006840F080702C490860FDF781
:103810002DFE054606E0FDF729FE401B022801D9D2
:10382000032056E425480068C0F340600028F2D029
:1038300071E02248006820F0807020490860FDF7A0
:1038400015FE054606E0FDF711FE401B022801D9D2
:1038500003203EE419480068C0F340600028F2D11C
:1038600059E0164828300768144830300668606A06
:10387000012821D007F00301A06A81421CD1C7F3BF
:103880000511E06A884217D1C6F30801206B401E7B
:10389000814211D1606B401EC6F3462188420BD194
:1038A000A06B401EC6F30641884205D1E06B401E66
:1038B000C6F30661884205D001200AE4004402589C
:1038C0000048025815480068C0F3CC07A06CB84205
:1038D00021D012480838006820F001000F4908394B
:1038E0000860FDF7C3FD054600BFFDF7BFFD401BA7
:1038F000FBD00A4800684FF6F8718843A16C40EA93
:10390000C1000649086005480838006840F0010019
:1039100002490839086000204AE400003444025893
:1039200070B504460D460CB9012070BD94F82C000A
:1039300028B9002084F82D00204600F019F8022054
:1039400084F82C00211D2068FDF7FAF82946D4E9F7
:103950000002FDF749F90548006840F000400349BE
:103960000860012084F82C000020DEE700400052AF
:1039700010B50446FDF7C8FB10BD70B504460D46F2
:1039800094F82C00022800D170BD94F82C00012876
:103990000AD1022084F82C0029462068FDF706F998
:1039A000012084F82C0001E00120EDE70020EBE786
:1039B0002DE9F04104460E46174694F82C50022D8E
:1039C00002D10220BDE8F081012D01D0052D12D1D8
:1039D000022084F82C003A4631462068FDF7F0F8C2
:1039E0003068022803D1052084F82C0005E001206E
:1039F00084F82C0001E00120E4E70020E2E77047B2
:103A00007047704710B504460CB9012010BD94F8FA
:103A10003D0028B9002084F83C00204600F029F839
:103A2000022084F83D00211D206800F03FFF0120A6
:103A300084F8480000BF84F83E0001213F20015572
:103A40004020015541200155422001554320015598
:103A500000BF00BF012084F84400452001554620E6
:103A600001554720015500BF012084F83D0000208A
:103A7000CCE77047014691F83D00012801D00120B4
:103A80007047022081F83D000868C06840F00100DE
:103A90000B68D8601C4B086898421BD00868B0F1CE
:103AA000804F17D0194B0868984213D0184B0868FC
:103AB00098420FD0174B086898420BD0164B0868F5
:103AC000984207D0154B0868984203D0144B0868F9
:103AD000984210D108688068124B00EA0302062A57
:103AE0000FD0B2F5803F0CD00868006840F00100AC
:103AF0000B68186005E00868006840F001000B687A
:103B000018600020BCE700000000014000040040F5
:103B100000080040000C0040000401400018004074
:103B20000040014007000100704710B504462068BE
:103B30000069C0F34000D8B12068C068C0F34000FD
:103B4000B0B16FF002002168086101202077206881
:103B5000806900F0030018B12046FFF7E5FF05E09B
:103B6000204600F0BEF8204600F0BCF80020207788
:103B700020680069C0F38000D8B12068C068C0F335
:103B80008000B0B16FF00400216808610220207746
:103B90002068806900F4407018B12046FFF7C4FF28
:103BA00005E0204600F09DF8204600F09BF800203C
:103BB000207720680069C0F3C000D8B12068C068D1
:103BC000C0F3C000B0B16FF00800216808610420A4
:103BD00020772068C06900F0030018B12046FFF785
:103BE000A3FF05E0204600F07CF8204600F07AF8BC
:103BF0000020207720680069C0F30010D8B1206849
:103C0000C068C0F30010B0B16FF010002168086107
:103C1000082020772068C06900F4407018B1204661
:103C2000FFF782FF05E0204600F05BF8204600F039
:103C300059F8002020772068006900F0010058B191
:103C40002068C06800F0010030B16FF00100216809
:103C50000861204600F048F820680069C0F3C010F1
:103C600058B12068C068C0F3C01030B16FF0800058
:103C7000216808612046FFF7C3FE20680069C0F391
:103C8000002058B12068C068C0F3C01030B16FF494
:103C90008070216808612046FFF7B1FE2068006946
:103CA000C0F3801058B12068C068C0F3801030B1F4
:103CB0006FF0400021680861204600F021F820687C
:103CC0000069C0F3401058B12068C068C0F34010CC
:103CD00030B16FF02000216808612046FFF791FEA7
:103CE00010BD70477047000010B5044603492068B6
:103CF000884201D1FDF7C0FB10BD00000048014023
:103D0000704700BFFEE7000010B50248FDF76AFCEF
:103D100010BD000014030024F0B58E880768FF680A
:103D2000C7F30B473E44330406688436802707FBFD
:103D30000266766806F47047066884364FF0800C99
:103D40000CFB026677600E680768FF68C7F30B47D5
:103D50003E44761C1E43076884370CFB02777E6066
:103D60008E890768FF68C7F30A073E443304066874
:103D70008436802707FB0266B66806F4704706683B
:103D800084360CFB0266B7608E680768FF68C7F36D
:103D90000A073E44761C46EA0307066884360CFB95
:103DA0000266B76006688436802707FB02663669BC
:103DB00026F00707066884360CFB026637610F6938
:103DC000066884360CFB026637613126765C330266
:103DD0003226765C34040E7E3506066884368027EB
:103DE00007FB0266B6690027066884360CFB02668C
:103DF000B76191F830601E43264346EA050706681E
:103E000084360CFB0266B76106688436802707FBA0
:103E10000266766926F0FF07066884360CFB0266A8
:103E200077614F69066884360CFB02667761066825
:103E30008436802707FB0266F66940F20777BE43A7
:103E4000076884370CFB0277FE61D1E907763743B8
:103E5000066884360CFB0266F761066884368027A4
:103E600007FB0266B66A0027066884360CFB02660A
:103E7000B7624F6A066884360CFB0266B7620E6949
:103E80000EB9042313E00E69012E01D103230EE0C5
:103E90000E69042E08D00E69022E05D00E69032E7D
:103EA00002D00E69072E01D1022300E0012306682B
:103EB0008436802707FB0266F66A06F0E02706686C
:103EC00084364FF0800C0CFB0266F762D1E9007675
:103ED000F61B5E43F61D0F8D5F4346EA07470668F3
:103EE00084360CFB0266F76206688436802707FB7F
:103EF0000266366BF70AFF02066884360CFB026620
:103F00003763CF6A066884360CFB0266376306683F
:103F10008436D701F65946F00107066884364FEA21
:103F2000C21C46F80C70F0BD10B50A480A4908607A
:103F30000020087100210848417141618161012020
:103F4000054908620846FCF7D1FE08B1FCF7F5FD0B
:103F500010BD0000004C02584402002410B50E4869
:103F60000E4908600020486000210C488160C16053
:103F700041648164C164016541658165C165FDF786
:103F800047F808B1FCF7D9FD01210448FCF70AFF06
:103F900008B1FCF7D2FD10BD0010005268020024E9
:103FA00000B587B01C216846FCF74FFB19481A4939
:103FB0000860002048600121174881600421C16029
:103FC00020210161402141614FF4C07181610021D4
:103FD000C1614FF4006101624900416200218162C8
:103FE00002200090072001900420029007200390F7
:103FF0000320049002200590069069460648FFF7CA
:104000008FFC08B1FCF799FD0449034800F0C2FA9F
:1040100007B000BD40410052E0020024D00200245D
:1040200010B5074A0021074807F010FC0649086050
:10403000064A0021064807F009FC0649086010BD41
:10404000C4E100902746009008000024E8E10090B9
:10405000794900900C00002400B587B0142102A813
:10406000FCF7F3FA00BF5D48006840F480705B49DC
:1040700008600846006800F48070019000BF00BF2F
:1040800000BF0846006840F4806008600846006889
:1040900000F48060019000BF00BF00BF08460068C8
:1040A00040F0400008600846006800F040000190C1
:1040B00000BF00BF00BF0846006840F01000086065
:1040C0000846006800F01000019000BF00BF00BF6C
:1040D0000846006840F4007008600846006800F474
:1040E0000070019000BF00BF00BF0846006840F0AC
:1040F000080008600846006800F00800019000BF52
:1041000000BF00BF0846006840F001000860084694
:10411000006800F00100019000BF00BF00BF08462A
:10412000006840F0800008600846006800F08000E9
:10413000019000BF00BF00BF0846006840F00400C7
:1041400008600846006800F00400019000BF00BF4E
:1041500000BF0846006840F020000860084600687C
:1041600000F02000019000BF00BF00BF08460068BB
:1041700040F0020008600846006800F0020001906C
:1041800000BF00BF002220211548FDF763F901227E
:1041900040211448FDF75EF9202002900120039091
:1041A00000200490059002A90D48FDF755F8402025
:1041B00002900120039000200490059002A9094874
:1041C000FDF74AF84FF480500290002003900490CD
:1041D00002A90548FDF740F807B000BDE0440258C9
:1041E00000240258001C02580004025800B58DB08B
:1041F00034216846FCF729FA2C482D490860002034
:10420000486000212A488160C16001610721416145
:1042100003218161A721C1611221016240F2A741FE
:10422000416240F26A21816240F24751C16240F22C
:104230007E210163002180F8341080F8351080F869
:104240003610FDF749FA08B1FCF777FC0020009022
:104250004FF480600190002002904FF4167003909C
:1042600002200490FF200590002006904FF480600B
:104270000790052008904FF0404009904FF480606F
:104280000A904FF416700B9000208DF8300000213A
:104290008DF831108DF83210002269460448FDF780
:1042A00071F908B1FCF749FC0DB000BD00100050D9
:1042B0001403002410B508F00DF908F00DF910BD35
:1042C000704700BFFEE700BFFEE700002DE9F041A8
:1042D00004460E4600275548006800F003000328F6
:1042E00002D10120BDE8F08150482838006820F054
:1042F00080604E4928390860FDF7B8F8054606E0A9
:10430000FDF7B4F8401B022801D90320EAE747482B
:1043100028380068C0F3C0600028F1D100BF4348CE
:10432000006820F47C30216840EA01303F49086091
:10433000A088401EC0F30800A168491E4FF47E42C9
:1043400002EA41210843A189491ED20102EA014142
:104350000843217C491E120202EA016108433349E5
:104360001031086000BF3148001D006820F0C00017
:10437000616908432D49091D08600846006820F05E
:104380002000A16908432949091D08600846006802
:1043900020F0100008602548143000684FF6F871CE
:1043A0008843E16940EAC1002049143108601F4890
:1043B000001D006840F010001C49091D08602EB95E
:1043C0000846006840F40020086012E0012E08D181
:1043D0001648001D006840F480101449091D08604B
:1043E00007E01248001D006840F400100F49091D45
:1043F00008600E482838006840F080600B49283972
:104400000860FDF733F8054606E0FDF72FF8401B7E
:10441000022801D9032065E7044828380068C0F362
:10442000C0600028F1D038465CE7000028440258FC
:104430002DE9F04104460E4600275548006800F07B
:104440000300032802D10120BDE8F081504828383C
:10445000006820F080504E4928390860FDF706F8C2
:10446000054606E0FDF702F8401B022801D90320AB
:10447000EAE7474828380068C0F340700028F1D1C7
:1044800000BF4348006820F07C70218840EA01505A
:104490003F490860A088401EC0F30800A168491E7B
:1044A0004FF47E4202EA41210843A189491ED2010C
:1044B00002EA01410843217C491E120202EA01611D
:1044C000084333491831086000BF3148001D0068B7
:1044D00020F44060616908432D49091D08600846C1
:1044E000006820F40070A16908432949091D08608B
:1044F0000846006820F48070086025481C30006879
:104500004FF6F8718843E16940EAC10020491C3147
:1045100008601F48001D006840F480701C49091D98
:1045200008602EB90846006840F48000086012E078
:10453000012E08D11648001D006840F400001449FF
:10454000091D086007E01248001D006840F08070F7
:104550000F49091D08600E482838006840F0805057
:104560000B4928390860FCF781FF054606E0FCF797
:104570007DFF401B022801D9032065E70448283845
:104580000068C0F340700028F1D038465CE70000B6
:104590002844025838B505460C46002000900120FA
:1045A0002060102060600120A0600020E0604FF4D7
:1045B000805221462846FFF7FBF90120FCF790FDC9
:1045C00002202060102060600120A0600020E060D8
:1045D0004FF4805221462846FFF7EAF90320206075
:1045E000102060600820A0600020E0604FF480523E
:1045F00021462846FFF7DCF940F2312000900420E4
:104600002060102060600120A0600098E0604FF4FE
:10461000805221462846FFF7CBF940F296312846D2
:10462000FFF7ABF938BD00BF012006F01FFFFBE725
:1046300010B54FF0E020006909F08AF9012801D097
:1046400008F094FB10BD000000B59DB04C210AA8F5
:10465000FBF7FBFF202102A8FBF7F7FF0220FDF785
:10466000F7FA00BF002001904148006820F00100E7
:104670003F4908600846006800F0010001903D488D
:10468000006840F440403B4908600846006800F478
:104690004040019000BF00BF00BF3648006800F4F2
:1046A0000050B0F5005FF8D100BF3348006840F01B
:1046B0000200314908600846006800F002000190DD
:1046C00000BF00BF00BF002001902A48006840F4EE
:1046D0004040284908600846006800F440400190C6
:1046E0002348006840F0010021490860084600683E
:1046F00000F00100019000BF00BF00BF1D4800682E
:1047000000F40050B0F5005FF8D101200A900004D9
:104710000B90022013900221149105211591C021C4
:104720001691022117911891199108211A910021CF
:104730001B911C910AA8FEF7C7FC08B1FCF7FDF914
:104740003F20029003200390002004900820059051
:104750004020069007900001089040200990042115
:1047600002A8FEF79DF908B1FCF7E7F91DB000BDFE
:104770002C04005818480258F44402583C48006879
:1047800040F470003A49086039487838006840F0D1
:1047900010003749783908603648006800F00F008B
:1047A000072806D23348006820F00F00C01D3149A9
:1047B00008603148006840F001002F49086000207F
:1047C0002D49103108602C4800682C4908402A49BE
:1047D00008602848006800F00F00072806D925481F
:1047E000006820F00F00C01D224908600020224907
:1047F00018310860091D0860091D086020481E491D
:10480000283108601F48091D08601F48091D0860FD
:104810000020091D08601C48091D08600020091DB2
:1048200008601948091D08600020091D0860124829
:10483000006820F480201049086000200E49603193
:1048400008601248006840F480404FF0B041C1F861
:10485000E4000F4800686FF30F00B0F1005F02D270
:1048600001200C49086043F2D2000B4908607047F0
:1048700088ED00E000200052004402587FEDF6EA87
:10488000000202020000FF0180020101E400005862
:104890000010005C088100510040005210B5024831
:1048A000FFF743F910BD0000BC03002410B50268F7
:1048B000294B98420ED0B0F1804F0BD0274B984235
:1048C00008D0274B984205D0264B984202D0264B61
:1048D000984203D122F070024B681A431E4B984253
:1048E00017D0B0F1804F14D01C4B984211D01C4B04
:1048F00098420ED01B4B98420BD01B4B984208D0CD
:104900001A4B984205D01A4B984202D0194B984244
:1049100003D122F44072CB681A4322F080034C6921
:1049200043EA040202608B68C3620B6883620A4B2D
:1049300098420BD00C4B984208D00C4B984205D0B3
:104940000B4B984202D00B4B984201D10B69036389
:104950000123436110BD000000000140000400403D
:1049600000080040000C00400004014000400140ED
:10497000004401400048014010B5044607F0F0FD36
:1049800010BD00BFFEE7000010B58EB017480078DC
:1049900000F0010030BB154806F012FC10B30020F7
:1049A0003F23CDE909300B900C90114811490022AA
:1049B0000592CDE906210890012004210192CDE95C
:1049C000022104900A20034601220B4900900B4863
:1049D00002F03AFA04460A4A0A49FBF760FD034826
:1049E000AFF3008005480EB010BD0000C4000024E5
:1049F000A0F80090ACF8009070F80090244E0024CD
:104A000000000090916E009010B58EB017480078AD
:104A100000F0010030BB154806F0D2FB10B30020B7
:104A20003F23CDE909300B900C9011481149002229
:104A30000592CDE906210890012004210192CDE9DB
:104A4000022104901420034601220B4900900B48D8
:104A500002F0FAF904460A4A0A49FBF720FD034826
:104A6000AFF3008005480EB010BD0000C800002460
:104A7000A4F80090B0F8009080F80090504E002408
:104A800000000090916E009010B58EB0174800782D
:104A900000F0010030BB154806F092FB10B3002077
:104AA0003F23CDE909300B900C90114811490022A9
:104AB0000592CDE906210890012004210192CDE95B
:104AC000022104902820034601220B4900900B4844
:104AD00002F0BAF904460A4A0A49FBF7E0FC034827
:104AE000AFF3008005480EB010BD0000CC000024DC
:104AF000A8F80090B4F8009090F800907C4E002444
:104B000000000090916E009010B50446204600F021
:104B1000D7F810BD00BF00BF7047000010B50446B5
:104B2000204600F0CFF8044601482060204610BD22
:104B30008CE2009010B50446204600F067F9044668
:104B4000204610BD10B50446204600F01BFA10BDEB
:104B500010B50446204600F01BFA10BD10B50446FF
:104B6000204600F09BFA10BD70B504460D4629465C
:104B7000204600F0A7FA70BD10B50446204600F0AC
:104B8000A9FA10BD70B504460D462946204600F02E
:104B9000D5FA70BD10B50446204600F0D9FA10BD14
:104BA00010B50446204600F0EBFA10BD10B50446DF
:104BB000204600F003FB10BD00BF704770B50446EF
:104BC00004F1140104F12C0304F58C72204604F561
:104BD0009875204E066041608360C260056100BF29
:104BE0001D4E066000BF04461C48206004F11405F9
:104BF000284602F083FA0546194845F814092C4660
:104C000004F12C05284602F079FA0546154845F8C6
:104C10002C092C4604F58C75284602F06FFA0546DF
:104C20001148A5F58C74286004F5967000F06DFBB2
:104C3000A0F59674224604F59671081D00F042F91D
:104C4000A0F5987404F59871204600F0FDF8204610
:104C500070BD000028EC0090F0E3009098E3009015
:104C600064F1009030F1009098F1009070B5044626
:104C70000F4804F598752060284600F037FB05467C
:104C800000BFA5F59874A5F1180005F061FBA0F52B
:104C90008C74EC3805F04EFBA0F12C04183805F0AC
:104CA00050FBA0F11404204600F0D5F8044670BD76
:104CB00098E30090004870471CE200900120704784
:104CC0007047000070B586B004462546284603F0BC
:104CD000F5FF0546494828600020E86300BF2C46E0
:104CE0004748286004F1400002F0F6FAA0F14004C1
:104CF00004F16C0002F0F0FAA0F16C0404F19805E4
:104D00002E46304605F07EF906463E48306000BF2C
:104D100035463D4830600020A86400BFA5F19804E6
:104D20004FF416704FF4806300221146009004F196
:104D3000400004F045F800221146104603F070FCD4
:104D40000146039004F1400002F0C2FA04F1400170
:104D5000204603F037FE4FF416704FF480630022B4
:104D60001146009004F16C0004F02AF8FF2211466D
:104D7000104603F055FC0146039004F16C0002F06C
:104D8000A7FA04F16C01204603F01CFE2820C8237A
:104D900000221146009004F1980004F011F804F18B
:104DA000980500221146104603F03AFC0390039840
:104DB000286300BF0026AE8628682946D0F88420E4
:104DC00001A8904701A807C8C5E91012E86300BF11
:104DD000002104A805F0C6FA0546294604F198000A
:104DE00005F0B1F804A800BF00BF04F19801204607
:104DF00003F0E8FD204606B070BD000058EB0090BF
:104E0000BCE3009024E9009094E8009010B50446BB
:104E10000C48206004F1980002F048FAA0F19804D0
:104E200004F16C0002F072FAA0F16C0404F140008D
:104E300002F06CFAA0F14004204603F0E3FB0446C4
:104E4000204610BDBCE3009070B505460C462046D8
:104E500000F0BCF970BD00BF70477047704700009C
:104E60000A460146084B036000BF0846011D074B78
:104E7000436000234B6000BF081F054901601831E3
:104E80004160C26070470000CCF10090ACE300903C
:104E900004E40090011D00BF081F014600BF084642
:104EA000704701207047000000487047A84E00245A
:104EB00010B50446D4F8580100F026FA204601F057
:104EC000C9F910BD70B504460D461646324629464E
:104ED000204600F0B9F9044601482060204670BD24
:104EE0002CE40090034600207047704700BF7047D5
:104EF00030B503462148006800F4803000283BD0DC
:104F000000BF00241D4D70352C6000BF00BF00BFE6
:104F100000BFBFF34F8F00BF00BF00BF2C1F206832
:104F2000C0F34E3100BFC0F3C90200BF43F6E074C6
:104F300004EA41144FF0404505EA82752C43104DB8
:104F40002C6000BF00BF141EA2F10102EED10C1EA6
:104F5000A1F10101E7D100BF00BF00BFBFF34F8F38
:104F600000BF00BF00BF00BF00BF00BFBFF36F8F17
:104F700000BF00BF00BF00BF30BD000014ED00E067
:104F800074EF00E010B50446204602F0C7F910BDEA
:104F900070B50646304602F0CDF900F013FB04462A
:104FA00030682146426E304690471548B06300BFD6
:104FB000344601250DB1022D02D184F8485014E089
:104FC000012D11D1A06B70B12068D0F89C10204643
:104FD00088474FF6FF71884205D00A48007810B91B
:104FE00084F8485001E000E000BF306800231A4612
:104FF0004FF04041D0F888403046A04770BD0000D7
:10500000655500901902002430B503462148006818
:1050100000F4803000283BD000BF00241D4D7035C7
:105020002C6000BF00BF00BF00BFBFF34F8F00BFA9
:1050300000BF00BF2C1F2068C0F34E3100BFC0F37B
:10504000C90200BF43F6E07404EA41144FF0404542
:1050500005EA82752C43104D2C6000BF00BF141E62
:10506000A2F10102EED10C1EA1F10101E7D100BFB6
:1050700000BF00BFBFF34F8F00BF00BF00BF00BF26
:1050800000BF00BFBFF36F8F00BF00BF00BF00BFF6
:1050900030BD000014ED00E074EF00E00146582040
:1050A00000280DDB00BF00BF00F01F0301229A4063
:1050B00043099B0003F1E023C3F8002100BF00BFB8
:1050C00000BF704770B504460D462946204602F0E1
:1050D000C7F970BD10B501465820002817DB00F055
:1050E0001F0301229A400B4B440943F8242000BFC0
:1050F00000BF00BFBFF34F8F00BF00BF00BF00BFA6
:1051000000BF00BFBFF36F8F00BF00BF00BF00BF75
:1051100010BD000080E100E003460748406C81B20A
:105120000548C068C0F30A00421C914201DA002021
:1051300000E0881A80B2704700100050034A1160E6
:105140000122024BAC3B5A6270470000AC10005089
:1051500030B5024658200921002804DB0B071C0E3D
:10516000054B1C5406E00B071D0E044B00F00F040A
:10517000241F1D5500BF30BD00E400E018ED00E025
:105180000B49C968C1F30A01491E0A4A118008493E
:105190000969C1F30A01491E074A118005490988B6
:1051A000034A11641146496B41F001015163704794
:1051B00000100050B4000024B600002410B50446CE
:1051C000204602F0DAFB10BD00BF70472DE9F04128
:1051D00086B0044604F5A27702AE104903C9CDE9B2
:1051E0000001304601F06CFE06460D4830607460E8
:1051F000DDE90001C6E90201354668687860D5E955
:105200000201B846C7E9020102A803F0D7FD04F580
:10521000A270C4F8400106B0BDE8F08130E2009011
:1052200038EC009038B50446D4F858010090044B8F
:1052300004F59E710348D4F8542108F07DFE38BD72
:10524000DC010024D80100242DE9F04104460E467B
:1052500017462546284601F073F805461D48286084
:105260000020C5F83C01C5F840011B48056000BF9F
:105270002C461A48286004F5A275284601F020FE45
:1052800005461748286000206860164903C9C5E92B
:10529000020100BFA5F5A274C4F85471C4F85861A6
:1052A00000BF1148006880460068002182684046BF
:1052B0009047002003F0D6F902F0D0F9054603F03C
:1052C0008AFF02F0CBF9054603F0BEFF2046BDE899
:1052D000F0810000B8E70090E001002484E5009030
:1052E00038EC009038E20090280200240549016063
:1052F00000F5A27100BFA1F5A270014600BF0846EB
:105300007047000084E500907047002101607047FD
:105310000146002070470000222202A10DA0FBF7E9
:10532000D5F800002E2E2F434D372F546F7563682C
:105330004746582F7461726765742F67656E657292
:10534000617465642F53544D3332444D412E637064
:1053500070000000302026262022444D41206F702E
:1053600065726174696F6E206E6F742073757070F2
:105370006F72746564220000272202A10DA0FBF762
:10538000A5F800002E2E2F434D372F546F756368FC
:105390004746582F7461726765742F67656E657232
:1053A000617465642F53544D3332444D412E637004
:1053B00070000000302026262022444D41206F70CE
:1053C00065726174696F6E206E6F74207375707092
:1053D0006F727465642200007047000010B50446C7
:1053E000204604F10C010F4A226041600022027243
:1053F000427200BF04460C482060012204F12001E3
:1054000004F10C0001F0BCFEA0F10C0404F1200139
:1054100004F12C00002240F80C2900BFA0F1200468
:10542000204610BD00E70090D8E5009001460548F1
:10543000086001F10C0000BFA0F10C01084600BF9C
:1054400001467047D8E5009030B5044C039D0460D8
:105450000171C2800381458130BD000028E60090C3
:1054600010B500220121084606F05CF90E490860DB
:105470000846006808B100BF04E028220BA11748C5
:10548000FBF724F800220421012006F085F81449D6
:1054900008600846006808B100BF04E02C2203A1A0
:1054A0001048FBF713F810BDB80000242E2E2F4330
:1054B0004D372F546F7563684746582F7461726774
:1054C00065742F67656E6572617465642F4F5357FD
:1054D000726170706572732E6370700068F6009070
:1054E000BC000024B4F6009010B500231A4603490E
:1054F0000348006806F09EF810BD0000C0000024BC
:10550000BC00002408B500231A4669460648006816
:1055100006F002F84FF0FF330022694602480068A7
:1055200005F0FAFF08BD0000BC00002410B50248D9
:10553000006806F05DF910BDB800002410B54FF00A
:10554000FF310248006806F0B7F810BDB80000242B
:1055500010B500210248006806F0AEF810BD00004A
:10556000B800002410B50446204605F07FFF10BDAA
:1055700070B5054600F026F804460068C16B204669
:10558000884770BD704741607047704770477047EB
:105590003EB50446094800221146008800B200903A
:1055A0000748008803B201A802F0DFFF2068DDE9A8
:1055B0000112036C204698473EBD000020020024E3
:1055C0001E0200240148C06870470000D401002476
:1055D00070B50446002004F18405A4F8A400B4F8D2
:1055E0008000A4F8A6000BE0415D21B154F8200032
:1055F0000168096D8847B4F8A400401CA4F8A40011
:10560000B4F8A400B4F8A6108842EDD370BD00220F
:10561000A0F8802011464318491C202983F88420D3
:10562000F9DB70472DE9F04100221446134611467C
:105630001DE0451895F8846076B191420AD08EB28B
:1056400050F8267096B240F82670861895F8845067
:1056500086F88450521C09E0B0F8A4508D4200DB5B
:10566000641CB0F8A6508D4200DD5B1C491CB0F8EC
:1056700080508D42DDDCB0F8A410091BA0F8A41006
:10568000B0F8A610C91AA0F8A6100EE05C1EA1B2D0
:105690008B4201D8FAF7F8FEA3B2A0F880308B4213
:1056A00003D950F8234040F82140B0F880309342AD
:1056B000ECDCBDE8F081000003484068002802D01F
:1056C0000268926A10477047D40100242DE9F74F11
:1056D0008146FF4884B0008802B2FE48008801B2CB
:1056E00005A802F0D4FE05A805F063F800287DD1D6
:1056F00009F1AC05B9F8EC400AE0A0B205EBC00135
:1057000005A805F062F818B1A1B2284608F0D3FC4C
:10571000641EF2D5B9F8EC604FF0000AD046761E50
:105720007ED4B0B205A905EBC004204605F076F89A
:1057300000287CD0BDF91400B4F90010884232DB97
:1057400005A805F02CF80746204605F028F8874202
:1057500029DCBDF91600B4F90210884212DB20469C
:1057600005F022F8BDF91620BDF81A10801A00B213
:10577000091A09B2ADF81A10002937DD1044ADF846
:1057800016004CE005A805F00FF80746204605F086
:105790000BF8874207DC6088BDF81610401A00B28B
:1057A000ADF81A0039E0BDF91600B4F902108842CC
:1057B0003BDB05A804F0F8FF0746204604F0F4FFA1
:1057C000874232DCBDF91400B4F90010884214DBC2
:1057D000204604F0E4FFBDF91420BDF81810801A2B
:1057E00000B2091A09B2ADF8181000E080E00029F3
:1057F0007EDD1044ADF8140011E005A804F0CFFFE1
:105800000746204604F0CBFF87420EDC2088BDF817
:105810001410401A00B2ADF81800002868DD01E04D
:1058200083E004E04FF0010801E04FF0010A761E2A
:105830007FF577AFB8F1000F7FF46CAFBAF1000FCE
:1058400073D0B9F8EC604FF00008761E6DD4B0B29A
:1058500005A905EBC004204604F0E0FF58B3BDF9EC
:105860001400B4F90010884226DC05A804F097FF64
:105870000746204604F093FF87421DDBBDF9160062
:10588000B4F90210884205A808DC04F08DFF618895
:10589000401A01446180E188081A0BE004F084FF9B
:1058A0000746204604F080FF874205DBBDF816005E
:1058B0006188401AE08030E0BDF91600B4F90210AA
:1058C000884228DC05A804F06FFF0746204604F054
:1058D0006BFF87421FDBBDF91400B4F9001088424A
:1058E00005A80ADC04F05BFF2188401A014400E0AF
:1058F000E7E12180A188081A0BE004F050FF074679
:10590000204604F04CFF874205DBBDF814002188D7
:10591000401AA08001E04FF00108761E97D5B8F13B
:10592000000F8DD0B9F8EC6051E153E1B0B205EB56
:10593000C00405A8214604F048FF18B1B1B22846BA
:1059400008F0B9FB05A9204604F068FF0028EBD059
:10595000BDF91400B4F900108842BDF91600B4F97D
:1059600002107DDD884233DDBDF816006188401AE3
:1059700021880FFA80F8BDF81400401A06B205A875
:1059800004F00DFF0746204604F009FF391A05A868
:1059900001FB08FA04F008FF0746204604F004FF64
:1059A000381A7043504508DCA4F806802088ADF80A
:1059B0001400BDF818003044D9E0A680BDF81A10D4
:1059C00001EB0800ADF81A006088ADF8160091E60A
:1059D00005A804F0E4FE0746204604F0E0FE218816
:1059E0008742BDF81400A0EB01000FFA80F82046B2
:1059F00025DD04F0D9FE064605A804F0D5FE301AD0
:105A0000BDF9161006B2B4F90200411A05A801FB4F
:105A100008FA04F0C4FE0746204604F0C0FE381A17
:105A20007043824508DC05A804F0BEFE6080E68075
:105A30002088ADF8140096E0A4F8048063E004F038
:105A4000AEFE074605A804F0AAFE381A07B2B9F858
:105A5000EC0007280EDAD4F800B0D4F804A000E077
:105A60001CE005A804F09BFE52462080A78068F346
:105A70000F02A8E0B8450EDCBDF818102088ADF87C
:105A8000140001EB0800ADF8180005A804F087FE2B
:105A90002080A7802EE6A4F804802BE0884236DA26
:105AA000204604F07CFE064605A804F078FE301A75
:105AB00007B2204604F078FE064605A804F074FEFE
:105AC000301ABDF9161006B2B4F90200411A03E00B
:105AD000200200241E020024B4F90000BDF91420A5
