:020000040800F2
:100000003810012079030008AF330008CB2B00081B
:10001000AD3300080B070008493800080000000055
:100020000000000000000000000000006F36000823
:100030001907000800000000B133000871360008FD
:100040009303000893030008930300089303000838
:100050009303000893030008930300089303000828
:100060009303000893030008930300089303000818
:100070009303000893030008930300089303000808
:1000800093030008930300089303000893030008F8
:1000900093030008930300089303000893030008E8
:1000A00093030008930300089303000893030008D8
:1000B00093030008930300089303000893030008C8
:1000C00093030008930300089303000893030008B8
:1000D00093030008930300089303000893030008A8
:1000E0009303000893030008000000009303000836
:1000F0009303000893030008930300089303000888
:100100009303000893030008930300089303000877
:100110009303000893030008930300089303000867
:100120009303000893030008930300089303000857
:100130009303000893030008930300089303000847
:100140009303000893030008000000000000000073
:100150009303000893030008930300089303000827
:100160009303000893030008930300089303000817
:100170009303000893030008930300089303000807
:1001800093030008930300089303000893030008F7
:1001900093030008930300089303000893030008E7
:1001A000B92E0008930300080D0700089303000808
:1001B00093030008930300089303000893030008C7
:1001C00093030008930300089303000893030008B7
:1001D00093030008930300089303000893030008A7
:1001E0009303000893030008930300089303000897
:1001F0009303000893030008930300089303000887
:100200009303000893030008930300089303000876
:100210009303000893030008930300089303000866
:100220009303000893030008930300089303000856
:100230009303000893030008930300089303000846
:100240009303000893030008930300089303000836
:100250009303000893030008930300089303000826
:100260009303000893030008930300089303000816
:100270009303000893030008930300089303000806
:100280009303000893030008930300080000000094
:10029000930300089303000800F002F800F05CF8F4
:1002A0000AA090E8000C82448344AAF10107DA45D1
:1002B00001D100F051F8AFF2090EBAE80F0013F0C7
:1002C000010F18BFFB1A43F001031847C451060081
:1002D000E45106000A444FF0000C10F8013B13F003
:1002E000070408BF10F8014B1D1108BF10F8015B8F
:1002F000641E05D010F8016B641E01F8016BF9D182
:1003000013F0080F1EBF10F8014BAD1C0C1B09D1D8
:100310006D1E58BF01F801CBFAD505E014F8016B4A
:1003200001F8016B6D1EF9D59142D6D370470000DC
:100330000023002400250026103A28BF78C1FBD8EE
:10034000520728BF30C148BF0B6070471FB528F067
:1003500016FF1FBD10B510BD00F09DF91146FFF747
:10036000F5FF1FF04FFC00F0BBF903B4FFF7F2FFFD
:1003700003BC00F0C3F90000094880470948004762
:10038000FEE7FEE7FEE7FEE7FEE7FEE7FEE7FEE745
:10039000FEE7FEE704480549054A064B70470000A2
:1003A0005137000899020008380A0120381001204E
:1003B000380C0120380C012053EA020C00F069804F
:1003C0002DE9F04B4FF00006002B1FBFB3FA83F569
:1003D00003FA05F424FA05F65E4012BF1643B2FA9A
:1003E00082F502FA05F4C5F120051EBF22FA05FCCC
:1003F00044EA0C04203556EA044C4FEA144418BF72
:10040000641C4FF000084FF00009904271EB030CA0
:1004100039D3002919BFB1FA81F701FA07F6B0FA0A
:1004200080F700FA07F6C7F120071EBF20FA07FC85
:1004300046EA0C062037B6FBF4FCA7EB0507103F95
:1004400007F01F0BCBF120060CFA0BFB2CFA06F67B
:1004500044BFB3460026202FA4BF5E464FF0000BDA
:100460005BEA060C08BF4FF0010B19EB0B09ABFB65
:10047000027C48EB0608C01B06FB02CC0BFB03CC3E
:1004800071EB0C01C1E70B46024641464846BDE808
:10049000F08B13B54FF000004FF00001AFF3008078
:1004A000BDE81C40704710B54C1084EA530404D5D5
:1004B0004042C1F1000138BF491E1B4204D55242DF
:1004C000C3F1000338BF5B1EFFF776FF14F0804FC7
:1004D00004D04042C1F1000138BF491E14F0004F62
:1004E00004D05242C3F1000338BF5B1E10BD40EA86
:1004F0000103024630B59B0710D14FF0013400E0F4
:1005000008C208C91D1B9D4315EAC41FF8D013F08B
:10051000FF0102F8011B0DD01B0AF8E711F8013B9F
:10052000002B02F8013B05D011F8013B002B02F82B
:10053000013BF3D130BD10B5431C02E010F8011BA4
:1005400071B18107FAD14FF0013202C88C1A8C4385
:1005500014EAC211F9D0C01A0A0603D0C01E10BD99
:10056000C01A10BD0A0401D0801E10BD0902FCD0C3
:10057000401E10BD10B5203AC0F00B80B1E81850F5
:10058000203AA0E81850B1E81850A0E81850BFF47D
:10059000F5AF5FEA027C24BFB1E81850A0E818501C
:1005A00044BF18C918C0BDE810405FEA827C24BF70
:1005B00051F8043B40F8043B08BF7047D20728BFFE
:1005C00031F8023B48BF11F8012B28BF20F8023B4D
:1005D00048BF00F8012B70474FF0000200B51346EA
:1005E00094469646203922BFA0E80C50A0E80C5053
:1005F000B1F12001BFF4F7AF090728BFA0E80C5004
:1006000048BF0CC05DF804EB890028BF40F8042BFC
:1006100008BF704748BF20F8022B11F0804F18BF69
:1006200000F8012B704700004FF0013C50F8042BFC
:1006300051F8043B9A4215D1A2EB0C03934313EA01
:10064000CC130BD150F8042B51F8043B9A4209D13A
:10065000A2EB0C03934313EACC13E7D04FF0000056
:10066000704700BFD01A01BAB1FA81F101F0180148
:1006700022FA01F0CB40C1F12001DBB2C0B2C01AB6
:100680002CFA01F3D11A914311EAC311E6D1704754
:10069000704770477047754600F02CF8AE4605006D
:1006A0006946534620F00700854618B020B5FFF78D
:1006B00071FEBDE820404FF000064FF000074FF0FC
:1006C00000084FF0000B21F00701AC46ACE8C00970
:1006D000ACE8C009ACE8C009ACE8C0098D46704779
:1006E00010B50446AFF300802046BDE81040FFF788
:1006F0003CBE000000487047D40901200149182081
:10070000ABBEFEE7260002007047FEE7014800F09E
:1007100015B900005C060020704772B6FEE7F0B520
:10072000D1E90843CD690A68C2B10268254322F4C1
:10073000F84213431D430560D1E90125D1E9033691
:100740004C692A434568334389691A43EB0B2243BA
:10075000DB030A431A4342600020F0BDD1E9012EB9
:10076000D1E9036CD1E9057142EA0E0246EA0C06B2
:1007700032433A430A4301682A4322431A436FF340
:100780000E010A430260E7E7426943F6FE739A43AB
:1007900042EA410141610020704770B591E81C00B8
:1007A000C9686FF01F0506691A4305EB441444EA53
:1007B00041210A4306EA45431A430261002070BD05
:1007C0002DE9F04F8B8A6FF00F05264C4FF07F4BD1
:1007D000D1F80C9004EB03536FF0FF044FEA042AA6
:1007E0001AB386684FEA09321F4FA2F580521A43A6
:1007F0003E4032438260D1E900278E68521E05EBED
:1008000007150F8A2A43C56804EB06240E7E0AEBFF
:10081000074322431A430BEB06610A4305F070437A
:100820001A43C2600020BDE8F08F91E804110F4E1A
:10083000521E0F8A05EB08152A4304EB0C2C06EB1D
:1008400009350E7E42EA0C022A4385680AEB07440A
:1008500022431A430BEB06610A4305F070431A4327
:100860008260DFE70000F0FFFF0F0FFF00F0FFFFE7
:1008700070470000F0B590F86020012A22D0C1EB4B
:10088000C102012780F86070022380F8613000EB1C
:100890008202284D138F168EB2F83CC0D46A1B0515
:1008A000283244EA064643EA4C530A2C46EA030639
:1008B0000AD0092C08D0137B46EA036349B10B2CFC
:1008C0001AD01DE00220F0BDD36803F07F4333430C
:1008D000F4E701684C6AAC431C434C62016813683E
:1008E0008B6151680A2901D009291BD1D16802689E
:1008F00021F07F41916215E0118B0F4D43EA814356
:100900000168CC69AC431C43CC61016813680B617E
:1009100051680A2901D0092904D1D168026821F05F
:100920007F411162002180F8617080F860100846F4
:10093000F0BD00000F0033FF0F003FFF2DE9F0472F
:100940000446006800274FF004084FF0010946688C
:100950000568F10714D0E90512D5036823F4807304
:100960000360606E40F0010060662068C0F8089087
:1009700084F8618084F86070616A09B12046884714
:10098000B00615D5A80413D520682022036823F4E7
:100990000053036020688260606E40F00200606671
:1009A00084F8618084F86070616A09B120468847E4
:1009B000300715D5280513D520680822036823F4CD
:1009C0000063036020688260606E40F0040060662F
:1009D00084F8618084F86070616A09B120468847B4
:1009E00070070CD568050AD52068026822F4806279
:1009F00002602068C0F80880204600F071F8B00757
:100A000013D5A80511D520680222036823F40073CA
:100A1000036020688260606E606684F8619084F88C
:100A20006070216A09B120468847F00612D5E804B3
:100A300010D52068016821F48051016022681021DE
:100A40009160616E616684F86190204684F8607000
:100A5000FFF70EFFBDE8F0872DE9F041040004D058
:100A600094F86100002518B107E00120BDE8F0818D
:100A7000204684F8605000F035F8184E022084F8C3
:100A800061000123D4E90010D4F81CC040F2071221
:100A90000F6840EA0C003740384308602068A769B7
:100AA000A168466B39439643314341632068E2684D
:100AB000016C6FF30F01114301642068218AA28A3F
:100AC000466B090541EA425126F440121143416345
:100AD000656684F861300020C8E70000BFFFF8FFBA
:100AE0007047000008B500680B49884212D10B48D6
:100AF000016841F01001016000680022114600F019
:100B0000100000905A2000F0FDFDBDE808405A207A
:100B100000F0EABD08BD000000100052D4440258A5
:100B200070B5044600F0BAF90546601C02D00448CE
:100B30000078044400F0B2F9401BA042FAD370BD23
:100B400008000020F0B5B9B014216846FFF744FD55
:100B50003848016800296AD101210160C82106A82E
:100B6000FFF73AFD002018904FF080710446CDE960
:100B7000061006A800F03AFE08B1FFF7CEFD2E4899
:100B8000016841F4805101600068022502AA6946AB
:100B900000F48050059040F2FF60CDE90005032687
:100BA00026480C2782E8D00000F056F802AA4FF63B
:100BB0008370CDE900052248694682E8D00000F044
:100BC0004BF84FF47F40694602AACDE900051D4865
:100BD00082E8D00000F040F802AA48F23310CDE9D4
:100BE00000051948694682E8D00000F035F802AAED
:100BF0004CF20370CDE900051448694682E8D00044
:100C000000F02AF802AA4FF63F00CDE9000510488F
:100C1000694682E8D00000F01FF80D20694602AA5C
:100C2000CDE900050B4882E8D00000F015F839B096
:100C3000F0BD000000000020D444025800200258FB
:100C400000100258001C025800180258000C0258EC
:100C500000140258000802582DE9F84F03247D4D76
:100C600000234FF001094FF0B04B4FF00F0AE9E0BD
:100C700009FA03F73A4076D00E7906F00306012E02
:100C800001D0022E18D1D0F808C04FEA430ECE682A
:100C900004FA0EF82CEA080C06FA0EF646EA0C06E0
:100CA0008660D0F804C00E792CEA070CC6F3001653
:100CB0009E4046EA0C0646600E79F643B6070BD016
:100CC000C6684FEA43088F6804FA08FC26EA0C0657
:100CD00007FA08F73743C7600E7906F00306022EBD
:100CE00012D1DE080F694FEA437C00EB8606B64658
:100CF000366A4FEADC6C0AFA0CF807FA0CF726EAB7
:100D000008063743CEF820700F7906684FEA43088B
:100D100007F0030704FA08FC07FA08F726EA0C06AE
:100D2000374307604E6816F4403F1CD04A4E376880
:100D300047F00207376036689F0706F00206009604
:100D400023F0030606F1B046B6463F0FD6F8086416
:100D5000DFF808810AFA07FC404526EA0C0603D1B1
:100D60004FF0000C41E06CE0DFF8F4C0604502D1C8
:100D70004FF0010C39E0DFF8ECC0604502D14FF0D4
:100D8000020C32E0DFF8E0C0604502D14FF0030C06
:100D90002BE0DFF8D8C0604502D14FF0040C24E00E
:100DA000DFF8CCC0604502D14FF0050C1DE0DFF844
:100DB000C4C0604502D14FF0060C16E0DFF8B8C0A1
:100DC000604502D14FF0070C0FE0DFF8B0C060457E
:100DD00002D14FF0080C08E0DFF8A4C0604502D152
:100DE0004FF0090C01E04FF00A0C0CFA07FC4CEA3A
:100DF000060CCEF808C44F68DBF80060FF0226EA54
:100E0000020600D516435F46CBF80060D1F804C057
:100E1000DBF804605FEA8C2C26EA020600D5164354
:100E20007E606E684F6826EA0206BF0300D516434F
:100E30006E602E684F6826EA0206FF0300D516434F
:100E40002E605B1C0A6832FA03F67FF411AFBDE82E
:100E5000F88F000080000058F44402580000025847
:100E60000004025800080258000C025800100258F2
:100E70000014025800180258001C025800200258A2
:100E8000002402580AB1816170470904FBE70000A1
:100E900001480068000C70470010005C0148806841
:100EA000704700000800002030B590F84120202A4B
:100EB00024D190F84020012A20D0012380F840302E
:100EC000242280F84120202300240268156825F0A0
:100ED000010515600268156825F4805515600268E3
:100EE00015680D43156001680A6842F001020A6046
:100EF00080F8413080F84040002030BD022030BDF5
:100F000030B590F84120202A22D190F84020012AC3
:100F10001ED0012380F84030242280F84120202474
:100F200000250268136823F0010313600268136848
:100F300023F4706343EA0121116001680A6842F0FA
:100F400001020A6080F8414080F84050002030BD26
:100F5000022030BD70B5040004D094F84100002593
:100F600010B106E0012070BD204684F8405000F02A
:100F7000F9F8242084F841002068016821F001017B
:100F80000160D4E9001020F0706008612068816879
:100F900021F400418160E06821680128A06806D042
:100FA00040F404408860E068022803D006E040F482
:100FB0000040F7E721684FF4006048602021206876
:100FC000114A4368134343602068C26822F4004218
:100FD000C26054F8106B0DCC104340EA0320F0605F
:100FE00054F81C3CD4E900021043186054F81C0D5E
:100FF000026842F001020260656484F841102563D2
:1010000084F84250002070BD008000022DE9FF4F9F
:1010100083B0044690F841009A469346DDE9108774
:10102000DDF84890202871D15FEA080014D09FB104
:1010300094F84000012869D0012084F84000FFF7AF
:101040002DFF0122064619230090D103204601F00E
:10105000A1FE00286ED103E04FF40070606469E0E7
:101060000025C4F82480212184F84110402084F810
:10107000420065646785534665635A460499204675
:10108000CDE9009601F03CFE10B184F8405051E0EB
:10109000608DFF274FF08078FF284FF0007A04D949
:1010A00027853A464346009505E0608D53462085E6
:1010B000009594F828202046049901F053FE32460A
:1010C0004946204601F0C9FEA0BB606A216800784D
:1010D0008862606A401C6062608D401E6085208D61
:1010E000401E80B22085618DD9B1D0B900224B4617
:1010F00080212046009601F04DFED8B9608DFF2872
:1011000005D927853A464346009506E026E0608DDE
:1011100053462085009594F828202046049901F034
:1011200021FE608D0028CAD132464946204601F092
:1011300068FE18B1012007B0BDE8F08F20682021BB
:10114000074AC161206843681340436084F8411036
:1011500084F84250002084F84050ECE70220EAE78F
:1011600000E800FE10B5B8B00446142132A8FFF71D
:1011700033FAC8216846FFF72FFA184920688842D9
:101180002AD10020229008210446CDE900106846AB
:1011900000F02CFB08B1FFF7C0FA1148016841F0DC
:1011A00080010160006832AB122100F080003790AE
:1011B0003020042283E813000A4832A9CDE93542E1
:1011C000FFF74AFD06480830016841F480010160DC
:1011D000006800F48000379038B010BD005800401F
:1011E000E0440258001C0258024881680278114409
:1011F0008160704708000020032010B500F0A2FABB
:1012000001F012F90F4A104914681368C4F303225D
:1012100003F00F038A5CC95C02F01F0201F01F019A
:10122000D0400A4A20FA01F11160094908600F20F4
:1012300000F010F808B1012010BD00F047FA0020BE
:1012400010BD0000184402588891020818000020C0
:101250001400002070B50D4D04462878A0B14FF45D
:101260007A71B1FBF0F00A490968B1FBF0F001F0C6
:1012700099FC48B9102C07D200222146501E00F0DC
:1012800041FA00206C6070BD012070BD0800002094
:10129000140000202DE9F041044690F8A000164605
:1012A0000F4601281DD0012584F8A050022084F8A3
:1012B000A10006EB860000EBC600342204EB8000A0
:1012C0003830FFF757F932463946204601F0FAFD2B
:1012D000216800204D6284F8A15084F8A000BDE888
:1012E000F0810220FBE770472DE9F04104460068D9
:1012F00000274FF00408856B466B690715D5710709
:1013000013D5426B22F0040242632068C0F83C808F
:10131000D4F8A40040F00100C4F8A40084F8A1802F
:10132000204684F8A070FFF7DEFFA80716D5B007A7
:1013300014D520680222436B23F002034363206824
:10134000C263D4F8A40040F00200C4F8A40084F8FA
:10135000A180204684F8A070FFF7C5FF05EA0600CB
:101360004FF00108C0070ED021684A6B22F001023D
:101370004A632168C1F83C8084F8A180204684F843
:10138000A07000F091F8280710D530070ED520681E
:101390000822436B23F0080343632068C26384F888
:1013A000A180204684F8A07000F08EF9BDE8F0819D
:1013B0002DE9F041040004D094F8A100002518B1F3
:1013C00007E00120BDE8F081204684F8A05000F03D
:1013D00073F83448022184F8A110012202CC8B69F1
:1013E00023F070438B6194E84A001943E3681E437D
:1013F00054F8043D31439E693143996121688B68FB
:1014000003408B602168A68AA7698B683B4343EA47
:1014100006438B602168CB680340CB602168A38BB7
:10142000276ACE683E4346EA0346CE6021680B69D0
:1014300003400B612368A68CA76A1969394341EA06
:101440000641196121684B6903404B612068A38DF7
:10145000266B4169314341EA03414161236894F8B5
:10146000351094F83600DE6A000406F07F46DE622E
:10147000236840EA012094F83460D96A314301437B
:10148000D9622068416B41F006014163206881699F
:1014900041F001018161C4F8A45084F8A12000202A
:1014A00090E7000000F800F001684A6A42F001028B
:1014B0004A62002100F0E6B82DE9F04FB9B00446C9
:1014C00014216846FFF788F8C82106A8FFF784F8BA
:1014D0006249206888427DD10DF140080021022434
:1014E0000D461922A02388E81C004004139404260A
:1014F000CDE914610715CDE90601CDE9167106A8FD
:1015000000F074F908B1FFF708F95548016841F097
:1015100008010160006800F0080005905048001FB5
:10152000016841F480610160016801F48061059106
:10153000016841F040010160016801F0400105913E
:10154000016841F400710160016801F400710591C6
:10155000016841F008010160016801F0080105918E
:10156000016841F001010160016801F0010105918C
:10157000016841F480710160016801F48071059196
:10158000016841F004010160006803260E276946E6
:1015900000F004000590F9208DE8F1003148FFF7D4
:1015A0005BFB4FF480614FF009088DE87201DFF8B2
:1015B000B89069464846FFF74FFB48F61420DFF81D
:1015C000ACB08DE8F10069465846FFF745FB0820AE
:1015D000694600E03FE08DE8F1002548FFF73CFB5D
:1015E0004FF4907069468DE8F1002248FFF734FB14
:1015F0004FF40060DFF880A08DE871016946504625
:10160000FFF72AFB402069468DE8F1001B48FFF7F1
:1016100023FB802069468DE8F1004846FFF71CFB5C
:101620004FF4005069468DE8F1005046FFF714FB77
:10163000012158468DE872016946FFF70DFB002233
:101640005820114600F05EF8582000F04DF80C4884
:10165000002100F017F839B0BDE8F08F00100050FD
:10166000E444025800280258001802580024025886
:10167000000C0258000002580020025800080258CE
:101680005C07002070B590F8A020012A18D00D4DFD
:10169000012380F8A030022280F8A120002450F815
:1016A000A02B566B26F001065663296450F8A01C47
:1016B0004A6B42F001024A6343700470204670BDD9
:1016C000022070BD0010005070470000054808B5AA
:1016D000016841F002010160006800F00200009022
:1016E00008BD0000F4440258002809DB410900F05D
:1016F0001F028900012001F1E0219040C1F80001A2
:10170000704700000E4BF0B41B680D46C3F3022374
:10171000C3F10706042E00D90426191D072901D29A
:10172000002300E0DB1E012404FA06F19C40491E60
:101730002940641E994014402143F0BC02F085B852
:101740000CED00E0064900F0070210B54FF6FF046B
:101750000868044B204040EA02201843086010BD8E
:101760000CED00E00000FA052DE9F0411E4C0546A5
:10177000206800F007000628206804D000F03F0031
:10178000A84228D12EE020F03F0028432060FFF738
:1017900085FB154F4FF47A780646083F05E000BFF9
:1017A000FFF77CFB801B404515D83868C043800498
:1017B000F6D41E2D05D02E2D03D01D2D01D02D2D9C
:1017C00010D1FFF76BFB0546464607E0FFF766FBC7
:1017D000401BB04202D90120BDE8F0812068C0431F
:1017E000C003F3D40020F7E70C4802582DE9FE4F60
:1017F0000546DFF8E89350F8081B0024F74FC9436B
:10180000009005F12800264609F1240901900801FD
:101810001DD4E86E50B1B0F5801F0CD0B0F5001F9C
:101820000ED0B0F5401F1ED001240FE0386840F400
:101830000030386017E00098022101F0BBFD03E0A2
:101840000198022101F046FE04000CD026462888AB
:10185000C043C00523D4E86D05281ED2DFE800F0A0
:101860000C11161B1B00EA6ED9F8001021F4401170
:101870001143C9F80010EAE7386840F400303860D6
:1018800009E00098002101F095FD03E00198002196
:1018900001F020FE044674B100E0012426462888A9
:1018A000C043800528D4286E80281ED00CDC90B15F
:1018B00040280ED114E0EA6DD9F8001021F007019C
:1018C0001143C9F80010EAE7C02813D0B0F5807FB3
:1018D00010D001240FE0386840F40030386009E08F
:1018E0000098002101F066FD03E00198002101F05D
:1018F000F1FD04469CB126462888DFF8E082C0430B
:1019000008F12C0840052CD4D5F8AC00B0F5800FB8
:1019100020D00DDCA0B1B0F5001F0FD115E02A6E6C
:10192000D9F8001021F4E0711143C9F80010E3E781
:10193000B0F5C00F13D0B0F5000F10D001240FE0A8
:10194000386840F40030386009E00098002101F068
:1019500031FD03E00198002101F0BCFD04467CB19B
:1019600026462888C04300052DD4D5F8B000B0F134
:10197000007F21D00EDCA8B1B0F1807F10D116E03D
:10198000D5F8AC20D8F8001021F460011143C8F854
:101990000010E6E7B0F1407F13D0B0F1806F10D0B7
:1019A00001240FE0386840F40030386009E0009806
:1019B000002101F0FFFC03E00198002101F08AFD05
:1019C000044694B126462868DFF810B2C0430BF1F4
:1019D000200B80011FD4E86CD8B110280FD020282C
:1019E00012D0302815D0012414E0D5F8B020D8F852
:1019F000001021F0E0611143C8F80010E3E73868F7
:101A000040F40030386004E00098022101F0D2FC7C
:101A1000044674B126462888C043C0042BD4686E9F
:101A2000B0F5005F20D00DDCA0B1B0F5805F0FD124
:101A300015E0EA6CDBF8001021F030011143CBF81F
:101A40000010E8E7B0F5405F13D0B0F5804F10D03C
:101A500001240FE0386840F40030386009E0009855
:101A6000002101F0A7FC03E00198002101F032FD04
:101A700004468CB126462888C043800429D4A86E29
:101A8000B0F5403F23D010DC08B3B0F5803F14D050
:101A9000B0F5003F0FD115E06A6ED9F8001021F4BF
:101AA000E0411143C9F80010E5E7B0F5802F0ED0F2
:101AB000B0F5A02F0BD001240AE00098012101F01D
:101AC00079FC03E00198012101F004FD044694B182
:101AD00026462888C04340042AD4D5F8B400B0F183
:101AE000405F23D010DC08B3B0F1805F14D0B0F1B8
:101AF000005F0FD115E0AA6ED9F8001021F4E021A3
:101B00001143C9F80010E4E7B0F1804F0ED0B0F1F6
:101B1000A04F0BD001240AE00098012101F04AFCFB
:101B200003E00198012101F0D5FC04465CB1264692
:101B30002868C043400117D4286D98B1B0F5807F64
:101B40000BD001240FE0D5F8B420D8F8001021F014
:101B5000E0411143C8F80010EAE70098012101F0C4
:101B600029FC044674B126462888C04300041ED4CC
:101B7000686FD0B1B0F1805F0DD0B0F1005F0FD0D1
:101B8000012413E02A6DDBF8001021F48071114369
:101B9000CBF80010E8E7386840F40030386004E023
:101BA0000098012101F006FC044674B1264628681D
:101BB000C043C00120D4A86CE0B1012810D0022895
:101BC00013D0032816D0012415E06A6FD9F800104D
:101BD00021F040511143C9F80010E8E72C440258A5
:101BE000386840F40030386004E00098022101F0C9
:101BF000E1FB04466CB126462868C04340024DD440
:101C0000FA48016841F480710160FFF747F98246A4
:101C10000EE0AA6CDBF8001021F003011143CBF8B1
:101C20000010E9E7FFF73AF9A0EB0A00642833D87F
:101C3000EE480068C005F5D57CBBDFF8B4A3B5F865
:101C4000B810DAF8000001F4407100F440708842E6
:101C500011D0DAF80010DAF8002021F4407142F4D3
:101C60008032CAF80020DAF8002022F48032CAF864
:101C70000020CAF80010D5F8B800B0F5807F1AD15E
:101C8000FFF70CF9029012E0FFF708F90299411AE8
:101C900041F2883081420AD9032426462878DFF8A9
:101CA00050A3C043AAF11C0AC00721D03DE0DAF8D6
:101CB00000008007E8D5D5F8B810C1F3012003284B
:101CC000CC480DD0016821F47C510160B5F8B820F2
:101CD000DAF80010C2F30B021143CAF80010DDE776
:101CE000C54A036802EA111223F47C511143ECE760
:101CF000D5F88000182816D005DCA0B1082808D037
:101D0000102804D10AE020280DD028280BD0012467
:101D10000AE00098012101F04DFB03E00198012148
:101D200001F0D8FB044664B126462878C0438007FA
:101D30001FD4E86F06281AD2DFE800F0170D12173B
:101D40001717D5F88020DAF8001021F03801114378
:101D5000CAF80010E9E70098012101F02BFB03E02D
:101D60000198012101F0B6FB04467CB100E001249A
:101D700026462878C04340071FD4D5F89800062887
:101D800019D2DFE800F0160C11161616EA6FDAF811
:101D9000001021F007011143CAF80010E9E700988C
:101DA000012101F007FB03E00198012101F092FB02
:101DB0000446A4B100E0012426462878C0438006EA
:101DC0002BD4D5F89400B0F1405F24D011DC10B3CF
:101DD000B0F1805F15D0B0F1005F10D116E0D5F8FA
:101DE0009820D8F8001021F007011143C8F800101E
:101DF000E3E7B0F1804F0ED0B0F1A04F0BD001243B
:101E00000AE00098002101F0D5FA03E001980221D0
:101E100001F060FB044694B126462878C043400692
:101E20002BD4D5F8A000B0F5406F24D011DC10B34E
:101E3000B0F5806F15D0B0F5006F10D116E0D5F871
:101E40009420DAF8001021F0E0411143CAF80010A4
:101E5000E3E7B0F5805F0ED0B0F5A05F0BD00124B2
:101E60000AE00098002101F0A5FA03E001980221A0
:101E700001F030FB044694B126462878C0430006A2
:101E80002BD4D5F8A400B0F5C04F24D011DC10B38A
:101E9000B0F5005F15D0B0F5804F10D116E0D5F841
:101EA000A020D8F8001021F4E0511143C8F8001028
:101EB000E3E7B0F5004F0ED0B0F5204F0BD0012472
:101EC0000AE00098002101F075FA03E00198022170
:101ED00001F000FB044654B126462878C0430007B1
:101EE0001ED4D5F88800B0F5805F0AD00FE0D5F891
:101EF000A420D8F8001021F460411143C8F8001064
:101F0000EBE70198022101F0E5FA00B10126D5F8CE
:101F10008820DAF8001021F440511143CAF800106B
:101F20002878C043C00613D4D5F89C00B0F5807F54
:101F300005D10198022101F0CDFA00B10126D5F8B2
:101F40009C20D8F8001021F440711143C8F800100B
:101F50002868C043000316D4D5F8A80038B1B0F5FE
:101F6000803F09D0B0F5003F0BD001240AE0009873
:101F7000002101F01FFA03E00198022101F0AAFA02
:101F800004468CB126462868C043400322D4D5F8C5
:101F90008C00B0F5801F11D0B0F5001F13D0B0F544
:101FA000401F15D0012414E0D5F8A820D8F800105F
:101FB00021F440311143C8F80010E4E7386840F4D8
:101FC0000030386004E00198012101F083FA0446F2
:101FD000A4B126462868C043C00325D4686DB8B1B3
:101FE000B0F5803F19D001241DE0000000480258E0
:101FF0007044025810440258CFFFFF00D5F88C20DF
:10200000DAF8001021F440111143CAF80010E1E79A
:10201000386840F40030386004E00098022101F094
:10202000C9F90446E4B126462868C043800005D4B7
:102030000198022101F04EFA00B101262868C04340
:1020400080031CD4D5F88400B8B1B0F5807F10D0DF
:10205000B0F5007F11D0B0F5407F0ED001240DE027
:102060006A6DDBF8001021F480311143CBF80010C9
:10207000DAE7386840F400303860E4B32646286870
:10208000C043C00207D4AA6FD9F8001021F0004164
:102090001143C9F800102868C043C00007D44A485B
:1020A000D5F8BC20016821F4804111430160286803
:1020B000C043800207D42A6FD9F8001021F0807144
:1020C0001143C9F800102868C043400009D43E48B5
:1020D000016821F4004101600168D5F8C020114376
:1020E00001602868C04309D4AA6DDBF8001021F014
:1020F0004051114300E016E0CBF800102868C043BF
:10210000000208D4D5F89020DAF8001021F440013C
:102110001143CAF8001028790024C04300F00100E0
:1021200020430AD00FE0D5F88420DAF8001021F41B
:1021300040711143CAF80010A1E70098002101F096
:1021400039F900B106462879C04300F00200204367
:1021500005D10098012101F02DF900B1064628793A
:10216000C04300F00400204305D10098022101F093
:1021700021F900B106462879C04300F00800204349
:1021800005D10198002101F0A5F900B10646287992
:10219000C04300F01000204305D10198012101F057
:1021A00099F900B106462879C04300F020000443A5
:1021B00004D10198022101F08DF900B916B1012076
:1021C000BDE8FE8F0020FBE7104402582DE9F05FC8
:1021D00004000F467ED0DFF83882D8F8000000F007
:1021E0000F00B8420CD2D8F8001021F00F0139438B
:1021F000C8F80010D8F8000000F00F00B84269D10C
:102200002078844D40070AD52069296801F07001C3
:10221000884204D9296821F070010143296020789F
:102220007C4E361D00070AD56069316801F07001E7
:10223000884204D9316821F070010143316020786F
:10224000C0060AD5A069316801F4E061884204D96A
:10225000316821F4E061014331602078DFF8B4B1E6
:1022600080060BF1080B0CD5E1695846DBF800201D
:1022700002F07002914204D9026822F070020A430F
:102280000260207880070AD5E068296801F00F0114
:10229000884204D9296821F00F0101432960207880
:1022A000C0073ED05B49A2682868183920F47060E6
:1022B000104328606068022818D0032819D00968E4
:1022C000012819D0490700294ADADFF848A1AAF104
:1022D000080A00E044E0DAF8002022F00702024396
:1022E000CAF80020FEF7DAFD814612E0096889038A
:1022F000E9E709688901E6E7C905E4E7FEF7CEFDED
:10230000A0EB090141F28830814202D90320BDE8E7
:10231000F09F6168DAF8000000F03800B0EBC10F00
:10232000ECD1207880070AD5E068296801F00F0118
:10233000884204D2296821F00F0101432960D8F8AE
:102340000010404601F00F01B9420BD9016821F09D
:102350000F0139430160006800F00F00B84201D05E
:102360000120D4E7207840070AD52069296801F0C8
:102370007001884204D2296821F07001014329606C
:10238000207800070AD56069316801F07001884241
:1023900004D2316821F07001014331602078C00619
:1023A0000AD5A069316801F4E061884204D231683D
:1023B00021F4E06101433160207880060CD5E169A9
:1023C0005846DBF8002002F07002914204D2026805
:1023D00022F070020A43026000F026F80E492A68D3
:1023E0002B68C2F3032203F00F038A5CC95C02F07E
:1023F0001F0201F01F01D040084A20FA01F11160CC
:102400000749086007480068BDE8F05FFEF722BF93
:102410000020005218440258889102081800002039
:10242000140000200C000020454970B5454809689B
:10243000434B103B11F0380208D00111082A03D099
:10244000102A0BD0182A0BD0084670BD19688906CF
:10245000FBD51968C1F3C101C84070BD3A4870BDD1
:102460003749374D18310C1D24350A68096826682C
:102470002D6802F0030406F00102C1F30511C5F353
:10248000CC0515FB02F200EE102AB8EE400AE9B3C3
:102490002F4ADFED2E0AB7EE001A6CB1DFED2D1AD0
:1024A000012C01D0022C43D002EE101A1068F8EE75
:1024B000422A81EEA22A1EE01C68A40611D51B68E0
:1024C00001EE901A1168C3F3C103F8EE612AD840F7
:1024D00001EE900AC1F30800F8EE611A81EEA22A1B
:1024E0000BE001EE901ADFED1C2A00BFF8EE611A36
:1024F000106882EEA12AC0F3080001EE900AF8EEFF
:10250000611A40EE201A31EE810A00E015E022EE59
:10251000000A1068C0F34620401C00EE900AF8EE56
:10252000600A80EE201ABCEEC10A10EE100A70BDDF
:1025300001EE901ADFED092AD8E7002070BD0000F7
:10254000104402580090D00340787D01000000390B
:10255000304402580024744A0024744C20BCBE4B02
:102560002DE9F05F04007DD0FF4F2078FE4D183735
:10257000DFF8F493103DC00748D0D9F8000039685F
:1025800000F03800102815D0182803D101F00300FE
:1025900002280FD06068B0F5803F12D010B1B0F5BE
:1025A000A02F18D0286820F480302860286820F4F4
:1025B000802009E02868800328D560680028D2D0F0
:1025C00024E0286840F480302860606888B1FEF715
:1025D00065FC064609E0286840F480202860F0E7A2
:1025E000FEF75CFC801B64286FD828688003F7D551
:1025F0000CE0FEF753FC064605E000BFFEF74EFC7C
:10260000801B6428F0D828688003F7D4207841F232
:102610000308D54E0C3E800769D5D9F8000039680B
:1026200010F038000ED0182801D188070AD0E068D1
:1026300090B3296821F0190101432960FEF72EFCAF
:10264000824631E02868400702D5E06800288AD039
:10265000E168286820F0190008432860FEF71EFC96
:10266000824607E0DFE000BFFEF718FCA0EB0A009F
:102670000228B9D828684007F6D500BFFEF708FC45
:1026800040451BD82069402812D0316821F47C31A4
:1026900041EA003030602AE018E000BFFEF7FEFBA0
:1026A000A0EB0A0002289FD828684007F6D5E5E786
:1026B000306820F47C3040F40030EBE7207C316857
:1026C00021F0FE4141EA0060E4E70DE1286820F0D6
:1026D00001002860FEF7E2FB824605E0FEF7DEFB24
:1026E000A0EB0A0002288DD828684007F6D420788D
:1026F000C0065DD5D9F80000DFF86CB2396800F08B
:102700003800ABF1040B082810D0182803D101F0D1
:10271000030001280AD0E0690028286838D040F07A
:1027200080002860FEF7BAFB824623E02868C005D7
:1027300023D5E069802876D11FE0206A202821D0A7
:10274000316821F0F84141EA8060306030E000BF3C
:1027500094F82010DBF8002022F07C5242EA01615C
:10276000CBF8001024E000BFFEF798FBA0EB0A00B6
:10277000022898D82868C005F6D5FEF789FB4045A1
:10278000E6D8DAE7306820F0F84040F08040DCE737
:1027900020F080002860FEF781FB064605E000BFC0
:1027A000FEF77CFB801B02289DD82868C005F7D463
:1027B0002078000729D56C4861696430002980467B
:1027C000016811D041F001010160FEF767FB064688
:1027D00005E000BFFEF762FB801B0228C9D8D8F8CD
:1027E00000008007F6D510E021F001010160FEF73E
:1027F00055FB064605E000BFFEF750FB801B022894
:1028000072D8D8F800008007F6D42078800623D547
:10281000A0690028286810D040F480502860FEF796
:102820003DFB064605E036E1FEF738FB801B02283B
:102830005AD828688004F7D50EE020F4805028602C
:10284000FEF72CFB064604E0FEF728FB801B02285F
:102850004AD828688004F7D4207840074FD5DFF89D
:102860000C81D8F8001041F48071C8F80010FEF710
:1028700015FB064605E000BFFEF710FB801B642831
:1028800032D8D8F80000C005F6D5374EA0686036BB
:1028900001280AD008B1052813D0306820F00100C3
:1028A0003060306820F0040002E0306840F0010041
:1028B0003060A06841F2883A90B1FEF7EFFA8046A6
:1028C0000AE0306840F004003060EEE7FEF7E6FA18
:1028D000A0EB0801514507D830688007F6D50EE017
:1028E000FEF7DCFA804607E084E000BFFEF7D6FA88
:1028F000A0EB080151457DD830688007F6D4606AA6
:10290000B0B3DFF86480D9F8001008F120084FF662
:10291000F87B08F10409C1F3C2010329A8F1040AF4
:1029200069D00228286820F08070286003D0FEF764
:10293000B5FA044684E0FEF7B1FA064605E000BFAA
:10294000FEF7ACFA801B022877D828688001F7D4FC
:10295000E26A40F2F331386854F8283F884340EA8D
:1029600002101843386004E010440258004802582E
:10297000B5E0217B434622894FF4FE0C208A4FF0BC
:10298000FE474902267D521E401EA1F50071C2F38A
:1029900008088AB2761E0CEA004042EA08020243A6
:1029A000504607EA06610A431A60DAF8002022F06E
:1029B0000102CAF80020D9F80020266A22EA0B0298
:1029C00042EAC602C9F80020DAF80010A26921F034
:1029D0000C011143CAF800100168E26921F00201FC
:1029E00011430160016841F480310160016841F4E4
:1029F000003101E021E027E00160016841F480211D
:102A00000160016841F001010160286840F08070B8
:102A10002860FEF743FA044605E000BFFEF73EFAE1
:102A2000001B022809D828688001F7D557E000BFAD
:102A3000FEF734FA001B022802D90320BDE8F09FFC
:102A400028688001F4D44AE039680128D8F80000E9
:102A500021D0A26A01F0030393421CD1E26AC1F3C0
:102A600005118A4217D1216BC0F30802491E8A4220
:102A700011D1616BC0F34622491E91420BD1A16B6B
:102A8000C0F30642491E914205D1E16BC0F30660D6
:102A9000491E814201D00120D0E7A16C4E46D9F8F1
:102AA0000000C0F3CC00814219D0DAF8000055468E
:102AB00020F00100CAF80000FEF7F0F94FEA000725
:102AC000FEF7ECF9B842FBD0A26C306820EA0B00AC
:102AD00040EAC2003060286840F001002860002011
:102AE000ACE7000070B504000D4603D094F82C004C
:102AF00010B107E0012070BD002084F82D002046B1
:102B000000F018F8022084F82C002068211DFDF741
:102B100006FED4E900022946FDF752FE04480121D1
:102B2000026842F00042026084F82C10002070BD60
:102B300000400052FEF706B810B5044690F82C008D
:102B4000022804D094F82C00012801D0012010BDE7
:102B5000022084F82C002068FDF716FE012084F87E
:102B60002C00002010BD000070B5044690F82C0029
:102B70000D46022804D0012803D0052801D00120E9
:102B800070BD022084F82C002068FDF706FE28683E
:102B9000022805D05FF0010084F82C00002070BDF1
:102BA0000520F9E7401EB0F1807F10B501D3012068
:102BB00010BD4FF0E02460610F21601700F045FE6A
:102BC0000020A0610721216110BDFEE701688A692C
:102BD000D243920701D400228A6200688169C94306
:102BE000C90703D0816941F001018161704700008C
:102BF0002DE9F047044600680026894617464FF045
:102C0000200835468169C90641D51021C1612FE0F0
:102C1000B9F1FF3F2CD0FEF741F9C11B494502D85D
:102C2000B9F1000F24D12068426894F842108369FA
:102C300002F48042DB431B0415D4B2F5804F12D05E
:102C4000202910D0416841F480414160FEF726F907
:102C5000074608E0FEF722F9C01B192803D9012610
:102C600045F0200504E020688069C0438006F1D467
:102C700020688069C043800602D5002EC8D003E0DA
:102C800016B92168C1F81C80012645F004052168A9
:102C90008869C20505D54FF48072CA6145F0010507
:102CA000012641050AD5216880054FF4806245F070
:102CB0000805CA614FF0010602D40AE0800507D575
:102CC000206801264FF4007145F00205C16100E063
:102CD0008EB12046FFF77AFF20680021074F436836
:102CE0003B404360606C2843606484F8418084F812
:102CF000421084F840103046BDE8F08700E800FE3E
:102D00002DE9F8430446164817461E46DAB20090ED
:102D1000C3022046DDE9089800F024F842464946FF
:102D2000204600F09AF8B8B9012EFDB208D020680C
:102D3000390A816242464946204600F08EF858B969
:102D400020688562002280214B462046CDF8008015
:102D500000F020F8002800D00120BDE8F883000032
:102D60000020008070B50068C1F3090141EA02410A
:102D7000074D049C19434FF480664268214306EADC
:102D800054532B439A4321F000410A43426070BDE3
:102D9000FF63FF032DE9F0411E4617460D4604462A
:102DA000DDF8188021E0701C1FD0FEF777F8A0EB4B
:102DB0000800B04200D8C6B92068806935EA000032
:102DC00011D00020B84210D1626C002084F840007D
:102DD000202142F02002626484F8411084F842000D
:102DE0000120BDE8F0810120ECE72068806935EA28
:102DF000000004D00020B842D5D00020F1E7012027
:102E0000F9E770B516460D4604461FE032462946DE
:102E10002046FFF7EDFE08B1012070BDFEF73EF839
:102E2000801BA84200D88DB920688069C043800605
:102E30000CD5626C002084F84000202142F0200272
:102E4000626484F8411084F84200E5E720688069F4
:102E5000C0438006DAD4002070BD70B516460D461A
:102E6000044621E0324629462046FFF7C1FE08B15C
:102E7000012070BD681C17D0FEF710F8801BA84217
:102E800000D88DB920688069C04380070CD5626C7A
:102E9000002084F84000202142F02002626484F87F
:102EA000411084F84200E3E720688069C04380074E
:102EB000D8D4002070BD00000148FEF715BA00000C
:102EC0005C0700202DE9FE4F814600688824934668
:102ED0008D888C2204EBCB178A46C3689421BE46AA
:102EE000C459C3F30B432B4404F470441F040197EB
:102EF00002EBCB1240F80E4001EBCB13DAF8007076
:102F00009C214FF0AC0C01EBCB1440F20771029105
:102F10000CEBCB11D9F800C098250020CDF800C0EB
:102F2000A02605EBCB15DCF80CC006EBCB16CCF3DA
:102F30000B4C0CF1010C07EB0C08DDF800C0019FF5
:102F400048EA07084CF80E80D9F80070BAF80CC0AF
:102F5000B846FF68C7F30A0767444FEA074E58F8B8
:102F6000027007F4704C48F802C0D9F800C0DAF8D3
:102F70000870DCF80C80C8F30A0808F10108B844AE
:102F800048EA0E084CF80280D9F80020D75827F0FC
:102F90000707D750D9F80070DAF81020FA509AF8DD
:102FA00031209AF818304FEA022C9AF83220120495
:102FB00042EA0362D9F800301F5918519AF83030AC
:102FC00043EA0C031343D9F800201351D9F8002029
:102FD000535923F0FF035351D9F80020DAF8143085
:102FE0005351D9F800209359029CA3439351D9F827
:102FF0000030DAE9072422439A51D9F800205358C7
:103000005050D9F80020DAF824005050DAF81000B7
:10301000C8B301283AD004283AD0022838D003286F
:1030200036D0072834D00120D9F80030B02505EB80
:10303000CB11B42284245D5802EBCB1205F0E025BD
:103040005D50DAE9003504EBCB14EB1ABAF82850DE
:1030500043434543D9F80000DB1D43EA0543435091
:10306000D9F8000081586FF30A018150D9F80000A7
:10307000DAF82C108150D9F80000015941F0010113
:103080000151BDE8FE8FFFE70420CDE70320CBE729
:103090000220C9E7104800210E4A10B5C0E90021FE
:1030A0008160C16041648164C1640165416581657D
:1030B000C165FDF7D1FC08B1FDF72FFB06480121E2
:1030C000FDF7D8FB002803D0BDE81040FDF725BB75
:1030D00010BD0000001000525C060020F0B587B063
:1030E0001C216846FDF778FA184800220423164D83
:1030F00001264FF0400C2027C0E90052C0E90263CE
:10310000076102214FF4C075C0F814C0C0E906522F
:1031100007248E020662CF02C0E909720325CDE9B9
:103120000014CDE90451CDE9023406916946FFF758
:10313000D9FC08B1FDF7F1FA04490448103900F050
:1031400059FA07B0F0BD000040410052D4060020FB
:10315000F0B587B014216846FDF73EFA4148016892
:1031600041F480710160016801F48071059101688A
:1031700041F480610160016801F48061059101689A
:1031800041F040010160016801F0400105910168D2
:1031900041F010010160016801F010010591016822
:1031A00041F400710160016801F40071059101684A
:1031B00041F008010160016801F008010591016812
:1031C00041F001010160016801F001010591016810
:1031D00041F080010160016801F080010591016802
:1031E00041F004010160016801F0040105910168EA
:1031F00041F020010160016801F0200105910168A2
:1032000041F00201016000680022174E202100F009
:10321000020005903046FDF735FE144F0122402193
:103220003846FDF72FFE0024694601252020009036
:10323000CDE9015430460394FDF70EFD4020009087
:10324000CDE90154694638460394FDF705FD28038E
:103250006946CDE9000406480294FDF7FDFC07B07D
:10326000F0BD0000E044025800240258001C02583F
:1032700000040258214838B51F490024204A012380
:1032800080E81600C0E9033444618461C4610462CB
:10329000FDF760FE08B1FDF740FA18480021FDF780
:1032A00003FE08B1FDF739FA14480021FDF728FEA6
:1032B00008B1FDF732FA134801222021FDF7E2FDA3
:1032C0000122694600208DF8004009F0BDF8012276
:1032D0006946A42009F0B8F80C24694601228DF84B
:1032E0000040802009F0B0F80122694688208DF85E
:1032F000004009F0A9F838BD005800400807002038
:10330000B175703000240258F0B58DB03421684694
:10331000FDF762F924480024224B072100F1180E22
:1033200040F2A745A72240F26926036011234460BA
:1033300040F24757846040F27D2CC460C0E90441EC
:103340008EE8EE1080F8344080F8354080F8364042
:10335000FEF72EF808B1FDF7E0F94FF480604FF466
:10336000167107AF022604960522CB06CDE9004070
:10337000CDE9024187E80D00CDE90A01FF250A48A1
:10338000CDE905548DF8304000228DF83140694672
:103390008DF83240FDF77EFF002801D0FDF7BDF922
:1033A0000DB0F0BD001000505C070020FEE7FEE706
:1033B000704700002DE9F047454D044689464FF01F
:1033C000000A2868C04380070AD0414E283E306872
:1033D00020F080603060FDF761FD0746B04608E0F0
:1033E0000120BDE8F08700BFFDF758FDC01B022893
:1033F00067D8D8F800000001F6D4206829684FF497
:10340000FE0721F47C313E0241EA00302860207A38
:10341000A389B4F804C040022D4D2D495B1E227CC7
:10342000ACF1010C1035091DA0F5007080B2521EE0
:10343000CCF3080C07EA034340EA0C00184306EA01
:103440000262104328600868626920F0C0001043DF
:1034500008600A68A06922F0200202430A60281D61
:103460000A6822F010020A6002684FF6F873E469F5
:103470009A4342EAC40202600868B9F1000F40F0C2
:1034800010020A6011D00868B9F1010F11D040F4A0
:1034900000100860D8F80000444640F08060C8F88A
:1034A0000000FDF7FBFC05460DE0086840F4002035
:1034B000EFE740F48010ECE7FDF7F0FC401B02283A
:1034C00001D903208DE720680001F5D5504688E733
:1034D000284402582DE9F047454D044689464FF0EF
:1034E000000A2868C04380070AD0414E283E306851
:1034F00020F080503060FDF7D1FC0746B04608E070
:103500000120BDE8F08700BFFDF7C8FCC01B022802
:1035100067D8D8F800008000F6D4208829684FF4D6
:10352000FE0721F07C713E0241EA00502860207ABB
:10353000A389B4F804C040022D4D2D495B1E227CA6
:10354000ACF1010C1835091DA0F5007080B2521EB7
:10355000CCF3080C07EA034340EA0C00184306EAE0
:103560000262104328600868626920F440601043DA
:1035700008600A68A06922F4007202430A60281DEC
:103580000A6822F480720A6002684FF6F873E469F0
:103590009A4342EAC40202600868B9F1000F40F49D
:1035A00080720A6011D00868B9F1010F11D040F0A3
:1035B00080700860D8F80000444640F08050C8F899
:1035C0000000FDF76BFC05460DE0086840F4800044
:1035D000EFE740F40000ECE7FDF760FC401B022839
:1035E00001D903208DE720688000F5D5504688E793
:1035F000284402582DE9F84310270C46002581463F
:1036000001260095C4E900674FF48058C4E90265BB
:103610004246FFF7A9FA0120FDF782FA022042464E
:10362000C4E90007C4E9026521464846FFF79CFA51
:10363000032142460820C4E90017C4E902052146D7
:103640004846FFF791FA40F23120009004214246AB
:10365000C4E90017C4E9026021464846FFF784FA2E
:10366000484640F29631BDE8F843FFF765BA704727
:10367000FDF7BABD70B59CB04C216846FCF7ACFFB5
:10368000202113A8FCF7A8FF0220FEF76DF82D49B2
:1036900000242D480A6822F001020A600A680268C4
:1036A00042F440420260026802F440421B92026807
:1036B0009204FCD5254A136843F002031360126894
:1036C00002F002021B92026842F440420260026869
:1036D0000A6842F001020A60096801F001011B91C9
:1036E00001688904FCD50DF1280C02200990052100
:1036F000C0228CE80700C3030F9008250D90012617
:103700000E90CDE91054CDE9006368461294FEF79F
:1037100027FF08B172B6FEE740201A903F2103014F
:10372000CDE916500322CDE9180313AB13A883E8A3
:1037300016000421FEF74AFD002801D072B6FEE70C
:103740001CB070BD2C04005818480258F4440258AC
:103750003348F0B5324903687839324A43F470038C
:103760000360086840F010000860106800F00F0067
:10377000072804D2106820F00F00C01D10602A49ED
:103780000020294C10340B68284D43F001030B60D6
:1037900020600B682B400B60136803F00F03072BAE
:1037A00004D9136823F00F03DB1D13601E4C204A5D
:1037B0001834204B261D371D20601B4C1E4D28340D
:1037C0003060261D3860371D23603B1D35601C1D91
:1037D0003A60251D2E1D1860331D2260286032605E
:1037E00018600B684FF0B0420F4C23F480230B603D
:1037F00060342060D2F8E400104940F48040C2F800
:10380000E40008686FF30F00B0F1005F03D20C49C9
:103810000120C1F8080143F2D2000A490860F0BD56
:1038200088ED00E000200052004402587FEDF6EAE7
:1038300080020101000202020000FF010010005C92
:103840000080005100400052FEE7090700284FEABF
:10385000116104DB00F1E02080F80014704700F0F3
:103860000F0000F1E02080F8141D704770B50025AE
:1038700004466FF02F0608E0206805EB8502411C26
:10388000216006EB4202007885182068007800F07D
:103890002CF80028F0D1284670BD70B514460D46AE
:1038A0001BB911460FF03AFA0346142C03FB05F03E
:1038B0000ED0E11F03290AD8072C0DD0082C0DD0FB
:1038C000092C0DD00A2C0DD0002100EB810070BD19
:1038D000590801FB050070BD0221F6E70421F4E759
:1038E0001021F2E74FF48071EFE73038092801D852
:1038F00001207047002070470A48582110B500F099
:10390000DDFC0948002221211BF0ACFE054CAC3C3B
:10391000C4F8A800A43402F08FF900202070607071
:1039200010BD0000B0080020695C00082DE9F047D8
:103930000C46064615461146204600F0C4F840B134
:1039400000222946204600F07BF828B10020BDE87F
:10395000F0874FF0FF30FAE708CC6F68002094E85A
:103960000610241F7F1A002FA2EB0309ACEB010CF9
:1039700005DD08C60F44012086E88600361FE96889
:1039800062688A1AACEB0207002F0CDDE2689142F4
:1039900009DA06EB001C2268A3680F44401C4CF8AF
:1039A000042B8CE88A006A6861688A4200DD11464F
:1039B000EA68E3689A4200DA13462F6822685B1AC5
:1039C000BF1A002F0BDD002B09DD06EB0018174492
:1039D00001EB030C48F8042B401C88E88210AA680D
:1039E0002468151BA9EB0504002CB0DDCD1806EBEF
:1039F00000131444401C04C383E83200A7E770B5E9
:103A00000C6813689C4200DD234603604D685468CF
:103A1000A54200DD2C4644608E689568AE4200DA0F
:103A200035468560C968D268914200DB1146C160A5
:103A3000AB424FF0010001DC8C4200DD002070BD84
:103A40007CB5044608680D4616462168814238DB7D
:103A500060686A68904234DBA268AB689A4230DCE6
:103A6000E268EB689A422CDC4EB3CDE90010324696
:103A70006946284600F07AF8002821D0D4E90110E0
:103A80003246CDE900016946284600F06FF800286B
:103A900016D0E16832462068CDE900016946284623
:103AA00000F064F800280BD0D4E902013246CDE9D9
:103AB00000016946284600F059F8002800D001208E
:103AC0007CBD00207CBD02688B689A420DDC826858
:103AD0000B689A4209DB4268CB689A4205DCC068F1
:103AE0004968884201DB01207047002070477CB59F
:103AF0000D460968044680681646884234DBE06853
:103B00006968884230DB2168A86881422CDC6068E3
:103B1000EA68904228DC2EB3CDE9001032466946AF
:103B2000284600F023F8E8B9D4E901103246CDE97F
:103B300000016946284600F019F898B9E168324654
:103B40002068CDE900016946284600F00FF848B921
:103B5000D4E902013246CDE900016946284600F069
:103B600005F808B100207CBD01207CBD2DE9FF4196
:103B7000054608680E461446296888422EDBAF6861
:103B8000B8422BDC70686B68984227DBEA68904289
:103B900024DC002C5DDD781AD21A401C521C00EB8C
:103BA000D07002EBD27240105210904200DB1046EF
:103BB000844200DD044600912868002231462044FA
:103BC0000290686801906868204403906846FFF797
:103BD000CDFF38B102982044029032E0002004B0BA
:103BE000BDE8F081E86800223146001B0190E868DA
:103BF00003906846FFF7BAFF18B10298204402907C
:103C00000DE0A86800223146001B0090A8680290D1
:103C10006846FFF7ABFF30B10098001B0090019899
:103C2000001B019010E0686800220190314668682E
:103C3000204403906846FFF799FF50B10098001B9D
:103C400000900398204403903146684618F0EAFC3F
:103C5000C5E70120C3E710B50C6813689C4200DA81
:103C6000234603604C6853689C4200DA2346436055
:103C70008C6893689C4200DD23468360C968D268E3
:103C8000914200DC1146C16010BD00002DE9F041F9
:103C9000434C28B1C16821611BF0E8FD206902E0B6
:103CA0000EF0DCF92061002878D0416A002975D037
:103CB0000A69002A72D0C96800296FD00022342115
:103CC0000EF05EFA2069D0F8B00218F03FFB2069D0
:103CD000D0F8B40208B118F039FB2069D0F8BC0262
:103CE00018F034FB2069D0F8C00218F02FFB2069CF
:103CF000D0F8C40218F02AFB20690026D0F8B012D0
:103D0000B9B118F06FFD1EF031F81DF08FFD20697C
:103D1000D0F85C1279B1002237210EF031FA206917
:103D20000EF018FA48B3206990F83910012924D10F
:103D300008E0C0F85C62002220693521BDE8F0414E
:103D40000EF01EBA25F0B2F900254FF03C080FE046
:103D500005F50F71415C51B900F5197000F005FBD4
:103D6000226908EB051157188ECF80E88E006D1C74
:103D70002069D0F85C12A942EAD8206900214FF4EA
:103D800000723C3013F0BAFF20692022002100F5B8
:103D90000F7013F0B3FF2069CBE7FFE7BDE8F081B8
:103DA000040800200A48142110B513F0D7FF084872
:103DB000084AC8380021C0F8C820074AC0F8CC20FB
:103DC000064AC0E934210649C0F8D81010BD0000E9
:103DD000CC0800208B690008876900087B6900080F
:103DE000019102082DE9F0431E0014469BB00D46D8
:103DF000814655D02068039060680490A0680590C3
:103E0000E0680690EB6A3BB9296B4FF48070814201
:103E100002D1696B814227D0D4E90202D4E90018AB
:103E2000AF8E411AB5F830C005F14000BFB21FFA9D
:103E30008CFCCDF800C0CDE90170A2EB0802491C52
:103E4000521C03A800F0BEF80398216808440390B0
:103E50000498616808440490059821680844059016
:103E60006168069808440690D9F8082003A916A8A6
:103E7000FFF7C5FD002813D0E969002207A811F05B
:103E8000E8FF01280CD116A829460023029607AAAC
:103E9000CDE90040484609F0F5FA07A811F0AAFF5D
:103EA0001BB0BDE8F08300002DE9F04F5FEA030985
:103EB0001446A1B08846054651D0D8F81C100022FF
:103EC00008A811F0C6FF012849D1D8F8240094E8C9
:103ED0008E0084B2060C04A880E88E0021460BF008
:103EE00020FA04A831460BF017FA1E4B0DF1640AB4
:103EF000049F0FCB8AE80F0029E0AA6804A91DA837
:103F0000FFF77DFD48B1CDF800A019ABCDE901B9AF
:103F100008AA4146284609F0B5FA049820440490BE
:103F200006982044069003E00DF1100A0DF1740B81
:103F3000A968049889688842DFDD05983919491E07
:103F400004973044059007983044CDE90610A968DD
:103F50000598C9688842E7DD08A811F04BFF21B039
:103F6000BDE8F08FCC9102080849C96E0AE04A68A2
:103F7000824202D00A68824203D10A7E42F00102E4
:103F80000A7649690029F2D1704700000408002030
:103F900001494069C8667047040800200249CA6E9A
:103FA0004261C866704700000408002001480421EF
:103FB00000F084B9240900200148202100F07EB9D6
:103FC000380800202DE9F04F8BB015465FEA030B4F
:103FD0000E460446DDE91597DDF850A00FD14FF4E9
:103FE00080718A450BD1894509D10020551EE560B5
:103FF000761E2060C4E901060BB0BDE8F08F2021D9
:1040000002A8FCF7E9FA4FF001080496CDE907563B
:1040100002A84B46CDE9007852465946099518F05A
:10402000F6FACDE9007804A84B465246594618F0F6
:10403000EEFACDE9007806A84B465246594618F0EC
:10404000E6FACDE9007808A84B465246594618F0E2
:10405000DEFA04990298884200DB0846089A06991D
:10406000914200DB1146884204DA049902988842A2
:1040700005DB03E006981146904200DB084620600D
:1040800004990298884200DC0846089A06999142F1
:1040900000DC1146884204DD04990298884205DC60
:1040A00003E006981146904200DC0846401EA060DE
:1040B00005990398884200DB0846099A07999142BE
:1040C00000DB1146884204DA05990398884205DB33
:1040D00003E007981146904200DB084660600599AE
:1040E0000398884200DC0846099A0799914200DC4F
:1040F0001146884204DD05990398884205DC03E0F7
:1041000007981146904200DC0846401EE06073E7C5
:104110000148182100F0D2B8E008002070B5040072
:104120000D4688B003D10DF099FF04002CD00EF09D
:1041300017F8002828D0A06B800300D5FEE74FF0C9
:104140000006FDB12046009601960DF097FF401E37
:10415000029020460DF0EAFF401E6A462946039071
:1041600004A8FFF74CFC00280ED094F83900022870
:104170000CD03021204604AA0EF002F8012803D109
:10418000002518E0C4F85C6208B070BD9DE82D0001
:1041900004F13C060121C4F85C1286E82D0020E001
:1041A00004EB051100223C3104A8FFF749FC00286C
:1041B000EAD16D1CADB2D4F85C02A842F0D8202838
:1041C00004A902D36946C4F85C62D4F85C0204EB2B
:1041D00000103C300BF02EF8D4F85C02401CC4F800
:1041E0005C020022204633210DF0CAFFCCE700001C
:1041F00010B500210446162215F066FF10F0FF00EE
:104200000ED008498A6D82420AD3CA6D042303EB9B
:10421000C001515852F830202046BDE810401047E8
:1042200010BD00000408002010B5064CA06DC000B1
:1042300013F03CFCE06511F0F9F8BDE8104011F016
:104240008DBC0000040800202DE9F0410E46074611
:1042500000F017F8044608E02146384600F023F83D
:10426000054636B12046B0472C46002CF4D1BDE8B7
:10427000F0812146384600F09FF8204611F08AFA76
:10428000F2E7002800D0406870470022034600B5DE
:10429000FFF7F7FF03E0521C184600F004F8010096
:1042A000F9D1104600BD0068091D405870470068EC
:1042B00040587047002800D0806870470022426054
:1042C000C91C826021F003010160704770B504468B
:1042D0000068083013F0EAFB050013D00022014605
:1042E00020461CF0C1F86268294620461CF0B6F84A
:1042F000616819B12A4620461CF0B6F8A0686560CE
:1043000000B9A560284670BD2DE9F04106000C46B5
:104310000AD04CB1FFF7B5FFA04208D13046FFF7F5
:10432000D5FF051E01D01EE00020BDE8F0813068F9
:10433000083013F0BBFB051EF7D030682A4607593A
:10434000304639461CF08AF83A46294630461CF079
:104350008BF82A46214630461CF086F8224629462C
:1043600030461CF07BF82846DFE770B5044600684D
:10437000083013F09BFB050013D0002201462046B5
:104380001CF06CF8A268294620461CF06DF8A16864
:1043900019B12A4620461CF061F86068A56000B992
:1043A0006560284670BD28B1416809B9806808B1C8
:1043B000002070470120704770B504000ED0FFF751
:1043C00060FF88424FF00002204608D1FFF76BFFE4
:1043D000011E606001D000221EE0A26070BDFFF7E8
:1043E00069FF8842206808440AD10168A16029B1A8
:1043F0002046BDE8704000221CF030B8626070BDFD
:1044000005682046FFF74FFF06460246294620462C
:104410001CF024F82A4631462046BDE870401CF0C6
:1044200023B810B50446006882680AB12146904757
:1044300020680068002801D02060F5E710BD806882
:10444000002800D0406A70478068002802D0408D64
:10445000C0F38120704770B516460C46054651EAF8
:1044600006001AD0284614F038F9A868012332460D
:10447000816921448161A868C1693144C1612146D3
:10448000284616F0E7FB002228460C2117F0B5FB62
:10449000012803D1284616F035FB012070BD77B501
:1044A00005000E4681B01BD0612215F00DFE040000
:1044B00016D02068A0B162222846314615F004FECD
:1044C00010F0FF020CD02368204603999847009013
:1044D000BDF80000ADF80C009DF802008DF80E004C
:1044E000039804B070BD00002DE9F04796B0074670
:1044F000408D994615468A461E9E40F008007885F4
:1045000038463A85327A15F0DFFDA7F82890044640
:10451000327A5146384615F0D7FD798D80464445AC
:1045200021F00800788505D1414620460DF009F8B4
:10453000002865D13D855146327A384615F0C4FDD4
:10454000044651463846A7F8289008F0A3FD0068B5
:104550002246317A19F004FB307A0C2824D147F630
:10456000FF794C4501D0C8451ED1384615F080FF73
:1045700000EBD0704510384614F0E3FE00EBD0702D
:1045800040104C4506D16A1C431C9A4201DA6C1C4F
:1045900000E01C46C84507D1691C421C914201DA63
:1045A000681C00E0401C80461748FFF78FFE05009E
:1045B00029D02F60C5E90348307A28716846C5F8CC
:1045C00008A00AF021F8114809ABFF224FF0004182
:1045D000CDE900500E4803900E480490002083E877
:1045E000070030880C90708840420D90F068089069
:1045F00000208DF84E003069079068460AF090F868
:1046000016B0BDE8F087FEE71C080020D57D020843
:10461000258002087D7F020801481421FFF74EBE65
:104620001C0800202DE9F84F0427904600258946F4
:1046300006462C46DEE000BFF16807EBC4000858D0
:1046400081016ED480B230EA090112D05FF000011E
:1046500030EA08000FD00020814262D0F0681021BB
:104660006A4650F83400824619F068F8002863D191
:1046700003E00121ECE70120EEE711216A465046F4
:1046800019F05CF8002857D112216A46504619F0FB
:1046900055F8002850D113216A46504619F04EF8BB
:1046A000F0BB15216A46504619F048F8C0BB1421EA
:1046B0006A46504619F042F890BB16216A465046A9
:1046C00019F03CF860BB6A216A46504619F036F88A
:1046D00030BB6B216A46504619F030F800BB01210F
:1046E0006A46504619F02AF8D0B902216A46504667
:1046F00019F024F8A0B904216A46504619F01EF8B2
:1047000070B905216A46504619F018F840B90621DB
:104710006A46504619F012F810B907216A4601E0BE
:104720000AE066E0504619F009F828B930216A46D7
:10473000504619F003F810B10320BDE8F88F682146
:104740006A46504618F0FAFFF0BB69216A465046A7
:1047500018F0F4FFC0BB6E216A46504618F0EEFF19
:1047600090BB6C216A46504618F0E8FF60BB6D2193
:104770006A46504618F0E2FF30BB3A216A4650467E
:1047800018F0DCFF00BB3B216A46504618F0D6FF0C
:10479000D0B938216A46504618F0D0FFA0B93C2164
:1047A0006A46504618F0CAFF70B93E216A46504624
:1047B00018F0C4FF40B940216A46504618F0BEFFC9
:1047C00010B941216A4600E00FE0504618F0B6FFEC
:1047D00058B942216A46504618F0B0FF28B948211E
:1047E0006A46504618F0AAFF08B1022501E005B953
:1047F0000125641C708DC0F30510A0423FF61CAF6C
:1048000028469AE770B5054602F05EFC0446A868A3
:1048100020B1418D64F38B21418570BD002CFCD00B
:10482000284613F05AFFA868F3E700000148006922
:10483000704700000408002070470000FF2805D0E2
:10484000002804D08D2803D2074909E03F20704793
:10485000064A8D38C0B2116B21B1926A824201D9E9
:10486000085C7047002070475C3A03080408002089
:104870002DE9F041050090460C4615D018F056FF82
:104880000A4F064621462846BA689047BA68044649
:104890002819414690470146701A03E06218AA5C45
:1048A0002A55641CA042F9D2BDE8F0811C0000200A
:1048B0002DE9F041094D90460E461C460746194623
:1048C0006A689047306020B1206800216A683844E7
:1048D0009047C8F80000BDE8F08100001C000020EF
:1048E0002DE9F04F85B01F4693468A4604464FF0A7
:1048F0000000DDE90E5805B128605CB1217849B1AE
:10490000BAF1000F06D05FEA88714FF0000615D0AB
:10491000002004E0002005B0BDE8F08F401C215CC1
:104920000A2904D00D2902D00029F7D100E0401C4B
:10493000002DF0D04FF0FF312960ECE75FEAC8713D
:1049400001D06FF060478146039021E00398CDF8D5
:10495000109038B30022CDF8008004AB51462044BB
:10496000CDE901323B465A4619F00AFF04997F1AF5
:104970000E4488B103990144039120780A280BD092
:104980000D2809D0605C0A280ED00D280CD00846EE
:10499000205C08B1002FD9DC039840B105B12E602E
:1049A0000398B8E70122D6E7481C0390F4E7074ACA
:1049B00003A9204652689047002D0146F0D00022FE
:1049C000504610F0B5FE0646E9E700001C00002046
:1049D0002DE9F0410600174688461ED0002F1CD056
:1049E00018F0A4FE0446384618F0A0FE050014D0C6
:1049F0000B4A2C444146304692689047411903E0E7
:104A0000621BB25C3255641EA142F9D930442A4679
:104A10003946BDE8F04113F0BFB8BDE8F0810000B1
:104A20001C000020002823D0A0F59C41B1F5A44F24
:104A30001DD36FF47F4101445D2918D9A0F5405181
:104A40003F2914D9A0F53A517F2910D9A0F5475133
:104A50002F290CD9A0F54151BF2908D9A0F57E41D5
:104A600010390F2903D9A1F120001F2801D80120F6
:104A7000704700207047202822D3A0F5C0611C3960
:104A80001ED0A0F588515F391AD0B0F58B5F17D0D2
:104A9000A1F2AC61032913D9A1F5006104290FD952
:104AA0001D3907290CD93739102909D9A0F57E41BC
:104AB000FF3905D0A0F57841FF3901D000207047BB
:104AC000012070472DE9F0410D46074600212B4695
:104AD000024608461BF03AF80446401C12F0E6FF76
:104AE000060007D0611C2B463A461BF02FF83046D3
:104AF000BDE8F081FEE700000448182110B5FFF77B
:104B0000DDFBBDE8104001201AF0E6BD780800206A
:104B10002DE9F0471E4614460D468246DDF82090EA
:104B200015E000BF4FEA54084A46504608FB0657B6
:104B300039469047002808DD44F30000C0EB5404D8
:104B400007EB0605A4F1010401E005DA4446002C58
:104B5000E8D12046BDE8F0873846FBE72DE9FF4F56
:104B600089B0054692464FF000040A98002800D10B
:104B7000F74D6EE1252804D00A992246641C53465D
:104B80002DE2491C4FF0000808460C9101782B29B2
:104B900019D004DC202919D0232904D119E02D29AA
:104BA0000ED0302909D00026C8B2FEF79EFEB0B163
:104BB0000CA8FEF75BFE06461FE048F001010AE084
:104BC00048F0020107E048F0040104E048F0080161
:104BD00001E048F01001401C88460C90D6E70C9983
:104BE00008782A2809D1169840C81690002E02DAB3
:104BF000764248F00208491C0C910C984FF0000BCB
:104C000001782E2919D1401C0C9048F48068007856
:104C1000FEF76BFE20B10CA8FEF728FE83460CE0E1
:104C20000C9801782A2908D1169904C91691002AEE
:104C300000DC0022401C93460C900C9801786C29F3
:104C40000AD004DC68290FD06A2919D128E0742918
:104C500029D07A2914D126E0401C0C9048F48078A1
:104C600001786C291CD00BE0401C0C9048F08008A7
:104C70000178682904D148F04001401C88460C9016
:104C800002460078692822D015DC62281FD00DDC8E
:104C9000252872D050281AD058287FF46DAF16E01E
:104CA00048F40071E9E748F48071E6E763287DD0B5
:104CB0006428F2D10BE0732879D004DC6F2806D089
:104CC0007028EAD103E0752801D07828E5D178284A
:104CD0000DD058280BD070280BD0502809D06F2841
:104CE00016D0622816D00A2128F0100816E01021EC
:104CF00007E05378102148F48878562B04D1521CD1
:104D00000C921078582807D01078502804D005E06D
:104D1000082108E0022106E048F020081078692800
:104D200003D0642801D028F00C085FEA485001D570
:104D300028F001081078692820D064281ED0562851
:104D40007ED05FEA88507CD5169804ABC01D002247
:104D500083E8060820F007000292CDE9076800F119
:104D600008015346026816914068CDE900202246AA
:104D70000A99284600F016FA67E02BE15FEA8850AE
:104D800028D516984FF0000CC01D20F0070202F144
:104D900008001690D2E90002CDE9041CCDF818B045
:104DA000002ACDE9076803DA012602E09AE0C4E0B0
:104DB00000260296002319461B1A914101DA11467A
:104DC00003E00021404261EB020153462246CDE957
:104DD0000001CDE75FEAC8500FD5169A01CA1692B6
:104DE000CDE9021BC10F0028CDE9046800DC404278
:104DF0005346CDE90001224620E05FEA486005D530
:104E0000169810F8042B1690D0B20BE05FEA0860F9
:104E100005D5169830F8042B169010B202E0169AB9
:104E200001CA1692CDE9021BC70F0028CDE904681C
:104E300000DC40425346CDE900072246284601E007
:104E400010E01FE00A9900F06CF904460C98401C31
:104E50000C900C99087800287FF48CAE544576D2DB
:104E60002246C0E01699AAEB040201C916914168D6
:104E70000968009103680A9801192846FFF76EFE39
:104E80000444E3E75FEAC8500DD5CDE9021B16984C
:104E90000022CDE90468011D169153460068CDE952
:104EA00000022246CAE75FEA486005D5169810F866
:104EB000042B1690D0B20BE05FEA086005D5169877
:104EC00030F8042B169090B202E0169A01CA16929E
:104ED0000027CDE9021B53462246CDE90007CDE964
:104EE0000468ABE75FEA88704FF0010706D509E078
:104EF00022460A99641C53462020A847B74207F16E
:104F00000107F5D316982246641C534610F8041B7B
:104F1000169001F0FF0C0A996046A8475FEA887076
:104F200006D493E722460A99641C53462020A847DA
:104F3000B74207F10107F5D388E7169850F8049BAC
:104F40001690BBF100004B4604D0024604E048E056
:104F50002D5200084FF0FF32484600E0401C017817
:104F600011B1521E511CF9D1C71A5FEA485003D53E
:104F70005F45584600D307465FEA887006D511E0C2
:104F800022460A99641C53462020A847B74207F1DD
:104F90000107F5D306E009F101092246641C0A99CC
:104FA0005346A84799F8000028B15FEA4851F2D566
:104FB000BBF1010BEFD25FEA887006D446E72246C8
:104FC0000A99641C53462020A847B74207F10107FD
:104FD000F5D33BE722460A99641C53462520A8478F
:104FE00034E7AAF101020A9900205346A8470DB000
:104FF0002046BDE8F08F2DE9FC5F9B4681460CAB57
:105000008A46DDE91160DDE90F5793E812105FEA87
:1050100080784FF030031AD45EB15FEAC07808D0D0
:1050200000F00C0858EA0C0803D0761E01E00B557E
:10503000641CBC4204D2202CF9D301E00B55641C43
:105040005FEAC07803D0B44201D2202CF6D35FEAE5
:10505000C06825D55FEA40580AD44CB1BC4201D0A3
:10506000B44205D1641E03D0102D03D1641E04E0A8
:10507000102D02D0022D0AD00EE0850603D4202C7C
:105080001ED2782506E0202C1AD2582502E0202CCA
:1050900016D262250D55641C202C11D20B55641CB0
:1050A000202C0DD2BCF1000F01D02D2306E04307C8
:1050B00001D52B2302E0030702D520230B55641CE6
:1050C000C846CDE900BA15468B468146AA468007F8
:1050D00014D1274607E02A46C4466D1C2020DDE98E
:1050E0000031E0477F1CB742F5D307E02A466D1C2C
:1050F000641EDDE900311BF80400C047002CF5D127
:105100005FEA897006D409E02A466D1C2020DDE99B
:105110000031C047A5EB0A00B042F5D32846BDE8F0
:10512000FC9F2DE9F04F8FB099468B4692468646FC
:105130004FF00002DDE91818DDE91C63DDE91A47CC
:1051400009B923F0100307AD580500D5C9B1B1FB6B
:10515000F4F004FB1010C0B20A2801D2303009E08C
:105160005FEA836C02D54FF0410C01E04FF0610C17
:1051700060440A38B1FBF4F1A854521C09B1202A4A
:10518000E5D3CDF808805946CDE90563CDE9005255
:10519000CDE903474B4652467046FFF72CFF0FB050
:1051A000BDE8F08F2DE9FF4F8FB01CACDDE92395F2
:1051B00094E8030820AC94E8C004002450EA0102FB
:1051C00001D125F010050DF11C086A0502D550EA41
:1051D000010217D032463B46FBF7EEF8D2B20A2A5C
:1051E00001D2303206E0AB0601D5412300E0612355
:1051F0001A440A3A08F80420641C50EA010201D05B
:10520000202CE7D3CDE900840FAFCDF808B0CDE96D
:105210000595CDE9036A97E80F00FFF7ECFE13B0A0
:10522000BDE8F08F9A4200D28854704770474FF023
:10523000000210B568B14B1E194200D0FEE70844C9
:10524000401E9843B0F5803F03D20C2800D80C20B4
:105250000246104610BD4A1E0844A0F1010011424A
:1052600020EA020000D0FEE7704700002DE9F0417F
:105270000F4604460121C16300252E4609E01A4964
:10528000FBF7D2F908B16D1C02E0E06B401CE06353
:10529000761C57F8260010B101780029EFD1A06BD9
:1052A000A8421FD0206B002610B110F073FA2663BD
:1052B000606B10B110F06EFA6663280112F0F6FB15
:1052C000206338B1A80012F0F1FB606318B1216BC4
:1052D00011B102E0FEE7FEE700250021AA0012F06E
:1052E0000DFDA563BDE8F081E40001082DE9F04F54
:1052F0000021074697B016F0BFFC384613F01EFC9D
:105300000446642017F0A2F80146204616F00BFD73
:105310004FF4967520460022294616F0DAFE012148
:10532000204616F0B5FCFC4AFCA1204603F01CF90F
:10533000FE4C60621AF02AF900220146606A0BF006
:1053400074FA0026206350210A2017F0B7F9216B68
:105350000246606A0BF0C8FC761C0C2EF3D338466C
:1053600013F0ECFB0646642017F070F80146304657
:1053700016F0D9FC00222946304616F0AAFE01217B
:10538000304616F085FC4FF400153046294612F0E1
:1053900022FFE14AE6A13046343203F0E5F802216B
:1053A000A0620BF001FD122017F02CF8002201463C
:1053B000A06A0BF03AFA6063A06A1AF0E7F80022DC
:1053C0000146A06A0BF031FA0026A06350210A20A2
:1053D00017F074F9616B0246A06A0BF085FC50214E
:1053E0000A2017F06BF9A16B0246A06A0BF07CFC57
:1053F000761C0C2EEAD3A06A012114F091FC06461B
:10540000A06A0BF06DFB00220146304616F0C7FE85
:10541000CBA00090CDA33846CFA2D2A103F08AF949
:10542000A06113F0F3FF294612F0D5FED1A0009041
:10543000D3A33846D5A2D8A103F07CF9E061E17886
:10544000022904D213F0E2FF294612F0C4FED5A0CF
:105450000090D7A33846DAA2DCA103F06BF92062F2
:10546000E178022904D213F0D1FF294612F0B3FEED
:10547000384616F06BFFE07801287DD0A06914F063
:10548000F7FF05460146A06916F04DFCE069294684
:1054900016F049FC206A294616F045FC01A809F0DF
:1054A000B3F864204FF6FF7614210A914FF00045BF
:1054B000CDE90B50ADF848601021A06917F0CBFC86
:1054C000A06900221E2116F02FFEA06909F002FA41
:1054D0004FF4403807460021424616F07AF9002280
:1054E0003846114616F075F9642016F0AFFF814674
:1054F000642016F0ABFF01464A46384616F006FD1A
:1055000000223846114616F026FD4FF40039384681
:105510000F214A4616F029FD052016F073FF0146BB
:105520004A46384616F007FD0221384616F0DCF8E8
:10553000AA48CDE9017040F68C2041F204070D978E
:10554000109001A809F0ECF8A06909F0C3F9002156
:105550008246424616F03DF9642016F077FF8346F6
:10556000642016F073FF01465A46504616F0CEFCF2
:1055700000225046142100E0F8E216F07FFD0022E0
:105580005046114616F0E7FC0F214A46504616F0E9
:10559000ECFC002016F036FF01464A46504616F055
:1055A000CAFC0221504616F09FF8504613F09AF9B3
:1055B0008A48CDE901A040F628200D904FF44860BC
:1055C000109001A809F0ACF8A06909F083F9002156
:1055D0008246424616F0FDF8642016F037FF8346F7
:1055E000642016F033FF01465A46504616F08EFCF2
:1055F00000225046282116F041FD00225046114657
:1056000016F0A9FC0F214A46504616F0AEFC0920C0
:1056100016F0F8FE01464A46504616F08CFC022170
:10562000504616F061F8504613F05CF96B48CDE92E
:1056300001A04FF42F600D904FF4E160109001A88D
:1056400009F06EF8E0694FF4B47117F0D9FB3249F4
:10565000E069683117F00FFCE0690B2117F01CFCC2
:10566000E0691E214A4616F004FDE069012117F0A9
:10567000ECFBE06909F02EF98346642016F0E6FEA3
:105680008246642016F0E2FE01465246584616F065
:105690003DFC002258460A2116F0F0FC002142464B
:1056A000584616F081FC00225846114616F053FC6D
:1056B0000A214A46584616F058FC00214A465846E8
:1056C00016F04EFC052016F09DFE01464A4658464F
:1056D00016F031FC0221584616F006F8584613F031
:1056E00001F9E06909F0F6F88346642016F0AEFE91
:1056F0008246642016F0AAFE01465246584616F02D
:1057000005FC00225846052116F0B8FC0022584638
:10571000114616F020FC63E0FC040020556E697110
:1057200075652076697369746F72730030030020A9
:105730004D6F6E74686C7920726576656E75650064
:10574000436F7374733A202D0000000053616C6541
:10575000733A202D00000000526576656E75653A3B
:10576000202D00004D6F6E74686C79205461726753
:10577000657400004D6F62696C653A202D00000071
:105780005461626C65743A202D0000004465736BAF
:10579000746F703A202D000053657373696F6E73D8
:1057A0000000000048696768205370656564000068
:1057B0004E6F726D616C205370656564000000006F
:1057C0004C6F772073706565640000004E657477D8
:1057D0006F726B205370656564000000DD31020854
:1057E00000214246584616F0DFFB0022584611467B
:1057F00016F0B1FB14214A46584616F0B6FB0021BC
:105800004A46584616F0ACFB002016F0FBFD014658
:105810004A46584616F08FFB0221584615F064FFA1
:10582000584613F05FF8E06909F054F883466420A5
:1058300016F00CFE8246642016F008FE0146524621
:10584000584616F063FB00225846114616F083FBBB
:1058500000214246584616F0A7FB00225846114642
:1058600016F079FB1E214A46584616F07EFB0021B1
:105870004A46584616F074FB092016F0C3FD01464F
:105880004A46584616F057FB0221584615F02CFFA1
:10589000584613F027F8BE486421E26919F0E2FE89
:1058A000BC4924220346E06912F084FC206A3C22B1
:1058B0000A2117F0D9FA206A152117F0EDFA206AAB
:1058C000042117F0C2FA4FF4A028206A0A214246A8
:1058D00016F0CFFB206A14214A4616F0CAFB206A54
:1058E000E12117F08DFA206A872117F0C1FAAA4842
:1058F00017F06FFFA848082118F05BF8002016F099
:1059000081FD0146A44818F041F8A3480C3017F077
:1059100060FFA14804210C3018F0B3F802210020E8
:1059200016F032FD01469C480C3018F09BF89A485E
:10593000183017F04EFF98480421183018F0A1F8DD
:105940000221002016F020FD01469348183018F07F
:1059500089F89148243017F03CFF8F480821243003
:1059600018F027F8052016F04DFD01468A4824302E
:1059700018F00CF88848303017F02BFF86480421C7
:10598000303018F07EF80221052016F0FDFC0146AB
:105990008148303018F066F87F483C3017F019FF26
:1059A0007D4804213C3018F06CF80221052016F0E7
:1059B000EBFC014678483C3018F054F87648483003
:1059C00017F007FF74480821483017F0F2FF09204C
:1059D00016F018FD01467048483017F0D7FF6E48A2
:1059E000543017F0F6FE6C480421543018F049F892
:1059F0000221092016F0C8FC01466748543018F00F
:105A000031F86548603017F0E4FE634804216030E7
:105A100018F037F80221092016F0B6FC01465E485E
:105A2000603018F01FF85D490023206A242212F02C
:105A3000C1FB206A17F03EF914228246002117F0BC
:105A4000CBF9554A0021504617F0CBF9524A494646
:105A500050460C3217F0C5F94F4A414650461832AD
:105A600017F0BFF9206A17F025F928228246142181
:105A700017F0B2F9484A00215046243217F0B1F924
:105A8000454A49465046303217F0ABF9424A414642
:105A900050463C3217F0A5F9206A17F00BF93C226A
:105AA0008246282117F098F93B4A00215046483297
:105AB00017F097F9384A49465046543217F091F991
:105AC000354A41465046603217F08BF9206A10F093
:105AD00085F93349804610F04FFC042240460321EB
