:020000040800F2
:10000000B0F4012039040008673A0008FF31000805
:10001000653A0008230800081540000800000000A9
:10002000000000000000000000000000790300084C
:100030003108000800000000D50300083D3D00081D
:100040005304000853040008530400085304000834
:100050005304000853040008530400085304000824
:100060005304000853040008530400085304000814
:100070005304000853040008530400085304000804
:1000800053040008530400085304000853040008F4
:1000900053040008530400085304000853040008E4
:1000A00053040008530400085304000853040008D4
:1000B00053040008530400085304000853040008C4
:1000C00053040008530400085304000853040008B4
:1000D00053040008530400085304000853040008A4
:1000E00053040008530400080000000053040008F3
:1000F0005304000853040008530400085304000884
:100100005304000853040008530400085304000873
:100110005304000853040008530400085304000863
:100120005304000853040008530400085304000853
:100130005304000853040008530400085304000843
:1001400053040008530400080000000000000000F1
:100150005304000853040008530400085304000823
:100160005304000853040008530400085304000813
:100170005304000853040008530400085304000803
:1001800053040008530400085304000853040008F3
:1001900053040008530400085304000853040008E3
:1001A00051350008530400082508000853040008CE
:1001B00053040008530400085304000853040008C3
:1001C00053040008530400085304000853040008B3
:1001D00053040008530400085304000853040008A3
:1001E0005304000853040008530400085304000893
:1001F0005304000853040008530400085304000883
:100200005304000853040008530400085304000872
:1002100053040008530400082D3F0008530400084D
:100220005304000853040008530400085304000852
:100230005304000853040008530400085304000842
:100240005304000853040008530400085304000832
:100250005304000853040008530400085304000822
:100260005304000853040008530400085304000812
:100270005304000853040008530400085304000802
:100280005304000853040008530400080000000051
:10029000530400085304000800F002F800F05CF872
:1002A0000AA090E8000C82448344AAF10107DA45D1
:1002B00001D100F051F8AFF2090EBAE80F0013F0C7
:1002C000010F18BFFB1A43F001031847E081050036
:1002D000008205000A444FF0000C10F8013B13F0B7
:1002E000070408BF10F8014B1D1108BF10F8015B8F
:1002F000641E05D010F8016B641E01F8016BF9D182
:1003000013F0080F1EBF10F8014BAD1C0C1B09D1D8
:100310006D1E58BF01F801CBFAD505E014F8016B4A
:1003200001F8016B6D1EF9D59142D6D370470000DC
:100330000023002400250026103A28BF78C1FBD8EE
:10034000520728BF30C148BF0B6070471FB52FF060
:1003500005FA1FBD10B510BD00F029FA1146FFF7D0
:10036000F5FF24F077F800F047FA03B4FFF7F2FF47
:1003700003BC00F04FFA00002C4B19680868B0E885
:10038000F04F80F30988BFF36F8F4FF0000080F3C8
:10039000118870470000000008480068006880F37A
:1003A00008884FF0000080F3148862B661B6BFF38E
:1003B0004F8FBFF36F8F00DF00BF00BF08ED00E07D
:1003C000DFF80C00016841F470010160704700BF64
:1003D00088ED00E0EFF30980BFF36F8F134B1A68CD
:1003E0001EF0100F08BF20ED108A20E9F04F1060BA
:1003F00009B44FF0500080F31188BFF34F8FBFF363
:100400006F8F2EF0C5F84FF0000080F3118809BC03
:1004100019680868B0E8F04F1EF0100F08BFB0EC84
:10042000108A80F30988BFF36F8F70474C04002057
:10043000EFF30580704700000948804709480047EE
:10044000FEE7FEE7FEE7FEE7FEE7FEE7FEE7FEE784
:10045000FEE7FEE704480549054A064B70470000E1
:10046000353E000899020008B0E20120B0F40120F6
:10047000B0E40120B0E4012053EA020C00F06980EE
:100480002DE9F04B4FF00006002B1FBFB3FA83F5A8
:1004900003FA05F424FA05F65E4012BF1643B2FAD9
:1004A00082F502FA05F4C5F120051EBF22FA05FC0B
:1004B00044EA0C04203556EA044C4FEA144418BFB1
:1004C000641C4FF000084FF00009904271EB030CE0
:1004D00039D3002919BFB1FA81F701FA07F6B0FA4A
:1004E00080F700FA07F6C7F120071EBF20FA07FCC5
:1004F00046EA0C062037B6FBF4FCA7EB0507103FD5
:1005000007F01F0BCBF120060CFA0BFB2CFA06F6BA
:1005100044BFB3460026202FA4BF5E464FF0000B19
:100520005BEA060C08BF4FF0010B19EB0B09ABFBA4
:10053000027C48EB0608C01B06FB02CC0BFB03CC7D
:1005400071EB0C01C1E70B46024641464846BDE847
:10055000F08B13B54FF000004FF00001AFF30080B7
:10056000BDE81C40704710B54C1084EA530404D514
:100570004042C1F1000138BF491E1B4204D552421E
:10058000C3F1000338BF5B1EFFF776FF14F0804F06
:1005900004D04042C1F1000138BF491E14F0004FA1
:1005A00004D05242C3F1000338BF5B1E10BD032AC2
:1005B00040F2308010F0030C00F0158011F8013B80
:1005C000BCF1020F624498BF11F801CB00F8013B67
:1005D00038BF11F8013BA2F1040298BF00F801CB2B
:1005E00038BF00F8013B11F0030300F02580083A02
:1005F000C0F0088051F8043B083A51F804CBA0E859
:100600000810F5E7121D5CBF51F8043B40F8043BAD
:10061000AFF30080D20724BF11F8013B11F801CBE2
:1006200048BF11F8012B24BF00F8013B00F801CBB3
:1006300048BF00F8012B704710B5203AC0F00B807E
:10064000B1E81850203AA0E81850B1E81850A0E8D6
:100650001850BFF4F5AF5FEA027C24BFB1E8185030
:10066000A0E8185044BF18C918C0BDE810405FEAA0
:10067000827C24BF51F8043B40F8043B08BF70471C
:10068000D20728BF31F8023B48BF11F8012B28BF21
:1006900020F8023B48BF00F8012B704702F0FF032F
:1006A00043EA032242EA024200F061B84FF000023E
:1006B00000B5134694469646203922BFA0E80C5058
:1006C000A0E80C50B1F12001BFF4F7AF090728BF33
:1006D000A0E80C5048BF0CC05DF804EB890028BFAF
:1006E00040F8042B08BF704748BF20F8022B11F0D8
:1006F000804F18BF00F8012B704700004FF0013CFD
:1007000050F8042B51F8043B9A4215D1A2EB0C038C
:10071000934313EACC130BD150F8042B51F8043B4C
:100720009A4209D1A2EB0C03934313EACC13E7D00E
:100730004FF00000704700BFD01A01BAB1FA81F142
:1007400001F0180122FA01F0CB40C1F12001DBB227
:10075000C0B2C01A2CFA01F3D11A914311EAC311A5
:10076000E6D170477047704770474FF00002042988
:10077000C0F0128010F0030C3FF49AAFCCF1040CDF
:10078000BCF1020F18BF00F8012BA8BF20F8022B04
:10079000A1EB0C01FFF78CBF5FEAC17C24BF00F81E
:1007A000012B00F8012B48BF00F8012B704775465C
:1007B00000F02CF8AE4605006946534620F00700CD
:1007C000854618B020B5FFF745FEBDE820404FF044
:1007D00000064FF000074FF000084FF0000B21F02B
:1007E0000701AC46ACE8C009ACE8C009ACE8C009F8
:1007F000ACE8C0098D46704710B50446AFF30080E1
:100800002046BDE81040FFF7B0BD0000004870472B
:1008100050E2012001491820ABBEFEE7260002008D
:100820007047FEE7014800F015B90000CC04002035
:10083000704772B6FEE7F0B5D1E90843CD690A68A2
:10084000C2B10268254322F4F84213431D430560F8
:10085000D1E90125D1E903364C692A434568334380
:1008600089691A43EB0B2243DB030A431A434260B4
:100870000020F0BDD1E9012ED1E9036CD1E9057169
:1008800042EA0E0246EA0C0632433A430A43016842
:100890002A4322431A436FF30E010A430260E7E73B
:1008A000426943F6FE739A4342EA410141610020E6
:1008B000704770B591E81C00C9686FF01F050669A4
:1008C0001A4305EB441444EA41210A4306EA45432E
:1008D0001A430261002070BD2DE9F04F8B8A6FF042
:1008E0000F05264C4FF07F4BD1F80C9004EB0353CF
:1008F0006FF0FF044FEA042A1AB386684FEA093200
:100900001F4FA2F580521A433E4032438260D1E924
:1009100000278E68521E05EB07150F8A2A43C5680B
:1009200004EB06240E7E0AEB074322431A430BEB2B
:1009300006610A4305F070431A43C2600020BDE817
:10094000F08F91E804110F4E521E0F8A05EB081527
:100950002A4304EB0C2C06EB09350E7E42EA0C020E
:100960002A4385680AEB074422431A430BEB0661CE
:100970000A4305F070431A438260DFE70000F0FF8E
:10098000FF0F0FFF00F0FFFF70470000F0B590F879
:100990006020012A22D0C1EBC102012780F86070DB
:1009A000022380F8613000EB8202284D138F168EEF
:1009B000B2F83CC0D46A1B05283244EA064643EA32
:1009C0004C530A2C46EA03060AD0092C08D0137BA4
:1009D00046EA036349B10B2C1AD01DE00220F0BD9A
:1009E000D36803F07F433343F4E701684C6AAC43B8
:1009F0001C434C62016813688B6151680A2901D05D
:100A000009291BD1D168026821F07F41916215E06C
:100A1000118B0F4D43EA81430168CC69AC431C4301
:100A2000CC61016813680B6151680A2901D009295A
:100A300004D1D168026821F07F411162002180F861
:100A4000617080F860100846F0BD00000F0033FFB1
:100A50000F003FFF2DE9F0470446006800274FF0E4
:100A600004084FF0010946680568F10714D0E9054C
:100A700012D5036823F480730360606E40F00100B8
:100A800060662068C0F8089084F8618084F860701F
:100A9000616A09B120468847B00615D5A80413D568
:100AA00020682022036823F40053036020688260DA
:100AB000606E40F00200606684F8618084F86070C7
:100AC000616A09B120468847300715D5280513D536
:100AD00020680822036823F40063036020688260B2
:100AE000606E40F00400606684F8618084F8607095
:100AF000616A09B12046884770070CD568050AD598
:100B00002068026822F4806202602068C0F80880D1
:100B1000204600F071F8B00713D5A80511D520685C
:100B20000222036823F40073036020688260606E11
:100B3000606684F8619084F86070216A09B120468B
:100B40008847F00612D5E80410D52068016821F422
:100B500080510160226810219160616E616684F8A5
:100B60006190204684F86070FFF70EFFBDE8F087C3
:100B70002DE9F041040004D094F86100002518B17B
:100B800007E00120BDE8F081204684F8605000F0C5
:100B900035F8184E022084F861000123D4E90010D2
:100BA000D4F81CC040F207120F6840EA0C0037402E
:100BB000384308602068A769A168466B39439643AB
:100BC000314341632068E268016C6FF30F01114308
:100BD00001642068218AA28A466B090541EA4251D4
:100BE00026F4401211434163656684F861300020A9
:100BF000C8E70000BFFFF8FF7047000008B50068B5
:100C00000B49884212D10B48016841F01001016084
:100C100000680022052100F0100000905A2000F02A
:100C2000F1FEBDE808405A2000F0DEBE08BD00001D
:100C300000100052D444025870B5044600F0BAF9CE
:100C40000546601C02D004480078044400F0B2F964
:100C5000401BA042FAD370BD14000020F0B5B9B01B
:100C600014216846FFF722FD3848016800296AD13F
:100C700001210160C82106A8FFF718FD0020189087
:100C80004FF080710446CDE9061006A800F02EFF53
:100C900008B1FFF7CEFD2E48016841F48051016094
:100CA0000068022502AA694600F48050059040F2CF
:100CB000FF60CDE90005032626480C2782E8D00016
:100CC00000F056F802AA4FF68370CDE900052248DD
:100CD000694682E8D00000F04BF84FF47F40694647
:100CE00002AACDE900051D4882E8D00000F040F8D6
:100CF00002AA48F23310CDE900051948694682E896
:100D0000D00000F035F802AA4CF20370CDE90005DE
:100D10001448694682E8D00000F02AF802AA4FF68B
:100D20003F00CDE900051048694682E8D00000F098
:100D30001FF80D20694602AACDE900050B4882E89C
:100D4000D00000F015F839B0F0BD00000000002020
:100D5000D44402580020025800100258001C0258C7
:100D600000180258000C02580014025800080258DB
:100D70002DE9F84F03247D4D00234FF001094FF07A
:100D8000B04B4FF00F0AE9E009FA03F73A4076D08A
:100D90000E7906F00306012E01D0022E18D1D0F8EC
:100DA00008C04FEA430ECE6804FA0EF82CEA080C8D
:100DB00006FA0EF646EA0C068660D0F804C00E79F4
:100DC0002CEA070CC6F300169E4046EA0C06466065
:100DD0000E79F643B6070BD0C6684FEA43088F6812
:100DE00004FA08FC26EA0C0607FA08F73743C7603E
:100DF0000E7906F00306022E12D1DE080F694FEAC3
:100E0000437C00EB8606B646366A4FEADC6C0AFA8B
:100E10000CF807FA0CF726EA08063743CEF82070DC
:100E20000F7906684FEA430807F0030704FA08FC45
:100E300007FA08F726EA0C06374307604E6816F4EF
:100E4000403F1CD04A4E376847F00207376036688B
:100E50009F0706F00206009623F0030606F1B0464F
:100E6000B6463F0FD6F80864DFF808810AFA07FC97
:100E7000404526EA0C0603D14FF0000C41E06CE03F
:100E8000DFF8F4C0604502D14FF0010C39E0DFF823
:100E9000ECC0604502D14FF0020C32E0DFF8E0C058
:100EA000604502D14FF0030C2BE0DFF8D8C060455D
:100EB00002D14FF0040C24E0DFF8CCC0604502D131
:100EC0004FF0050C1DE0DFF8C4C0604502D14FF0C3
:100ED000060C16E0DFF8B8C0604502D14FF0070CF1
:100EE0000FE0DFF8B0C0604502D14FF0080C08E019
:100EF000DFF8A4C0604502D14FF0090C01E04FF0CB
:100F00000A0C0CFA07FC4CEA060CCEF808C44F6831
:100F1000DBF80060FF0226EA020600D516435F46B2
:100F2000CBF80060D1F804C0DBF804605FEA8C2CD9
:100F300026EA020600D516437E606E684F6826EAF0
:100F40000206BF0300D516436E602E684F6826EA7E
:100F50000206FF0300D516432E605B1C0A6832FAB6
:100F600003F67FF411AFBDE8F88F00008000005851
:100F7000F4440258000002580004025800080258C5
:100F8000000C0258001002580014025800180258B1
:100F9000001C025800200258002402580AB1816146
:100FA00070470904FBE7000001480068000C704727
:100FB0000010005C014880687047000014000020A9
:100FC00030B590F84120202A24D190F84020012A01
:100FD00020D0012380F84030242280F841202023B3
:100FE00000240268156825F001051560026815687F
:100FF00025F480551560026815680D431560016879
:101000000A6842F001020A6080F8413080F84040EE
:10101000002030BD022030BD30B590F84120202A9C
:1010200022D190F84020012A1ED0012380F84030C0
:10103000242280F84120202400250268136823F030
:10104000010313600268136823F4706343EA01210B
:10105000116001680A6842F001020A6080F84140AC
:1010600080F84050002030BD022030BD70B5040033
:1010700004D094F84100002510B106E0012070BDB5
:10108000204684F8405000F0ABF9242084F8410059
:101090002068016821F001010160D4E9001020F00E
:1010A000706008612068816821F400418160E06817
:1010B00021680128A06806D040F404408860E068F8
:1010C000022803D006E040F40040F7E721684FF41F
:1010D0000060486020212068114A43681343436040
:1010E0002068C26822F40042C26054F8106B0DCC34
:1010F000104340EA0320F06054F81C3CD4E900029D
:101100001043186054F81C0D026842F0010202609E
:10111000656484F84110256384F84250002070BD56
:10112000008000022DE9FF4F83B0044690F8410093
:101130009A469346DDE91087DDF84890202874D15F
:101140005FEA080014D09FB194F8400001286CD0E9
:10115000012084F84000FFF72DFF012206461923E5
:101160000090D103204602F061F9002871D103E01C
:101170004FF4007060646CE00025C4F824802221E4
:1011800084F84110402084F8420065646785534626
:1011900065635A4604992046CDE9009602F0CAF8E4
:1011A00010B184F8405054E0618DFF2734484FF06F
:1011B0008078FF294FF0007A04D927853A464346C4
:1011C000009005E0618D53462185009094F8282019
:1011D0002046049902F012F900224B4604212046D1
:1011E000009602F023F9A0BB2068616A406A08708B
:1011F000606A401C6062208D401E81B22185608D36
:10120000401E6085608DD8B1D1B900224B46802147
:101210002046009602F00AF9D8B9608DFF2805D95A
:1012200027853A464346009506E026E0608D534602
:101230002085009594F828202046049902F0DEF8D5
:10124000608D0028C8D132464946204602F025F973
:1012500018B1012007B0BDE8F08F21682020094AAD
:10126000C86121684B6813404B6084F8410084F8E2
:101270004250002084F84050ECE70220EAE70000EA
:101280000024008000E800FE2DE9FF4F83B00446F3
:1012900090F841009A469346DDE91087DDF84890C2
:1012A000202871D15FEA080014D09FB194F8400063
:1012B000012869D0012084F84000FFF77BFE01225D
:1012C000064619230090D103204602F0AFF800280B
:1012D0006ED103E04FF40070606469E00025C4F84B
:1012E0002480212184F84110402084F84200656464
:1012F0006785534665635A4604992046CDE90096B2
:1013000002F04AF810B184F8405051E0608DFF2798
:101310004FF08078FF284FF0007A04D927853A46AD
:101320004346009505E0608D53462085009594F86E
:1013300028202046049902F061F8324649462046AA
:1013400002F0D7F8A0BB606A216800788862606A02
:10135000401C6062608D401E6085208D401E80B202
:101360002085618DD9B1D0B900224B46802120461D
:10137000009602F05BF8D8B9608DFF2805D9278563
:101380003A464346009506E026E0608D53462085A8
:10139000009594F828202046049902F02FF8608DDB
:1013A0000028CAD132464946204602F076F818B1E4
:1013B000012007B0BDE8F08F20682021074AC161F5
:1013C000206843681340436084F8411084F8425019
:1013D000002084F84050ECE70220EAE700E800FE35
:1013E00010B5B8B00446142132A8FFF75FF9C82140
:1013F0006846FFF75BF91849206888422AD1002027
:1014000022900821CDE90010684600F06FFB08B17A
:10141000FFF70FFA1148016841F080010160006890
:101420000DF1C80C122100F080003790302001220D
:10143000032304248CE81F00094832A9FFF798FC15
:1014400006480830016841F480010160006800F43A
:101450008000379038B010BD00580040E04402587A
:10146000001C02580248816802781144816070476C
:1014700014000020032010B500F0E4FA01F0B6F9E2
:101480000F4A104914681368C4F3032203F00F03D2
:101490008A5CC95C02F01F0201F01F01D0400A4AB9
:1014A00020FA01F11160094908600F2000F010F8DE
:1014B00008B1012010BD00F085FA002010BD000029
:1014C00018440258C0F70208240000202000002021
:1014D00010B5102804468AB02AD200220146762090
:1014E00000F090FA762000F07FFA15480460154865
:1014F000016841F480210160006808A900F480209F
:101500000990684601F010F901F05EF90E494000BB
:1015100000220E4CB0FBF1F10D4840F2E7330460BD
:10152000C0E90332491EC0E9011201F020FD10B1EB
:1015300001200AB010BD064801F04CFDF9E700009B
:1015400018000020F044025840420F0000480140BB
:10155000740600202DE9F041044690F8A0001646DC
:101560000F4601281DD0012584F8A050022084F8E0
:10157000A10006EB860000EBC600342204EB8000DD
:101580003830FFF759F832463946204601F0E6FF79
:10159000216800204D6284F8A15084F8A000BDE8C5
:1015A000F0810220FBE770472DE9F0410446006816
:1015B00000274FF00408856B466B690715D5710746
:1015C00013D5426B22F0040242632068C0F83C80CD
:1015D000D4F8A40040F00100C4F8A40084F8A1806D
:1015E000204684F8A070FFF7DEFFA80716D5B007E5
:1015F00014D520680222436B23F002034363206862
:10160000C263D4F8A40040F00200C4F8A40084F837
:10161000A180204684F8A070FFF7C5FF05EA060008
:101620004FF00108C0070ED021684A6B22F001027A
:101630004A632168C1F83C8084F8A180204684F880
:10164000A07000F091F8280710D530070ED520685B
:101650000822436B23F0080343632068C26384F8C5
:10166000A180204684F8A07000F0AAF9BDE8F081BE
:101670002DE9F041040004D094F8A100002518B130
:1016800007E00120BDE8F081204684F8A05000F07A
:1016900073F83448022184F8A110012202CC8B692E
:1016A00023F070438B6194E84A001943E3681E43BA
:1016B00054F8043D31439E693143996121688B6838
:1016C00003408B602168A68AA7698B683B4343EA85
:1016D00006438B602168CB680340CB602168A38BF5
:1016E000276ACE683E4346EA0346CE6021680B690E
:1016F00003400B612368A68CA76A1969394341EA44
:101700000641196121684B6903404B612068A38D34
:10171000266B4169314341EA03414161236894F8F2
:10172000351094F83600DE6A000406F07F46DE626B
:10173000236840EA012094F83460D96A31430143B8
:10174000D9622068416B41F00601416320688169DC
:1017500041F001018161C4F8A45084F8A120002067
:1017600090E7000000F800F001684A6A42F00102C8
:101770004A62002100F002B92DE9F04FB9B00446E9
:1017800014216846FEF792FFC82106A8FEF78EFFD7
:101790007049206888427DD110AF02251922C823E4
:1017A00087E82C000021169103260C46400413956F
:1017B000CDE91461CDE9060106A8179100F096F96C
:1017C00008B1FFF736F86448016841F0080101608C
:1017D000006800F0080005905F48001F016841F4B0
:1017E00080610160016801F480610591016841F048
:1017F00040010160016801F040010591016841F478
:1018000000710160016801F400710591016841F007
:1018100008010160016801F008010591016841F0CB
:1018200001010160016801F001010591016841F4C5
:1018300080710160016801F480710591016841F0D7
:1018400004010160006802AA0E27694600F0040046
:101850000590F920CDE9000582E8D0003F48FFF768
:1018600087FA4FF48061DFF8F8A002AA4FF0090868
:10187000CDE900156946504682E85001FFF778FA35
:10188000DFF8E0B048F61420CDE9000502AA694669
:10189000584600E05AE082E8D000FFF769FA0820D5
:1018A000694602AACDE900052F4882E8D000FFF77B
:1018B0005FFA4FF49070694602AACDE900052B4803
:1018C00082E8D000FFF754FA4FF40060DFF8A090F0
:1018D00002AA6946CDE90005484682E85001FFF7B3
:1018E00047FA4020694602AACDE90005214882E86E
:1018F000D000FFF73DFA8020694602AACDE9000535
:10190000504682E8D000FFF733FA4FF400506946A2
:1019100002AACDE90005484682E8D000FFF728FA80
:101920000121584602AACDE90015694682E8500116
:10193000FFF71EFA00220521582000F063F8582016
:1019400000F052F80C48002100F018F839B0BDE85A
:10195000F08F000000100050E444025800280258A4
:101960000018025800240258000C025800000258C7
:101970000020025800080258CC05002070B590F8ED
:10198000A020012A18D00D4D012380F8A03002229A
:1019900080F8A120002450F8A02B566B26F00106F9
:1019A0005663296450F8A01C4A6B42F001024A6356
:1019B00043700470204670BD022070BD00100050BE
:1019C00070470000074882B0016841F002010160E1
:1019D000006800220F2100F002000090901E02B06B
:1019E00000F010B8F4440258002809DB410900F067
:1019F0001F028900012001F1E0219040C1F800019F
:101A0000704700000E4BF0B41B680D46C3F3022371
:101A1000C3F10706042E00D90426191D072901D297
:101A2000002300E0DB1E012404FA06F19C40491E5D
:101A30002940641E994014402143F0BC02F0EBBAE7
:101A40000CED00E0064900F0070210B54FF6FF0468
:101A50000868044B204040EA02201843086010BD8B
:101A60000CED00E00000FA052DE9F0411E4C0546A2
:101A7000206800F007000628206804D000F03F002E
:101A8000A84228D12EE020F03F0028432060FFF735
:101A900091FA154F4FF47A780646083F05E000BFEB
:101AA000FFF788FA801B404515D83868C04380048A
:101AB000F6D41E2D05D02E2D03D01D2D01D02D2D99
:101AC00010D1FFF777FA0546464607E0FFF772FAAE
:101AD000401BB04202D90120BDE8F0812068C0431C
:101AE000C003F3D40020F7E70C4802582DE9FE4F5D
:101AF0000546DFF8E89350F8081B0024F74FC94368
:101B0000009005F12800264609F1240901900801FA
:101B10001DD4E86E50B1B0F5801F0CD0B0F5001F99
:101B20000ED0B0F5401F1ED001240FE0386840F4FD
:101B30000030386017E00098022101F095FF03E0C3
:101B40000198022102F020F804000CD026462888D3
:101B5000C043C00523D4E86D05281ED2DFE800F09D
:101B60000C11161B1B00EA6ED9F8001021F440116D
:101B70001143C9F80010EAE7386840F400303860D3
:101B800009E00098002101F06FFF03E001980021B7
:101B900001F0FAFF044674B100E0012426462888CB
:101BA000C043800528D4286E80281ED00CDC90B15C
:101BB00040280ED114E0EA6DD9F8001021F0070199
:101BC0001143C9F80010EAE7C02813D0B0F5807FB0
:101BD00010D001240FE0386840F40030386009E08C
:101BE0000098002101F040FF03E00198002101F07E
:101BF000CBFF04469CB126462888DFF8E082C0432C
:101C000008F12C0840052CD4D5F8AC00B0F5800FB5
:101C100020D00DDCA0B1B0F5001F0FD115E02A6E69
:101C2000D9F8001021F4E0711143C9F80010E3E77E
:101C3000B0F5C00F13D0B0F5000F10D001240FE0A5
:101C4000386840F40030386009E00098002101F065
:101C50000BFF03E00198002101F096FF04467CB1E0
:101C600026462888C04300052DD4D5F8B000B0F131
:101C7000007F21D00EDCA8B1B0F1807F10D116E03A
:101C8000D5F8AC20D8F8001021F460011143C8F851
:101C90000010E6E7B0F1407F13D0B0F1806F10D0B4
:101CA00001240FE0386840F40030386009E0009803
:101CB000002101F0D9FE03E00198002101F064FF4A
:101CC000044694B126462868DFF810B2C0430BF1F1
:101CD000200B80011FD4E86CD8B110280FD0202829
:101CE00012D0302815D0012414E0D5F8B020D8F84F
:101CF000001021F0E0611143C8F80010E3E73868F4
:101D000040F40030386004E00098022101F0ACFE9D
:101D1000044674B126462888C043C0042BD4686E9C
:101D2000B0F5005F20D00DDCA0B1B0F5805F0FD121
:101D300015E0EA6CDBF8001021F030011143CBF81C
:101D40000010E8E7B0F5405F13D0B0F5804F10D039
:101D500001240FE0386840F40030386009E0009852
:101D6000002101F081FE03E00198002101F00CFF49
:101D700004468CB126462888C043800429D4A86E26
:101D8000B0F5403F23D010DC08B3B0F5803F14D04D
:101D9000B0F5003F0FD115E06A6ED9F8001021F4BC
:101DA000E0411143C9F80010E5E7B0F5802F0ED0EF
:101DB000B0F5A02F0BD001240AE00098012101F01A
:101DC00053FE03E00198012101F0DEFE044694B1C8
:101DD00026462888C04340042AD4D5F8B400B0F180
:101DE000405F23D010DC08B3B0F1805F14D0B0F1B5
:101DF000005F0FD115E0AA6ED9F8001021F4E021A0
:101E00001143C9F80010E4E7B0F1804F0ED0B0F1F3
:101E1000A04F0BD001240AE00098012101F024FE1C
:101E200003E00198012101F0AFFE04465CB12646B3
:101E30002868C043400117D4286D98B1B0F5807F61
:101E40000BD001240FE0D5F8B420D8F8001021F011
:101E5000E0411143C8F80010EAE70098012101F0C1
:101E600003FE044674B126462888C04300041ED4ED
:101E7000686FD0B1B0F1805F0DD0B0F1005F0FD0CE
:101E8000012413E02A6DDBF8001021F48071114366
:101E9000CBF80010E8E7386840F40030386004E020
:101EA0000098012101F0E0FD044674B1264628683F
:101EB000C043C00120D4A86CE0B1012810D0022892
:101EC00013D0032816D0012415E06A6FD9F800104A
:101ED00021F040511143C9F80010E8E72C440258A2
:101EE000386840F40030386004E00098022101F0C6
:101EF000BBFD04466CB126462868C04340024DD461
:101F0000FA48016841F480710160FFF753F8824696
:101F10000EE0AA6CDBF8001021F003011143CBF8AE
:101F20000010E9E7FFF746F8A0EB0A00642833D871
:101F3000EE480068C005F5D57CBBDFF8B4A3B5F862
:101F4000B810DAF8000001F4407100F440708842E3
:101F500011D0DAF80010DAF8002021F4407142F4D0
:101F60008032CAF80020DAF8002022F48032CAF861
:101F70000020CAF80010D5F8B800B0F5807F1AD15B
:101F8000FFF718F8029012E0FFF714F80299411ACF
:101F900041F2883081420AD9032426462878DFF8A6
:101FA00050A3C043AAF11C0AC00721D03DE0DAF8D3
:101FB00000008007E8D5D5F8B810C1F30120032848
:101FC000CC480DD0016821F47C510160B5F8B820EF
:101FD000DAF80010C2F30B021143CAF80010DDE773
:101FE000C54A036802EA111223F47C511143ECE75D
:101FF000D5F88000182816D005DCA0B1082808D034
:10200000102804D10AE020280DD028280BD0012464
:102010000AE00098012101F027FD03E00198012169
:1020200001F0B2FD044664B126462878C04380071B
:102030001FD4E86F06281AD2DFE800F0170D121738
:102040001717D5F88020DAF8001021F03801114375
:10205000CAF80010E9E70098012101F005FD03E04E
:102060000198012101F090FD04467CB100E00124BB
:1020700026462878C04340071FD4D5F89800062884
:1020800019D2DFE800F0160C11161616EA6FDAF80E
:10209000001021F007011143CAF80010E9E7009889
:1020A000012101F0E1FC03E00198012101F06CFD48
:1020B0000446A4B100E0012426462878C0438006E7
:1020C0002BD4D5F89400B0F1405F24D011DC10B3CC
:1020D000B0F1805F15D0B0F1005F10D116E0D5F8F7
:1020E0009820D8F8001021F007011143C8F800101B
:1020F000E3E7B0F1804F0ED0B0F1A04F0BD0012438
:102100000AE00098002101F0AFFC03E001980221F1
:1021100001F03AFD044694B126462878C0434006B3
:102120002BD4D5F8A000B0F5406F24D011DC10B34B
:10213000B0F5806F15D0B0F5006F10D116E0D5F86E
:102140009420DAF8001021F0E0411143CAF80010A1
:10215000E3E7B0F5805F0ED0B0F5A05F0BD00124AF
:102160000AE00098002101F07FFC03E001980221C1
:1021700001F00AFD044694B126462878C0430006C3
:102180002BD4D5F8A400B0F5C04F24D011DC10B387
:10219000B0F5005F15D0B0F5804F10D116E0D5F83E
:1021A000A020D8F8001021F4E0511143C8F8001025
:1021B000E3E7B0F5004F0ED0B0F5204F0BD001246F
:1021C0000AE00098002101F04FFC03E00198022191
:1021D00001F0DAFC044654B126462878C0430007D3
:1021E0001ED4D5F88800B0F5805F0AD00FE0D5F88E
:1021F000A420D8F8001021F460411143C8F8001061
:10220000EBE70198022101F0BFFC00B10126D5F8EF
:102210008820DAF8001021F440511143CAF8001068
:102220002878C043C00613D4D5F89C00B0F5807F51
:1022300005D10198022101F0A7FC00B10126D5F8D3
:102240009C20D8F8001021F440711143C8F8001008
:102250002868C043000316D4D5F8A80038B1B0F5FB
:10226000803F09D0B0F5003F0BD001240AE0009870
:10227000002101F0F9FB03E00198022101F084FC48
:1022800004468CB126462868C043400322D4D5F8C2
:102290008C00B0F5801F11D0B0F5001F13D0B0F541
:1022A000401F15D0012414E0D5F8A820D8F800105C
:1022B00021F440311143C8F80010E4E7386840F4D5
:1022C0000030386004E00198012101F05DFC044613
:1022D000A4B126462868C043C00325D4686DB8B1B0
:1022E000B0F5803F19D001241DE0000000480258DD
:1022F0007044025810440258CFFFFF00D5F88C20DC
:10230000DAF8001021F440111143CAF80010E1E797
:10231000386840F40030386004E00098022101F091
:10232000A3FB0446E4B126462868C043800005D4D8
:102330000198022101F028FC00B101262868C04361
:1023400080031CD4D5F88400B8B1B0F5807F10D0DC
:10235000B0F5007F11D0B0F5407F0ED001240DE024
:102360006A6DDBF8001021F480311143CBF80010C6
:10237000DAE7386840F400303860E4B3264628686D
:10238000C043C00207D4AA6FD9F8001021F0004161
:102390001143C9F800102868C043C00007D44A4858
:1023A000D5F8BC20016821F4804111430160286800
:1023B000C043800207D42A6FD9F8001021F0807141
:1023C0001143C9F800102868C043400009D43E48B2
:1023D000016821F4004101600168D5F8C020114373
:1023E00001602868C04309D4AA6DDBF8001021F011
:1023F0004051114300E016E0CBF800102868C043BC
:10240000000208D4D5F89020DAF8001021F4400139
:102410001143CAF8001028790024C04300F00100DD
:1024200020430AD00FE0D5F88420DAF8001021F418
:1024300040711143CAF80010A1E70098002101F093
:1024400013FB00B106462879C04300F00200204388
:1024500005D10098012101F007FB00B1064628795B
:10246000C04300F00400204305D10098022101F090
:10247000FBFA00B106462879C04300F0080020436B
:1024800005D10198002101F07FFB00B106462879B3
:10249000C04300F01000204305D10198012101F054
:1024A00073FB00B106462879C04300F020000443C6
:1024B00004D10198022101F067FB00B916B1012097
:1024C000BDE8FE8F0020FBE7104402582DE9F05FC5
:1024D00004000F467ED0DFF83882D8F8000000F004
:1024E0000F00B8420CD2D8F8001021F00F01394388
:1024F000C8F80010D8F8000000F00F00B84269D109
:102500002078844D40070AD52069296801F07001C0
:10251000884204D9296821F070010143296020789C
:102520007C4E361D00070AD56069316801F07001E4
:10253000884204D9316821F070010143316020786C
:10254000C0060AD5A069316801F4E061884204D967
:10255000316821F4E061014331602078DFF8B4B1E3
:1025600080060BF1080B0CD5E1695846DBF800201A
:1025700002F07002914204D9026822F070020A430C
:102580000260207880070AD5E068296801F00F0111
:10259000884204D9296821F00F010143296020787D
:1025A000C0073ED05B49A2682868183920F47060E3
:1025B000104328606068022818D0032819D00968E1
:1025C000012819D0490700294ADADFF848A1AAF101
:1025D000080A00E044E0DAF8002022F00702024393
:1025E000CAF80020FEF7E6FC814612E0096889037C
:1025F000E9E709688901E6E7C905E4E7FEF7DAFCDF
:10260000A0EB090141F28830814202D90320BDE8E4
:10261000F09F6168DAF8000000F03800B0EBC10FFD
:10262000ECD1207880070AD5E068296801F00F0115
:10263000884204D2296821F00F0101432960D8F8AB
:102640000010404601F00F01B9420BD9016821F09A
:102650000F0139430160006800F00F00B84201D05B
:102660000120D4E7207840070AD52069296801F0C5
:102670007001884204D2296821F070010143296069
:10268000207800070AD56069316801F0700188423E
:1026900004D2316821F07001014331602078C00616
:1026A0000AD5A069316801F4E061884204D231683A
:1026B00021F4E06101433160207880060CD5E169A6
:1026C0005846DBF8002002F07002914204D2026802
:1026D00022F070020A43026000F088F80E492A686E
:1026E0002B68C2F3032203F00F038A5CC95C02F07B
:1026F0001F0201F01F01D040084A20FA01F11160C9
:102700000749086007480068BDE8F05FFEF7E0BED3
:102710000020005218440258C0F70208240000208C
:10272000200000201800002070B5144C3F220260E9
:10273000124A24680832131D114D04F00704446046
:1027400016681C1D06F470668660166806F00F0693
:10275000C660126802F0700202611A6802F070022C
:1027600042611A6802F4E0628261226802F070023B
:10277000C261286800F00F00086070BD1044025864
:102780000020005230B500F031F80B4A0B490C4BD9
:1027900015681468C5F3032204F00F048A5C095D10
:1027A00002F01F0201F01F01D040064A20FA01F199
:1027B00019601060084630BD18440258C0F702087E
:1027C000240000202000002000B5FFF7DBFF0549B2
:1027D0000968054AC1F30221515C01F01F01C8409C
:1027E00000BD00001C440258C0F70208454970B5FE
:1027F00045480968434B103B11F0380208D00111DD
:10280000082A03D0102A0BD0182A0BD0084670BD16
:1028100019688906FBD51968C1F3C101C84070BDAC
:102820003A4870BD3749374D18310C1D24350A68B8
:10283000096826682D6802F0030406F00102C1F35E
:102840000511C5F3CC0515FB02F200EE102AB8EE17
:10285000400AE9B32F4ADFED2E0AB7EE001A6CB139
:10286000DFED2D1A012C01D0022C43D002EE101AFC
:102870001068F8EE422A81EEA22A1EE01C68A40627
:1028800011D51B6801EE901A1168C3F3C103F8EE6D
:10289000612AD84001EE900AC1F30800F8EE611AEF
:1028A00081EEA22A0BE001EE901ADFED1C2A00BF98
:1028B000F8EE611A106882EEA12AC0F3080001EE5A
:1028C000900AF8EE611A40EE201A31EE810A00E01B
:1028D00015E022EE000A1068C0F34620401C00EE0E
:1028E000900AF8EE600A80EE201ABCEEC10A10EEE3
:1028F000100A70BD01EE901ADFED092AD8E700201A
:1029000070BD0000104402580090D00340787D0153
:1029100000000039304402580024744A0024744CEA
:1029200020BCBE4B2DE9F05F04007DD0FF4F207826
:10293000FE4D1837DFF8F493103DC00748D0D9F8A2
:102940000000396800F03800102815D0182803D18D
:1029500001F0030002280FD06068B0F5803F12D06C
:1029600010B1B0F5A02F18D0286820F4803028606E
:10297000286820F4802009E02868800328D5606852
:102980000028D2D024E0286840F4803028606068B5
:1029900088B1FEF70FFB064609E0286840F4802066
:1029A0002860F0E7FEF706FB801B64286FD82868D4
:1029B0008003F7D50CE0FEF7FDFA064605E000BF00
:1029C000FEF7F8FA801B6428F0D828688003F7D453
:1029D000207841F20308D54E0C3E800769D5D9F81E
:1029E0000000396810F038000ED0182801D188078F
:1029F0000AD0E06890B3296821F0190101432960E9
:102A0000FEF7D8FA824631E02868400702D5E06830
:102A100000288AD0E168286820F01900084328605F
:102A2000FEF7C8FA824607E0DFE000BFFEF7C2FA11
:102A3000A0EB0A000228B9D828684007F6D500BFE5
:102A4000FEF7B2FA40451BD82069402812D0316801
:102A500021F47C3141EA003030602AE018E000BF08
:102A6000FEF7A8FAA0EB0A0002289FD828684007C2
:102A7000F6D5E5E7306820F47C3040F40030EBE731
:102A8000207C316821F0FE4141EA0060E4E70DE17D
:102A9000286820F001002860FEF78CFA824605E0E5
:102AA000FEF788FAA0EB0A0002288DD828684007B4
:102AB000F6D42078C0065DD5D9F80000DFF86CB2F6
:102AC000396800F03800ABF1040B082810D0182842
:102AD00003D101F0030001280AD0E069002828682A
:102AE00038D040F080002860FEF764FA824623E088
:102AF0002868C00523D5E069802876D11FE0206AC8
:102B0000202821D0316821F0F84141EA806030600E
:102B100030E000BF94F82010DBF8002022F07C5257
:102B200042EA0161CBF8001024E000BFFEF742FA50
:102B3000A0EB0A00022898D82868C005F6D5FEF751
:102B400033FA4045E6D8DAE7306820F0F84040F044
:102B50008040DCE720F080002860FEF72BFA064674
:102B600005E000BFFEF726FA801B02289DD82868E2
:102B7000C005F7D42078000729D56C486169643016
:102B800000298046016811D041F001010160FEF783
:102B900011FA064605E000BFFEF70CFA801B02287A
:102BA000C9D8D8F800008007F6D510E021F001015F
:102BB0000160FEF7FFF9064605E000BFFEF7FAF9EF
:102BC000801B022872D8D8F800008007F6D420783D
:102BD000800623D5A0690028286810D040F48050D2
:102BE0002860FEF7E7F9064605E036E1FEF7E2F970
:102BF000801B02285AD828688004F7D50EE020F4FC
:102C000080502860FEF7D6F9064604E0FEF7D2F9B8
:102C1000801B02284AD828688004F7D4207840070F
:102C20004FD5DFF80C81D8F8001041F48071C8F856
:102C30000010FEF7BFF9064605E000BFFEF7BAF93F
:102C4000801B642832D8D8F80000C005F6D5374E6E
:102C5000A068603601280AD008B1052813D0306872
:102C600020F001003060306820F0040002E030689D
:102C700040F001003060A06841F2883A90B1FEF760
:102C800099F980460AE0306840F004003060EEE7D1
:102C9000FEF790F9A0EB0801514507D8306880078E
:102CA000F6D50EE0FEF786F9804607E084E000BF27
:102CB000FEF780F9A0EB080151457DD83068800708
:102CC000F6D4606AB0B3DFF86480D9F8001008F178
:102CD00020084FF6F87B08F10409C1F3C20103296B
:102CE000A8F1040A69D00228286820F080702860C2
:102CF00003D0FEF75FF9044684E0FEF75BF9064671
:102D000005E000BFFEF756F9801B022877D8286837
:102D10008001F7D4E26A40F2F331386854F8283F72
:102D2000884340EA02101843386004E01044025817
:102D300000480258B5E0217B434622894FF4FE0C3F
:102D4000208A4FF0FE474902267D521E401EA1F503
:102D50000071C2F308088AB2761E0CEA004042EA0B
:102D600008020243504607EA06610A431A60DAF88D
:102D7000002022F00102CAF80020D9F80020266ABB
:102D800022EA0B0242EAC602C9F80020DAF8001073
:102D9000A26921F00C011143CAF800100168E26930
:102DA00021F0020111430160016841F480310160AA
:102DB000016841F4003101E021E027E00160016891
:102DC00041F480210160016841F00101016028683F
:102DD00040F080702860FEF7EDF8044605E000BF83
:102DE000FEF7E8F8001B022809D828688001F7D50B
:102DF00057E000BFFEF7DEF8001B022802D90320CF
:102E0000BDE8F09F28688001F4D44AE039680128C1
:102E1000D8F8000021D0A26A01F0030393421CD12C
:102E2000E26AC1F305118A4217D1216BC0F308028F
:102E3000491E8A4211D1616BC0F34622491E91425C
:102E40000BD1A16BC0F30642491E914205D1E16B43
:102E5000C0F30660491E814201D00120D0E7A16C79
:102E60004E46D9F80000C0F3CC00814219D0DAF800
:102E70000000554620F00100CAF80000FEF79AF85D
:102E80004FEA0007FEF796F8B842FBD0A26C306814
:102E900020EA0B0040EAC2003060286840F00100E0
:102EA00028600020ACE7000070B504000D4603D098
:102EB00094F82C0010B107E0012070BD002084F8C8
:102EC0002D00204600F018F8022084F82C0020681D
:102ED000211DFDF7B0FCD4E900022946FDF7FCFCFA
:102EE00004480121026842F00042026084F82C107C
:102EF000002070BD00400052FDF7B0BE10B5044682
:102F000090F82C00022804D094F82C00012801D05D
:102F1000012010BD022084F82C002068FDF7C0FCC1
:102F2000012084F82C00002010BD000070B504467C
:102F300090F82C000D46022804D0012803D0052863
:102F400001D0012070BD022084F82C002068FDF71C
:102F5000B0FC2868022805D05FF0010084F82C003E
:102F6000002070BD0520F9E770477047704710B525
:102F7000040003D094F83D0010B107E0012010BD1B
:102F8000002084F83C00204600F022F8022084F85B
:102F90003D002068211D00F0CFFF012084F848008B
:102FA00084F83E0084F83F0084F8400084F8410033
:102FB00084F8420084F8430084F8440084F8450013
:102FC00084F8460084F8470084F83D00002010BDD6
:102FD0007047000090F83D10012901D00120704792
:102FE000174A022180F83D100168CB6843F00103C5
:102FF000CB600068904214D0B0F1804F11D01149DD
:1030000088420ED0104988420BD01049884208D01F
:103010000F49884205D00F49884202D00E498842A4
:1030200007D181680D4A1140062906D0B1F5803FCD
:1030300003D0016841F001010160002070470000E9
:10304000000001400004004000080040000C004067
:10305000000401400018004000400140070001004A
:10306000704770B50446006800250169C9438907A7
:1030700015D4C168C943890711D4EA1E0261012130
:103080002177206880698007204602D0FFF7E8FF9B
:1030900004E000F0A7F8204600F0A5F825772068A6
:1030A0000169C943490717D4C168C943490713D403
:1030B00002216FF00402026121772068806910F418
:1030C000407F204602D0FFF7CBFF04E000F08AF8F3
:1030D000204600F088F8257720680169C943090770
:1030E00016D4C168C943090712D404216FF008023D
:1030F000026121772068C0698007204602D0FFF76F
:10310000AFFF04E000F06EF8204600F06CF8257781
:1031100020680169C943C90617D4C168C943C906F3
:1031200013D408216FF01002026121772068C06972
:1031300010F4407F204602D0FFF792FF04E000F039
:1031400051F8204600F04FF8257720680169C943FF
:10315000C90708D1C168C943C90704D1891E0161E3
:10316000204600F041F820680169C943090609D4E6
:10317000C168C943090605D46FF08001016120468A
:10318000FFF7F3FE20680169C943C90509D4C16886
:10319000C943090605D46FF4807101612046FFF729
:1031A000E3FE20680169C943490609D4C168C943DF
:1031B000490605D46FF040010161204600F01EF879
:1031C00020680169C94389060BD4C168C9438906CF
:1031D00007D46FF0200101612046BDE87040FFF781
:1031E000C5BE70BD7047704700680349884201D171
:1031F000FEF738B970470000004801407047FEE70D
:1032000001688A69D243920701D400228A62006869
:103210008169C943C90703D0816941F00101816116
:10322000704700002DE9F0470446006800268946F3
:1032300017464FF0200835468169C90641D510214F
:10324000C1612FE0B9F1FF3F2CD0FDF7B3FEC11BE8
:10325000494502D8B9F1000F24D12068426894F89A
:103260004210836902F48042DB431B0415D4B2F59B
:10327000804F12D0202910D0416841F48041416034
:10328000FDF798FE074608E0FDF794FEC01B1928DD
:1032900003D9012645F0200504E020688069C04379
:1032A0008006F1D420688069C043800602D5002ED4
:1032B000C8D003E016B92168C1F81C80012645F08A
:1032C000040521688869C20505D54FF48072CA617A
:1032D00045F00105012641050AD5216880054FF416
:1032E000806245F00805CA614FF0010602D40AE089
:1032F000800507D5206801264FF4007145F00205CE
:10330000C16100E08EB12046FFF77AFF20680021FE
:10331000074F43683B404360606C2843606484F817
:10332000418084F8421084F840103046BDE8F087B0
:1033300000E800FE2DE9F843174604461548DAB2C6
:10334000DDE908981E4600900023204600F056F85C
:1033500042464946204600F0CCF8B8B9012EFDB2ED
:1033600008D02068390A816242464946204600F06A
:10337000C0F858B920688562002240214B4620469B
:10338000CDF8008000F052F8002800D00120BDE800
:10339000F8830000002000802DE9F8430446164819
:1033A00017461E46DAB20090C3022046DDE90898AF
:1033B00000F024F842464946204600F09AF8B8B991
:1033C000012EFDB208D02068390A81624246494682
:1033D000204600F08EF858B92068856200228021CE
:1033E0004B462046CDF8008000F020F8002800D0A1
:1033F0000120BDE8F88300000020008070B500685F
:10340000C1F3090141EA0241074D049C19434FF4FD
:1034100080664268214306EA54532B439A4321F0C5
:1034200000410A43426070BDFF63FF032DE9F04194
:103430001E4617460D460446DDF8188021E0701C34
:103440001FD0FDF7B7FDA0EB0800B04200D8C6B909
:103450002068806935EA000011D00020B84210D100
:10346000626C002084F84000202142F02002626457
:1034700084F8411084F842000120BDE8F081012069
:10348000ECE72068806935EA000004D00020B842EB
:10349000D5D00020F1E70120F9E770B516460D46BA
:1034A00004461FE0324629462046FFF7BBFE08B11E
:1034B000012070BDFDF77EFD801BA84200D88DB9AC
:1034C00020688069C04380060CD5626C002084F8B7
:1034D0004000202142F02002626484F8411084F808
:1034E0004200E5E720688069C0438006DAD4002006
:1034F00070BD70B516460D46044621E03246294699
:103500002046FFF78FFE08B1012070BD681C17D060
:10351000FDF750FD801BA84200D88DB92068806956
:10352000C04380070CD5626C002084F84000202145
:1035300042F02002626484F8411084F84200E3E71C
:1035400020688069C0438007D8D4002070BD000087
:103550000148FEF729B80000CC0500202DE9FE4FF8
:1035600081460068882493468D888C2204EBCB1713
:103570008A46C3689421BE46C459C3F30B432B4407
:1035800004F470441F04019702EBCB1240F80E4084
:1035900001EBCB13DAF800709C214FF0AC0C01EB7F
:1035A000CB1440F2077102910CEBCB11D9F800C09B
:1035B00098250020CDF800C0A02605EBCB15DCF83F
:1035C0000CC006EBCB16CCF30B4C0CF1010C07EB4B
:1035D0000C08DDF800C0019F48EA07084CF80E808F
:1035E000D9F80070BAF80CC0B846FF68C7F30A07EC
:1035F00067444FEA074E58F8027007F4704C48F8D9
:1036000002C0D9F800C0DAF80870DCF80C80C8F302
:103610000A0808F10108B84448EA0E084CF802808C
:10362000D9F80020D75827F00707D750D9F80070ED
:10363000DAF81020FA509AF831209AF818304FEA48
:10364000022C9AF83220120442EA0362D9F80030C0
:103650001F5918519AF8303043EA0C031343D9F834
:1036600000201351D9F80020535923F0FF03535180
:10367000D9F80020DAF814305351D9F800209359C2
:10368000029CA3439351D9F80030DAE9072422437E
:103690009A51D9F8002053585050D9F80020DAF840
:1036A00024005050DAF81000C8B301283AD004289A
:1036B0003AD0022838D0032836D0072834D0012049
:1036C000D9F80030B02505EBCB11B42284245D5825
:1036D00002EBCB1205F0E0255D50DAE9003504EB92
:1036E000CB14EB1ABAF8285043434543D9F80000ED
:1036F000DB1D43EA05434350D9F8000081586FF3BE
:103700000A018150D9F80000DAF82C108150D9F85C
:103710000000015941F001010151BDE8FE8FFFE7B2
:103720000420CDE70320CBE70220C9E710480021A1
:103730000E4A10B5C0E900218160C1604164816416
:10374000C164016541658165C165FDF711FA08B184
:10375000FDF76FF806480121FDF718F9002803D09E
:10376000BDE81040FDF765B810BD00000010005224
:10377000CC040020F0B587B01C216846FCF796FF0A
:10378000184800220423164D01264FF0400C202734
:10379000C0E90052C0E90263076102214FF4C0751D
:1037A000C0F814C0C0E9065207248E020662CF0298
:1037B000C0E909720325CDE90014CDE90451CDE932
:1037C000023406916946FFF76FFB08B1FDF731F847
:1037D00004490448103900F067FA07B0F0BD000052
:1037E00040410052440500200B4B00220B480121B0
:1037F00010B521F0A5FA0A4C0021074A483AA0600A
:10380000084821F03BFA044A002120600648243A87
:1038100021F034FA606010BDB0F702084F4402088E
:1038200008000020253D00083F4402082DE9F04330
:1038300087B014216846FCF739FF4748016841F416
:1038400080710160016801F480710591016841F4A3
:1038500080610160016801F480610591016841F0B7
:1038600040010160016801F040010591016841F0EB
:1038700010010160016801F010010591016841F437
:1038800000710160016801F400710591016841F067
:1038900008010160016801F008010591016841F02B
:1038A00001010160016801F001010591016841F029
:1038B00080010160016801F080010591016841F01B
:1038C00004010160016801F004010591016841F003
:1038D00020010160016801F020010591016841F0BB
:1038E00002010160006800221C4F202100F002004C
:1038F00005903846FDF752FBDFF864800122402135
:103900004046FDF74BFBDFF85C904FF480560022F9
:1039100031464846FDF742FB002469460125202038
:103920000090CDE9015438460394FDF721FA402078
:103930000090CDE90154694640460394FDF718FA1A
:1039400000966946CDE9015448460394FDF710FA04
:1039500007B0BDE8F0830000E0440258002402589C
:10396000001C0258000402581348002110B5114CE5
:103970000123124A0460C0E90121C0E90331416119
:103980008161C1610162FDF771FB08B1FCF751FF74
:1039900009480021FDF714FB08B1FCF74AFF06486F
:1039A0000021FDF739FB002803D0BDE81040FCF7EB
:1039B00040BF10BD0058004078050020B175703040
:1039C000F0B58DB034216846FCF770FE2448002421
:1039D000224B072100F1180E40F2A745A72240F222
:1039E000692603601123446040F24757846040F227
:1039F0007D2CC460C0E904418EE8EE1080F83440AC
:103A000080F8354080F83640FDF732FE08B1FCF70B
:103A100010FF4FF480604FF4167107AF0226049632
:103A20000522CB06CDE90040CDE9024187E80D0033
:103A3000CDE90A01FF250A48CDE905548DF830404B
:103A400000228DF8314069468DF83240FDF782FD45
:103A5000002801D0FCF7EDFE0DB0F0BD00100050C5
:103A6000CC050020FEE7FEE72DE9F047454D044672
:103A700089464FF0000A2868C04380070AD0414EAB
:103A8000283E306820F080603060FDF793FA0746EA
:103A9000B04608E00120BDE8F08700BFFDF78AFAD4
:103AA000C01B022867D8D8F800000001F6D42068AF
:103AB00029684FF4FE0721F47C313E0241EA0030D0
:103AC0002860207AA389B4F804C040022D4D2D4906
:103AD0005B1E227CACF1010C1035091DA0F50070B5
:103AE00080B2521ECCF3080C07EA034340EA0C00F4
:103AF000184306EA0262104328600868626920F0F1
:103B0000C000104308600A68A06922F02002024346
:103B10000A60281D0A6822F010020A6002684FF647
:103B2000F873E4699A4342EAC40202600868B9F192
:103B3000000F40F010020A6011D00868B9F1010FBF
:103B400011D040F400100860D8F80000444640F05E
:103B50008060C8F80000FDF72DFA05460DE0086802
:103B600040F40020EFE740F48010ECE7FDF722FA84
:103B7000401B022801D903208DE720680001F5D5FC
:103B8000504688E7284402582DE9F047454D044641
:103B900089464FF0000A2868C04380070AD0414E8A
:103BA000283E306820F080503060FDF703FA074669
:103BB000B04608E00120BDE8F08700BFFDF7FAF944
:103BC000C01B022867D8D8F800008000F6D42088EF
:103BD00029684FF4FE0721F07C713E0241EA005053
:103BE0002860207AA389B4F804C040022D4D2D49E5
:103BF0005B1E227CACF1010C1835091DA0F500708C
:103C000080B2521ECCF3080C07EA034340EA0C00D2
:103C1000184306EA0262104328600868626920F4CB
:103C20004060104308600A68A06922F400720243F1
:103C30000A60281D0A6822F480720A6002684FF642
:103C4000F873E4699A4342EAC40202600868B9F171
:103C5000000F40F480720A6011D00868B9F1010FBA
:103C600011D040F080700860D8F80000444640F061
:103C70008050C8F80000FDF79DF905460DE0086882
:103C800040F48000EFE740F40000ECE7FDF792F924
:103C9000401B022801D903208DE720688000F5D55C
:103CA000504688E7284402582DE9F84310270C466F
:103CB0000025814601260095C4E900674FF480582D
:103CC000C4E902654246FFF731F90120FCF7B4FF71
:103CD00002204246C4E90007C4E90265214648467D
:103CE000FFF724F9032142460820C4E90017C4E97C
:103CF000020521464846FFF719F940F231200090AD
:103D000004214246C4E90017C4E90260214648463E
:103D1000FFF70CF9484640F29631BDE8F843FFF74B
:103D2000EDB8000004480521806821F047F8012023
:103D300020F068FEFBE70000080000204FF0E020C4
:103D400010B500692BF09CFA012803D0BDE81040A3
:103D50002AF088BE10BD000070B59CB04C216846AA
:103D6000FCF7A4FC202113A8FCF7A0FC0220FDF71F
:103D70007BFE2D4900242D480A6822F001020A60CA
:103D80000A68026842F440420260026802F440425B
:103D90001B9202689204FCD5254A136843F0020383
:103DA0001360126802F002021B92026842F4404261
:103DB000026002680A6842F001020A60096801F0C4
:103DC00001011B9101688904FCD50DF1280C02202A
:103DD00009900521C0228CE80700C3030F90082535
:103DE0000D9001260E90CDE91054CDE90063684690
:103DF0001294FEF797FD08B172B6FEE740201A90C4
:103E00003F210301CDE916500322CDE9180313AB7E
:103E100013A883E816000421FEF758FB002801D000
:103E200072B6FEE71CB070BD2C040058184802584A
:103E3000F44402583348F0B5324903687839324ABD
:103E400043F470030360086840F0100008601068D5
:103E500000F00F00072804D2106820F00F00C01DEA
:103E600010602A490020294C10340B68284D43F07B
:103E700001030B6020600B682B400B60136803F09C
:103E80000F03072B04D9136823F00F03DB1D136006
:103E90001E4C204A1834204B261D371D20601B4C19
:103EA0001E4D28343060261D3860371D23603B1DB1
:103EB00035601C1D3A60251D2E1D1860331D2260C3
:103EC0002860326018600B684FF0B0420F4C23F44A
:103ED00080230B6060342060D2F8E400104940F485
:103EE0008040C2F8E40008686FF30F00B0F1005F93
:103EF00003D20C490120C1F8080143F2D2000A495B
:103F00000860F0BD88ED00E0002000520044025837
:103F10007FEDF6EA80020101000202020000FF01CB
:103F20000010005C00800051004000520148FFF783
:103F300098B80000740600202DE9F047274B4FF099
:103F4000804A274D02689842264E274F274C09D0B9
:103F5000504507D0A84205D0B04203D0B84201D0A6
:103F6000A04205D1D1F804C022F070024CEA02024E
:103F7000DFF87CC0DFF87C809842DFF87C900FD0BF
:103F800050450DD0A8420BD0B04209D0B84207D05E
:103F9000A04205D0604503D0404501D0484503D13B
:103FA000CD6822F440722A434D6922F080022A43F0
:103FB000026098428A68C2620A68826207D0A042A0
:103FC00005D0604503D0404501D0484501D109697D
:103FD000016301214161BDE8F0870000000001405C
:103FE0000004004000080040000C004000040140B4
:103FF00000400140004401400048014010B522F05B
:10400000B9FA002805D0D0E90021BDE810400846E3
:10401000104710BDFEE7090700284FEA116104DBD5
:1040200000F1E02080F80014704700F00F0000F16C
:10403000E02080F8141D704770B5002504466FF02D
:104040002F0608E0206805EB8502411C216006EB85
:104050004202007885182068007800F02CF80028CB
:10406000F0D1284670BD70B514460D461BB91146F7
:1040700011F0D2F90346142C03FB05F00ED0E11F1A
:1040800003290AD8072C0DD0082C0DD0092C0DD0EF
:104090000A2C0DD0002100EB810070BD590801FBF6
:1040A000050070BD0221F6E70421F4E71021F2E7D4
:1040B0004FF48071EFE73038092801D801207047AC
:1040C000002070470A48582110B500F0B1FE094899
:1040D000002221211FF0EAFE054CB83CC4F8B400D0
:1040E000B03402F097FB00202070607010BD00001B
:1040F00078070020456800082DE9F0470C46064681
:1041000015461146204600F0C4F840B10022294669
:10411000204600F07BF828B10020BDE8F0874FF082
:10412000FF30FAE708CC6F68002094E80610241FDF
:104130007F1A002FA2EB0309ACEB010C05DD08C6CA
:104140000F44012086E88600361FE96862688A1AF3
:10415000ACEB0207002F0CDDE268914209DA06EBB6
:10416000001C2268A3680F44401C4CF8042B8CE808
:104170008A006A6861688A4200DD1146EA68E3687D
:104180009A4200DA13462F6822685B1ABF1A002F82
:104190000BDD002B09DD06EB0018174401EB030CC7
:1041A00048F8042B401C88E88210AA682468151B74
:1041B000A9EB0504002CB0DDCD1806EB0013144468
:1041C000401C04C383E83200A7E770B50C6813688D
:1041D0009C4200DD234603604D685468A54200DD23
:1041E0002C4644608E689568AE4200DA354685609C
:1041F000C968D268914200DB1146C160AB424FF002
:10420000010001DC8C4200DD002070BD7CB504465D
:1042100008680D4616462168814238DB60686A6886
:10422000904234DBA268AB689A4230DCE268EB680B
:104230009A422CDC4EB3CDE900103246694628463E
:1042400000F07AF8002821D0D4E901103246CDE9F7
:1042500000016946284600F06FF8002816D0E16892
:1042600032462068CDE900016946284600F064F82E
:1042700000280BD0D4E902013246CDE9000169469D
:10428000284600F059F8002800D001207CBD00200D
:104290007CBD02688B689A420DDC82680B689A428A
:1042A00009DB4268CB689A4205DCC06849688842ED
:1042B00001DB01207047002070477CB50D4609687E
:1042C000044680681646884234DBE06869688842A4
:1042D00030DB2168A86881422CDC6068EA68904283
:1042E00028DC2EB3CDE9001032466946284600F09E
:1042F00023F8E8B9D4E901103246CDE90001694656
:10430000284600F019F898B9E16832462068CDE9EE
:1043100000016946284600F00FF848B9D4E90201C7
:104320003246CDE900016946284600F005F808B19B
:1043300000207CBD01207CBD2DE9FF4105460868B9
:104340000E461446296888422EDBAF68B8422BDC43
:1043500070686B68984227DBEA68904224DC002C86
:104360005DDD781AD21A401C521C00EBD07002EBB3
:10437000D27240105210904200DB1046844200DDA1
:104380000446009128680022314620440290686863
:1043900001906868204403906846FFF7CDFF38B16C
:1043A00002982044029032E0002004B0BDE8F08181
:1043B000E86800223146001B0190E86803906846D7
:1043C000FFF7BAFF18B10298204402900DE0A868E8
:1043D00000223146001B0090A86802906846FFF753
:1043E000ABFF30B10098001B00900198001B0190BA
:1043F00010E068680022019031466868204403900C
:104400006846FFF799FF50B10098001B0090039891
:1044100020440390314668461CF0E2FDC5E70120C8
:10442000C3E710B50C6813689C4200DA23460360AA
:104430004C6853689C4200DA234643608C6893685A
:104440009C4200DD23468360C968D268914200DC4B
:104450001146C16010BD00002DE9F041424C08B189
:10446000C06801E010F016FA002820617AD0416A95
:10447000002977D00A69002A74D0C968002971D050
:104480000022332110F098FA2069D0F8B0021CF015
:1044900033FC2069D0F8B40208B11CF02DFC20696F
:1044A000D0F8BC021CF028FC2069D0F8C0021CF037
:1044B00023FC2069D0F8C4021CF01EFC20690026F1
:1044C000D0F8B012B9B11CF06BFE22F02FFD22F033
:1044D000C9FA2069D0F85C1279B10022362110F0B7
:1044E0006BFA206910F052FA58B3206990F839102D
:1044F000012926D10AE0C0F85C6200F019F92069B0
:104500000022BDE8F041342110F056BA2AF024F917
:1045100000254FF03C080FE005F50F71415C51B9E3
:1045200000F5197000F0DBFC226908EB0511571843
:104530008ECF80E88E006D1C2069D0F85C12A942F5
:10454000EAD8206900214FF400723C3018F0B6F828
:1045500020692022002100F50F7018F0AFF82069C3
:10456000C9E7FFE7BDE8F081C00600200A48142132
:1045700010B518F0D3F80848084AD4380021C0F81C
:10458000D420074AC0F8D820064AC0E93721064996
:10459000C0F8E41010BD0000940700207F750008EB
:1045A0007B7500086F75000871E702082DE9F0437C
:1045B0001E0014469BB00D46814655D020680390DE
:1045C00060680490A0680590E0680690EB6A3BB9CB
:1045D000296B4FF48070814202D1696B814227D0F0
:1045E000D4E90202D4E90018AF8E411AB5F830C000
:1045F00005F14000BFB21FFA8CFCCDF800C0CDE938
:104600000170A2EB0802491C521C03A800F0D8F864
:104610000398216808440390049861680844049052
:10462000059821680844059061680698084406903A
:10463000D9F8082003A916A8FFF7C7FD002813D052
:10464000E969002207A815F0E6FF01280CD116A899
:1046500029460023029607AACDE9004048460AF001
:1046600081FC07A815F0A0FF1BB0BDE8F083000097
:104670002DE9F04F5FEA03091446A1B088460546CC
:1046800051D0D8F81C10002208A815F0C4FF01284A
:1046900049D1D8F8240094E88E0084B2060C04A80E
:1046A00080E88E0021460DF038FB04A831460DF05D
:1046B0002FFB1E4B0DF1640A049F0FCB8AE80F00FD
:1046C00029E0AA6804A91DA8FFF77FFD48B1CDF82D
:1046D00000A019ABCDE901B908AA414628460AF065
:1046E00041FC04982044049006982044069003E07E
:1046F0000DF1100A0DF1740BA968049889688842BD
:10470000DFDD05983919491E049730440590079854
:104710003044CDE90610A9680598C9688842E7DDEC
:1047200008A815F041FF21B0BDE8F08F20F802087D
:1047300070B50B4E5FF00004C4EBC40006EB8005BF
:10474000D5F8080108B115F0B7FA1C2105F58470F9
:1047500017F0F4FF641CE4B2042CEDD370BD00002C
:10476000C00600200849896F0AE04A68824202D0E8
:104770000A68824203D10A7E42F001020A76496940
:104780000029F2D170470000C006002001494069AD
:1047900088677047C006002002498A6F42618867B7
:1047A00070470000C00600200148042100F040BB13
:1047B000600800200148202100F03ABBF4060020E8
:1047C0002DE9F04F8BB015465FEA030B0E46044609
:1047D000DDE91597DDF850A00FD14FF480718A45BF
:1047E0000BD1894509D10020551EE560761E206059
:1047F000C4E901060BB0BDE8F08F202102A8FBF749
:1048000055FF4FF001080496CDE9075602A84B4624
:10481000CDE900785246594609951CF025FBCDE9B3
:10482000007804A84B46524659461CF01DFBCDE9C2
:10483000007806A84B46524659461CF015FBCDE9B8
:10484000007808A84B46524659461CF00DFB0499C7
:104850000298884200DB0846089A0699914200DBDC
:104860001146884204DA04990298884205DB03E085
:1048700006981146904200DB084620600499029891
:10488000884200DC0846089A0699914200DC1146ED
:10489000884204DD04990298884205DC03E006980A
:1048A0001146904200DC0846401EA060059903981E
:1048B000884200DB0846099A0799914200DB1146BD
:1048C000884204DA05990398884205DB03E00798DB
:1048D0001146904200DB08466060059903988842C3
:1048E00000DC0846099A0799914200DC114688428B
:1048F00004DD05990398884205DC03E0079811461A
:10490000904200DC0846401EE06073E70148182131
:1049100000F08EBAA80700202DE9F04F0446406C45
:1049200087B010B9A06C002871D0D4F86C905FEA01
:10493000090010D1204608F087FD5FEA000966D023
:1049400020460BF069FC0022484609211BF083FE3B
:10495000A07A80075BD44FF4807B4FF000085E465E
:104960004D465F46284600211AF0C0F940440FFA30
:1049700080F8284600211AF0BCF90021824628461A
:104980001AF0C0F9474306FB0AF6284647F30F27FB
:1049900046F30F2619F002FA0500E3D1B8F1000F33
:1049A00003D15E4501D15F4513D04FF480300595AA
:1049B00090FBF6F290FBF7F0C8F10001049504AE0D
:1049C00009B2CDE9006512B203B204F144001CF053
:1049D0004BFA0295039594F88C0000F00F00032821
:1049E000484615D019F01EFB0646484619F0E2F974
:1049F000034632460C200090A16C484608F0D4FBD8
:104A00000390484619F024FAC10711D014E03AE0A7
:104A100019F0A0FA0646484619F042FA0246334613
:104A200003200090616C484608F0BEFB0290E8E766
:104A30000299002900DD0295810703D4029900291B
:104A400000DA0295410703D40399002900DD03959C
:104A5000000703D40398002800DA039503AA02A9EB
:104A6000204624F05AFEDDE90212484600F0ADFA75
:104A7000A07A800707D4029AD4E913101144E164A4
:104A800003990844206507B0BDE8F08F2DE9F84F81
:104A90000446C06E5FEA00097ED094F88C000007DF
:104AA0007AD094F82570402148461AF01CFA4FF04D
:104AB000000508B9A5656565484619F0A3FA804662
:104AC000484619F0A7FA94F88C106FF0604A064631
:104AD000642001F00F010C29CAF1000B02D0032958
:104AE0003CD083E0656536B194F825300022A16D95
:104AF000C3F164031FE0A16DC7F16402514391FB50
:104B0000F0F0A065484619F055F90746484619F0F7
:104B100089FA02463B460C200090A16D484608F0F9
:104B200043FB00210246A0653EE000BF03FB01F706
:104B30000A4497FBF0F10029F8D100926A4620461A
:104B4000A56524F0EAFD009B52465946484608F008
:104B500015FE009901230A18002141E0B8F1000F69
:104B6000A56506D094F825300022616DC3F1640379
:104B700023E0616DC7F16402514391FBF0F0606581
:104B8000484619F08DF90746484619F0E3F90346FF
:104B90003A460320009000E078E0616D484608F056
:104BA00003FB002201466065484600F00EFA1AE059
:104BB00003FB01F70A4497FBF0F10029F8D10092BA
:104BC000002269462046656524F0A7FD009B5246F9
:104BD0005946484608F054FD00990123002201443B
:104BE00048461BF0D9FBA07A80074FD4606D00289F
:104BF0004CD1A06D002849D1D6B9484619F012FA17
:104C00000646484619F0D6F8002E06DC00280FDDCF
:104C1000002E02DA0123324603E0002808DA0123DD
:104C20004242484600211BF0B7FBA07A80072DD4F2
:104C3000B8F1000F1BD1484619F032F90646484634
:104C400019F088F9002E07DC002810DD002E03DAA9
:104C500001233146002204E0002808DA0123002263
:104C6000414248461BF098FBA07A80070ED40B21E6
:104C7000224648461BF0EFFCA07A800706D494F841
:104C80008C00E56620F00F0084F88C00BDE8F88FFA
:104C900070B504000D4688B003D10FF0FBFD040091
:104CA0002CD00FF079FE002828D0A06B800300D50F
:104CB000FEE74FF00006FDB12046009601960FF08A
:104CC000F9FD401E029020460FF04CFE401E6A4641
:104CD0002946039004A8FFF778FA00280ED094F82C
:104CE000390002280CD02F21204604AA0FF064FEC0
:104CF000012803D1002518E0C4F85C6208B070BD3B
:104D00009DE82D0004F13C060121C4F85C1286E800
:104D10002D0020E004EB051100223C3104A8FFF730
:104D200075FA0028EAD16D1CADB2D4F85C02A84235
:104D3000F0D8202804A902D36946C4F85C62D4F8EC
:104D40005C0204EB00103C300CF05EFFD4F85C0217
:104D5000401CC4F85C020022204632210FF02CFED9
:104D6000CCE7000010B500210446162219F07DFEA4
:104D700010F0FF000ED008498A6D82420AD3CA6D36
:104D8000042303EBC001515852F830202046BDE8FF
:104D90001040104710BD0000C006002010B5064CA2
:104DA000A06DC00017F07AFBE06514F0CDFDBDE802
:104DB000104015F057BA0000C00600202DE9F04160
:104DC0000E46074600F017F8044608E0214638462C
:104DD00000F023F8054636B12046B0472C46002C9B
:104DE000F4D1BDE8F0812146384600F09FF8204616
:104DF00014F062FFF2E7002800D0406870470022FC
:104E0000034600B5FFF7F7FF03E0521C184600F019
:104E100004F80100F9D1104600BD0068091D405892
:104E20007047006840587047002800D0806870477D
:104E300000224260C91C826021F0030101607047BA
:104E400070B504460068083017F028FB050013D041
:104E50000022014620461FF018FD626829462046C0
:104E60001FF00DFD616819B12A4620461FF00DFDA7
:104E7000A068656000B9A560284670BD2DE9F041C5
:104E800006000C460AD04CB1FFF7B5FFA04208D18E
:104E90003046FFF7D5FF051E01D01EE00020BDE81B
:104EA000F0813068083017F0F9FA051EF7D0306845
:104EB0002A460759304639461FF0E1FC3A46294652
:104EC00030461FF0E2FC2A46214630461FF0DDFC4A
:104ED0002246294630461FF0D2FC2846DFE770B54F
:104EE00004460068083017F0D9FA050013D00022F4
:104EF000014620461FF0C3FCA268294620461FF049
:104F0000C4FCA16819B12A4620461FF0B8FC6068AD
:104F1000A56000B96560284670BD28B1416809B92F
:104F2000806808B1002070470120704770B5040008
:104F30000ED0FFF760FF88424FF00002204608D1F4
:104F4000FFF76BFF011E606001D000221EE0A2602F
:104F500070BDFFF769FF8842206808440AD10168E4
:104F6000A16029B12046BDE8704000221FF087BC37
:104F7000626070BD05682046FFF74FFF0646024697
:104F8000294620461FF07BFC2A4631462046BDE8D4
:104F900070401FF07ABC10B50446006882680AB100
:104FA0002146904720680068002801D02060F5E77E
:104FB00010BD8068002800D0406A704780680028D3
:104FC00002D0408DC0F38120704770B516460C4664
:104FD000054651EA06001AD0284618F08CF8A86851
:104FE00001233246816921448161A868C169314445
:104FF000C161214628461AF043FB002228460C21B5
:105000001BF029FB012803D128461AF09CFA012045
:1050100070BD77B505000E4681B01BD0612219F036
:1050200024FD040016D02068A0B162222846314633
:1050300019F01BFD10F0FF020CD0236820460399E5
:1050400098470090BDF80000ADF80C009DF80200F4
:105050008DF80E00039804B070BD00002DE9F047F4
:1050600096B00746408D994615468A461E9E40F0EA
:105070000800788538463A85327A19F0F6FCA7F8A8
:1050800028900446327A5146384619F0EEFC798D64
:105090008046444521F00800788505D141462046E8
:1050A0000EF039FF002865D13D855146327A3846E9
:1050B00019F0DBFC044651463846A7F8289009F061
:1050C00045FD00682246317A1DF0EEF9307A0C2851
:1050D00024D147F6FF794C4501D0C8451ED138464A
:1050E00019F0BCFE00EBD0704510384618F0F1FD09
:1050F00000EBD07040104C4506D16A1C431C9A420C
:1051000001DA6C1C00E01C46C84507D1691C421C32
:10511000914201DA681C00E0401C80461748FFF706
:105120008FFE050029D02F60C5E90348307A287129
:105130006846C5F808A00BF05DFF114809ABFF22D7
:105140004FF00041CDE900500E4803900E48049006
:10515000002083E8070030880C90708840420D9052
:10516000F068089000208DF84E003069079068467E
:105170000BF0C8FF16B0BDE8F087FEE7D8060020A8
:1051800035CE020879D00208D1CF02080148142197
:10519000FFF74EBED80600202DE9F84F04279046B1
:1051A0000025894606462C46DEE000BFF16807EB85
:1051B000C400085881016ED480B230EA090112D0CF
:1051C0005FF0000130EA08000FD00020814262D079
:1051D000F06810216A4650F8340082461CF056FFF1
:1051E000002863D103E00121ECE70120EEE7112163
:1051F0006A4650461CF04AFF002857D112216A46E1
:1052000050461CF043FF002850D113216A465046F7
:105210001CF03CFFF0BB15216A4650461CF036FFDF
:10522000C0BB14216A4650461CF030FF90BB1621CB
:105230006A4650461CF02AFF60BB6A216A46504607
:105240001CF024FF30BB6B216A4650461CF01EFF49
:1052500000BB01216A4650461CF018FFD0B902215C
:105260006A4650461CF012FFA0B904216A46504617
:105270001CF00CFF70B905216A4650461CF006FF71
:1052800040B906216A4650461CF000FF10B90721BC
:105290006A4601E00AE066E050461CF0F7FE28B9D5
:1052A00030216A4650461CF0F1FE10B10320BDE8E3
:1052B000F88F68216A4650461CF0E8FEF0BB692171
:1052C0006A4650461CF0E2FEC0BB6E216A4650465C
:1052D0001CF0DCFE90BB6C216A4650461CF0D6FEEA
:1052E00060BB6D216A4650461CF0D0FE30BB3A21AF
:1052F0006A4650461CF0CAFE00BB3B216A46504637
:105300001CF0C4FED0B938216A4650461CF0BEFEDF
:10531000A0B93C216A4650461CF0B8FE70B93E2147
:105320006A4650461CF0B2FE40B940216A465046DB
:105330001CF0ACFE10B941216A4600E00FE0504677
:105340001CF0A4FE58B942216A4650461CF09EFE4D
:1053500028B948216A4650461CF098FE08B102253B
:1053600001E005B90125641C708DC0F30510A04251
:105370003FF61CAF28469AE70148006970470000D5
:10538000C006002070470000FF2805D0002804D088
:10539000832803D2074909E03F207047064A833833
:1053A000C0B2116B21B1926A824201D9085C704788
:1053B00000207047ACA00308C006002009490A4835
:1053C00010B51DF060F9074A4FF4967107481EF0BA
:1053D0006DFD0749C1F8D0010021BDE81040054826
:1053E0000CF0F2BC9898012070080020094F0208C8
:1053F000C0060020B5BD02082DE9F0410500904629
:105400000C4615D01CF03AFE0A4F064621462846A7
:10541000BA689047BA680446281941469047014641
:10542000701A03E06218AA5C2A55641CA042F9D2E3
:10543000BDE8F081280000202DE9F041094D90469B
:105440000E461C46074619466A689047306020B1F0
:10545000206800216A6838449047C8F80000BDE819
:10546000F0810000280000202DE9F04F85B01F4694
:1054700093468A4604464FF00000DDE90E5805B118
:1054800028605CB1217849B1BAF1000F06D05FEA1B
:1054900088714FF0000615D0002004E0002005B010
:1054A000BDE8F08F401C215C0A2904D00D2902D0F0
:1054B0000029F7D100E0401C002DF0D04FF0FF3163
:1054C0002960ECE75FEAC87101D06FF06047814660
:1054D000039021E00398CDF8109038B30022CDF866
:1054E000008004AB51462044CDE901323B465A4688
:1054F0001DF012FD04997F1A0E4488B103990144EE
:10550000039120780A280BD00D2809D0605C0A2866
:105510000ED00D280CD00846205C08B1002FD9DC35
:10552000039840B105B12E600398B8E70122D6E791
:10553000481C0390F4E7074A03A9204652689047A5
:10554000002D0146F0D00022504614F083FB0646A1
:10555000E9E70000280000202DE9F0410600174689
:1055600088461ED0002F1CD01CF088FD044638460B
:105570001CF084FD050014D00B4A2C4441463046F3
:1055800092689047411903E0621BB25C3255641E79
:10559000A142F9D930442A463946BDE8F04116F017
:1055A000FDBFBDE8F081000028000020002823D0C6
:1055B000A0F59C41B1F5A44F1DD36FF47F41014488
:1055C0005D2918D9A0F540513F2914D9A0F53A51C9
:1055D0007F2910D9A0F547512F290CD9A0F54151A9
:1055E000BF2908D9A0F57E4110390F2903D9A1F1AF
:1055F00020001F2801D80120704700207047202874
:1056000022D3A0F5C0611C391ED0A0F588515F39A6
:105610001AD0B0F58B5F17D0A1F2AC61032913D972
:10562000A1F5006104290FD91D3907290CD9373993
:10563000102909D9A0F57E41FF3905D0A0F57841A0
:10564000FF3901D000207047012070472DE9F0415B
:105650000D46074600212B46024608461EF098FEDE
:105660000446401C16F01AFF060007D0611C2B46AA
:105670003A461EF08DFE3046BDE8F081FEE70000A0
:105680000448182110B5FFF7D3FBBDE810400120F6
:105690001EF046BC400700202DE9F0471E46144688
:1056A0000D468246DDF8209015E000BF4FEA540811
:1056B0004A46504608FB065739469047002808DD01
:1056C00044F30000C0EB540407EB0605A4F1010409
:1056D00001E005DA4446002CE8D12046BDE8F08719
:1056E0003846FBE72DE9FF4F89B0054692464FF05B
:1056F00000040A98002800D1F74D6EE1252804D057
:105700000A992246641C53462DE2491C4FF00008BA
:1057100008460C9101782B2919D004DC202919D0D6
:10572000232904D119E02D290ED0302909D00026D3
:10573000C8B2FEF7C0FCB0B10CA8FEF77DFC06466F
:105740001FE048F001010AE048F0020107E048F0DC
:10575000040104E048F0080101E048F01001401C99
:1057600088460C90D6E70C9908782A2809D1169813
:1057700040C81690002E02DA764248F00208491C12
:105780000C910C984FF0000B01782E2919D1401C78
:105790000C9048F480680078FEF78DFC20B10CA8CE
:1057A000FEF74AFC83460CE00C9801782A2908D1C0
:1057B000169904C91691002A00DC0022401C934669
:1057C0000C900C9801786C290AD004DC68290FD061
:1057D0006A2919D128E0742929D07A2914D126E020
:1057E000401C0C9048F4807801786C291CD00BE0A8
:1057F000401C0C9048F080080178682904D148F0DA
:105800004001401C88460C9002460078692822D04E
:1058100015DC62281FD00DDC252872D050281AD044
:1058200058287FF46DAF16E048F40071E9E748F4BA
:105830008071E6E763287DD06428F2D10BE07328FD
:1058400079D004DC6F2806D07028EAD103E07528EF
:1058500001D07828E5D178280DD058280BD07028B1
:105860000BD0502809D06F2816D0622816D00A21F4
:1058700028F0100816E0102107E05378102148F4B2
:105880008878562B04D1521C0C921078582807D0D7
:105890001078502804D005E0082108E0022106E035
:1058A00048F020081078692803D0642801D028F037
:1058B0000C085FEA485001D528F0010810786928E3
:1058C00020D064281ED056287ED05FEA88507CD530
:1058D000169804ABC01D002283E8060820F00700DC
:1058E0000292CDE9076800F108015346026816915B
:1058F0004068CDE9002022460A99284600F016FAB1
:1059000067E02BE15FEA885028D516984FF0000C2D
:10591000C01D20F0070202F108001690D2E9000233
:10592000CDE9041CCDF818B0002ACDE9076803DAE8
:10593000012602E09AE0C4E0002602960023194600
:105940001B1A914101DA114603E00021404261EB4C
:10595000020153462246CDE90001CDE75FEAC85077
:105960000FD5169A01CA1692CDE9021BC10F002865
:10597000CDE9046800DC40425346CDE900012246EF
:1059800020E05FEA486005D5169810F8042B1690C1
:10599000D0B20BE05FEA086005D5169830F8042B0A
:1059A000169010B202E0169A01CA1692CDE9021BB7
:1059B000C70F0028CDE9046800DC40425346CDE91A
:1059C00000072246284601E010E01FE00A9900F097
:1059D0006CF904460C98401C0C900C99087800282F
:1059E0007FF48CAE544576D22246C0E01699AAEBDD
:1059F000040201C9169141680968009103680A9878
:105A000001192846FFF76EFE0444E3E75FEAC85039
:105A10000DD5CDE9021B16980022CDE90468011DC1
:105A2000169153460068CDE900022246CAE75FEAB4
:105A3000486005D5169810F8042B1690D0B20BE0EC
:105A40005FEA086005D5169830F8042B169090B2DE
:105A500002E0169A01CA16920027CDE9021B5346AE
:105A60002246CDE90007CDE90468ABE75FEA88701C
:105A70004FF0010706D509E022460A99641C5346F7
:105A80002020A847B74207F10107F5D31698224610
:105A9000641C534610F8041B169001F0FF0C0A9981
:105AA0006046A8475FEA887006D493E722460A99C1
:105AB000641C53462020A847B74207F10107F5D3DD
:105AC00088E7169850F8049B1690BBF100004B46EF
:105AD00004D0024604E048E0B55D00084FF0FF3214
