:020000040800F2
:10000000907D0020690300081D3C0008E7330008CC
:100010001B3C000851090008BD400008000000001A
:10002000000000000000000000000000E73E0008A3
:10003000010A0008000000001F3C0008E93E00081B
:100040008303000883030008830300088303000878
:100050008303000883030008830300088303000868
:100060008303000883030008830300088303000858
:100070008303000883030008830300088303000848
:100080008303000883030008830300088303000838
:100090008303000883030008830300088303000828
:1000A0008303000883030008830300088303000818
:1000B0008303000883030008830300088303000808
:1000C00083030008830300088303000883030008F8
:1000D00083030008830300088303000883030008E8
:1000E0008303000883030008000000008303000866
:1000F00083030008830300088303000883030008C8
:1001000083030008830300088303000883030008B7
:1001100083030008830300088303000883030008A7
:100120008303000883030008830300088303000897
:100130008303000883030008830300088303000887
:100140008303000883030008000000000000000093
:100150008303000883030008830300088303000867
:100160008303000883030008830300088303000857
:100170008303000883030008830300088303000847
:100180008303000883030008830300088303000837
:100190008303000883030008830300088303000827
:1001A0005137000845370008F509000883030008A7
:1001B0008303000883030008830300088303000807
:1001C00083030008830300088303000883030008F7
:1001D00083030008830300088303000883030008E7
:1001E00083030008830300088303000883030008D7
:1001F00083030008830300088303000883030008C7
:1002000083030008830300088303000883030008B6
:1002100083030008830300088303000883030008A6
:100220008303000883030008830300088303000896
:100230008303000883030008830300088303000886
:100240008303000883030008830300088303000876
:100250008303000883030008830300088303000866
:100260008303000883030008830300088303000856
:100270008303000883030008830300088303000846
:1002800083030008830300088303000800000000C4
:10029000830300088303000800F002F800F055F81B
:1002A0000AA090E8000C82448344AAF10107DA45D1
:1002B00001D100F04AF8AFF2090EBAE80F0013F0CE
:1002C000010F18BFFB1A43F00103184760D5040063
:1002D00080D504000A4410F8014B14F00F0508BF44
:1002E00010F8015B240908BF10F8014B6D1E05D002
:1002F00010F8013B6D1E01F8013BF9D1641E03D0DB
:10030000641E01F8015BFBD19142E4D37047000009
:100310000023002400250026103A28BF78C1FBD80E
:10032000520728BF30C148BF0B6070471FB510F09F
:1003300016F99DE8030000F00FFA00F039F91FBD2F
:1003400010B5002000F0A6F910BD00F071FA1146BA
:10035000FFF7ECFF0FF0F0F900F0A9FA03B4FFF794
:10036000EFFF03BC00F036F9094880470948004711
:10037000FEE7FEE7FEE7FEE7FEE7FEE7FEE7FEE755
:10038000FEE7FEE704480549054A064B70470000B2
:10039000C93F000899020008901D0020907D0020B0
:1003A000903D0020903D002010B5002000F093F912
:1003B000FFF7C6FFBDE81040012000F00BB92DE9A2
:1003C000F041074615460E46102000F00DF90400D6
:1003D0000AD06760C4E9026500F002F90168216093
:1003E00004600020BDE8F0810120FBE70EB5054662
:1003F00014460E4613A000F07CF9284600F079F967
:1004000016A000F076F9304600F073F915A000F060
:1004100070F900218DF80B100A210DF10A008DF8FA
:100420000A1008E094FBF1F201FB124294FBF1F494
:10043000303200F8012D002CF4DC00F05AF9FFF7FF
:10044000B3FF00002A2A2A20617373657274696FF2
:100450006E206661696C65643A2000002C20666934
:100460006C6520002C206C696E652000032A40F228
:10047000308010F0030C00F0158011F8013BBCF146
:10048000020F624498BF11F801CB00F8013B38BF5E
:1004900011F8013BA2F1040298BF00F801CB38BF6C
:1004A00000F8013B11F0030300F02580083AC0F08A
:1004B000088051F8043B083A51F804CBA0E8081032
:1004C000F5E7121D5CBF51F8043B40F8043BAFF365
:1004D0000080D20724BF11F8013B11F801CB48BFBF
:1004E00011F8012B24BF00F8013B00F801CB48BFF5
:1004F00000F8012B704710B5203AC0F00B80B1E82E
:100500001850203AA0E81850B1E81850A0E8185048
:10051000BFF4F5AF5FEA027C24BFB1E81850A0E851
:10052000185044BF18C918C0BDE810405FEA827C6B
:1005300024BF51F8043B40F8043B08BF7047D20782
:1005400028BF31F8023B48BF11F8012B28BF20F823
:10055000023B48BF00F8012B70474FF0000200B586
:10056000134694469646203922BFA0E80C50A0E8D6
:100570000C50B1F12001BFF4F7AF090728BFA0E884
:100580000C5048BF0CC05DF804EB890028BF40F850
:10059000042B08BF704748BF20F8022B11F0804F92
:1005A00018BF00F8012B7047704770477047000074
:1005B00070B5064C7C44064D7D4403E02068204421
:1005C0008047241DAC42F9D170BD0000C4DE040098
:1005D000D0DE040001491820ABBEFEE72600020071
:1005E000004870473C0E002070B5064600F098F8B1
:1005F000056806F10B0020F00704B4429CBF002000
:1006000070BD2B466A68BAB11068A04210D304F1DD
:10061000080188423CBF5068586007D351681019E0
:1006200041601168091B016058601460101D70BDA5
:1006300013465268002AE7D12146284600F078F890
:100640000028DED170BD70B50446051F00F068F8C3
:100650000068002C14BF446870BD002C18BFAC4269
:100660003CBF20466468F8D301680A18AA4218BF44
:10067000456003D12A680546114401602868411984
:10068000A1421CBF6C6070BD61686960216808444C
:10069000286070BD2DE9F0410646FFF7A1FF8046B6
:1006A000454613E016B1E068B0420ED120682860DC
:1006B000D4E90101D8F8007088472046FFF7C3FF4E
:1006C000D8F80000B842EBD100E025462C68002C99
:1006D000E8D1BDE8F08110B500F07AF8BDE810402F
:1006E00000F070B810B500F08BF8BDE8104000F0D5
:1006F00069B810B5044602E0641C00F004F82078E4
:100700000028F9D110BD08B569468DF80000032016
:10071000ABBE08BD00487047040E002070470000C3
:10072000004870470C0E00207047704770477047B4
:1007300038B504460A4600206946AFF30080002819
:1007400008BF38BD02460099204600F096F8012007
:1007500038BD012000F0CDB8F8B5AFF300800546F4
:1007600000200C46102000BF0646A819A0420DD953
:10077000324669460020AFF30080070008BF00F052
:10078000B8F80098A04218BF0546C419FFF7C8FF83
:1007900005600746F01D20F007004619284600F0C6
:1007A0000AF8B44208BFF8BDA21B31463868BDE85C
:1007B000F84000F062B800210160C0E90110704704
:1007C00010207047002801D0FFF704BF70470000D9
:1007D00010B5002102A000F073F8012010BD000048
:1007E000534947414252543A2041626E6F726D61E3
:1007F0006C207465726D696E6174696F6E000000C3
:1008000010B5002102A000F05BF8012010BD00002F
:100810005349475056464E3A2050757265207669C6
:10082000727475616C20666E2063616C6C65640027
:100830007546FFF76FFFAE4605006946534620F048
:100840000700854618B020B5FFF79CFDBDE82040A5
:100850004FF000064FF000074FF000084FF0000B7C
:1008600021F00701AC46ACE8C009ACE8C009ACE82F
:10087000C009ACE8C0098D467047034640688C4605
:10088000002818BF88423CBF03464068F8D3186868
:100890001844884207D00CF1030020F00700001D27
:1008A000411A521A0146081D0A60FFF7CCBE10B566
:1008B0000446AFF300802046BDE81040FFF74EBD70
:1008C00070B505460C460A2000E06D1CFFF71BFFC3
:1008D00035B128780028F8D102E0641CFFF713FF37
:1008E00014B120780028F8D1BDE870400A20FFF745
:1008F0000ABF10B500F004F8BDE81040FFF762BF72
:1009000010B5012805D0002103A0FFF7D9FF012071
:1009100010BD09A1F8E7000053494752544D454D19
:100920003A204F7574206F662068656170206D6590
:100930006D6F7279000000003A2048656170206D8B
:10094000656D6F727920636F727275707465640083
:10095000FEE70000214A30B5136823F0010313605D
:100960001F4A1368C3F30B140123A4F54065243D0B
:1009700006D01268C2F30B12A2F54064273C17D1CF
:10098000184A1268A2B9184A14684FF08A45B5EBA4
:10099000045F18D01468C4F30B04A4F58065833D8C
:1009A00011D01268C2F30B02A2F58064853C0AD014
:1009B0000E4A93609368002BFCD110601068884247
:1009C00009D0002030BD0A4A13601368002BFCD107
:1009D000074A083AF1E7012030BD0000002000E09E
:1009E00000ED00E0002004E00010005C0030024058
:1009F000084C0258014800F087B90000E4010020CB
:100A0000704772B6FEE7F0B50D68D1E90843CA69D0
:100A1000002D18D02243046824F4F84423431A43D9
:100A20000260D1E901231A43D1E9033423431A4375
:100A30004B6989691A430A4341686FF30E010A43FF
:100A400042600020F0BDD1E901563543D1E903678A
:100A50003E4335434E69896935430D43016815436B
:100A600025431D436FF30E010D430560E9E742691D
:100A700043F6FE739A4342EA410141610020704708
:100A8000D1E900231A438B68C9685B1E5B0143EA06
:100A900041210A4301696FF315010A4302610020F5
:100AA0007047000030B5CB684C695B1E641E002A9D
:100AB00020D01A03836842EA04521C4C23401A4394
:100AC00082604B680A685B1E521E42EA03138A6802
:100AD000521E43EA02230A8A097E521E491E43EA35
:100AE000024242EA0161C26802F070421143C160F1
:100AF000002030BD4D680A686D1E521E42EA051581
:100B00008A68521E45EA022242EA03330A8A097EB3
:100B1000521E491E43EA024242EA045242EA01617D
:100B2000826802F0704211438160E1E7FF0F0FFF1E
:100B3000F0B5054600201F23CC071CD001275B1E03
:100B40005C1C05D003F01F0607FA06F40C42F6D031
:100B500032B1082A19D0102A13D0182A0DD001203A
:100B6000002807D12B68596129688B6823F0180386
:100B700013438B60F0BD0120F2E7072BF0D3012077
:100B8000EEE7082BECD30120EAE7102BE8D3012095
:100B9000E6E7000010B50446002C02D0607F10B1DB
:100BA00006E0012010BD00202077204600F032F83A
:100BB00002206077207938B1D4E902122046FFF78D
:100BC000B7FF48B1012010BD216811484861206875
:100BD000816821F0180181606079A0B121682069E5
:100BE000086120688168626921F0600111438160B9
:100BF00020688168A26921F0800111438160012091
:100C00006077002010BD21684FF0FF300861E8E7F1
:100C1000B71DC10408B500680649884208D10648D6
:100C2000016841F400210160006800F40020009098
:100C300008BD0000004C0258E04402587047000014
:100C4000F0B54268012900D1826C90F86020012A39
:100C500020D0012780F86070022280F86120C1EB6B
:100C6000C10200EB8202283213895568948A45EA52
:100C70000346138A1B0543EA44531E43204C0A2DA6
:100C80000AD0092D08D0137B46EA036349B10B2D26
:100C90001AD01DE00220F0BDD36803F07F43334338
:100CA000F4E701684D6AA5431D434D62036811686E
:100CB000996151680A2901D009291BD1D1680268BC
:100CC00021F07F41916215E0118B43EA81430D4C85
:100CD0000168CD69A5431D43CD61036811681961A1
:100CE00051680A2901D0092904D1D168026821F08C
:100CF0007F41116260304770002101700020F0BD1B
:100D00000F0033FF0F003FFF2DE9F0470446206836
:100D1000456806684FF004094FF000074FF00108DE
:100D2000E90714D0F10512D5016821F48071016042
:100D3000606E40F0010060662068C0F8088084F8AA
:100D4000619084F86070616A09B120468847A806FE
:100D500015D5B00413D52068016821F40051016055
:100D6000216820208860606E40F00200606684F890
:100D7000619084F86070616A09B12046884728074D
:100D800015D5300513D52068016821F40061016094
:100D9000216808208860606E40F00400606684F876
:100DA000619084F86070616A09B1204688476807DD
:100DB0000CD570050AD52068016821F480610160B6
:100DC0002068C0F80890204600F06EF8A80713D5F8
:100DD000B00511D52068016821F400710160216817
:100DE00002208860606E606684F8618084F86070BC
:100DF000216A09B120468847E80612D5F00410D5CB
:100E00002068016821F48051016021681020886009
:100E1000606E606684F8618084F860702046FFF739
:100E20000DFFBDE8F087000070B50446002C04D02B
:100E300094F86100002510B106E0012070BD84F82F
:100E40006050204600F032F8022084F861006168AA
:100E5000E069014320680268124B1A4011430160A7
:100E6000A168A06901432068426B40F207139A43CE
:100E7000114341632068016CE2686FF30F01114375
:100E80000164208AA18A000540EA41512068426B32
:100E900022F44012114341636566012084F8610029
:100EA000002070BDBFFFF8FF7047000008B5006864
:100EB0000B49884212D10B48016841F010010160D2
:100EC000006800F01000009000225A20114600F047
:100ED0001FFFBDE808405A2000F00CBF08BD00000D
:100EE00000100052D444025870B5044600F0B8F91E
:100EF0000546601C02D004480078044400F0B0F9B4
:100F0000401BA042FAD370BD08000020F0B5B9B074
:100F1000142134A8FFF721FB3848016800296AD161
:100F200001210160C82102A8FFF717FB00204FF044
:100F30008071CDE902100024149402A800F060FF33
:100F400008B1FFF75EFD2E48016841F48051016051
:100F5000006800F48050019040F2FF603490022558
:100F600035953694032637960C27389734A92548AB
:100F700000F056F84FF683703490359536943796D6
:100F8000389734A9204800F04BF84FF47F40349054
:100F9000359536943796389734A91C4800F040F8B8
:100FA00048F233103490359536943796389734A9F3
:100FB000174800F035F84CF20370349035953694AC
:100FC0003796389734A9134800F02AF84FF63F00B7
:100FD0003490359536943796389734A90E4800F0FA
:100FE0001FF80D203490359536943796389734A9EC
:100FF0000A4800F015F839B0F0BD000000000020EC
:10100000D44402580020025800100258001C025814
:1010100000180258000C0258001402580008025828
:101020002DE9F84F00227B4D03264FF001080F27D2
:101030004FF0B04CE6E008FA02F31C409A46002C50
:101040007ED00B7903F00303012B01D0022B1BD1BF
:10105000D0F80890530006FA03FB29EA0B09D1F8EF
:101060000CB00BFA03FB4BEA090BC0F808B043685D
:1010700023EA0A0391F80490C9F3001909FA02F966
:1010800049EA0309C0F804900B79DB439B070ED0B3
:10109000D0F80C90530006FA03FA29EA0A09D1F8AD
:1010A00008A00AFA03FA4AEA090AC0F80CA00B7968
:1010B00003F00303022B14D1D30800EB8303D3F80E
:1010C00020A04FEA42794FEAD96907FA09FB2AEAD8
:1010D0000B0AD1F810B00BFA09FB4BEA0A0BC3F864
:1010E00020B0D0F80090530006FA03FA29EA0A0962
:1010F00091F804A00AF0030A0AFA03FA4AEA090A74
:10110000C0F800A04B6813F4403F7AD0424BD3F8AC
:10111000009049F00209C3F800901B6803F0020335
:10112000009322F0030909F1B049D9F808B49307F4
:101130004FEA137A07FA0AF32BEA030B374B00E066
:101140005FE0984201D100232DE0354B984201D158
:10115000012328E0334B984201D1022323E0324B94
:10116000984201D103231EE0304B984201D1042361
:1011700019E02F4B984201D1052314E02D4B9842E2
:1011800001D106230FE02C4B984201D107230AE03E
:101190002A4B984201D1082305E0294B984201D1FE
:1011A000092300E00A2303FA0AF343EA0B03C9F810
:1011B0000834DCF80030A343D1F804905FEAC92971
:1011C00000D52343CCF80030DCF80430A343D1F839
:1011D00004905FEA892900D52343CCF804306B687A
:1011E000A343D1F804905FEA893900D523436B60AB
:1011F0002B68A343D1F804905FEAC93900D5234393
:101200002B60521C0C6834FA02F37FF414AFBDE873
:10121000F88F000080000058F44402580000025883
:101220000004025800080258000C0258001002582E
:101230000014025800180258001C025800200258DE
:1012400000240258002A01D081617047090481619D
:101250007047000001480068000C70470010005CF7
:1012600001488068704700000800002090F8412085
:10127000202A01D00220704790F84020012A20D077
:10128000012280F84020242280F84120026813685F
:1012900023F0010313600268136823F48053136082
:1012A000026813680B43136001680A6842F0010288
:1012B0000A60202180F84110002180F840100020B1
:1012C00070470220704790F84120202A01D0022068
:1012D000704790F84020012A1ED0012280F840205B
:1012E000242280F841200268136823F00103136070
:1012F0000268136823F4706343EA012111600168F6
:101300000A6842F001020A60202180F841100021A1
:1013100080F84010002070470220704770B50446E6
:10132000002C04D094F84100002510B106E0012003
:1013300070BD84F84050204600F0CAF9242084F89B
:1013400041002068016821F00101016021686068A6
:1013500020F0706008612068816821F4004181609C
:10136000E068012808D02168A06840F40440886043
:10137000E068022806D009E02168A06840F4004037
:101380008860F5E721684FF4006048602068416894
:10139000114A114341602068C16821F40041C160D5
:1013A000D4E904010843A16940EA01202168C8602A
:1013B000D4E907010843216808602068016841F00A
:1013C000010101606564202084F84100256384F8F0
:1013D0004250002070BD0000008000022DE9FF4F48
:1013E00083B0044692469B46DDE91198109F94F81D
:1013F0004100202803D0022007B0BDE8F08FB7B12C
:10140000B9F1000F13D094F84000012814D0012046
:1014100084F84000FFF724FF05462046012200958E
:101420001923D10302F000F940B10120E4E74FF4A1
:10143000007060640120DFE70220DDE7222084F8ED
:101440004100402084F84200002666646762A4F8E8
:101450002A9066635B4604995246CDE90085204692
:1014600002F056F818B184F840600120C4E7618D9D
:10147000FF2738484FF08079FF294FF0007A08D9CC
:101480003A46278504994B460090204602F0B4F86E
:1014900009E0618D218553460090204694F828206C
:1014A000049902F0A9F80022434604212046009541
:1014B00002F0BAF808B101209EE72068406A616A2C
:1014C0000870606A401C6062208D401E80B22085DA
:1014D000618D491E6185618D01B3F8B900224346D3
:1014E00080212046009502F09FF808B1012083E793
:1014F000608DFF2808D93A46278504994B46204637
:10150000009602F079F809E0608D20855346009638
:10151000204694F82820049902F06EF8608D002887
:10152000C1D12A464146204602F0B3F808B1012055
:1015300062E720682021C16120684268064B1A409A
:10154000426084F8411084F8426084F840600020D2
:1015500052E700000024008000E800FE2DE9FF4F64
:1015600083B0044692469B46DDE91198109F94F89B
:101570004100202803D0022007B0BDE8F08FB7B1AA
:10158000B9F1000F13D094F84000012814D00120C5
:1015900084F84000FFF764FE0646204601220096CC
:1015A0001923D10302F040F840B10120E4E74FF4E1
:1015B000007060640120DFE70220DDE7212084F86D
:1015C0004100402084F84200002565646762A4F869
:1015D0002A9065635B4604995246CDE90086204611
:1015E00001F0D0FF18B184F840500120C4E7608DAD
:1015F000FF274FF08079FF284FF0007A08D93A464C
:10160000278504994B462046009501F0F5FF09E037
:10161000608D208553460095204694F82820049933
:1016200001F0EAFF32464146204602F05DF808B17B
:101630000120A1E7606A216800788862606A401C26
:101640006062608D401E6085208D401E80B22085C6
:10165000618D01B3F8B900224346802120460096EF
:1016600001F0E2FF08B1012086E7608DFF2808D96C
:101670003A46278504994B462046009501F0BCFF69
:1016800009E0608D208553460095204694F8282077
:10169000049901F0B1FF608D0028C3D13246414664
:1016A000204601F0F6FF08B1012065E720682021FF
:1016B000C16120684268054B1A40426084F84110BD
:1016C00084F8425084F84050002055E700E800FEBE
:1016D00010B5BAB00446142134A8FEF73EFFC82165
:1016E00002A8FEF73AFF1849206888422AD108214B
:1016F0000020CDE902100024249402A800F080FB11
:1017000008B1FFF77EF91148016841F080010160DE
:10171000006800F080000190302034901220359055
:10172000369437940420389034A90948FFF778FCA0
:1017300006480830016841F480010160006800F447
:10174000800001903AB010BD00580040E0440258BB
:10175000001C025802488168027811448160704779
:101760000800002010B5032000F0F2FA01F0A4F9FF
:101770000F490A68C2F303230E4AD35C03F01F0328
:10178000D840096801F00F01515C0B4A01F01F01BC
:1017900020FA01F11160094908600F2000F010F8EB
:1017A00008B1012010BD00F097FA002010BD000024
:1017B0001844025868050108180000201400002091
:1017C00070B504460F4D2A78002A0CD04FF47A7079
:1017D0000D49B0FBF2F00968B1FBF0F001F0EFFD4C
:1017E00018B1012070BD012070BD102C07D200225D
:1017F0002146501E00F08CFA6C60002070BD012064
:1018000070BD000008000020140000202DE9F04108
:1018100004460F46154694F8A00001281ED0012664
:1018200084F8A060022084F8A10005EB8500394609
:1018300000EBC500342204EB80003830FEF75BFE7D
:101840002A463946204601F089FF2068466284F81E
:10185000A160002084F8A000BDE8F0810220FBE731
:1018600070472DE9F04104462068856B466B4FF0C8
:1018700004084FF00007690715D5710713D5416BB0
:1018800021F0040141632068C0F83C80D4F8A40032
:1018900040F00100C4F8A40084F8A18084F8A0708E
:1018A0002046FFF7DDFFA80716D5B00714D520683E
:1018B000416B21F00201416321680220C863D4F822
:1018C000A40040F00200C4F8A40084F8A18084F8C9
:1018D000A0702046FFF7C4FF05EA06004FF001089C
:1018E000C0070ED02068416B21F0010141632068E0
:1018F000C0F83C8084F8A18084F8A070204600F0F5
:101900008FF8280710D530070ED52068416B21F0DD
:101910000801416321680820C86384F8A18084F825
:10192000A070204600F0D6F9BDE8F08170B50446FD
:10193000002C04D094F8A100002510B106E001208D
:1019400070BD84F8A050204600F09AF8022084F878
:10195000A1002068816921F070418161D4E9011002
:101960000143D4E903021043014320688269114313
:1019700081612068826829490A408260A08A020445
:1019800020688368A6693343134383602068C26874
:101990000A40C260A08B02042068C368266A3343F1
:1019A0001343C360206802690A400261A08C0204EC
:1019B00020680369A66A33431343036120684269C0
:1019C0000A404261A08D010420684269236B1A43DA
:1019D0000A43426194F83500020294F8360001048B
:1019E0002068C36A03F07F43C3622068C36A11435F
:1019F00094F8346033430B43C3622068416B41F079
:101A0000060141632068816941F001018161C4F8E8
:101A1000A450012084F8A100002070BD00F800F05F
:101A200010B5144C2168002922D013490B6C134ABD
:101A300011888B4211D1518800F02AF9206810F8E2
:101A40006A1F491C017003F047FF206806F046F842
:101A5000BDE81040002007F00EB900F019F9206829
:101A60000168096A8847BDE81040002007F005B901
:101A700010BD0000A401002000100050280000202C
:101A80002DE9F04FB9B00446142134A8FEF765FDE6
:101A9000C82102A8FEF761FD7449206888427DD103
:101AA00041040020CDE9021019200C90A0200D90D7
:101AB00002240E940F940420109000251195C0016B
:101AC0001290139502A800F09BF908B1FEF799FF58
:101AD0006748016841F008010160006800F00800F3
:101AE00001906348001F016841F480610160016852
:101AF00001F480610191016841F0400101600168D9
:101B000001F040010191016841F400710160016838
:101B100001F400710191016841F008010160016860
:101B200001F008010191016841F0010101600168C3
:101B300001F001010191016841F4807101600168C7
:101B400001F480710191016841F0040101600068B5
:101B500000F004000190F920349035943695032666
:101B600037960E27389734A94248FFF759FA4FF4B1
:101B7000806034903594369537964FF00908CDF84B
:101B8000E08034A9DFF8F0904846FFF749FA48F6BC
:101B90001420349035943695379600E063E03897FA
:101BA00034A9DFF8D8A05046FFF73AFA082034905D
:101BB000359436953796389734A93148FFF730FA7F
:101BC0004FF490703490359436953796389734A901
:101BD0002C48FFF725FA4FF4006034903594369581
:101BE0003796CDF8E08034A9DFF89CB05846FFF76F
:101BF00017FA40203490359436953796389734A9A3
:101C00002248FFF70DFA80203490359436953796A8
:101C1000389734A94846FFF703FA4FF40050349040
:101C2000359436953796389734A95846FFF7F8F922
:101C300001203490359436953796CDF8E08034A95C
:101C40005046FFF7EDF900225820114600F060F8E9
:101C5000582000F04FF800225920114600F058F8A3
:101C6000592000F047F839B0BDE8F08F001000505F
:101C7000E444025800280258001802580024025870
:101C8000000C0258000002580020025800080258B8
:101C900010B590F8A020012A17D0012300F8A03F2A
:101CA0000222427050F8A02C546B24F001045463BB
:101CB000074A116450F8A01C4A6B42F001024A63C3
:101CC000437000210170002010BD022010BD0000F3
:101CD000001000507047000008B50548016841F049
:101CE00002010160006800F00200009008BD0000E1
:101CF000F4440258002809DB012100F01F02914042
:101D00004009800000F1E020C0F800117047000099
:101D1000F0B40D460D4B1B68C3F30223C3F1070457
:101D2000042C00D90424191D072901D2002300E046
:101D3000DB1E012606FA04F1491E294099409E4007
:101D4000761E16403143F0BC0DF041BC0CED00E0B6
:101D500000F00701054A10684FF6FF03184040EAFB
:101D60000120034908431060704700000CED00E0BB
:101D70000000FA052DE9F0410446204D286800F0E6
:101D80000700062809D0286800F03F00A04202D0D2
:101D90000120BDE8F0810020FBE7286820F03F002B
:101DA00020432860FFF75CFA0646144F4FF47A7818
:101DB000083F06E0FFF754FA801B404501D9012097
:101DC000E7E73868C0438004F4D41E2C05D02E2CDD
:101DD00003D01D2C01D02D2C0ED1FFF741FA044663
:101DE00006E0FFF73DFA001B404501D90120D0E78E
:101DF0002868C043C003F4D40020CAE70C48025846
:101E00002DE9FC5F044600250026F84F2068DFF826
:101E1000E083C043010104F10800019004F12800AF
:101E200000900DD4E06EB8B1B0F5801F19D0B0F5B8
:101E3000001F1CD0B0F5401F00D00125EDB12E468B
:101E40002088C043C00535D4E06D05282FD2DFE8D7
:101E500000F01D22282F2F00386840F40030386031
:101E6000ECE70198022101F0DBFE0546E6E7009869
:101E7000022101F067FF0546E0E7D8F80000E16EB7
:101E800020F440100843C8F80000D9E7386840F44F
:101E9000003038600CE00198002101F0C1FE0546D9
:101EA00006E00098002101F04DFF054600E0012505
:101EB00065B12E462088C043800518D4206E802846
:101EC00031D00CDC20B340280ED126E0D8F8000039
:101ED000E16D20F007000843C8F80000EAE7C028D9
:101EE00003D0B0F5807F00D0012515B32E462088A1
:101EF000DFF80093C04340052DD4D4F8AC00B0F512
:101F0000800F43D01EDCA8B3B0F5001F20D137E00E
:101F1000386840F400303860E7E70198002101F0AC
:101F20007FFE0546E1E70098002101F00BFF054622
:101F3000DBE7D8F80000216E20F4E0700843C8F811
:101F40000000D4E7B0F5C00F03D0B0F5000F00D00B
:101F500001250DB32E462088C04300052FD4D4F8A8
:101F6000B000B0F1007F56D020DCE8B3B0F1807F44
:101F700022D14AE0FFE7386840F400303860E8E7F3
:101F80000198002101F04CFE0546E2E7009800218F
:101F900001F0D8FE0546DCE7D9F80000D4F8AC1013
:101FA00020F460000843C9F80000D4E7B0F1407F96
:101FB00003D0B0F1806F00D0012595B32E46206884
:101FC000DFF834B2C04380010AD4E06C30B110288D
:101FD00032D0202836D0302800D001258DB32E46AF
:101FE0002088C043C00400E00AE044D4606EB0F52D
:101FF000005F5CD036DCA0B3B0F5805F38D150E034
:10200000386840F400303860D7E70198002101F0CB
:1020100007FE0546D1E70098002101F093FE054632
:10202000CBE7FFE7D9F80000D4F8B01020F0E0606B
:102030000843C9F80000C2E7386840F4003038604F
:10204000CCE705E00198022101F0EAFD0546C5E76D
:10205000DBF80000E16C20F030000843CBF8000012
:10206000BEE719E0B0F5405F03D0B0F5804F00D077
:10207000012515B32E462088C04380042FD4A06EBE
:10208000B0F5403F29D021DC38B3B0F5803F38D0DF
:10209000B0F5003F20D13AE0386840F400303860B5
:1020A000E7E70198002101F0BBFD0546E1E7009854
:1020B000002101F047FE0546DBE7D8F80000616E1D
:1020C00020F4E0400843C8F80000D4E7B0F5802FC2
:1020D00003D0B0F5A02F00D00125F5B12E46208801
:1020E000C04340042BD4D4F8B400B0F1405F24D0F6
:1020F0001CDC10B3B0F1805F5AD0B0F1005F1BD18F
:102100005CE00198012101F08BFD0546E5E70098B0
:10211000012101F017FE0546DFE7D8F80000A16EA7
:1021200020F4E0200843C8F80000D8E7B0F1804F61
:1021300003D0B0F1A04F00D00125BDB32E462068DA
:10214000C043400107D4206D18B1B0F5807F46D060
:10215000012565B32E462088C04300040AD4606F71
:1021600030B1B0F1805F54D0B0F1005F56D001259E
:10217000A5B32E462068C043C0010AD4A06C30B17C
:1021800001285AD002285DD0032800D0012565B36C
:102190002E462068C043400271D41848016841F4BB
:1021A00080710160FFF75CF8824662E00CE027E096
:1021B0000198012101F034FD0546BEE70098012198
:1021C00001F0C0FD0546B8E7D9F80000D4F8B41016
:1021D00020F0E0400843C9F80000B0E724E001988F
:1021E000012101F01DFD0546B3E731E02C44025802
:1021F00050440258584402584C440258004802586F
:10220000DBF80000216D20F480700843CBF800005B
:10221000A1E7386840F400303860A9E7019801214F
:1022200001F0FEFC0546A3E7D8F80000616F20F03E
:1022300040500843C8F800009CE7386840F400307C
:102240003860A4E70198022101F0EAFC05469EE708
:10225000DBF80000A16C20F003000843CBF800007D
:1022600097E7FEF7FDFFA0EB0A00642801D90325DC
:1022700003E0FC480068C005F3D53DB12E46207848
:10228000DFF8E4A3C043C00755D066E0F6481C3031
:102290000068B4F8B81000F4407001F4407188424E
:1022A0000DD0F1481C30016821F44071026842F4FD
:1022B00080320260026822F4803202600160D4F849
:1022C000B800B0F5807F12D1FEF7CAFF824609E060
:1022D000FEF7C6FFA0EB0A0141F28830814201D926
:1022E000032504E0E0481C3000688007F0D50DB1FC
:1022F0002E46C4E7D4F8B800C0F3012103290FD05B
:10230000D9484438016821F47C510160D6481C301A
:102310000168B4F8B820C2F30B0211430160AEE7C4
:10232000D14944390A68D14B22F47C52184042EA20
:1023300010100860EAE7D4F8800018280BD005DCFC
:1023400048B1082815D0102804D118E0202802D060
:10235000282800D00125C5B12E462078C04380072B
:102360002CD4E06F062826D2DFE800F026191F26BD
:1023700026260198012101F053FC0546EBE7009861
:10238000012101F0DFFC0546E5E7DAF80000D4F8AA
:10239000801020F038000843CAF80000DDE70198FB
:1023A000012101F03DFC054606E00098012101F005
:1023B000C9FC054600E001256DB12E462078C043DA
:1023C000400720D4D4F89800062819D2DFE800F09E
:1023D000190C12191919DAF80000E16F20F0070042
:1023E0000843CAF80000E9E70198012101F018FC50
:1023F000054606E00098012101F0A4FC054600E036
:10240000012595B12E462078C043800620D4D4F80B
:102410009400B0F1405F19D011DCB8B1B0F1805F29
:1024200028D0B0F1005F10D12AE0D9F80000D4F82C
:10243000981020F007000843C9F80000E3E7B0F166
:10244000804F03D0B0F1A04F00D00125F5B12E464A
:102450002078C04340062CD4D4F8A000B0F5406FDB
:1024600025D01DDC18B3B0F5806F34D0B0F5006F07
:102470001CD136E00198002101F0D2FB0546E5E7CA
:102480000098022101F05EFC0546DFE7DAF8000063
:10249000D4F8941020F0E0400843CAF80000D7E7D1
:1024A000B0F5805F03D0B0F5A05F00D00125F5B195
:1024B0002E462078C04300062CD4D4F8A400B0F5F2
:1024C000C04F25D01DDC18B3B0F5005F2CD0B0F59F
:1024D000804F1CD12EE00198002101F0A1FB0546A0
:1024E000E5E70098022101F02DFC0546DFE7D9F869
:1024F0000000D4F8A01020F4E0500843C9F8000010
:10250000D7E7B0F5004F03D0B0F5204F00D001253C
:10251000B5B12E462078C04300072AD4D4F88800ED
:10252000B0F5805F16D01BE00198002101F078FB28
:102530000546EDE70098022101F004FC0546E7E7B7
:10254000D9F80000D4F8A41020F460400843C9F87A
:102550000000DFE70098022101F0F4FB00B1012642
:10256000DAF80000D4F8881020F440500843CAF884
:1025700000002078C043C00613D4D4F89C00B0F506
:10258000807F05D10098022101F0DCFB00B101261B
:10259000D9F80000D4F89C1020F440700843C9F822
:1025A00000002068C04300030BD4D4F8A800E8B3AF
:1025B000B0F5803F7ED0B0F5003F00D00125B5B327
:1025C0002E462068C04340030DD4D4F88C00B0F5EB
:1025D000801F71D0B0F5001F6FD0B0F5401F00D044
:1025E0000125EDB32E462068C043C00307D4606DBB
:1025F000B8B3B0F5803F7CD00125CDB32E4620681E
:10260000C043800005D40098022101F09BFB00B17B
:1026100001262068C043800311D4D4F8840060B13F
:10262000B0F5807F66D0B0F5007F01E06DE078E026
:1026300003D0B0F5407F00D00125E5B32E462068D9
:10264000C043C00207D4D8F80000A16F20F00040BA
:102650000843C8F800002068C043C00012D408E056
:1026600074E07DE00048025854440258FFFCFF0F1C
:1026700081E0714844380168D4F8BC2021F48041DD
:10268000114301602068C043800207D4D8F80000DD
:10269000216F20F080700843C8F800002068C04314
:1026A00040000FD464484438016821F400410160BF
:1026B000016803E02FE06CE03DE041E0D4F8C02089
:1026C000114301602068C04307D4DBF80000A16D0E
:1026D00020F040500843CBF800002068C0430002BF
:1026E0000BD4DAF80000D4F8901020F4400008432E
:1026F00001E03AE048E0CAF8000000252079C04334
:1027000000F0010028434ED053E00198002101F071
:1027100087FA054653E70098022101F013FB0546AE
:102720004DE7D9F80000D4F8A81020F44030084351
:10273000C9F8000045E7386840F40030386050E7D9
:102740000098012101F0FEFA05464AE7DAF8000098
:10275000D4F88C1020F440100843CAF8000042E777
:10276000386840F40030386047E70198022101F0F2
:1027700057FA054641E7DBF80000616D20F4803030
:102780000843CBF800003AE7386840F4003038607E
:1027900053E7DAF80000D4F8841020F440700843BE
:1027A000CAF800004BE70198002101F039FA00B1A6
:1027B00006462079C04300F00200284305D1019865
:1027C000012101F02DFA00B106462079C04300F046
:1027D0000400284305D10198022101F021FA00B13B
:1027E00006462079C04300F00800284305D1009830
:1027F000002101F0A7FA00B106462079C04300F09D
:102800001000284305D10098012101F09BFA00B186
:1028100006462079C04300F02000054305D100980A
:10282000022101F08FFA00B1064616B10120BDE881
:10283000FC9F0020FBE70000544402582DE9F05FA4
:1028400004460D46002C17D0DFF84C82D8F8000063
:1028500000F00F00A84211D2D8F8000020F00F00BD
:102860002843C8F80000D8F8000000F00F00A84284
:1028700004D00120BDE8F09F0120FBE72078874EBF
:1028800040070AD52069316801F07001884204D9F7
:10289000316821F07001014331602078804F0007DA
:1028A0000AD56069396801F07001884204D9396835
:1028B00021F07001014339602078C0060AD5A06973
:1028C000396801F4E061884204D9396821F4E06193
:1028D000014339602078DFF8CC9180060DD5E0699E
:1028E000D9F8001001F07001884206D9D9F800101B
:1028F00021F070010143C9F80010207880070AD543
:10290000E068316801F00F01884204D9316821F094
:102910000F01014331602078C00743D03068A168BF
:1029200020F47060084330605C4960681839022800
:1029300008D003280BD001280ED00968490710D40D
:10294000012097E7096889030BD4012092E7096801
:10295000890106D401208DE70968C90501D4012049
:1029600088E7DFF838A1AAF1080ADAF8001021F0A8
:1029700007010143CAF80010FEF772FC834609E024
:10298000FEF76EFCA0EB0B0141F28830814201D9C9
:1029900003206FE7DAF80000616800F03800B0EB60
:1029A000C10FEDD1207880070AD5E068316801F0C9
:1029B0000F01884204D2316821F00F0101433160D8
:1029C000D8F8000000F00F00A8420ED9D8F8000097
:1029D00020F00F002843C8F80000D8F8000000F0ED
:1029E0000F00A84201D0012044E7207840070AD513
:1029F0002069316801F07001884204D2316821F009
:102A0000700101433160207800070AD56069396898
:102A100001F07001884204D2396821F0700101434D
:102A200039602078C0060AD5A069396801F4E061F0
:102A3000884204D2396821F4E0610143396020788A
:102A400080060DD5E069D9F8001001F070018842C8
:102A500006D2D9F8001021F070010143C9F8001026
:102A600000F02AF83168C1F303220F498A5C02F0B2
:102A70001F02D040326802F00F02895C0B4A01F05D
:102A80001F0120FA01F11160094908600948006836
:102A9000BDE8F05FFEF794BE0020005218440258D3
:102AA0001C44025820440258680501081800002000
:102AB000140000200C00002030B564480068654C0C
:102AC00010F03801624808D0021108290DD01029F1
:102AD0000DD018290DD0104630BD21688906FBD5D0
:102AE0002168C1F3C101C84030BD104630BD5A480D
:102AF00030BD564918310A6802F003020968C1F373
:102B00000511524B1C331B6803F001034F4D243554
:102B10002D68C5F3CC0515FB03F300EE103AB8EEB3
:102B2000400A002977D0DFED4D0A484BB7EE001A76
:102B300020333AB39FED4A2A012A58D0022A6CD09A
:102B400001EE901A1868F8EE611AC2EE212AC0F35D
:102B5000080001EE900AF8EE611A40EE201A31EEFC
:102B6000810A22EE800A1868C0F34620401C00EE5D
:102B7000900AF8EE600A80EE201ABCEEC10A10EE50
:102B8000100A30BD226892061BD52268C2F3C1022A
:102B9000D04001EE900A1868F8EE612A01EE901A12
:102BA000F8EE611A82EEA12AC0F3080001EE900A45
:102BB000F8EE611A40EE201A31EE810A22EE000A88
:102BC000D1E701EE901ADFED272A1868F8EE611AB6
:102BD00082EEA12AC0F3080001EE900AF8EE611A15
:102BE00040EE201A31EE810A22EE000ABBE701EE28
:102BF000901A1868F8EE611AC2EE212AC0F3080094
:102C000001EE900AF8EE611A40EE201A31EE810AC8
:102C100022EE800AA7E716E0FFE701EE901ADFED4B
:102C2000122A1868F8EE611A82EEA12AC0F3080091
:102C300001EE900AF8EE611A40EE201A31EE810A98
:102C400022EE000A8FE7002030BD00001044025839
:102C50000090D0030044025840787D010000003904
:102C60000024744A0024744C20BCBE4B2DE9F05F54
:102C70000446002C10D02078DFF8F883FE4EFF4D7C
:102C8000C0075DD0D8F8000000F038003168102887
:102C90001FD0182803D006E00120BDE8F09F01F006
:102CA0000300022815D06068B0F5803F18D0E0B16D
:102CB000B0F5A02F22D0286820F480302860286842
:102CC00020F480202860606860B3FEF7C9FA0746E8
:102CD00024E02868800333D5606810BB0120DCE75E
:102CE000286840F480302860EDE7286820F48030C0
:102CF0002860286820F480202860E4E7286840F4F1
:102D000080202860286840F480302860DBE7FEF7E8
:102D1000A7FAC01B642801D90320BEE728688003F6
:102D2000F5D50DE0FEF79CFA074606E0FEF798FAA7
:102D3000C01B642801D90320AFE728688003F5D4BD
:102D4000207841F2030ACE4F80073DD5D8F8000025
:102D500000F03800316870B1182801D188070AD016
:102D6000E06890B3296821F0190101432960FEF75A
:102D700077FA814641E02868400701D5E06848B10C
:102D80002868E16820F0190008432860FEF768FA17
:102D9000814609E0012080E7FEF762FAA0EB090016
:102DA000022801D9032078E728684007F4D5FEF708
:102DB00051FA504511D82069402807D0396821F4CC
:102DC0007C3141EA003038604AE036E0386820F46F
:102DD0007C3040F40030386042E03868217C20F0DC
:102DE000FE4040EA016038603AE0FEF739FAA0EBB5
:102DF0000900022801D903204FE728684007F4D5CD
:102E0000FEF728FA504510D82069402806D03968C6
:102E100021F47C3141EA0030386021E0386820F448
:102E20007C3040F4003038601AE03868217C20F0B3
:102E3000FE4040EA0160386012E0286820F001009E
:102E40002860FEF70DFA814607E0FEF709FAA0EBCD
:102E50000900022801D903201FE728684007F4D49D
:102E60002078C0062FD5D8F8000000F0380031686F
:102E7000DFF800B20828ABF1040B0FD0182803D1FB
:102E800001F00300012809D0E06978B3286840F018
:102E900080002860FEF7E4F9814630E02868C0052C
:102EA00004D5E069802801D00120F6E6FEF7D2F9CA
:102EB000504510D8206A202806D0396821F0F84102
:102EC00041EA806038604FE0386820F0F84040F018
:102ED0008040386048E0DBF8000094F8201020F0D3
:102EE0007C5040EA0160CBF800003DE02AE0FEF7AC
:102EF000B7F9A0EB0900022801D90320CDE6286824
:102F0000C005F4D5FEF7A6F9504510D8206A202850
:102F100006D0396821F0F84141EA8060386023E04A
:102F2000386820F0F84040F0804038601CE0DBF862
:102F3000000094F8201020F07C5040EA0160CBF8AB
:102F4000000011E0286820F080002860FEF788F972
:102F5000074606E0FEF784F9C01B022801D90320CA
:102F60009BE62868C005F5D42078000730D5DFF847
:102F70000891606909F14C09A8B1D9F8000040F046
:102F80000100C9F80000FEF76BF9074606E0FEF7FE
:102F900067F9C01B022801D903207EE6D9F800009A
:102FA0008007F4D514E0D9F8000020F00100C9F83A
:102FB0000000FEF755F9074606E0FEF751F9C01B81
:102FC000022801D9032068E6D9F800008007F4D46C
:102FD0002078800626D5A06990B1286840F48050FA
:102FE0002860FEF73DF9074606E0FEF739F9C01BF9
:102FF000022801D9032050E628688004F5D511E0A5
:10300000286820F480502860FEF72AF9074606E079
:10301000FEF726F9C01B022801D903203DE62868E7
:103020008004F5D42078400768D5164F386840F4FE
:1030300080703860FEF714F9814607E0FEF710F95A
:10304000A0EB0900642801D9032026E63868C005F2
:10305000F4D5094FA068483701281DD008B30528CA
:1030600028D0386820F001003860386820F004006B
:10307000386009E0104402582844025800440258BD
:103080000444025800480258A06841F2883A30B31C
:10309000FEF7E6F881461EE0386840F0010038602F
:1030A000E7E7386820F001003860386820F0040055
:1030B0003860DEE7386840F004003860386840F077
:1030C00001003860D5E7FEF7CBF8A0EB09005045CA
:1030D00001D90320E1E538688007F4D50EE0FEF75A
:1030E000BFF8814607E0FEF7BBF8A0EB09005045AA
:1030F00001D90320D1E538688007F4D4616AE1B3CF
:10310000D8F800004FF6F87BDFF8E0A1C0F3C2006A
:1031100003280AF10409AAF104087DD0022907D086
:10312000286820F080702860FEF79AF804468BE04B
:10313000286820F080702860FEF792F8074606E0C5
:10314000FEF78EF8C01B022801D90320A5E52868E8
:103150008001F5D4306840F2F3318843E16A40EAF7
:103160000110A16A08433060208E4FF6FF72616B38
:10317000401E491EC0F3080000E0B5E002EA41210C
:103180000843218F4FF4FE02491E02EA0141084321
:1031900094F83C10491E120202EA01610843CAF881
:1031A0000000D8F8000020F00100C8F80000D9F8AD
:1031B0000000A16C20EA0B0040EAC100C9F8000041
:1031C000D8F80000216C20F00C000843C8F800007B
:1031D000D8F80000616C20F002000843C8F8000035
:1031E000D8F8000040F48030C8F80000D8F800009B
:1031F00040F40030C8F80000D8F8000040F4802007
:10320000C8F80000D8F8000040F00100C8F800003D
:10321000286840F0807000E01AE02860FEF720F88F
:10322000044606E0FEF71CF8001B022801D9032023
:1032300033E528688001F5D556E0FEF711F8001B4C
:10324000022801D9032028E528688001F5D44BE045
:103250003268DAF80000012921D0A36A02F00301E4
:1032600099421CD1E16AC2F30512914217D1216B38
:10327000C0F30802491E8A4211D1616BC0F3462295
:10328000491E91420BD1A16BC0F30642491E9142E7
:1032900005D1E16BC0F30660491E814201D00120D7
:1032A000FBE4D9F80000C0F3CC00A16C81421BD034
:1032B000D8F8000020F00100C8F80000FDF7D0FFAA
:1032C0000546FDF7CDFFA842FBD0D9F80000A16C60
:1032D00020EA0B0040EAC100C9F80000D8F800005D
:1032E00040F00100C8F800000020D6E43044025845
:1032F00070B504460D46002C03D094F82C0010B194
:1033000007E0012070BD002084F82D00204600F069
:1033100019F8022084F82C002068211DFDF773FBAA
:10332000D4E900022946FDF7BDFB0548016841F0DC
:1033300000410160012084F82C00002070BD0000D5
:1033400000400052FDF7E2BD10B5044694F82C0091
:10335000022805D094F82C00012803D0012010BDCC
:10336000022010BD022084F82C002068FDF77FFBAE
:10337000012084F82C00002010BD70B504460D46D5
:1033800094F82C00022805D0012805D0052803D088
:10339000012070BD022070BD022084F82C0020683E
:1033A0002946FDF76DFB2868022803D0012084F828
:1033B0002C0002E0052084F82C00002070BD10B520
:1033C000401EB0F1807F01D3012010BD4FF0E024FA
:1033D00060610F2160170CF0FAF80020A06107204F
:1033E0002061002010BDFEE701688A69D243920780
:1033F00001D400228A6200688169C943C90703D0E9
:10340000816941F001018161704700002DE9F047B9
:1034100004468846174600262068816900254FF03B
:103420002009C90640D51021C1612FE0B8F1FF3F46
:103430002CD0FDF715FFC01B404502D8B8F1000F96
:1034400024D12068416801F4804194F842208369C6
:10345000DB431B0415D4B1F5804F12D0202A10D0C5
:10346000416841F480414160FDF7FAFE074608E0FB
:10347000FDF7F6FEC01B192803D945F020050126EB
:1034800004E020688069C0438006F1D42068806928
:10349000C043800601D5002EC8D016B92068C0F8F8
:1034A0001C9045F00405012621688869C20505D5F0
:1034B00045F001054FF48072CA610126410506D529
:1034C00045F0080522684FF48061D161012680052E
:1034D00006D545F0020521684FF40070C861012649
:1034E0008EB12046FFF780FF20684168074A1140EF
:1034F0004160606C2843606484F84190002084F847
:10350000420084F840003046BDE8F08700E800FE45
:103510002DE9F843044616461F46DDE90898184889
:103520000023FAB20090204600F066F84246494671
:10353000204600F0D9F810B10120BDE8F883012F32
:10354000F5B20AD02168300A8862424649462046D0
:1035500000F0CAF820B10120EFE72068856201E0A1
:1035600020688562002240214B462046CDF800802D
:1035700000F05AF808B10120DFE70020DDE7000085
:10358000002000802DE9F843044616461F46DDE979
:1035900008981848FAB20090C302204600F02CF8B0
:1035A00042464946204600F09FF810B10120BDE890
:1035B000F883012FF5B20AD02168300A88624246AA
:1035C0004946204600F090F820B10120EFE720683E
:1035D000856201E020688562002280214B462046FA
:1035E000CDF8008000F020F808B10120DFE70020CE
:1035F000DDE700000020008010B5029CC1F3090146
:1036000041EA02411943214321F000410068436827
:103610004FF4806202EA5452024C224393430B431C
:10362000436010BDFF63FF032DE9F04104460E46E1
:1036300017461D46DDF818801FE0681C1DD0FDF7F9
:103640000FFEA0EB0800A84200D8B5B92068806939
:1036500036EA00000FD00020B8420ED14034606836
:1036600040F020006060202060700020A07020707A
:103670000120BDE8F0810120EEE72068806936EA8C
:10368000000004D00020B842D7D00020F1E701208C
:10369000F9E770B504460D4616461EE03246294647
:1036A0002046FFF7B3FE08B1012070BDFDF7D8FD3D
:1036B000801BA84200D885B920688069C043800675
:1036C0000BD54034606840F02000606020206070BE
:1036D0000020A0702070012070BD20688069C04368
:1036E0008006DBD4002070BD70B504460D4616463A
:1036F00020E0324629462046FFF788FE08B1012027
:1037000070BD681C16D0FDF7ABFD801BA84200D829
:1037100085B920688069C04380070BD54034606854
:1037200040F020006060202060700020A0702070B9
:10373000012070BD20688069C0438007D9D4002073
:1037400070BD00000148FEF78CB80000E4020020C4
:103750000148FEF786B80000E4020020F0B50368D7
:103760008C88DD68C5F30B452C442504882404EBC4
:10377000C2141E5906F470461E5103680F68DE68B5
:10378000C6F30B46761C3E442E431E5103688C89BB
:10379000DD68C5F30A052C4425048C2404EBC2140F
:1037A0001E5906F470461E5103688F68DE68C6F322
:1037B0000A06761C3E442E431E510468942303EBF4
:1037C000C213E55825F00705E55005680C69EC5073
:1037D00091F831304FEA032C91F832301E040B7E01
:1037E0001F0604689C2303EBC213E5580025E5502F
:1037F00091F830403E4344EA0C0434430668F450E8
:103800000468982303EBC213E65826F0FF06E6503F
:1038100006684C69F4500468A02303EBC213E65811
:1038200040F20777BE43E650D1E9074634430668C5
:10383000F4500468AC2303EBC213E658E550056866
:103840004C6AEC500B69002B31D0012B31D0042B8A
:1038500031D0022B2FD0032B2DD0072B2BD00123BF
:103860000568B02404EBC2142E5906F0E0262E5150
:10387000D1E90065AD1B0E8D5D43ED1D5E4345EA4C
:10388000064305682B510468B42303EBC213E558C3
:103890006FF30A05E5500468C96AE15000688421A5
:1038A00001EBC211425842F001024250F0BD042324
:1038B000D6E70323D4E70223D2E7000010B50A4875
:1038C000084901600021017141714161816101215B
:1038D0000162FDF75FF9002803D0BDE81040FDF755
:1038E00090B810BD004C0258C001002010B510481F
:1038F0000E4901600021416002228260C160416482
:103900008264C164016541658165C165FDF78CFA1A
:1039100008B1FDF776F806480121FDF791F9002876
:1039200003D0BDE81040FDF76CB810BD0010005288
:10393000E401002000B587B01C216846FCF70DFEAD
:10394000174816490160002141600122826004226B
:10395000C26020230361402343614FF4C07383613D
:10396000C1615302036293024362816202200090AC
:103970000721019102920391032104910590069081
:1039800069460748FFF7B4FC08B1FDF73AF8044967
:103990000348103900F068FA07B000BD40410052FA
:1039A0005C020020F0B587B0142102A8FCF7D5FD19
:1039B0004148016841F480710160016801F480713F
:1039C0000191016841F480610160016801F4806146
:1039D0000191016841F040010160016801F040017E
:1039E0000191016841F010010160016801F01001CE
:1039F0000191016841F400710160016801F40071F6
:103A00000191016841F008010160016801F00801BD
:103A10000191016841F001010160016801F00101BB
:103A20000191016841F080010160016801F08001AD
:103A30000191016841F004010160016801F0040195
:103A40000191016841F020010160016801F020014D
:103A50000191016841F002010160006800F002007C
:103A60000190164F002220213846FDF7EBFB144E43
:103A7000012240213046FDF7E5FB20200290012580
:103A8000039500240494059402A93846FDF7C8FA6A
:103A90004020029003950494059402A93046FDF756
:103AA000BFFA280302900394049402A90548FDF785
:103AB000B7FA07B0F0BD0000E044025800240258F5
:103AC000001C02580004025838B520481E49016005
:103AD0001F494160002484600121C1600461446188
:103AE0008461C4610462FDF719FC08B1FCF789FF29
:103AF00016480021FDF7BAFB08B1FCF782FF134816
:103B00000021FDF7E0FB08B1FCF77BFF1148012223
:103B10002021FDF797FB00940122002069460BF05D
:103B2000FBFD01226946A4200BF0F6FD0C24009455
:103B30000122694680200BF0EFFD009401228820CD
:103B400069460BF0E9FD38BD0058004090020020A6
:103B5000B17570300024025830B58DB034216846FC
:103B6000FCF7FBFC27482649016000244460846080
:103B7000C460046107214161032181610E21C1619B
:103B80000525056240F22E31416240F2E511816265
:103B90004FF44D71C16240F2E711016380F8344087
:103BA00080F8354080F83640FDF7C0FE08B1FCF7DC
:103BB00028FF00944FF44871019102944FF4F07083
:103BC000039002220492FF22059206944FF4806231
:103BD00007920895420609920A910B908DF83040A1
:103BE0008DF831408DF83240002206486946FDF7D5
:103BF0000DFE002801D0FCF704FF0DB030BD000021
:103C000000100050E402002010B50BF0B1FDBDE83B
:103C100010400BF0AFBD0BF0E9BDFEE7FEE77047CB
:103C20002DE9F047044688460027DFF81491D9F8BB
:103C30000000C043800709D0414D283D286820F08E
:103C400080602860FDF70CFB064609E00120BDE816
:103C5000F087FDF705FB801B022801D90320F6E75A
:103C600028680001F5D4D9F80000216820F47C30E0
:103C700040EA0130C9F80000A0884FF6FF72A16841
:103C8000401E491EC0F3080002EA41210843A189F1
:103C90004FF4FE02491E02EA01410843217C120250
:103CA000491E02EA01610843254910310860244891
:103CB000001D0168626921F0C001114301600168C3
:103CC000A26921F0200111430160016821F0100177
:103CD00001601B4914310A684FF6F8739A43E3698F
:103CE00042EAC3020A60016841F010010160B8F1C4
:103CF000000F0ED0B8F1010F10D0016841F400118F
:103D00000160286840F080602860FDF7A9FA044649
:103D100010E0016841F400210160F2E7016841F41C
:103D200080110160EDE7FDF79BFA001B022801D925
:103D300003208CE728680001F5D5384687E70000A6
:103D4000284402582DE9F047044688460027DFF84A
:103D50001491D9F80000C043800709D0414D283D97
:103D6000286820F080502860FDF77AFA064609E0BE
:103D70000120BDE8F087FDF773FA801B022801D906
:103D80000320F6E728688000F5D4D9F800002188E0
:103D900020F07C7040EA0150C9F80000A0884FF67E
:103DA000FF72A168401E491EC0F3080002EA4121CB
:103DB0000843A1894FF4FE02491E02EA014108436B
:103DC000217C1202491E02EA01610843254918318B
:103DD00008602448001D0168626921F440611143B4
:103DE00001600168A26921F400711143016001685A
:103DF00021F4807101601B491C310A684FF6F87389
:103E00009A43E36942EAC3020A60016841F480719F
:103E10000160B8F1000F0ED0B8F1010F10D00168A9
:103E200041F080710160286840F080502860FDF703
:103E300017FA044610E0016841F480010160F2E7DE
:103E4000016841F400010160EDE7FDF709FA001B8C
:103E5000022801D903208CE728688000F5D5384670
:103E600087E70000284402582DE9F84381460C46B4
:103E7000002700970125256010266660A560E76091
:103E80004FF48058424621464846FFF776FA012013
:103E9000FDF72AF8022020606660A560E7604246D0
:103EA00021464846FFF769FA032020606660082033
:103EB000A060E760424621464846FFF75EFA40F2BE
:103EC00031210091042020606660A560E1604246D7
:103ED00021464846FFF751FA484640F29631BDE880
:103EE000F843FFF731BA7047FDF734BC30B59DB0E9
:103EF0004C210AA8FCF731FB202102A8FCF72DFB7E
:103F00000220FDF737FF00242C4A106820F0010042
:103F1000106010682A48016841F44041016001685E
:103F200001F44041019101688904FCD525490B68E1
:103F300043F002030B60096801F00201019101687E
:103F400041F4404101600168116841F001011160D4
:103F5000116801F00101019101688904FCD501207B
:103F60000A9000040B9002201390149005211591E3
:103F7000C021169117901890199008251A951B9436
:103F80001C940AA8FEF772FE08B1FCF73AFD3F2028
:103F9000029003200390049405954020069007901A
:103FA000010108910990042102A8FEF747FC0028AE
:103FB00001D0FCF726FD1DB030BD00002C040058D8
:103FC00018480258F444025810B53148016841F4C9
:103FD000700101602E487838016841F010010160DD
:103FE0002C4A106800F00F00072804D2106820F057
:103FF0000F00C01D10602849086840F001000860EB
:10400000254B0020103318600B68244C23400B60B4
:10401000136803F00F03072B04D9136823F00F0371
:10402000DB1D13601C4A18321060121D1060121D37
:104030001060194B1A4A28331A601B1D194A1A605E
:104040001B1D194A1A601B1D18601B1D1A601B1DC1
:1040500018601B1D1A601A1D10600A6822F4802265
:104060000A600D49603108601048016841F48041E0
:1040700001600F4800686FF30F00B0F1005F02D2DB
:104080000C490120086043F2D2000B49086010BDC2
:1040900088ED00E000200052004402587FEDF6EA6F
:1040A000000202020000FF0180020101E40000584A
:1040B0000010005C0881005100400052FEE7000043
:1040C000174810B58EB00078C00725D114480BF002
:1040D000A0FA08B30020144B3F21124A0224CDE974
:1040E00009100B900121CDE90643089204220591A5
:1040F00024230C900190CDE9032102901E20009012
:104100002A220A490A4803F0CBF80A4A0A49FCF76E
:1041100056F90348AFF300800EB0054810BD00000B
:10412000480000208CD5040828D8040834D304089B
:104130005805002000000008ED720008164800B580
:104140008DB00078C00724D113480BF062FA00B399
:104150000020134A3F218223CDE909100F490B901B
:104160000C900590CDE907210121069004220190D1
:10417000CDE903210290802000900B2209490A48D2
:1041800003F08EF8094A0A49FCF719F90248AFF31F
:1041900000800DB0044800BD4400002088D504080C
:1041A00024D8040898D204082C0500200000000838
:1041B000ED720008164800B58DB00078C00724D114
:1041C00013480BF026FA00B30020134A3F21CDE933
:1041D000091010490B900C900590CDE907210121A1
:1041E000069004220190CDE9032102900A2000905C
:1041F00003460B480A46094903F052F8094A0A499E
:10420000FCF7DDF80248AFF300800DB0044800BDB4
:104210003C00002080D504081CD8040894CF040872
:10422000D404002000000008ED720008164800B514
:104230008DB00078C00724D113480BF0EAF900B321
:104240000020134A3F211423CDE909100F490B9098
:104250000C900590CDE907210121069004220190E0
:10426000CDE90321029010200090362209490A4826
:1042700003F016F8094A0A49FCF7A1F80248AFF31F
:1042800000800DB0044800BD4000002084D5040823
:1042900020D80408A4CF040800050020000000086E
:1042A000ED7200080449054A08685043044A104466
:1042B000000C08607047000038000020FD43030038
:1042C000C39E260000F0DCBF00F0DCBF01F026B882
:1042D00001F02CB801F02CB801F036B801F03CB870
:1042E00001F040B801F056B801F05BB87047704774
:1042F000704770B504460D4604F59670854203D1AB
:104300002068C16A2046884704F5BA70854203D107
:1043100001F040FB01F0B8F804F5D474A54205D1D2
:1043200001F038FBBDE8704001F09AB870BD0000A4
:104330002DE9F04F87B005F007F94FF00008C0F8FD
:104340003C80994940F8401B03F0EEFA40386C304D
:1043500003F0EAFA6C38983009F0BCFA934901602E
:10436000C0F848809838E43009F0B4FAE43800F531
:10437000967003F051F8A0F5967000F5BA7004F04D
:104380005FFEA0F5BA7000F5D47004F059FEA0F5F8
:10439000D474874904F5F870054606C9CDE90112C1
:1043A000844901604460DDE90112C0E90212002283
:1043B0004FF44877114604F140003B464FF4F07942
:1043C0000646CDF8009005F042FC0022114610464A
:1043D00004F01CFD0290B0623146204604F03EFF1E
:1043E00000223B4604F16C0011460646CDF80090D1
:1043F00005F02DFCFF221146104604F007FD029047
:10440000B0623146204604F029FF9C20009004F160
:1044100098003B4693220746002105F018FC002235
:104420001146104604F0F2FC029038630021384631
:1044300009F0E8F9012105A809F028FC0BF09EF825
:10444000034604F5EE700A2106465BA205F0BBFAAE
:10445000C4F8E060002105A809F018FC01463846C0
:1044600009F0B9F93946204604F0F8FE04F1E400F9
:10447000922206464FF4B47105F079FC00221146F1
:10448000104604F0C3FC029030630021304609F06E
:10449000B9F9022105A809F0F9FB0146304609F0F7
:1044A0009AF93146204604F0D9FE04F5967040F2A0
:1044B0003712DC21074605F05AFC032003AA0390BB
:1044C000022004A90490384604F09DFD032105A8AC
:1044D00009F0DCFB014607F1340089883987814601
:1044E0000BF002F8E0B148460BF020F806464846CB
:1044F0000BF044F8834630685946426A304690478C
:1045000081463068816B304688478246306859461C
:10451000826C304690470AFB0090A7F8460001E005
:10452000A7F84680FF221146104604F06FFCF8639E
:10453000FF221146104604F069FC3864C4F8545157
:104540003946204604F08AFE04F5BA70E022064699
:10455000062105F00CFC04AACDF8108003A9CDF8C3
:104560000C80304604F04FFDC4F89C513146204683
:1045700004F074FE04F5D470E02206464FF4427154
:1045800005F0F5FB012004AA049003A9039030462E
:1045900004F039FDC4F8D0513146204604F05EFEE7
:1045A00007B02046BDE8F08F480C0108DC14010874
:1045B000F40A01088C1801082573000010B5094998
:1045C00001604FF49671084A0A50E43009F0A6F9E8
:1045D000E438983009F0A2F99838BDE8104004F0AA
:1045E00009BC0000480C0108C813010810B50446B6
:1045F000D4E9001088420BDAFFF754FE1421B0FB17
:10460000F1F201FB1200122802D96068401C6060C0
:10461000606810BD01680A310160704700210160C7
:104620004160704710B500F1140100F12C0400F650
:104630007C5200F6C45341608460C2600361154A35
:104640000260084603F058F8134940F814192C305A
:1046500003F052F8114940F82C1900F67C5003F091
:104660004BF802460E481060A2F67C5202F57261C9
:1046700002F6C45000F0F0FCA0F6C45000F57260E1
:1046800000F090FFA0F5726404F6C45000F0B0FE94
:10469000204610BD800C0108B41D0108E81D01086A
:1046A0001C1E010810B50949016000F6C45000F055
:1046B00061FF483803F028F8A0F5556003F024F8AE
:1046C000183803F021F8143810BD0000800C0108E0
:1046D000F0B585B005F066FB00258562444940F8D9
:1046E0002C1B03F021F92C38583003F01DF95838F1
:1046F00000F1840426212046FBF72FFF204604F01A
:104700007BFF3C49016001463B4F4FF6FF728762D9
:104710008A8530310D6020F8345FFF218170C570CB
:1047200005714571343800F13C016A1E0D804D80E1
:104730008A80CA808D600146A1F18404C822214686
:104740000A8150224A8150200022009004F12C005E
:104750001146C823064605F07AFA00221146104693
:1047600004F054FBB0623146204609F025FA4E2091
:104770000090012204F158001146C623064605F0B8
:1047800066FAFF221146104604F040FBB062314643
:10479000204609F011FA4F2000900122C62311464D
:1047A00004F1840005F053FA002204F18406114656
:1047B000104604F02BFB3063B58631463068D0F8E4
:1047C0008420684690479DE807003C3607C61B20BA
:1047D000039703A9ADF8100004F1840008F0FBFF73
:1047E00004F18401204609F0E7F905B02046F0BD48
:1047F000940C0108181C0108C01E01080249016040
:104800008421024A0A507047940C0108181C0108C0
:104810007047806800F0B7BEC06800F0FBBE10B5FE
:104820000446A06800F0ACFE0146E068BDE8104018
:1048300000F0F0BE021D00235360034A02601C32E8
:104840004260C16070470000280D01087047704742
:1048500000487047900A010805207047FEB50446DD
:10486000FF220021104604F0D1FA014604F5AB60A6
:10487000054600F084FF0421284600F02BFF142297
:1048800028460A2105F073FA2946204604F0E6FC82
:10489000A0223021702004F0B9FA014604F25C40F5
:1048A000054600F06CFF0621284600F013FF142295
:1048B00028460A2105F05BFA2946204604F0CEFC82
:1048C000F022B021002004F0A1FA014604F558704E
:1048D000054600F054FF0721284600F0FBFE8C221D
:1048E00028460A2105F043FA2946204604F0B6FC82
:1048F0005022B021002004F089FA014604F5197015
:10490000054600F03CFF0821284600F0E3FE0A219E
:104910004FF48772284605F02AFA2946204604F00B
:104920009DFC11225A21C52004F070FA014604F5BD
:10493000B470054600F023FF0521284600F0CAFEAA
:104940000A2128464FF4BE7205F011FA2946204686
:1049500004F084FC04F2BC70002106460291029926
:1049600001634FF6FF773946684609F08FF9014633
:10497000304608F030FF002530460022114605F091
:10498000F6F93146204604F069FC04F2447006460C
:10499000029505633946684609F078F901463046C4
:1049A00008F019FF00223046114605F0E0F93146C3
:1049B000204604F053FC04F2CC60064602950563E1
:1049C0003946684609F062F90146304608F003FFAF
:1049D00000223046114605F0CAF93146204604F05F
:1049E0003DFC04F25460064602950563394668466C
:1049F00009F04CF90146304608F0EDFE0022304641
:104A0000114605F0B4F93146204604F027FC002198
:104A1000204600F061F803480068012180F86C101E
:104A2000FEBD0000A40100206C2904D0722905D12C
:104A3000012100F030B8002100F02DB87047704718
:104A400070470A79002A13D0022A11D0012A12D104
:104A500090F8452D002A0ED1B1F90620011DB1F9BB
:104A6000081001EBD17149108A4205DD012104E0F3
:104A7000002180F8451D7047002100F00CB801228C
:104A800080F8452D0A79002A04D1B1F90610C90F22
:104A900000F001B8704710B590F8442D00290DD0F2
:104AA000112A05D0521CBDE81040D1B200F014B854
:104AB00000F070FFBDE8104000F086BC2AB1521E25
:104AC000BDE81040D1B200F007B800F063FFBDE8C8
:104AD000104000F079BC00002DE9F04796B0044684
:104AE00084F8441D01EBC100482204EBC00101F62B
:104AF000340102A8FBF7FFFC04F5AB609DF84E20E3
:104B00009DF80C100646944B0AF0B6FE04F25C4089
:104B10009DF84E209DF8121007468F4B0AF0ACFE10
:104B200004F558709DF84E209DF8181080468A4B69
:104B30000AF0A2FE04F519709DF84E209DF81E1093
:104B40008146854B0AF098FE04F5B4709DF84E201E
:104B50009DF824108246804B0AF08EFE7E4D304632
:104B60009DF84E30BDF90A20BDF908100095019559
:104B70000AF0BEFF9DF84E303846BDF91020BDF951
:104B80000E10009501950AF0B3FF009540469DF880
:104B90004E30BDF91620BDF9141001950AF0A8FF9A
:104BA000019548469DF84E30BDF91C20BDF91A10FC
:104BB00000950AF09DFF9DF84E305046BDF9222029
:104BC000BDF92010009501950AF092FF04F2BC7027
:104BD000064609F029FFBDF82C1014A809F056F874
:104BE0000146304608F0F7FD304608F019FE304621
:104BF00009F01AFF04F24470074609F015FFBDF8EA
:104C0000341014A809F042F80146384608F0E3FDD4
:104C1000384608F005FE384609F006FF04F2CC607D
:104C2000804609F001FFBDF83C1014A809F02EF8E9
:104C30000146404608F0CFFD404608F0F1FD4046F1
:104C400009F0F2FE04F25460814609F0EDFEBDF871
:104C5000441014A809F01AF80146484608F0BBFDB4
:104C6000484608F0DDFD484609F0DEFE9DF84E207E
:104C70002B469DF82A1030460AF0A6FE9DF84E20DD
:104C80002B469DF8321038460AF09EFE9DF84E20C5
:104C90002B469DF83A1040460AF096FE9DF84E20AD
:104CA0002B469DF8421048460AF08EFE009530468D
:104CB0009DF84E30BDF92820BDF9261001950AF067
:104CC0009DFF019538469DF84E30BDF93020BDF965
:104CD0002E1000950AF092FF9DF84E304046BDF927
:104CE0003820BDF93610009501950AF087FF009530
:104CF000484601959DF84E30BDF94020BDF93E1063
:104D00000AF07CFF04F19800044609F08DFEBDF81E
:104D10004C1014A808F0BAFF0146204608F05BFDCD
:104D2000204608F09EFD204609F07EFE9DF84E20AC
:104D30002B469DF84A1020460AF046FE9DF84E305C
:104D40002046BDF94820BDF94610009501950AF0AE
:104D500055FF16B0BDE8F0874574000810B5ADF5F5
:104D6000A26D00F08DF98D49016000F5B4700AF074
:104D700005FEA0F5B47000F519700AF0FFFDA0F56E
:104D8000197000F558700AF0F9FDA0F5587000F29E
:104D90005C400AF0F3FDA0F25C4000F5AB600AF065
:104DA000EDFDA0F5AB6000F254600AF085FEA0F2C4
:104DB000546000F2CC600AF07FFEA0F2CC6000F2FA
:104DC00044700AF079FEA0F2447000F2BC700AF060
:104DD00073FEA0F2BC74002084F8440D84F8450DE5
:104DE00048226F490DF59960FBF785FB48220DF5C8
:104DF000996104F63400FBF77EFB4822684948318C
:104E00000DF59060FBF777FB48220DF5906104F6F5
:104E10007C00FBF770FB4822614990310DF58760FB
:104E2000FBF769FB48220DF5876104F6C400FBF728
:104E300062FB48225A49D831FCA8FBF75CFB4822A8
:104E4000FCA904F60C10FBF756FB48225549EAA8CA
:104E5000FBF751FB4822EAA904F65410FBF74BFB81
:104E6000482250494831D8A8FBF745FB4822D8A929
:104E700004F69C10FBF73FFB48224A499031C6A834
:104E8000FBF739FB4822C6A904F6E410FBF733FB15
:104E900048224449D831B4A8FBF72DFB4822B4A9D5
:104EA00004F62C20FBF727FB48223F49A2A8FBF77A
:104EB00022FB4822A2A904F67420FBF71CFB48221F
:104EC0003949483190A8FBF716FB482290A904F60F
:104ED000BC20FBF710FB4822334990317EA8FBF73A
:104EE0000AFB48227EA904F60430FBF704FB4822A3
:104EF0002D49D8316CA8FBF7FEFA48226CA904F6BC
:104F00004C30FBF7F8FA482228495AA8FBF7F3FA85
:104F100048225AA904F69430FBF7EDFA48222349B7
:104F2000483148A8FBF7E7FA482248A904F6DC30E4
:104F3000FBF7E1FA48221D49903136A8FBF7DBFA6E
:104F4000482236A904F62440FBF7D5FA482217492F
:104F5000D83124A8FBF7CFFA482224A904F66C40E4
:104F6000FBF7C9FA4822124912A8FBF7C4FA4822F3
:104F700012A904F6B440FBF7BEFA48220C494831A6
:104F80006846FBF7B8FA4822694604F6FC40FBF78E
:104F9000B2FA0DF5A26D204610BD0000580D0108B3
:104FA00080050108A0060108C0070108E008010803
:104FB000000A010810B51E49016000F2BC7001F042
:104FC00045FCA0F2BC7000F2447001F03FFCA0F27E
:104FD000447000F2CC6001F039FCA0F2CC6000F229
:104FE000546001F033FCA0F2546000F5AB6001F0B6
:104FF0002BFCA0F5AB6000F25C4001F025FCA0F2B8
:105000005C4000F5587001F01FFCA0F5587000F5E9
:10501000197001F019FCA0F5197000F5B47001F0D9
:1050200013FCA0F5B470BDE8104000F0DBB8000040
:10503000580D01081C207047004870478405002067
:1050400010B50446D4F8580100F0A0FA2046BDE897
:10505000104001F03DBB000010B500F04DFA0149D1
:10506000016010BD8C0D0108704710B5002905D1F5
:1050700000F090FCBDE8104000F0A6B910BD0000A3
:105080002DE9F04188B004F05FFA0026C66352496A
:1050900040F8401B02F048FC40386C3002F044FC01
:1050A0006C3898300AF02CFE4C49016080F864603E
:1050B000A0F86660A0F868604667983807A94FF6C0
:1050C000FF74079400F5887003F0D4FEA0F5887093
:1050D00006A9069400F59E7003F0CCFEA0F59E7420
:1050E00000224FF44877114604F140003B464FF44C
:1050F000F0780546CDF8008004F0A9FD00221146A5
:10510000104603F083FEA8622946204604F0A6F864
:1051100000223B4604F16C0011460546CDF80080A4
:1051200004F095FDFF221146104603F06FFEA862C1
:105130002946204604F092F84FF49570009004F14F
:1051400098003B4649220546002104F080FD0022DC
:105150001146104603F05AFE2863AE862946286899
:10516000D0F8842001A8904701A807C8C5E910120B
:10517000E86309201A4A04A90492ADF814002846ED
:1051800008F029FB2946204604F068F804F58870E9
:10519000E0220546062104F0EAFD06A90696284607
:1051A00003F04FFE2946204604F058F804F59E709F
:1051B000E02205464FF4427104F0D9FD012006A912
:1051C0000690284603F03DFE2946204604F046F8A6
:1051D00008B02046BDE8F081E00D01082C1101085F
:1051E000C01E010810B5054940F8981B01F03CFBB2
:1051F0009838BDE8104003F003BE0000E00D010840
:105200007CB50C46154601A869460AF003FB012847
:1052100001D000207CBDBDF804002060BDF8000076
:10522000286001207CBD70477047000070B51248AF
:105230000068C0031ED51049002070310860BFF31C
:105240004F8F081F0068C0F34E310C4A43F6FF76BB
:10525000C0F3C905284606EA411343EA8074146086
:10526000401E441CF9D1491E481CF3D1BFF34F8F97
:10527000BFF36F8F70BD000014ED00E074EF00E02D
:1052800002F06ABB70B50446204602F071FB00F0E4
:1052900081FB01462068426E204690472068D0F886
:1052A0008010204688472068816F20468847206804
:1052B0000023044AD0F888502046D104AC46BDE80B
:1052C0007040604700B80BC070B512480068C0035A
:1052D0001ED51049002070310860BFF34F8F081FA2
:1052E0000068C0F34E310C4A43F6FF76C0F3C9059F
:1052F000284606EA411343EA80741460401E441CA9
:10530000F9D1491E481CF3D1BFF34F8FBFF36F8F04
:1053100070BD000014ED00E074EF00E002494FF0B2
:10532000807008607047000008E100E002F0D0BB28
:1053300004494FF080700860BFF34F8FBFF36F8F49
:105340007047000088E100E00248C0F8AC1001217D
:10535000416270470010005001499020087070476A
:1053600058E400E00948C168094AC1F30A01491E2E
:1053700089B211800369C3F30A035B1E5380016481
:10538000416B41F001014163704700000010005083
:105390002800002010B502F0F8FEBDE8104000F033
:1053A000ABBA02F004BF704770470000021D002333
:1053B0005360034A026018324260C16070470000C7
:1053C0002C0E0108704770477FB5044607482146F8
:1053D000D0E9062368460BF065F8014604F5A27093
:1053E000054604F02DFCC4F840517FBDFC0A0108BD
:1053F0007FB50446074821460CC868460BF052F8B2
:10540000014604F5A270054604F01AFCC4F84051A8
:105410007FBD0000FC0A010808B5D0F85811054B03
:10542000009100F59E71D0F8542103480AF034FE33
:1054300008BD0000580100205401002008B5D0F834
:105440005811054B009100F59E71D0F85421034886
:105450000AF0D8FC08BD00005801002054010020CB
:105460007FB5044607482146D0E9042368460BF07F
:1054700019F8014604F5A270054604F0E1FBC4F8F2
:1054800040517FBDFC0A01087FB50446074821460C
:10549000D0E9022368460BF005F8014604F5A27036
:1054A000054604F0CDFBC4F840517FBDFC0A01085D
:1054B00008B5D0F85811054B009100F59E71D0F851
:1054C000542103480AF00CFD08BD000058010020DB
:1054D0005401002008B5D0F85811054B009100F593
:1054E0009E71D0F8542103480AF068FD08BD000001
:1054F000580100205401002070B50D46164601F0F9
:1055000063F9164901600023C0F83C31C0F840310E
:105510001349086004461349016004F5A27012495A
:1055200001604360114BD3E90812C0E90212C4F8CC
:105530005461C4F858510E48006801688A68002117
:105540009047002003F0B0FC02F0F2FB07F07DF87A
:1055500002F0EEFB07F0B2F8204670BD041301081C
:105560005C0100206C0E0108A4180108FC0A010867
:10557000A401002001490160704700006C0E010881
:10558000001DFFF733B8001DFFF744B810B50446FF
:105590002046FFF7F5FF0146206802689268BDE8E3
:1055A0001040104710B5002102C0FFF737F8001F68
:1055B00010BD2DE9F04104460022204604F5007597
:1055C0001746B0F90C60B0F90E8011462868036BDD
:1055D0002846984728683946426B28469047314606
:1055E0002868826B2846904728684146C26B284647
:1055F000904704F50D70C4F82802201D2A4604F1D6
:105600006C01BDE8F04108F0EFBAC06BFFF701B9DB
:105610007047000010B504460B460A2105A204F5A8
:10562000EE7004F0D0F904F19800BDE8104009F0E4
:10563000FBB900002564000010B500F0ABF9BDE82F
:105640001040FFF721BF00001CB5FEF771FE19499D
:10565000016000F5007026210446FAF77EFF164926
:10566000201D216003F080FB001F0C3003F07CFB49
:1056700000218160C16001618182C1820122427684
:10568000C16180F8201002760C4A40F80C2C41626F
:105690000C38A0F500700A4900F50D720AC9CDE971
:1056A0000013084911605060DDE90013C2E90213DC
:1056B0001CBD0000C00E0108D4180108501E0108CE
:1056C00078050108BC18010801490160FEF776BFA2
:1056D000C00E01087CB506461B4A68460092ADF82C
:1056E0000410014606F18400044608F074F804F141
:1056F00028051648006830B1154AA98812889142D9
:1057000006D2012205E013496C221348FAF76EFE17
:105710000022A2B110F811001049096851F82000C8
:105720000168096B8847C0F1320001B22068426B02
:105730002046904730684169304688477CBD05491E
:105740006D220748FAF752FEC01E0108AC01002086
:10575000B8010020F9280108B7280108B401002089
:105760004129010890F8BA00704700F1840282F8DC
:1057700036102C3A82F8261080F85210704703B584
:1057800081B000F15801029A8A622C3900220092FD
:10579000009A8A620168496988470EBD10B5FEF714
:1057A00097FF0149016010BDF80E01080020704705
:1057B000222202A10DA0FAF719FE00002E2E2F437F
:1057C0004D372F546F7563684746582F7461726761
:1057D00065742F67656E6572617465642F53544DEF
:1057E0003332444D412E6370700000003020262675
:1057F0002022444D41206F7065726174696F6E2084
:105800006E6F7420737570706F727465642200001F
:10581000272202A10DA0FAF7E9FD00002E2E2F434A
:105820004D372F546F7563684746582F7461726700
:1058300065742F67656E6572617465642F53544D8E
:105840003332444D412E6370700000003020262614
:105850002022444D41206F7065726174696F6E2023
:105860006E6F7420737570706F72746564220000BF
:105870007047000010B500F10C010B464160002498
:10588000047244720649016000F1200101221846A9
:1058900001F074FF0C3800F12001CC6010BD000055
:1058A0009C0F010801490160704700009C0F01082E
:1058B00030B5044C039D04600171C28003814581B1
:1058C00030BD0000EC0F010802480021016041607A
:1058D00070470000300000200149012048607047F7
:1058E0003000002003484068002801D001207047A4
:1058F00000207047300000200149002048607047B8
:10590000300000200149002008607047300000206E
:10591000034801680029FCD10121016070470000A3
:10592000300000200149012008607047300000204D
:1059300010B500F02FF80168C96BBDE810400847AA
:10594000704741607047704770470000024901602E
:10595000002141600172704700100108704700008B
:105960003EB50446094800221146008800B2009066
:105970000748008803B201A803F0EFF92068DDE9C9
:105980000112036C204698473EBD00009C01002098
:105990009A0100200148C0687047000050010020B3
:1059A00070B50446002004F18405A4F8A400B4F8FE
:1059B0008000A4F8A6000BE0415D21B154F820005E
:1059C0000168096D8847B4F8A400401CA4F8A4003D
:1059D000B4F8A400B4F8A6108842EDD370BD70B539
:1059E0000D4604460021B0F880000A4613E054F842
:1059F0002230AB4208D1A11891F88400FF281ED2B2
:105A0000401C81F8840070BDA31893F8843003B95A
:105A10000121521C92B29042E9D821B1202802D132
:105A2000204600F03DF8B4F88000202807D220443A
:105A3000012180F88410B4F88000202801D3FAF7FF
:105A4000B3FC8100401CA4F88000655070BD0022AA
:105A5000A0F8802011464318491C202983F884208F
:105A6000F9DB704710B5B0F88030002215E050F82F
:105A700022408C420FD1841894F884405CB1831882
:105A800093F88410491E11F0FF0183F8841001D1AE
:105A900040F8221010BD521C92B29342E7D810BDBC
:105AA0002DE9F04100221446134611461DE0451829
:105AB00095F8846076B191420AD08EB250F8267083
:105AC00096B240F82670861895F8845086F884506F
:105AD000521C09E0B0F8A4508D4200DB641CB0F801
