:0200000490006A
:10000000286B0020710300909B370090472F0090D1
:100010009937009037050090213D009000000000C6
:10002000000000000000000000000000B10200908D
:1000300045050090000000000D030090633A009019
:100040008B0300908B0300908B0300908B03009038
:100050008B0300908B0300908B0300908B03009028
:100060008B0300908B0300908B0300908B03009018
:100070008B0300908B0300908B0300908B03009008
:100080008B0300908B0300908B0300908B030090F8
:100090008B0300908B0300908B0300908B030090E8
:1000A0008B0300908B0300908B0300908B030090D8
:1000B0008B0300908B0300908B0300908B030090C8
:1000C0008B0300908B0300908B0300908B030090B8
:1000D0008B0300908B0300908B0300908B030090A8
:1000E0008B0300908B030090000000008B030090B6
:1000F0008B0300908B0300908B0300908B03009088
:100100008B0300908B0300908B0300908B03009077
:100110008B0300908B0300908B0300908B03009067
:100120008B0300908B0300908B0300908B03009057
:100130008B0300908B0300908B0300908B03009047
:100140008B0300908B030090000000000000000073
:100150008B0300908B0300908B0300908B03009027
:100160008B0300908B0300908B0300908B03009017
:100170008B0300908B0300908B0300908B03009007
:100180008B0300908B0300908B0300908B030090F7
:100190008B0300908B0300908B0300908B030090E7
:1001A000993200908B030090390500908B030090EA
:1001B0008B0300908B0300908B0300908B030090C7
:1001C0008B0300908B0300908B0300908B030090B7
:1001D0008B0300908B0300908B0300908B030090A7
:1001E0008B0300908B0300908B0300908B03009097
:1001F0008B0300908B0300908B0300908B03009087
:100200008B0300908B0300908B0300908B03009076
:100210008B0300908B030090513C00908B03009067
:100220008B0300908B0300908B0300908B03009056
:100230008B0300908B0300908B0300908B03009046
:100240008B0300908B0300908B0300908B03009036
:100250008B0300908B0300908B0300908B03009026
:100260008B0300908B0300908B0300908B03009016
:100270008B0300908B0300908B0300908B03009006
:100280008B0300908B0300908B0300900000000014
:100290008B0300908B030090DFF810D000F00EF974
:1002A00000480047953B0290AFF30080286B002088
:1002B0002C4B19680868B0E8F04F80F30988BFF349
:1002C0006F8F4FF0000080F311887047000000002E
:1002D00008480068006880F308884FF0000080F349
:1002E000148862B661B6BFF34F8FBFF36F8F00DF24
:1002F00000BF00BF08ED00E0DFF80C00016841F42A
:1003000070010160704700BF88ED00E0EFF30980E5
:10031000BFF36F8F134B1A681EF0100F08BF20ED4C
:10032000108A20E9F04F106009B44FF0500080F3BC
:100330001188BFF34F8FBFF36F8F29F0F7FC4FF099
:10034000000080F3118809BC19680868B0E8F04F14
:100350001EF0100F08BFB0EC108A80F30988BFF3BD
:100360006F8F7047F4090020EFF30580704700009D
:100370000648804706480047FEE7FEE7FEE7FEE73F
:10038000FEE7FEE7FEE7FEE7FEE7FEE7593B0090EB
:10039000990200902DE9F05F0546002092469B46A9
:1003A00088460646814640241BE02846414647468B
:1003B000224600F073F853465A46C01A914110D3B2
:1003C00011461846224600F05AF82D1A67EB01082C
:1003D0004F4622460120002100F051F817EB00099A
:1003E0004E41201EA4F10104DFDC484631462A4676
:1003F0004346BDE8F09F10B540EA01040346A40758
:1004000003D009E010C9121F10C3042AFAD203E076
:1004100011F8014B03F8014B521EF9D210BDD2B2B4
:1004200001E000F8012B491EFBD270470022F6E7DD
:1004300010B513460A4604461946FFF7F0FF20465A
:1004400010BD421C10F8011B0029FBD1801A704717
:1004500010B5002200E0521C835C8C5CA34201D1E9
:10046000002BF8D1D8B2E1B2401A10BD034611F802
:10047000012B00F8012B002AF9D118467047202AD9
:1004800004DB203A00FA02F1002070479140C2F1EB
:10049000200320FA03F3194390407047202A04DB1D
:1004A000203A21FA02F00021704721FA02F3D040ED
:1004B000C2F120029140084319467047064C074D8F
:1004C00006E0E06840F0010394E807009847103424
:1004D000AC42F6D3FFF7E4FE0842049028420490B1
:1004E00070B58C1810F8015B15F0070301D110F8F6
:1004F000013B2A1106D110F8012B03E010F8016B23
:1005000001F8016B5B1EF9D12B0705D40023521EA5
:100510000DD401F8013BFAE710F8013BCB1A921C0D
:1005200003E013F8015B01F8015B521EF9D5A1420B
:10053000D8D3002070BDFEE7014800F015B90000D7
:10054000740A0020704772B6FEE7F0B5D1E908439F
:10055000CD690A68C2B10268254322F4F842134308
:100560001D430560D1E90125D1E903364C692A43D1
:100570004568334389691A43EB0B2243DB030A4383
:100580001A4342600020F0BDD1E9012ED1E9036C8D
:10059000D1E9057142EA0E0246EA0C0632433A43BB
:1005A0000A4301682A4322431A436FF30E010A43A8
:1005B0000260E7E7426943F6FE739A4342EA41016B
:1005C00041610020704770B591E81C00C9686FF068
:1005D0001F0506691A4305EB441444EA41210A4306
:1005E00006EA45431A430261002070BD2DE9F04F31
:1005F0008B8A6FF00F05264C4FF07F4BD1F80C9093
:1006000004EB03536FF0FF044FEA042A1AB3866821
:100610004FEA09321F4FA2F580521A433E4032433F
:100620008260D1E900278E68521E05EB07150F8AFC
:100630002A43C56804EB06240E7E0AEB07432243D7
:100640001A430BEB06610A4305F070431A43C2607C
:100650000020BDE8F08F91E804110F4E521E0F8A62
:1006600005EB08152A4304EB0C2C06EB09350E7E2E
:1006700042EA0C022A4385680AEB074422431A43E4
:100680000BEB06610A4305F070431A438260DFE713
:100690000000F0FFFF0F0FFF00F0FFFF70470000AA
:1006A000F0B590F86020012A22D0C1EBC1020127E9
:1006B00080F86070022380F8613000EB8202284DE0
:1006C000138F168EB2F83CC0D46A1B05283244EA58
:1006D000064643EA4C530A2C46EA03060AD0092C84
:1006E00008D0137B46EA036349B10B2C1AD01DE0F6
:1006F0000220F0BDD36803F07F433343F4E7016881
:100700004C6AAC431C434C62016813688B615168AE
:100710000A2901D009291BD1D168026821F07F4143
:10072000916215E0118B0F4D43EA81430168CC695A
:10073000AC431C43CC61016813680B6151680A2902
:1007400001D0092904D1D168026821F07F411162EA
:10075000002180F8617080F860100846F0BD00004C
:100760000F0033FF0F003FFF2DE9F04704460068FC
:1007700000274FF004084FF0010946680568F107AB
:1007800014D0E90512D5036823F480730360606E0A
:1007900040F0010060662068C0F8089084F861802D
:1007A00084F86070616A09B120468847B00615D5A3
:1007B000A80413D520682022036823F400530360A3
:1007C00020688260606E40F00200606684F861809C
:1007D00084F86070616A09B120468847300715D5F2
:1007E000280513D520680822036823F400630360FA
:1007F00020688260606E40F00400606684F861806A
:1008000084F86070616A09B12046884770070CD58A
:1008100068050AD52068026822F4806202602068B8
:10082000C0F80880204600F071F8B00713D5A8057D
:1008300011D520680222036823F400730360206846
:100840008260606E606684F8619084F86070216AEE
:1008500009B120468847F00612D5E80410D5206873
:10086000016821F480510160226810219160616E5D
:10087000616684F86190204684F86070FFF70EFF8F
:10088000BDE8F0872DE9F041040004D094F8610040
:10089000002518B107E00120BDE8F081204684F86A
:1008A000605000F035F8184E022084F861000123F2
:1008B000D4E90010D4F81CC040F207120F6840EAD7
:1008C0000C003740384308602068A769A168466B70
:1008D00039439643314341632068E268016C6FF30A
:1008E0000F01114301642068218AA28A466B090521
:1008F00041EA425126F4401211434163656684F88F
:1009000061300020C8E70000BFFFF8FF704700001B
:1009100008B500680B49884212D10B48016841F0C4
:100920001001016000680022052100F01000009015
:100930005A2000F00BFFBDE808405A2000F0F8BE36
:1009400008BD000000100052D444025870B504469F
:1009500000F0BAF90546601C02D00448007804444F
:1009600000F0B2F9401BA042FAD370BD180000207D
:10097000F0B5B9B014216846FFF758FD3848016852
:1009800000296AD101210160C82106A8FFF74EFDA8
:10099000002018904FF080710446CDE9061006A89B
:1009A00000F048FF08B1FFF7CEFD2E48016841F482
:1009B000805101600068022502AA694600F4805057
:1009C000059040F2FF60CDE90005032626480C277C
:1009D00082E8D00000F056F802AA4FF68370CDE905
:1009E00000052248694682E8D00000F04BF84FF439
:1009F0007F40694602AACDE900051D4882E8D00083
:100A000000F040F802AA48F23310CDE90005194879
:100A1000694682E8D00000F035F802AA4CF2037073
:100A2000CDE900051448694682E8D00000F02AF8B4
:100A300002AA4FF63F00CDE900051048694682E85A
:100A4000D00000F01FF80D20694602AACDE900058C
:100A50000B4882E8D00000F015F839B0F0BD000076
:100A600000000020D4440258002002580010025810
:100A7000001C025800180258000C025800140258BA
:100A8000000802582DE9F84F03247D4D00234FF054
:100A900001094FF0B04B4FF00F0AE9E009FA03F7F4
:100AA0003A4076D00E7906F00306012E01D0022ED0
:100AB00018D1D0F808C04FEA430ECE6804FA0EF8F9
:100AC0002CEA080C06FA0EF646EA0C068660D0F808
:100AD00004C00E792CEA070CC6F300169E4046EAC5
:100AE0000C0646600E79F643B6070BD0C6684FEA8F
:100AF00043088F6804FA08FC26EA0C0607FA08F790
:100B00003743C7600E7906F00306022E12D1DE08C5
:100B10000F694FEA437C00EB8606B646366A4FEA19
:100B2000DC6C0AFA0CF807FA0CF726EA08063743D9
:100B3000CEF820700F7906684FEA430807F00307E4
:100B400004FA08FC07FA08F726EA0C0637430760A0
:100B50004E6816F4403F1CD04A4E376847F00207F3
:100B6000376036689F0706F00206009623F00306FA
:100B700006F1B046B6463F0FD6F80864DFF80881A4
:100B80000AFA07FC404526EA0C0603D14FF0000C98
:100B900041E06CE0DFF8F4C0604502D14FF0010C99
:100BA00039E0DFF8ECC0604502D14FF0020C32E0D2
:100BB000DFF8E0C0604502D14FF0030C2BE0DFF816
:100BC000D8C0604502D14FF0040C24E0DFF8CCC05F
:100BD000604502D14FF0050C1DE0DFF8C4C0604550
:100BE00002D14FF0060C16E0DFF8B8C0604502D124
:100BF0004FF0070C0FE0DFF8B0C0604502D14FF0B6
:100C0000080C08E0DFF8A4C0604502D14FF0090CE1
:100C100001E04FF00A0C0CFA07FC4CEA060CCEF887
:100C200008C44F68DBF80060FF0226EA020600D520
:100C300016435F46CBF80060D1F804C0DBF80460CF
:100C40005FEA8C2C26EA020600D516437E606E68A9
:100C50004F6826EA0206BF0300D516436E602E6871
:100C60004F6826EA0206FF0300D516432E605B1C80
:100C70000A6832FA03F67FF411AFBDE8F88F00007E
:100C800080000058F4440258000002580004025842
:100C900000080258000C02580010025800140258B4
:100CA00000180258001C0258002002580024025864
:100CB0000AB1816170470904FBE700000148006840
:100CC000000C70470010005C01488068704700000D
:100CD0001800002030B590F84120202A24D190F847
:100CE0004020012A20D0012380F84030242280F8BF
:100CF0004120202300240268156825F001051560B5
:100D00000268156825F480551560026815680D4362
:100D1000156001680A6842F001020A6080F84130FB
:100D200080F84040002030BD022030BD30B590F842
:100D30004120202A22D190F84020012A1ED00123F0
:100D400080F84030242280F84120202400250268C9
:100D5000136823F0010313600268136823F47063BF
:100D600043EA0121116001680A6842F001020A6049
:100D700080F8414080F84050002030BD022030BD56
:100D800070B5040004D094F84100002510B106E0CD
:100D9000012070BD204684F8405000F0ABF92420BB
:100DA00084F841002068016821F001010160D4E964
:100DB000001020F0706008612068816821F4004113
:100DC0008160E06821680128A06806D040F40440F2
:100DD0008860E068022803D006E040F40040F7E7AE
:100DE00021684FF40060486020212068114A436860
:100DF000134343602068C26822F40042C26054F882
:100E0000106B0DCC104340EA0320F06054F81C3CFA
:100E1000D4E900021043186054F81C0D026842F037
:100E200001020260656484F84110256384F8425031
:100E3000002070BD008000022DE9FF4F83B0044602
:100E400090F841009A469346DDE91087DDF8489016
:100E5000202874D15FEA080014D09FB194F84000B4
:100E600001286CD0012084F84000FFF72DFF0122FB
:100E7000064619230090D103204602F07BF9002892
:100E800071D103E04FF4007060646CE00025C4F899
:100E90002480222184F84110402084F842006564B7
:100EA0006785534665635A4604992046CDE9009606
:100EB00002F0E4F810B184F8405054E0618DFF274F
:100EC00034484FF08078FF294FF0007A04D9278505
:100ED0003A464346009005E0618D534621850090D7
:100EE00094F828202046049902F02CF900224B4661
:100EF00004212046009602F03DF9A0BB2068616AFB
:100F0000406A0870606A401C6062208D401E81B299
:100F10002185608D401E6085608DD8B1D1B90022D9
:100F20004B4680212046009602F024F9D8B9608D06
:100F3000FF2805D927853A464346009506E026E076
:100F4000608D53462085009594F82820204604990A
:100F500002F0F8F8608D0028C8D132464946204694
:100F600002F03FF918B1012007B0BDE8F08F216809
:100F70002020094AC86121684B6813404B6084F8FF
:100F8000410084F84250002084F84050ECE70220F1
:100F9000EAE700000024008000E800FE2DE9FF4F92
:100FA00083B0044690F841009A469346DDE91087E5
:100FB000DDF84890202871D15FEA080014D09FB175
:100FC00094F84000012869D0012084F84000FFF720
:100FD0007BFE0122064619230090D103204602F031
:100FE000C9F800286ED103E04FF40070606469E036
:100FF0000025C4F82480212184F84110402084F881
:10100000420065646785534665635A4604992046E5
:10101000CDE9009602F064F810B184F8405051E038
:10102000608DFF274FF08078FF284FF0007A04D9B9
:1010300027853A464346009505E0608D5346208556
:10104000009594F828202046049902F07BF8324657
:101050004946204602F0F1F8A0BB606A216800789A
:101060008862606A401C6062608D401E6085208DD1
:10107000401E80B22085618DD9B1D0B900224B4687
:1010800080212046009602F075F8D8B9608DFF28BF
:1010900005D927853A464346009506E026E0608D4F
:1010A00053462085009594F828202046049902F0A4
:1010B00049F8608D0028CAD132464946204602F0E0
:1010C00090F818B1012007B0BDE8F08F206820210A
:1010D000074AC161206843681340436084F84110A7
:1010E00084F84250002084F84050ECE70220EAE700
:1010F00000E800FE10B5B8B00446142132A8FFF78E
:1011000095F9C8216846FFF791F918492068884287
:101110002AD1002022900821CDE90010684600F075
:1011200089FB08B1FFF70FFA1148016841F080010F
:10113000016000680DF1C80C122100F080003790AA
:1011400030200122032304248CE81F00094832A91F
:10115000FFF798FC06480830016841F480010160FF
:10116000006800F48000379038B010BD005800408F
:10117000E0440258001C0258024881680278114479
:101180008160704718000020032010B500F0FEFABF
:1011900001F0D0F90F4A104914681368C4F3032210
:1011A00003F00F038A5CC95C02F01F0201F01F010B
:1011B000D0400A4A20FA01F11160094908600F2065
:1011C00000F010F808B1012010BD00F09FFA0020D7
:1011D00010BD00001844025864A9029028000020A5
:1011E0002400002010B5102804468AB02AD200221C
:1011F0000146762000F0AAFA762000F099FA154808
:1012000004601548016841F480210160006808A964
:1012100000F480200990684601F02AF901F078F97D
:101220000E49400000220E4CB0FBF1F10D4840F297
:10123000E7330460C0E90332491EC0E9011201F03E
:101240003AFD10B101200AB010BD064801F066FD5C
:10125000F9E700001C000020F044025840420F0053
:10126000004801401C0C00202DE9F041044690F894
:10127000A00016460F4601281DD0012584F8A05075
:10128000022084F8A10006EB860000EBC6003422A1
:1012900004EB80003830FFF7AEF83246394620467E
:1012A00002F000F8216800204D6284F8A15084F813
:1012B000A000BDE8F0810220FBE770472DE9F04176
:1012C0000446006800274FF00408856B466B6907E9
:1012D00015D5710713D5426B22F0040242632068D2
:1012E000C0F83C80D4F8A40040F00100C4F8A40089
:1012F00084F8A180204684F8A070FFF7DEFFA807DD
:1013000016D5B00714D520680222436B23F00203E0
:1013100043632068C263D4F8A40040F00200C4F81C
:10132000A40084F8A180204684F8A070FFF7C5FFD0
:1013300005EA06004FF00108C0070ED021684A6B8D
:1013400022F001024A632168C1F83C8084F8A18040
:10135000204684F8A07000F091F8280710D53007D7
:101360000ED520680822436B23F0080343632068EE
:10137000C26384F8A180204684F8A07000F0A4F92C
:10138000BDE8F0812DE9F041040004D094F8A100FB
:10139000002518B107E00120BDE8F081204684F85F
:1013A000A05000F073F83448022184F8A110012203
:1013B00002CC8B6923F070438B6194E84A00194397
:1013C000E3681E4354F8043D31439E6931439961FB
:1013D00021688B6803408B602168A68AA7698B68A7
:1013E0003B4343EA06438B602168CB680340CB60F4
:1013F0002168A38B276ACE683E4346EA0346CE6047
:1014000021680B6903400B612368A68CA76A1969E0
:10141000394341EA0641196121684B6903404B6138
:101420002068A38D266B4169314341EA0341416144
:10143000236894F8351094F83600DE6A000406F04C
:101440007F46DE62236840EA012094F83460D96A5E
:1014500031430143D9622068416B41F00601416389
:101460002068816941F001018161C4F8A45084F8C9
:10147000A120002090E7000000F800F001684A6A0F
:1014800042F001024A62002100F0FCB82DE9F04F61
:10149000B9B0044614216846FEF7C8FFC82106A863
:1014A000FEF7C4FF6E49206888427DD110AF022547
:1014B0001922C823042687E86C00002116914004F5
:1014C0000C461791CDE91451CDE9060106A800F0AC
:1014D000B1F908B1FFF737F86248016841F0080137
:1014E0000160006800F0080005905E48001F016878
:1014F00041F480610160016801F480610591016837
:1015000041F040010160016801F04001059101686E
:1015100041F400710160016801F4007105910168F6
:1015200041F008010160016801F0080105910168BE
:1015300041F001010160016801F0010105910168BC
:1015400041F480710160016801F4807105910168C6
:1015500041F004010160006802AA0326694600F018
:1015600004000590F920CDE900050E273E4882E8E9
:10157000D000FFF787FA4FF48061DFF8F09002AAFD
:101580004FF00908CDE900156946484682E8500148
:10159000FFF778FADFF8D8B048F61420CDE9000557
:1015A00002AA6946584600E056E082E8D000FFF7FC
:1015B00069FA0820694602AACDE900052D4882E8AB
:1015C000D000FFF75FFA4FF49070694602AACDE9A8
:1015D0000005294882E8D000FFF754FA4FF4006074
:1015E000DFF898A002AA6946CDE90005504682E8D6
:1015F0005001FFF747FA4020694602AACDE90005ED
:101600001F4882E8D000FFF73DFA8020694602AA11
:10161000CDE90005484682E8D000FFF733FA4FF4E1
:101620000050694602AACDE90005504682E8D00084
:10163000FFF728FA0121584602AACDE900156946AC
:1016400082E85001FFF71EFA00220521582000F021
:101650007DF8582000F06CF839B0BDE8F08F00003C
:1016600000100050E44402580028025800180258A4
:1016700000240258000C02580000025800200258B2
:101680000008025870B590F8A020012A18D00D4D1E
:10169000012380F8A030022280F8A120002450F815
:1016A000A02B566B26F001065663296450F8A01C47
:1016B0004A6B42F001024A6343700470204670BDD9
:1016C000022070BD00100050704770B5044690F8BD
:1016D000A0000B46012816D002EB820000EBC201ED
:1016E000012584F8A050022084F8A10004EB8101B8
:1016F0002046CB65383101F0D5FD002084F8A1509B
:1017000084F8A00070BD022070BD0000074882B0C0
:10171000016841F002010160006800220F2100F021
:1017200002000090901E02B000F010B8F44402587D
:10173000002809DB410900F01F028900012001F1A6
:10174000E0219040C1F80001704700000E4BF0B45A
:101750001B680D46C3F30223C3F10706042E00D90C
:101760000426191D072901D2002300E0DB1E0124F5
:1017700004FA06F19C40491E2940641E9940144019
:101780002143F0BC02F0CDBA0CED00E0064900F0B8
:10179000070210B54FF6FF040868044B204040EAEA
:1017A00002201843086010BD0CED00E00000FA05AF
:1017B0002DE9F0411E4C0546206800F00700062880
:1017C000206804D000F03F00A84228D12EE020F08D
:1017D0003F0028432060FFF777FA154F4FF47A78DF
:1017E0000646083F05E000BFFFF76EFA801B404544
:1017F00015D83868C0438004F6D41E2D05D02E2D90
:1018000003D01D2D01D02D2D10D1FFF75DFA054617
:10181000464607E0FFF758FA401BB04202D90120C4
:10182000BDE8F0812068C043C003F3D40020F7E78F
:101830000C4802582DE9FE4F0546DFF8E89350F8B2
:10184000081B0024F74FC943009005F128002646E5
:1018500009F12409019008011DD4E86E50B1B0F5DA
:10186000801F0CD0B0F5001F0ED0B0F5401F1ED069
:1018700001240FE0386840F40030386017E0009829
:10188000022101F08BFF03E00198022102F016F81B
:1018900004000CD026462888C043C00523D4E86D38
:1018A00005281ED2DFE800F00C11161B1B00EA6EA3
:1018B000D9F8001021F440111143C9F80010EAE7EB
:1018C000386840F40030386009E00098002101F0E9
:1018D00065FF03E00198002101F0F0FF044674B1B8
:1018E00000E0012426462888C043800528D4286EBD
:1018F00080281ED00CDC90B140280ED114E0EA6D97
:10190000D9F8001021F007011143C9F80010EAE7E7
:10191000C02813D0B0F5807F10D001240FE03868C4
:1019200040F40030386009E00098002101F036FFF3
:1019300003E00198002101F0C1FF04469CB1264656
:101940002888DFF8E082C04308F12C0840052CD439
:10195000D5F8AC00B0F5800F20D00DDCA0B1B0F50B
:10196000001F0FD115E02A6ED9F8001021F4E071A4
:101970001143C9F80010E3E7B0F5C00F13D0B0F57C
:10198000000F10D001240FE0386840F400303860B8
:1019900009E00098002101F001FF03E00198002117
:1019A00001F08CFF04467CB126462888C043000520
:1019B0002DD4D5F8B000B0F1007F21D00EDCA8B155
:1019C000B0F1807F10D116E0D5F8AC20D8F8001027
:1019D00021F460011143C8F80010E6E7B0F1407F40
:1019E00013D0B0F1806F10D001240FE0386840F4BC
:1019F0000030386009E00098002101F0CFFE03E0DC
:101A00000198002101F05AFF044694B12646286847
:101A1000DFF810B2C0430BF1200B80011FD4E86C3B
:101A2000D8B110280FD0202812D0302815D001248A
:101A300014E0D5F8B020D8F8001021F0E06111438F
:101A4000C8F80010E3E7386840F40030386004E07C
:101A50000098022101F0A2FE044674B126462888AF
:101A6000C043C0042BD4686EB0F5005F20D00DDCFD
:101A7000A0B1B0F5805F0FD115E0EA6CDBF8001083
:101A800021F030011143CBF80010E8E7B0F5405FDA
:101A900013D0B0F5804F10D001240FE0386840F427
:101AA0000030386009E00098002101F077FE03E083
:101AB0000198002101F002FF04468CB126462888D7
:101AC000C043800429D4A86EB0F5403F23D010DC79
:101AD00008B3B0F5803F14D0B0F5003F0FD115E04A
:101AE0006A6ED9F8001021F4E0411143C9F80010E2
:101AF000E5E7B0F5802F0ED0B0F5A02F0BD0012474
:101B00000AE00098012101F049FE03E0019801215B
:101B100001F0D4FE044694B126462888C043400410
:101B20002AD4D5F8B400B0F1405F23D010DC08B35C
:101B3000B0F1805F14D0B0F1005F0FD115E0AA6E54
:101B4000D9F8001021F4E0211143C9F80010E4E7AE
:101B5000B0F1804F0ED0B0F1A04F0BD001240AE0BD
:101B60000098012101F01AFE03E00198012101F023
:101B7000A5FE04465CB126462868C043400117D440
:101B8000286D98B1B0F5807F0BD001240FE0D5F817
:101B9000B420D8F8001021F0E0411143C8F800103B
:101BA000EAE70098012101F0F9FD044674B12646E8
:101BB0002888C04300041ED4686FD0B1B0F1805FA4
:101BC0000DD0B0F1005F0FD0012413E02A6DDBF8D7
:101BD000001021F480711143CBF80010E8E7386859
:101BE00040F40030386004E00098012101F0D6FD97
:101BF000044674B126462868C043C00120D4A86CAE
:101C0000E0B1012810D0022813D0032816D00124F7
:101C100015E06A6FD9F8001021F040511143C9F85E
:101C20000010E8E72C440258386840F4003038606F
:101C300004E00098022101F0B1FD04466CB1264693
:101C40002868C04340024DD4FA48016841F48071CD
:101C50000160FFF739F882460EE0AA6CDBF800104D
:101C600021F003011143CBF80010E9E7FFF72CF84E
:101C7000A0EB0A00642833D8EE480068C005F5D50B
:101C80007CBBDFF8B4A3B5F8B810DAF8000001F4B3
:101C9000407100F44070884211D0DAF80010DAF890
:101CA000002021F4407142F48032CAF80020DAF8B2
:101CB000002022F48032CAF80020CAF80010D5F8BB
:101CC000B800B0F5807F1AD1FEF7FEFF029012E057
:101CD000FEF7FAFF0299411A41F2883081420AD98F
:101CE000032426462878DFF850A3C043AAF11C0A33
:101CF000C00721D03DE0DAF800008007E8D5D5F82C
:101D0000B810C1F301200328CC480DD0016821F49C
:101D10007C510160B5F8B820DAF80010C2F30B026C
:101D20001143CAF80010DDE7C54A036802EA111240
:101D300023F47C511143ECE7D5F88000182816D025
:101D400005DCA0B1082808D0102804D10AE020281A
:101D50000DD028280BD001240AE00098012101F0C1
:101D60001DFD03E00198012101F0A8FD044664B1C6
:101D700026462878C04380071FD4E86F06281AD269
:101D8000DFE800F0170D12171717D5F88020DAF8E2
:101D9000001021F038011143CAF80010E9E700985B
:101DA000012101F0FBFC03E00198012101F086FD17
:101DB00004467CB100E0012426462878C043400751
:101DC0001FD4D5F89800062819D2DFE800F0160CC9
:101DD00011161616EA6FDAF8001021F00701114308
:101DE000CAF80010E9E70098012101F0D7FC03E0F0
:101DF0000198012101F062FD0446A4B100E0012434
:101E000026462878C04380062BD4D5F89400B0F13C
:101E1000405F24D011DC10B3B0F1805F15D0B0F179
:101E2000005F10D116E0D5F89820D8F8001021F006
:101E300007011143C8F80010E3E7B0F1804F0ED05E
:101E4000B0F1A04F0BD001240AE00098002101F06E
:101E5000A5FC03E00198022101F030FD044694B195
:101E600026462878C04340062BD4D5F8A000B0F50C
:101E7000406F24D011DC10B3B0F5806F15D0B0F5F1
:101E8000006F10D116E0D5F89420DAF8001021F098
:101E9000E0411143CAF80010E3E7B0F5805F0ED0CF
:101EA000B0F5A05F0BD001240AE00098002101F0FA
:101EB00075FC03E00198022101F000FD044694B195
:101EC00026462878C04300062BD4D5F8A400B0F5E8
:101ED000C04F24D011DC10B3B0F5005F15D0B0F5C1
:101EE000804F10D116E0D5F8A020D8F8001021F4CA
:101EF000E0511143C8F80010E3E7B0F5004F0ED0F1
:101F0000B0F5204F0BD001240AE00098002101F029
:101F100045FC03E00198022101F0D0FC044654B1D5
:101F200026462878C04300071ED4D5F88800B0F5AF
:101F3000805F0AD00FE0D5F8A420D8F8001021F473
:101F400060411143C8F80010EBE70198022101F04D
:101F5000B5FC00B10126D5F88820DAF8001021F48C
:101F600040511143CAF800102878C043C00613D46A
:101F7000D5F89C00B0F5807F05D10198022101F0D1
:101F80009DFC00B10126D5F89C20D8F8001021F462
:101F900040711143C8F800102868C043000316D4EC
:101FA000D5F8A80038B1B0F5803F09D0B0F5003FB2
:101FB0000BD001240AE00098002101F0EFFB03E0C0
:101FC0000198022101F07AFC04468CB1264628686B
:101FD000C043400322D4D5F88C00B0F5801F11D047
:101FE000B0F5001F13D0B0F5401F15D0012414E048
:101FF000D5F8A820D8F8001021F440311143C8F8D2
:102000000010E4E7386840F40030386004E00198DC
:10201000012101F053FC0446A4B126462868C043C0
:10202000C00325D4686DB8B1B0F5803F19D0012444
:102030001DE0000000480258704402581044025845
:10204000CFFFFF00D5F88C20DAF8001021F4401102
:102050001143CAF80010E1E7386840F400303860F6
:1020600004E00098022101F099FB0446E4B1264601
:102070002868C043800005D40198022101F01EFCAD
:1020800000B101262868C04380031CD4D5F8840021
:10209000B8B1B0F5807F10D0B0F5007F11D0B0F5A9
:1020A000407F0ED001240DE06A6DDBF8001021F4B2
:1020B00080311143CBF80010DAE7386840F4003083
:1020C0003860E4B326462868C043C00207D4AA6F2C
:1020D000D9F8001021F000411143C9F80010286818
:1020E000C043C00007D44A48D5F8BC20016821F499
:1020F0008041114301602868C043800207D42A6FE1
:10210000D9F8001021F080711143C9F80010286837
:10211000C043400009D43E48016821F400410160F9
:102120000168D5F8C020114301602868C04309D474
:10213000AA6DDBF8001021F04051114300E016E0D9
:10214000CBF800102868C043000208D4D5F89020CE
:10215000DAF8001021F440011143CAF80010287980
:102160000024C04300F0010020430AD00FE0D5F85E
:102170008420DAF8001021F440711143CAF80010ED
:10218000A1E70098002101F009FB00B1064628797B
:10219000C04300F00200204305D10098012101F066
:1021A000FDFA00B106462879C04300F00400204340
:1021B00005D10098022101F0F1FA00B10646287914
:1021C000C04300F00800204305D10198002101F030
:1021D00075FB00B106462879C04300F0100020438B
:1021E00005D10198012101F069FB00B1064628796B
:1021F000C04300F02000044304D10198022101F003
:102200005DFB00B916B10120BDE8FE8F0020FBE7A1
:10221000104402582DE9F05F04000F467ED0DFF82D
:102220003882D8F8000000F00F00B8420CD2D8F87D
:10223000001021F00F013943C8F80010D8F8000051
:1022400000F00F00B84269D12078844D40070AD5CC
:102250002069296801F07001884204D9296821F0B9
:1022600070010143296020787C4E361D00070AD595
:102270006069316801F07001884204D9316821F049
:102280007001014331602078C0060AD5A069316829
:1022900001F4E061884204D9316821F4E06101432E
:1022A00031602078DFF8B4B180060BF1080B0CD553
:1022B000E1695846DBF8002002F07002914204D92F
:1022C000026822F070020A430260207880070AD573
:1022D000E068296801F00F01884204D9296821F0DB
:1022E0000F01014329602078C0073ED05B49A268F6
:1022F0002868183920F4706010432860606802284C
:1023000018D0032819D00968012819D049070029D5
:102310004ADADFF848A1AAF1080A00E044E0DAF856
:10232000002022F007020243CAF80020FEF7CCFC8E
:10233000814612E009688903E9E709688901E6E74F
:10234000C905E4E7FEF7C0FCA0EB090141F28830C3
:10235000814202D90320BDE8F09F6168DAF80000ED
:1023600000F03800B0EBC10FECD1207880070AD51F
:10237000E068296801F00F01884204D2296821F041
:102380000F0101432960D8F80010404601F00F0109
:10239000B9420BD9016821F00F013943016000688F
:1023A00000F00F00B84201D00120D4E720784007A8
:1023B0000AD52069296801F07001884204D2296891
:1023C00021F0700101432960207800070AD5606977
:1023D000316801F07001884204D2316821F0700147
:1023E000014331602078C0060AD5A069316801F444
:1023F000E061884204D2316821F4E0610143316038
:10240000207880060CD5E1695846DBF8002002F000
:102410007002914204D2026822F070020A43026004
:1024200000F088F80E492A682B68C2F3032203F0F3
:102430000F038A5CC95C02F01F0201F01F01D0404B
:10244000084A20FA01F1116007490860074800684E
:10245000BDE8F05FFEF7C6BE0020005218440258E7
:1024600064A9029028000020240000201C00002005
:1024700070B5144C3F220260124A24680832131DC2
:10248000114D04F00704446016681C1D06F47066C4
:102490008660166806F00F06C660126802F07002C9
:1024A00002611A6802F0700242611A6802F4E06286
:1024B0008261226802F07002C261286800F00F0099
:1024C000086070BD104402580020005230B500F082
:1024D00031F80B4A0B490C4B15681468C5F30322FD
:1024E00004F00F048A5C095D02F01F0201F01F0175
:1024F000D040064A20FA01F119601060084630BD4C
:102500001844025864A902902800002024000020EA
:1025100000B5FFF7DBFF05490968054AC1F3022151
:10252000515C01F01F01C84000BD00001C4402586E
:1025300064A90290454970B545480968434B103B72
:1025400011F0380208D00111082A03D0102A0BD04C
:10255000182A0BD0084670BD19688906FBD5196882
:10256000C1F3C101C84070BD3A4870BD3749374D0D
:1025700018310C1D24350A68096826682D6802F098
:10258000030406F00102C1F30511C5F3CC0515FBE8
:1025900002F200EE102AB8EE400AE9B32F4ADFED4E
:1025A0002E0AB7EE001A6CB1DFED2D1A012C01D006
:1025B000022C43D002EE101A1068F8EE422A81EE87
:1025C000A22A1EE01C68A40611D51B6801EE901A11
:1025D0001168C3F3C103F8EE612AD84001EE900AF6
:1025E000C1F30800F8EE611A81EEA22A0BE001EEB9
:1025F000901ADFED1C2A00BFF8EE611A106882EE17
:10260000A12AC0F3080001EE900AF8EE611A40EE2C
:10261000201A31EE810A00E015E022EE000A10686F
:10262000C0F34620401C00EE900AF8EE600A80EEEF
:10263000201ABCEEC10A10EE100A70BD01EE901A0D
:10264000DFED092AD8E7002070BD000010440258D1
:102650000090D00340787D010000003930440258DA
:102660000024744A0024744C20BCBE4B2DE9F05F5A
:1026700004007DD0FF4F2078FE4D1837DFF8F4932B
:10268000103DC00748D0D9F80000396800F0380084
:10269000102815D0182803D101F0030002280FD00C
:1026A0006068B0F5803F12D010B1B0F5A02F18D0FF
:1026B000286820F480302860286820F4802009E011
:1026C0002868800328D560680028D2D024E02868D4
:1026D00040F480302860606888B1FEF7F5FA06465D
:1026E00009E0286840F480202860F0E7FEF7ECFA63
:1026F000801B64286FD828688003F7D50CE0FEF7AC
:10270000E3FA064605E000BFFEF7DEFA801B642808
:10271000F0D828688003F7D4207841F20308D54E1A
:102720000C3E800769D5D9F80000396810F03800F0
:102730000ED0182801D188070AD0E06890B3296824
:1027400021F0190101432960FEF7BEFA824631E00B
:102750002868400702D5E06800288AD0E168286828
:1027600020F0190008432860FEF7AEFA824607E021
:10277000DFE000BFFEF7A8FAA0EB0A000228B9D8F4
:1027800028684007F6D500BFFEF798FA40451BD8E9
:102790002069402812D0316821F47C3141EA0030B0
:1027A00030602AE018E000BFFEF78EFAA0EB0A00C6
:1027B00002289FD828684007F6D5E5E7306820F45E
:1027C0007C3040F40030EBE7207C316821F0FE41A2
:1027D00041EA0060E4E70DE1286820F0010028608C
:1027E000FEF772FA824605E0FEF76EFAA0EB0A00E9
:1027F00002288DD828684007F6D42078C0065DD519
:10280000D9F80000DFF86CB2396800F03800ABF19D
:10281000040B082810D0182803D101F00300012868
:102820000AD0E0690028286838D040F0800028608D
:10283000FEF74AFA824623E02868C00523D5E069FE
:10284000802876D11FE0206A202821D0316821F02D
:10285000F84141EA8060306030E000BF94F8201019
:10286000DBF8002022F07C5242EA0161CBF8001034
:1028700024E000BFFEF728FAA0EB0A00022898D84F
:102880002868C005F6D5FEF719FA4045E6D8DAE71C
:10289000306820F0F84040F08040DCE720F0800015
:1028A0002860FEF711FA064605E000BFFEF70CFAB5
:1028B000801B02289DD82868C005F7D4207800071F
:1028C00029D56C486169643000298046016811D0BF
:1028D00041F001010160FEF7F7F9064605E000BF8F
:1028E000FEF7F2F9801B0228C9D8D8F8000080074B
:1028F000F6D510E021F001010160FEF7E5F906468A
:1029000005E000BFFEF7E0F9801B022872D8D8F876
:1029100000008007F6D42078800623D5A06900281F
:10292000286810D040F480502860FEF7CDF90646A4
:1029300005E036E1FEF7C8F9801B02285AD828685E
:102940008004F7D50EE020F480502860FEF7BCF933
:10295000064604E0FEF7B8F9801B02284AD828682A
:102960008004F7D4207840074FD5DFF80C81D8F8E1
:10297000001041F48071C8F80010FEF7A5F9064672
:1029800005E000BFFEF7A0F9801B642832D8D8F814
:102990000000C005F6D5374EA068603601280AD081
:1029A00008B1052813D0306820F00100306030688D
:1029B00020F0040002E0306840F001003060A068C0
:1029C00041F2883A90B1FEF77FF980460AE030681C
:1029D00040F004003060EEE7FEF776F9A0EB080166
:1029E000514507D830688007F6D50EE0FEF76CF940
:1029F000804607E084E000BFFEF766F9A0EB08011F
:102A000051457DD830688007F6D4606AB0B3DFF8EE
:102A10006480D9F8001008F120084FF6F87B08F11F
:102A20000409C1F3C2010329A8F1040A69D00228EC
:102A3000286820F08070286003D0FEF745F904462E
:102A400084E0FEF741F9064605E000BFFEF73CF9D9
:102A5000801B022877D828688001F7D4E26A40F208
:102A6000F331386854F8283F884340EA021018438D
:102A7000386004E01044025800480258B5E0217B59
:102A8000434622894FF4FE0C208A4FF0FE4749024C
:102A9000267D521E401EA1F50071C2F308088AB2BD
:102AA000761E0CEA004042EA08020243504607EA5A
:102AB00006610A431A60DAF8002022F00102CAF81F
:102AC0000020D9F80020266A22EA0B0242EAC60258
:102AD000C9F80020DAF80010A26921F00C011143B6
:102AE000CAF800100168E26921F002011143016097
:102AF000016841F480310160016841F4003101E076
:102B000021E027E00160016841F480210160016853
:102B100041F001010160286840F080702860FEF7F4
:102B2000D3F8044605E000BFFEF7CEF8001B0228EC
:102B300009D828688001F7D557E000BFFEF7C4F830
:102B4000001B022802D90320BDE8F09F28688001FD
:102B5000F4D44AE039680128D8F8000021D0A26AEC
:102B600001F0030393421CD1E26AC1F305118A42CA
:102B700017D1216BC0F30802491E8A4211D1616B43
:102B8000C0F34622491E91420BD1A16BC0F306420D
:102B9000491E914205D1E16BC0F30660491E814296
:102BA00001D00120D0E7A16C4E46D9F80000C0F357
:102BB000CC00814219D0DAF80000554620F001001F
:102BC000CAF80000FEF780F84FEA0007FEF77CF82D
:102BD000B842FBD0A26C306820EA0B0040EAC20089
:102BE0003060286840F0010028600020ACE7000059
:102BF00070B504000D4603D094F82C0010B107E026
:102C0000012070BD002084F82D00204600F018F847
:102C1000022084F82C002068211DFDF796FCD4E9E1
:102C200000022946FDF7E2FC04480121026842F057
:102C30000042026084F82C10002070BD0040005259
:102C4000FDF796BE10B5044690F82C00022804D07B
:102C500094F82C00012801D0012010BD022084F836
:102C60002C002068FDF7A6FC012084F82C00002031
:102C700010BD000070B5044690F82C000D460228E7
:102C800004D0012803D0052801D0012070BD022006
:102C900084F82C002068FDF796FC2868022805D0EF
:102CA0005FF0010084F82C00002070BD0520F9E7DA
:102CB00070477047704710B5040003D094F83D008A
:102CC00010B107E0012010BD002084F83C00204630
:102CD00000F022F8022084F83D002068211D00F059
:102CE000BDFF012084F8480084F83E0084F83F00CE
:102CF00084F8400084F8410084F8420084F84300DE
:102D000084F8440084F8450084F8460084F84700BD
:102D100084F83D00002010BD7047000090F83D1081
:102D2000012901D001207047174A022180F83D1087
:102D30000168CB6843F00103CB600068904214D077
:102D4000B0F1804F11D0114988420ED0104988420D
:102D50000BD01049884208D00F49884205D00F494E
:102D6000884202D00E49884207D181680D4A11403D
:102D7000062906D0B1F5803F03D0016841F001017A
:102D80000160002070470000000001400004004086
:102D900000080040000C0040000401400018004002
:102DA0000040014007000100704770B5044600680C
:102DB00000250169C943890715D4C168C94389073A
:102DC00011D4EA1E02610121217720688069800701
:102DD000204602D0FFF7E8FF04E000F0A7F8204605
:102DE00000F0A5F8257720680169C943490717D481
:102DF000C168C943490713D402216FF0040202617C
:102E000021772068806910F4407F204602D0FFF7C8
:102E1000CBFF04E000F08AF8204600F088F8257720
:102E200020680169C943090716D4C168C943090765
:102E300012D404216FF00802026121772068C06972
:102E40008007204602D0FFF7AFFF04E000F06EF8E5
:102E5000204600F06CF8257720680169C943C9064F
:102E600017D4C168C943C90613D408216FF01002F2
:102E7000026121772068C06910F4407F204602D0AB
:102E8000FFF792FF04E000F051F8204600F04FF801
:102E9000257720680169C943C90708D1C168C943BA
:102EA000C90704D1891E0161204600F041F820685D
:102EB0000169C943090609D4C168C943090605D493
:102EC0006FF0800101612046FFF7F3FE2068016981
:102ED000C943C90509D4C168C943090605D46FF4BB
:102EE000807101612046FFF7E3FE20680169C94354
:102EF000490609D4C168C943490605D46FF04001A9
:102F00000161204600F01EF820680169C943890666
:102F10000BD4C168C943890607D46FF02001016151
:102F20002046BDE87040FFF7C5BE70BD70477047D2
:102F300000680349884201D1FEF71EB970470000BE
:102F4000004801407047FEE701688A69D243920752
:102F500001D400228A6200688169C943C90703D08D
:102F6000816941F001018161704700002DE9F0475E
:102F7000044600680026894617464FF0200835466B
:102F80008169C90641D51021C1612FE0B9F1FF3F28
:102F90002CD0FDF799FEC11B494502D8B9F1000FAD
:102FA00024D12068426894F84210836902F4804278
:102FB000DB431B0415D4B2F5804F12D0202910D06A
:102FC000416841F480414160FDF77EFE074608E01C
:102FD000FDF77AFEC01B192803D9012645F020050C
:102FE00004E020688069C0438006F1D420688069CD
:102FF000C043800602D5002EC8D003E016B9216870
:10300000C1F81C80012645F0040521688869C205C5
:1030100005D54FF48072CA6145F0010501264105CE
:103020000AD5216880054FF4806245F00805CA6121
:103030004FF0010602D40AE0800507D5206801267A
:103040004FF4007145F00205C16100E08EB12046E9
:10305000FFF77AFF20680021074F43683B40436039
:10306000606C2843606484F8418084F8421084F8DE
:1030700040103046BDE8F08700E800FE2DE9F84337
:10308000174604461548DAB2DDE908981E46009056
:103090000023204600F056F842464946204600F0FC
:1030A000CCF8B8B9012EFDB208D02068390A816287
:1030B00042464946204600F0C0F858B9206885626B
:1030C000002240214B462046CDF8008000F052F807
:1030D000002800D00120BDE8F88300000020008017
:1030E0002DE9F8430446164817461E46DAB200900A
:1030F000C3022046DDE9089800F024F8424649461C
:10310000204600F09AF8B8B9012EFDB208D0206828
:10311000390A816242464946204600F08EF858B985
:1031200020688562002280214B462046CDF8008031
:1031300000F020F8002800D00120BDE8F88300004E
:103140000020008070B50068C1F3090141EA024126
:10315000074D049C19434FF480664268214306EAF8
:1031600054532B439A4321F000410A43426070BDFF
:10317000FF63FF032DE9F0411E4617460D46044646
:10318000DDF8188021E0701C1FD0FDF79DFDA0EB3D
:103190000800B04200D8C6B92068806935EA00004E
:1031A00011D00020B84210D1626C002084F8400099
:1031B000202142F02002626484F8411084F8420029
:1031C0000120BDE8F0810120ECE72068806935EA44
:1031D000000004D00020B842D5D00020F1E7012043
:1031E000F9E770B516460D4604461FE032462946FB
:1031F0002046FFF7BBFE08B1012070BDFDF764FD5E
:10320000801BA84200D88DB920688069C043800621
:103210000CD5626C002084F84000202142F020028E
:10322000626484F8411084F84200E5E72068806910
:10323000C0438006DAD4002070BD70B516460D4636
:10324000044621E0324629462046FFF78FFE08B1AA
:10325000012070BD681C17D0FDF736FD801BA84209
:1032600000D88DB920688069C04380070CD5626C96
:10327000002084F84000202142F02002626484F89B
:10328000411084F84200E3E720688069C04380076A
:10329000D8D4002070BD00000148FEF70FB8000030
:1032A000740B00202DE9FE4F814600688824934668
:1032B0008D888C2204EBCB178A46C3689421BE46C6
:1032C000C459C3F30B432B4404F470441F04019707
:1032D00002EBCB1240F80E4001EBCB13DAF8007092
:1032E0009C214FF0AC0C01EBCB1440F20771029122
:1032F0000CEBCB11D9F800C098250020CDF800C008
:10330000A02605EBCB15DCF80CC006EBCB16CCF3F6
:103310000B4C0CF1010C07EB0C08DDF800C0019F11
:1033200048EA07084CF80E80D9F80070BAF80CC0CB
:10333000B846FF68C7F30A0767444FEA074E58F8D4
:10334000027007F4704C48F802C0D9F800C0DAF8EF
:103350000870DCF80C80C8F30A0808F10108B844CA
:1033600048EA0E084CF80280D9F80020D75827F018
:103370000707D750D9F80070DAF81020FA509AF8F9
:1033800031209AF818304FEA022C9AF832201204B1
:1033900042EA0362D9F800301F5918519AF83030C8
:1033A00043EA0C031343D9F800201351D9F8002045
:1033B000535923F0FF035351D9F80020DAF81430A1
:1033C0005351D9F800209359029CA3439351D9F843
:1033D0000030DAE9072422439A51D9F800205358E3
:1033E0005050D9F80020DAF824005050DAF81000D4
:1033F000C8B301283AD004283AD0022838D003288C
:1034000036D0072834D00120D9F80030B02505EB9C
:10341000CB11B42284245D5802EBCB1205F0E025D9
:103420005D50DAE9003504EBCB14EB1ABAF82850FA
:1034300043434543D9F80000DB1D43EA05434350AD
:10344000D9F8000081586FF30A018150D9F80000C3
:10345000DAF82C108150D9F80000015941F001012F
:103460000151BDE8FE8FFFE70420CDE70320CBE745
:103470000220C9E7104800210E4A10B5C0E900211A
:103480008160C16041648164C16401654165816599
:10349000C165FDF7F7F908B1FDF755F806480121B8
:1034A000FDF7FEF8002803D0BDE81040FDF74BB84B
:1034B00010BD000000100052740A0020F0B587B063
:1034C0001C216846FCF7B2FF184800220423164D61
:1034D00001264FF0400C2027C0E90052C0E90263EA
:1034E000076102214FF4C075C0F814C0C0E906524C
:1034F00007248E020662CF02C0E909720325CDE9D6
:103500000014CDE90451CDE9023406916946FFF774
:103510006FFB08B1FDF717F804490448103900F0B3
:103520005DFA07B0F0BD000040410052EC0A0020F7
:10353000074A0021074810B521F0B6F8064C0021D3
:10354000034A24322060054821F0AEF8606010BDC7
:103550001CA90290573A0090080000207F3B02907F
:103560002DE9F04387B014216846FCF75FFF474818
:10357000016841F480710160016801F48071059176
:10358000016841F480610160016801F48061059186
:10359000016841F040010160016801F040010591BE
:1035A000016841F010010160016801F0100105910E
:1035B000016841F400710160016801F40071059136
:1035C000016841F008010160016801F008010591FE
:1035D000016841F001010160016801F001010591FC
:1035E000016841F080010160016801F080010591EE
:1035F000016841F004010160016801F004010591D6
:10360000016841F020010160016801F0200105918D
:10361000016841F002010160006800221C4F202176
:1036200000F0020005903846FDF742FBDFF86480A9
:10363000012240214046FDF73BFBDFF85C904FF450
:103640008056002231464846FDF732FB0024694689
:10365000012520200090CDE9015438460394FDF760
:1036600011FA40200090CDE9015469464046039488
:10367000FDF708FA00966946CDE9015448460394DF
:10368000FDF700FA07B0BDE8F0830000E0440258FF
:1036900000240258001C025800040258134800215C
:1036A00010B5114C0123124A0460C0E90121C0E9A0
:1036B000033141618161C1610162FDF761FB08B1C4
:1036C000FCF741FF09480021FDF704FB08B1FCF7B6
:1036D0003AFF06480021FDF729FB002803D0BDE88A
:1036E0001040FCF730BF10BD00580040200B0020F8
:1036F000DB3FB000F0B58DB034216846FCF796FE94
:1037000024480024224B072100F1180E40F2A7455F
:10371000A72240F2692603601123446040F2475714
:10372000846040F27D2CC460C0E904418EE8EE1054
:1037300080F8344080F8354080F83640FDF722FEAE
:1037400008B1FCF700FF4FF480604FF4167107AF2B
:10375000022604960522CB06CDE90040CDE90241C0
:1037600087E80D00CDE90A01FF250A48CDE9055497
:103770008DF8304000228DF8314069468DF8324096
:10378000FDF772FD002801D0FCF7DDFE0DB0F0BDA5
:1037900000100050740B0020FEE7FEE72DE9F04713
:1037A000454D044689464FF0000A2868C04380070B
:1037B0000AD0414E283E306820F080603060FDF72E
:1037C00083FA0746B04608E00120BDE8F08700BF55
:1037D000FDF77AFAC01B022867D8D8F8000000016C
:1037E000F6D4206829684FF4FE0721F47C313E02AC
:1037F00041EA00302860207AA389B4F804C040026E
:103800002D4D2D495B1E227CACF1010C1035091D9C
:10381000A0F5007080B2521ECCF3080C07EA0343F7
:1038200040EA0C00184306EA026210432860086868
:10383000626920F0C000104308600A68A06922F0A5
:10384000200202430A60281D0A6822F010020A6062
:1038500002684FF6F873E4699A4342EAC4020260D0
:103860000868B9F1000F40F010020A6011D0086832
:10387000B9F1010F11D040F400100860D8F8000031
:10388000444640F08060C8F80000FDF71DFA054688
:103890000DE0086840F40020EFE740F48010ECE70A
:1038A000FDF712FA401B022801D903208DE720689A
:1038B0000001F5D5504688E7284402582DE9F04725
:1038C000454D044689464FF0000A2868C0438007EA
:1038D0000AD0414E283E306820F080503060FDF71D
:1038E000F3F90746B04608E00120BDE8F08700BFC5
:1038F000FDF7EAF9C01B022867D8D8F8000080005D
:10390000F6D4208829684FF4FE0721F07C713E022E
:1039100041EA00502860207AA389B4F804C040022C
:103920002D4D2D495B1E227CACF1010C1835091D73
:10393000A0F5007080B2521ECCF3080C07EA0343D6
:1039400040EA0C00184306EA026210432860086847
:10395000626920F44060104308600A68A06922F49C
:10396000007202430A60281D0A6822F480720A600D
:1039700002684FF6F873E4699A4342EAC4020260AF
:103980000868B9F1000F40F480720A6011D008682D
:10399000B9F1010F11D040F080700860D8F8000034
:1039A000444640F08050C8F80000FDF78DF9054608
:1039B0000DE0086840F48000EFE740F40000ECE719
:1039C000FDF782F9401B022801D903208DE720680A
:1039D0008000F5D5504688E7284402582DE9F84381
:1039E00010270C460025814601260095C4E9006792
:1039F0004FF48058C4E902654246FFF73BF90120C5
:103A0000FCF7A4FF02204246C4E90007C4E90265AE
:103A100021464846FFF72EF9032142460820C4E913
:103A20000017C4E9020521464846FFF723F940F292
:103A30003120009004214246C4E90017C4E9026025
:103A400021464846FFF716F9484640F29631BDE850
:103A5000F843FFF7F7B825F083FB0A2020F0E8FDD4
:103A6000F9E74FF0E02010B5006926F087FD012846
:103A700003D0BDE8104026F0ABBA10BD70B59CB0C5
:103A80004C216846FCF7D2FC202113A8FCF7CEFCA1
:103A90000220FDF78DFE2D4900242D480A6822F0F2
:103AA00001020A600A68026842F440420260026849
:103AB00002F440421B9202689204FCD5254A136826
:103AC00043F002031360126802F002021B920268C4
:103AD00042F44042026002680A6842F001020A6051
:103AE000096801F001011B9101688904FCD50DF101
:103AF000280C022009900521C0228CE80700C3038E
:103B00000F9008250D9001260E90CDE91054CDE9B7
:103B1000006368461294FEF7A9FD08B172B6FEE78D
:103B200040201A903F210301CDE916500322CDE930
:103B3000180313AB13A883E816000421FEF76AFBF1
:103B4000002801D072B6FEE71CB070BD2C040058EE
:103B500018480258F44402583348F0B53249036813
:103B60007839324A43F470030360086840F010006B
:103B70000860106800F00F00072804D2106820F0D9
:103B80000F00C01D10602A490020294C10340B681A
:103B9000284D43F001030B6020600B682B400B6045
:103BA000136803F00F03072B04D9136823F00F03E6
:103BB000DB1D13601E4C204A1834204B261D371D78
:103BC00020601B4C1E4D28343060261D3860371D88
:103BD00023603B1D35601C1D3A60251D2E1D18609D
:103BE000331D22602860326018600B684FF0B042CD
:103BF0000F4C23F480230B6060342060D2F8E40083
:103C0000104940F48040C2F8E40008686FF30F00E8
:103C1000B0F1005F03D20C490120C1F8080143F262
:103C2000D2000A490860F0BD88ED00E00020005293
:103C3000004402587FEDF6EA800201010002020210
:103C40000000FF010010005C0080005100400052A5
:103C50000148FFF7AAB800001C0C00202DE9F0472E
:103C6000274B4FF0804A274D02689842264E274F37
:103C7000274C09D0504507D0A84205D0B04203D008
:103C8000B84201D0A04205D1D1F804C022F07002A0
:103C90004CEA0202DFF87CC0DFF87C809842DFF853
:103CA0007C900FD050450DD0A8420BD0B04209D027
:103CB000B84207D0A04205D0604503D0404501D0AE
:103CC000484503D1CD6822F440722A434D6922F061
:103CD00080022A43026098428A68C2620A6882624D
:103CE00007D0A04205D0604503D0404501D04845EB
:103CF00001D10969016301214161BDE8F08700003C
:103D0000000001400004004000080040000C00409A
:103D100000040140004001400044014000480140CF
:103D2000FEE7090700284FEA116104DB00F1E020FB
:103D300080F80014704700F00F0000F1E02080F8D8
:103D4000141D704702E008C8121F08C1002AFAD1EA
:103D500070477047002001E001C1121F002AFBD10B
:103D6000704770B5002504466FF02F0608E0206804
:103D700005EB8502411C216006EB420200788518A4
:103D80002068007800F004F80028F0D1284670BDC3
:103D90003038092801D80120704700207047000002
:103DA0000848442110B500F05BFE074800220A21B4
:103DB0001FF01CFA054CA06001F014FF00202070D9
:103DC00010BD0000FC0D00209D5C00905400002000
:103DD00070B5B1F90040B2F900309C4200DD2346D5
:103DE0000380B1F90250B2F90240A54200DD2C4631
:103DF0004480B1F90460B2F90450AE4200DA3546AD
:103E00008580B1F90610B2F90620914200DB114617
:103E1000C180AB424FF0010001DC8C4200DD00208C
:103E200070BDF8B50D46B1F900100446B0F90000B8
:103E30001646884247DBB4F90210B5F902209142D8
:103E400041DBB4F90410B5F9042091423BDCB4F92C
:103E50000610B5F90620914235DC96B3ADF80000A6
:103E6000324660886946ADF80200284600F099F8AD
:103E7000002827D0A0883246ADF800006946608847
:103E8000ADF80200284600F08CF800281AD02088EF
:103E90003246ADF800006946E088ADF802002846D9
:103EA00000F07FF800280DD0A0883246ADF8000061
:103EB0006946E088ADF80200284600F072F8002854
:103EC00000D00120F8BD0020F8BDB0F90020B1F904
:103ED00004309A4213DCB0F90420B1F900309A4260
:103EE0000DDBB0F90220B1F906309A4207DCB0F9D7
:103EF0000600B1F90210884201DB01207047002062
:103F00007047F8B50D46B1F900100446B0F9040049
:103F10001646884243DBB4F90600B5F90210884220
:103F20003DDBB4F90000B5F90410884237DCB4F980
:103F30000210B5F90620914231DC76B3ADF80000ED
:103F4000324660886946ADF80200284600F029F83C
:103F500018BBA0883246ADF8000069466088ADF80D
:103F60000200284600F01DF8B8B920883246ADF8A6
:103F700000006946E088ADF80200284600F011F81C
:103F800058B9A0883246ADF800006946E088ADF81F
:103F90000200284600F005F808B10020F8BD012015
:103FA000F8BD2DE9FC410546B1F900000E46144666
:103FB000B5F9001088423ADBB5F90470B84236DC36
:103FC000B6F90200B5F90230984230DBB5F90620A7
:103FD00090422CDC002C75DD781AD21A401C521C41
:103FE00000B212B200EBD07002EBD272401052104D
:103FF000904200DB1046844200DD0446ADF800101C
:104000002888002231462044ADF804006888ADF8C5
:10401000020068882044ADF806006846FFF7C1FF3B
:1040200040B1BDF804002044ADF804003FE000209A
:10403000BDE8FC81E88800223146001BADF8020093
:10404000E888ADF806006846FFF7ABFF28B1BDF879
:1040500004002044ADF8040011E0A8880022314695
:10406000001BADF80000A888ADF804006846FFF713
:1040700098FF50B1BDF80000001BADF80000BDF87E
:104080000200001BADF8020016E068880022ADF8BF
:104090000200314668882044ADF806006846FFF704
:1040A00080FF70B1BDF80000001BADF80000BDF846
:1040B00006002044ADF80600314668461CF002FCBC
:1040C000B6E7FFE70120B3E710B5B1F90040B2F958
:1040D00000309C4200DA23460380B1F90240B2F975
:1040E00002309C4200DA23464380B1F90440B2F921
:1040F00004309C4200DD23468380B1F90610B2F9FA
:104100000620914200DC1146C18010BD10B518B9DF
:1041100011F04EFD002800D0406810BDFEB50746E6
:104120001FF000F8794C0026054600960FB1F8689C
:1041300001E011F03DFD606000691CF0C5FA6068A7
:10414000406908B11CF0C0FA6068C0691CF0BCFA94
:104150006068006A1CF0B8FA60680169F1B31CF08D
:104160005FFC21F0A9FB6068B0F8501199B30168B9
:10417000097C890715D511F079FD401E07B26068EA
:1041800011F02EFD401E009703B2002201A8114637
:104190000FF0B5FB60680168CA6B01A9516004F0BB
:1041A000AFFC60684FF480713030FCF73FF9606815
:1041B000202100F59870FCF739F96068A0F850618B
:1041C00028461EF0A8FF009060680068436A13B19B
:1041D00022680099984717F0A5FE00E007E000F07C
:1041E000CFF800F0A1F84A4D6F691FB149E0A0F87F
:1041F0005061FEBD11F0DCFC11F008FD16F04EFD23
:10420000002207467F211CF047F900221146104684
:1042100011F002F801900022BDF8041038461CF09D
:104220002AF9FF221146104610F0F6FF01900022F5
:10423000BDF8041038461CF0B5F9002238460321B9
:104240001CF09AF90022384603211CF086F900225E
:10425000384603211CF086F90022384603211CF061
:1042600086F90022384603211CF097F929A1384627
:1042700017F094FB0023384606211A4618F093FAEB
:104280006F6128681EF047FFB0F5967F0CD220685A
:1042900041F288318842ACD9686800990844686066
:1042A000A868401CA860FEBD1EF03CFF2860606846
:1042B000406828B100684FF47A71B1FBF0F000E07B
:1042C0006420696809B901216960A968E1B14FF406
:1042D0007A7251436A68B1FBF2F46E60AE60844258
:1042E00000D90446286920442861E868401CE86039
:1042F0001EF0B0FF03B02246C0F16403384606A1A9
:10430000BDE8F04017F083BB0446E6E74400002018
:10431000680C00203F0000002575204650530A25F8
:10432000752525204350550070B50A4D5FF00004F7
:10433000C4EBC40655F8260008B117F067FE1C212F
:1043400005EB860017F0A7FE641CE4B2042CEFD343
:1043500070BD0000D80E0020084949680AE04A688C
:10436000824202D00A68824203D10A7E42F00102F0
:104370000A7649690029F2D1704700009C000020AC
:10438000704700000148042100F06ABBF00D0020D6
:104390000148202100F064BB080E00202DE9FF41F8
:1043A0001D0004464FF00000DDE90A6702D1B6F5B2
:1043B000807F2BD003903B4601900290ADF80C100B
:1043C00000906846ADF804102946ADF80A20ADF813
:1043D0000E2032461CF0DCF901A83B463246294645
:1043E0001CF0D6F902A83B46324629461CF0D0F90B
:1043F00003A83B46324629461CF0CAF9BDF90030F5
:10440000BDF90400834209DA1D4608E0491EA18077
:10441000521EE28020806080BDE8FF810546BDF924
:104420000820BDF90C108A4201DA164600E00E465B
:10443000B54203DA834206DA184604E08A4201DA1A
:10444000104600E00846801E2080BDF90030BDF90E
:104450000420934201DD1D4600E01546BDF9080029
:10446000BDF90C10884201DD064600E00E46B5425B
:1044700005DD934201DD194604E0114602E0884261
:1044800000DD0146891CA180BDF90230BDF906207E
:10449000934201DA1D4600E01546BDF90A00BDF958
:1044A0000E10884201DA064600E00E46B54205DAF3
:1044B000934201DA194604E0114602E0884200DA2C
:1044C0000146891E6180BDF90230BDF90620934284
:1044D00001DD1D4600E01546BDF90A00BDF90E10CC
:1044E000884201DD064600E00E46B54205DD9342F6
:1044F00001DD194604E0114602E0884200DD014674
:10450000891CE18088E700002DE9F041124C154636
:104510000E4607461EF006FE80462B4632463946BA
:10452000204615F0F5FC20B1E1690020A06251B1F0
:1045300010E02C212046FBF779FF4FF00040A062ED
:104540000020BDE8F08140461EF0E5FDE06108B9BD
:104550000120E0612046F4E72C0E002008481421D9
:1045600010B500F07DFA15F097FC002807D005493A
:10457000016005494160054981600549C16010BD80
:10458000140E0020B9980190399C0190B59D0190BE
:104590008598019070B505460C4608461021FBF73A
:1045A00045FF28680078012804D0022807D0042895
:1045B00007D008E0288A2080688A608003E0E868E5
:1045C00000E00A20606028684268002A03D0214683
:1045D000BDE87040104770BDFEB5866A0446BEB99E
:1045E000A08A218AE28A638A0844A0822046D118E0
:1045F000E1820AF01EFD06007BD020460DF0F6FB9E
:1046000000223046092114F0B5FB6078800770D491
:10461000208A10B9608A00286BD00025ADF80450BC
:10462000ADF8085094F83C0000F00F000328304625
:1046300016D019F09BFA0746304619F051F9034697
:104640003A460C200090B4F9121030460AF05EF899
:10465000ADF80800304619F095F9C10712D017E0FF
:1046600019F018FA0746304619F0B4F902463B46ED
:1046700003200090B4F9101030460AF047F8ADF866
:104680000400E7E7BDF90410002901DDADF804508E
:10469000810705D4BDF90410002901DAADF80450F2
:1046A000410705D4BDF90810002901DDADF8085017
:1046B000000705D4BDF90800002801DAADF808505C
:1046C00002AA01A9204621F02FFFBDF9082030469B
:1046D000BDF9041000F060FA6078800709D4A08A60
:1046E000BDF80420E18A1044A082BDF80800084407
:1046F000E082FEBD2DE9FC5F0446806A5FEA000BA4
:1047000071D094F83C0000076DD015F097FF019030
:1047100040210068457E58461AF0F6F94FF000082F
:1047200018B9A4F81A80A4F81880584619F010FA9D
:104730008246584619F013FA064694F83C004FF0AA
:10474000640900F00F000C2802D003284CD09AE036
:10475000A4F8188056B1B4F91A50002715F06EFF6E
:1047600001684846497EC1F1640122E0618BC5F1D0
:10477000640211FB02F191FBF9F06083584619F0D5
:10478000AFF80546584619F0F1F902462B460C20C1
:104790000090B4F91A10584609F0B8FF00230246F9
:1047A00060831EE011FB05F27B1992FBF0F21FB251
:1047B00015B2002DF6D1ADF8007000216A462046F2
:1047C000A4F81A8021F0B0FE41F6FF72BDF9003066
:1047D000514258460AF092FDBDF8001001230844EA
:1047E00002B200214CE09BE0BAF1000FA4F81A805D
:1047F0000AD0B4F91850002715F020FF0068494688
:10480000407EC0F1640022E0218BC5F1640211FBFF
:1048100002F191FBF9F02083584619F0DBF80546C8
:10482000584619F037F903462A4603200090B4F998
:104830001810584609F06AFF0023014620831EE045
:1048400010FB05F27B1992FBF1F21FB215B2002D9D
:10485000F6D1ADF80070002269462046A4F8188011
:1048600021F062FE41F6FF72BDF900305142584618
:104870000AF0BCFCBDF800100123084401B200227C
:1048800058461BF061FA208B002849D1608B002824
:1048900046D1C6B9584619F069F90546584619F087
:1048A0001FF8002D06DC00280DDD002D02DA0123A3
:1048B0002A4604E0002806DA0123404202B25846A4
:1048C00000211BF041FABAF1000F19D1584619F036
:1048D00081F80546584619F0DDF8002D07DC002860
:1048E0000EDD002D03DA01232946002205E0002811
:1048F00006DA01230022404201B258461BF024FA96
:10490000019A0A21584614F035FA6078800707D4D6
:1049100094F83C10C4F8288021F00F0184F83C1072
:10492000BDE8FC9F7FB504000E4603D111F040F9AD
:1049300004002ED011F0B0F900282AD094F82800F5
:10494000400726D44FF0000526B3ADF800502046AE
:10495000ADF8025011F044F9401EADF804002046B5
:1049600011F084F9401E6A463146ADF8060002A8EF
:10497000FFF72EFA00280CD02068017C89070CD59F
:10498000DDE9001260680123A4F85031C4E90C127B
:1049900080BB7FBDA4F850517FBD82690AB102A9D6
:1049A000904700260BE000BF04EBC6010022303127
:1049B00002A8FFF736FA0028EED1761CB6B2B4F89A
:1049C0005001B042F0D880B2202804D204EBC000DD
:1049D000303002A904E004F130006946A4F85051D7
:1049E0000EF0D8FEB4F850116068491CA4F85011BC
:1049F0000028D1D01EF0DCFC7FBD70B5054600F06C
:104A000012F804460CE02146284600F01EF806463F
:104A10002146284600F071F8204617F0F7FA344690
:104A2000002CF0D170BD002800D0406870470022F3
:104A3000034600B5FFF7F7FF03E0521C184600F0ED
:104A400004F80100F9D1104600BD0068091D405866
:104A50007047006840587047002800D08068704751
:104A600000224260C91C826021F00301016070478E
:104A700070B504460068083017F03CFA050013D002
:104A80000022014620461FF041FD6268294620466B
:104A90001FF036FD616819B12A4620461FF036FD29
:104AA000A068656000B9A560284670BD70B5044671
:104AB0000068083017F01EFA050013D000220146E6
:104AC00020461FF01DFDA268294620461FF01EFD4E
:104AD000A16819B12A4620461FF012FD6068A56042
:104AE00000B96560284670BD28B1416809B9806881
:104AF00008B1002070470120704770B504000ED047
:104B0000FFF791FF88424FF00002204608D1FFF7DF
:104B10009CFF011E606001D000221EE0A26070BDFB
:104B2000FFF79AFF8842206808440AD10168A16013
:104B300029B12046BDE8704000221FF0E1BC626050
:104B400070BD05682046FFF780FF064602462946ED
:104B500020461FF0D5FC2A4631462046BDE870406D
:104B60001FF0D4BC10B50446006882680AB1214623
:104B7000904720680068002801D02060F5E710BD4C
:104B80008068002801D0B0F91600704780680028BE
:104B900001D0807E8009704770B516460C460546E8
:104BA00051EA06001AD0284617F07AFFA8680123B8
:104BB0003246018A21440182A868418A31444182F7
:104BC000214628461AF01CFB002228460B2114F02F
:104BD000D1F8012803D128461AF06BFA012070BDE4
:104BE00077B505000E4681B017D0612219F088FD17
:104BF000040012D0206880B162222846314619F0A4
:104C00007FFD10F0FF0208D02368204603999847E3
:104C10000090BDF80000ADF80C00039804B070BD22
:104C20002DE9F04792B00746408C994690468A4657
:104C30001A9E40F00400788438463A84328919F08C
:104C40005FFDA7F82090054632895146384619F095
:104C500057FD0446788CA54220F00400788403D1E7
:104C60002904B1EB044F68D0A7F82080514632895F
:104C7000384619F045FD0546804651463846A7F8A6
:104C800020900BF0D5FE00682A4631891DF042F8CD
:104C900030890B2823D147F6FF794D4501D04C458B
:104CA0001DD1384619F0E7FE00EBD07045103846AC
:104CB00018F0C9FD00EBD0704010C84506D1691C42
:104CC000431C994200DA00E0194688464C4506D15B
:104CD000691C421C914201DA6C1C00E01446184821
:104CE000FFF7C6FE050028D02F60C5E90384308990
:104CF000A8806846C5F808A00EF050F81148FF21BA
:104D0000CDE9005010480290104803900020089010
:104D1000CDE9090130880B9070889DF8421040421F
:104D20000C90F0680790002060F300018DF84210AD
:104D30003069069068460EF0A5F812B0BDE8F0871D
:104D4000200E00205D9202903D9402909993029073
:104D500001481421FFF784BE200E00202DE9F84FF2
:104D6000042790460025894606462C46E6E000BF0B
:104D7000F06807EBC401405881017CD480B230EA6E
:104D8000090112D05FF0000130EA08000FD00020C6
:104D9000814270D0F06810216A4650F83400824693
:104DA0001CF012FD002871D103E00121ECE7012085
:104DB000EEE711216A4650461CF006FD002865D139
:104DC00012216A4650461CF0FFFC00285ED11321D8
:104DD0006A4650461CF0F8FC002857D115216A4657
:104DE00050461CF0F1FC002850D114216A46504670
:104DF0001CF0EAFCF0BB0A216A4650461CF0E4FCB9
:104E0000C0BB6A216A4650461CF0DEFC90BB6B2199
:104E10006A4650461CF0D8FC60BB01216A465046E9
:104E20001CF0D2FC30BB04216A4650461CF0CCFC7E
:104E300000BB02216A4650461CF0C6FCD0B90321D3
:104E40006A4650461CF0C0FCA0B905216A4650468F
:104E50001CF0BAFC70B906216A4650461CF0B4FC3E
:104E600040B932216A4650461CF0AEFC10B96D21A3
:104E70006A4601E00AE060E050461CF0A5FC28B953
:104E80006C216A4650461CF09FFC10B10320BDE81F
:104E9000F88F68216A4650461CF096FCF0BB6921E9
:104EA0006A4650461CF090FCC0BB6D216A465046D5
:104EB0001CF08AFC90BB6C216A4650461CF084FCB6
:104EC00060BB37216A4650461CF07EFC30BB38215F
:104ED0006A4650461CF078FC00BB35216A465046B5
:104EE0001CF072FCD0B940216A4650461CF06CFCA4
:104EF000A0B945216A4650461CF066FC70B94121B4
:104F00006A4650461CF060FC40B942216A46504651
:104F10001CF05AFC10B943216A4600E009E05046F3
:104F20001CF052FC28B949216A4650461CF04CFC42
:104F300008B1022501E005B90125641C708CC0F39D
:104F4000C500A0423FF614AF2846A0E701484068DC
:104F500070470000440000200448002141600161C6
:104F6000C16081600160416170470000680C0020F1
:104F7000C0F30410072800D907207047A0F57F412F
:104F8000FF3905D0002804D0702803D208490AE070
:104F90001F2070470749703880B2096829B1064A56
:104FA0005268904201D2085C7047002070470000B0
:104FB00014E10290E00100206C0000200448182158
:104FC00010B5FFF74DFD03490120087010BD00002A
:104FD000CC0D0020740000202DE9F0410500904622
:104FE0000C4615D0FBF72DFA0A4F064621462846F7
:104FF000BA689047BA680446281941469047014666
:10500000701A03E06218AA5C2A55641CA042F9D207
:10501000BDE8F081F40100202DE9F041094D9046F2
:105020000E461C46074619466A689047306020B114
:10503000206800216A6838449047C8F80000BDE83D
:10504000F0810000F40100202DE9F04F87B01F46E9
:1050500093468A4604464FF00001DDE9105805B139
:10506000298064B1207800280AD0BAF1000F06D058
:1050700018F0060F4FF0000615D0002004E00020C5
:1050800007B0BDE8F08F401C215C0A2904D00D292F
:1050900002D00029F7D100E0401C002DF0D04FF0E5
:1050A000FF312980ECE75FEA887001D541F6FF7790
:1050B000894608468DF81410049126E00498CDF82E
:1050C000189060B3002351460DF1180C05AACDE9E4
:1050D0000223CDE9008C20443B465A461EF0B0FA2C
:1050E0000699A7EB0102314417B20EB288B10499B8
:1050F0000144049120780A280BD00D2809D0605C67
:105100000A280ED00D280CD00846205C08B1002FCC
:10511000D4DC049840B105B12E800498B0E7012397
:10512000D1E7481C0490F4E7064A04A920465268D7
:105130009047002D0146F0D00022504613F02BFF7F
:1051400006B2E9E7F40100202DE9F0410700164618
:1051500088461ED0002E1CD0FBF773F9054630465A
:10516000FBF76FF9040014D00B4A2544414638463A
:1051700092689047011903E02A1BBA5C7A556D1EAC
:10518000A942F9D9384431462246BDE8F041FBF73F
:1051900032B9BDE8F0810000F40100200278232933
:1051A0004FF0000302D0012A0ED012E032B1012AE2
:1051B0004FF0000104D0022A04D00AE0012106E0E9
:1051C000017006E00123FBE7202901D102210170D3
:1051D0000123184670472DE9F0410E468046002114
:1051E0003346024608461EF077FC00270446401C62
:1051F00016F080FE050008D0611C334642462F554C
:105200001EF06AFC2846BDE8F0810020FBE70000A4
:105210002DE9F0471E4614460D468246DDF82090E3
:1052200015E000BF4FEA54084A46504608FB0657AF
:1052300039469047002808DD44F30000C0EB5404D1
:1052400007EB0605A4F1010401E005DA4446002C51
:10525000E8D12046BDE8F0873846FBE72DE9FC5F42
:105260009B4681460CAB8A46DDE91160DDE90F57AC
:1052700093E812105FEA80784FF030031AD45EB1E1
:105280005FEAC07808D000F00C0858EA0C0803D098
:10529000761E01E00B55641CBC4204D2202CF9D3CD
:1052A00001E00B55641C5FEAC07803D0B44201D220
:1052B000202CF6D35FEAC06825D55FEA40580AD4AF
:1052C0004CB1BC4201D0B44205D1641E03D0102DB4
:1052D00003D1641E04E0102D02D0022D0AD00EE08E
:1052E000850603D4202C1ED2782506E0202C1AD265
:1052F000582502E0202C16D262250D55641C202C66
:1053000011D20B55641C202C0DD2BCF1000F01D022
:105310002D2306E0430701D52B2302E0030702D526
:1053200020230B55641CC846CDE900BA15468B46B0
:105330008146AA46800714D1274607E02A46C4467C
:105340006D1C2020DDE90031E0477F1CB742F5D31A
:1053500007E02A466D1C641EDDE900311BF80400DD
:10536000C047002CF5D15FEA897006D409E02A46CF
:105370006D1C2020DDE90031C047A5EB0A00B042DA
:10538000F5D32846BDE8FC9F2DE9F04F8FB0994634
:105390008B46924686464FF00002DDE91818DDE99B
:1053A0001C63DDE91A4709B923F0100307AD58055E
:1053B00000D5C9B1B1FBF4F004FB1010C0B20A284B
:1053C00001D2303009E05FEA836C02D54FF0410C26
:1053D00001E04FF0610C60440A38B1FBF4F1A854CD
:1053E000521C09B1202AE5D3CDF808805946CDE9F1
:1053F0000563CDE90052CDE903474B46524670465E
:10540000FFF72CFF0FB0BDE8F08F2DE9FF4F8FB0F5
:105410001CACDDE9239594E8030820AC94E8C004B3
:10542000002450EA010201D125F010050DF11C08FD
:105430006A0502D550EA010217D032463B46FAF718
:10544000A9FFD2B20A2A01D2303206E0AB0601D55A
:10545000412300E061231A440A3A08F80420641C3E
:1054600050EA010201D0202CE7D3CDE900840FAF30
:10547000CDF808B0CDE90595CDE9036A97E80F00AE
:10548000FFF7ECFE13B0BDE8F08F9A4200D28854CB
:10549000704770472DE9FF4F89B0054692464FF09F
:1054A00000040A98002800D1F74D6EE1252804D0A9
:1054B0000A992246641C53462DE2491C4FF000080D
:1054C00008460C9101782B2919D004DC202919D029
:1054D000232904D119E02D290ED0302909D0002626
:1054E000C8B2FEF755FCB0B10CA8FEF73AFC064670
:1054F0001FE048F001010AE048F0020107E048F02F
:10550000040104E048F0080101E048F01001401CEB
:1055100088460C90D6E70C9908782A2809D1169865
:1055200040C81690002E02DA764248F00208491C64
:105530000C910C984FF0000B01782E2919D1401CCA
:105540000C9048F480680078FEF722FC20B10CA88B
:10555000FEF707FC83460CE00C9801782A2908D155
:10556000169904C91691002A00DC0022401C9346BB
:105570000C900C9801786C290AD004DC68290FD0B3
:105580006A2919D128E0742929D07A2914D126E072
:10559000401C0C9048F4807801786C291CD00BE0FA
:1055A000401C0C9048F080080178682904D148F02C
:1055B0004001401C88460C9002460078692822D0A1
:1055C00015DC62281FD00DDC252872D050281AD097
:1055D00058287FF46DAF16E048F40071E9E748F40D
:1055E0008071E6E763287DD06428F2D10BE0732850
:1055F00079D004DC6F2806D07028EAD103E0752842
:1056000001D07828E5D178280DD058280BD0702803
:105610000BD0502809D06F2816D0622816D00A2146
:1056200028F0100816E0102107E05378102148F404
:105630008878562B04D1521C0C921078582807D029
:105640001078502804D005E0082108E0022106E087
:1056500048F020081078692803D0642801D028F089
:105660000C085FEA485001D528F001081078692835
:1056700020D064281ED056287ED05FEA88507CD582
:10568000169804ABC01D002283E8060820F007002E
:105690000292CDE9076800F10801534602681691AD
:1056A0004068CDE9002022460A992846FFF7ADFE62
:1056B00067E02BE15FEA885028D516984FF0000C80
:1056C000C01D20F0070202F108001690D2E9000286
:1056D000CDE9041CCDF818B0002ACDE9076803DA3B
:1056E000012602E09AE0C4E0002602960023194653
:1056F0001B1A914101DA114603E00021404261EB9F
:10570000020153462246CDE90001CDE75FEAC850C9
:105710000FD5169A01CA1692CDE9021BC10F0028B7
:10572000CDE9046800DC40425346CDE90001224641
:1057300020E05FEA486005D5169810F8042B169013
:10574000D0B20BE05FEA086005D5169830F8042B5C
:10575000169010B202E0169A01CA1692CDE9021B09
:10576000C70F0028CDE9046800DC40425346CDE96C
:1057700000072246284601E010E01FE00A99FFF7E3
:1057800003FE04460C98401C0C900C9908780028E5
:105790007FF48CAE544576D22246C0E01699AAEB2F
:1057A000040201C9169141680968009103680A98CA
:1057B00001192846FFF76EFE0444E3E75FEAC8508C
:1057C0000DD5CDE9021B16980022CDE90468011D14
:1057D000169153460068CDE900022246CAE75FEA07
:1057E000486005D5169810F8042B1690D0B20BE03F
:1057F0005FEA086005D5169830F8042B169090B231
:1058000002E0169A01CA16920027CDE9021B534600
:105810002246CDE90007CDE90468ABE75FEA88706E
:105820004FF0010706D509E022460A99641C534649
:105830002020A847B74207F10107F5D31698224662
:10584000641C534610F8041B169001F0FF0C0A99D3
:105850006046A8475FEA887006D493E722460A9913
:10586000641C53462020A847B74207F10107F5D32F
:1058700088E7169850F8049B1690BBF100004B4641
:1058800004D0024604E048E0935400904FF0FF3209
:10589000484600E0401C017811B1521E511CF9D15C
:1058A000C71A5FEA485003D55F45584600D30746FC
:1058B0005FEA887006D511E022460A99641C5346B7
:1058C0002020A847B74207F10107F5D306E009F108
:1058D00001092246641C0A995346A84799F800001A
:1058E00028B15FEA4851F2D5BBF1010BEFD25FEA74
:1058F000887006D446E722460A99641C5346202045
:10590000A847B74207F10107F5D33BE722460A99BA
:10591000641C53462520A84734E7AAF101020A99DE
:1059200000205346A8470DB02046BDE8F08F4FF049
:10593000000210B568B14B1E194200D0FEE70844C2
:10594000401E9843B0F5800F03D20C2800D80C20DD
:105950000246104610BD4A1E0844A0F10100114243
:1059600020EA020000D0FEE7704700002DE9F04178
:105970000F4604460121418600252E460BE01949B9
:10598000FAF766FD10B16D1CADB202E0608E401CEE
:105990006086761CB6B257F8260010B1017800294F
:1059A000EDD1208EA8421AD0A06A002610B116F0C0
:1059B0002DFBA662E06A10B116F028FBE662E80053
:1059C00016F098FAA062680016F094FAA16AE062F4
:1059D00001B100B900256900FAF728FD2586BDE868
:1059E000F08100006C4101902DE9F84F8146407A2A
:1059F0000F4600F00700022805D010469742804667
:105A000003DD3E4602E00846F8E716462A4C2B4BDB
:105A1000032000EB460222F00305D4E901201968B7
:105A20001035411A05EB010C944503D2416821F071
:105A3000004123E0954219D89A464FF0FF3B4819A0
:105A40006168884210D91E4800226946CDF800B02E
:105A50000CF0B8FD1B48002269460CF0B3FDA168AC
:105A6000DAF80000091AEAE7A068DFE7284616F02E
:105A700041FA002816D0416841F00041416088EAAF
:105A8000670289EA02014268A0F80E8002F04042F3
:105A90000160521C32F080414160868104D500F1E2
:105AA00010018160BDE8F88FA16801F110028260E9
:105AB0002944A160F6E7000088000020DC010020F6
:105AC00021F000902526019070B586B0444C00224C
:105AD00014238DF808204FF4B4768DF80C208DF83F
